:03000000021B746C
:0C1B7400787FE4F6D8FD758121021BBBD0
:092174004144433D25750D0A00AC
:10205000120F391220EAE4FF12210F900004EEF073
:10206000A3EFF07BFF7A2179747F01121C817FF44A
:072070007E0112000380DF76
:07217D0044013200000000E4
:10000300EF4E601A90012AE0FCA3E0FDED1D7001A4
:0E0013001C144C70F7EF1F70011E144E70E6A7
:0100210022BC
:08212A00900072E0FEA3E0FF4B
:0A213200EF1FAC0670011E4C70F6A2
:01213C002280
:10209E0090012AE0FCA3E0FD120775E47B83FAF9B8
:1020AE00F81205B690012E1206F290012EE0C3131F
:0620BE00FEA3E013FF2267
:1020230090012DE06599600AE599F0E490012CF0A8
:10203300800690012CE004F090012CE0C394E97435
:0D2043008094804007000075C760000022F7
:0B1CE7009000AAEBF0A3EAF0A3E9F0E4
:101CF2009001157401F0A37400F0A374ADF090008C
:101D0200AAE0F9A3E0FAA3E0900074C9F0A3EAF014
:101D1200A3E9F0900115E0F9A3E0FAA3E0900077BF
:101D2200C9F0A3EAF0A3E9F07B017A0079D5121E8B
:101D32004A900115E4F0A3F0A3F07B017A0079D573
:051D42007F01021FEC0F
:101C0000EF14600D14602614603C146054240470BA
:101C10006F90FE027480F090FE02E030E0F990FEDA
:101C200000E054FCF090FE03E4F0A3F02290FE04E8
:101C30007480F090FE04E030E0F990FE00E0440390
:101C4000F090FE03803490FE037480F090FE03E079
:101C500030E0F990FE00E054FC4401F090FE048076
:101C60001990FE0374C0F090FE03E030E0F990FE9E
:101C700000E054FC4402F090FE04E4F090FE02F018
:011C80002241
:0C215D00EF90FE01700304F022EFF0226E
:100F390043BA80AF9FE4FCFDFEC004A905AA06AB35
:100F49000778FBE6FFD000C3EF9BFFEE9AFEED9911
:100F5900FDEC98FCE47BF07AD2F9F81205B6C3E40B
:100F69009FFF74369EFE746E9DFD74019CFC90007B
:100F7900001206F2900000E0FCA3E0FDA3E0FEA34E
:100F8900E0FFC00790FE01E0FBE4FAF9F8D0071290
:100F990006419000001206F27FC07EF67D577C0064
:100FA900900000E0F8A3E0F9A3E0FAA3E0FBC31284
:100FB90006E1500D9001321206FE00546000021144
:100FC900687FC07E267D827C00900000E0F8A3E067
:100FD900F9A3E0FAA3E0FBC31206E1500D90013238
:100FE9001206FE005B8D800211687F807EED7DAF69
:100FF9007C00900000E0F8A3E0F9A3E0FAA3E0FB8D
:10100900C31206E1500D9001321206FE00A8C0007D
:101019000211687F807E2D7DE87C00900000E0F859
:10102900A3E0F9A3E0FAA3E0FBC31206E1500D9097
:1010390001321206FE00B71B000211687F807E365E
:101049007D257C01900000E0F8A3E0F9A3E0FAA374
:10105900E0FBC31206E1500D9001321206FE0119A0
:1010690040000211687F807E567D417C019000001E
:10107900E0F8A3E0F9A3E0FAA3E0FBC31206E1500C
:101089000D9001321206FE01312D000211687F0018
:101099007EDB7D5F7C01900000E0F8A3E0F9A3E02E
:1010A900FAA3E0FBC31206E1500D9001321206FECD
:1010B900015180000211687F607E197D857C019055
:1010C9000000E0F8A3E0F9A3E0FAA3E0FBC31206ED
:1010D900E1500D9001321206FE016E3600021168D0
:1010E9007F207EE07DB27C01900000E0F8A3E0F96A
:1010F900A3E0FAA3E0FBC31206E1500C90013212FF
:1011090006FE019BFCC080577FE07EA67DE07C0146
:10111900900000E0F8A3E0F9A3E0FAA3E0FBC31212
:1011290006E1500C9001321206FE01C9C380802FDE
:101139007F607E2B7DFF7C01900000E0F8A3E0F941
:10114900A3E0FAA3E0FBC31206E1900132500912B1
:1011590006FE01FA400080071206FE02160EC0E4E0
:101169007B107A27F9F8900132E0FCA3E0FDA3E0B7
:10117900FEA3E0FF12064190012AEEF0A3EFF0E48E
:1011890090012DF090012CF0C209121E9400D2AFEB
:011199000055
:01119A002232
:0B182E00900002EBF0A3EAF0A3E9F049
:101839007F647E0012209E900072EEF0A3EFF0907C
:10184900006F7401F0A37400F0A37405F090000216
:10185900E0F9A3E0FAA3E0900074C9F0A3EAF0A3C9
:10186900E9F090006FE0F9A3E0FAA3E0900077C9EE
:10187900F0A3EAF0A3E9F07B017A00792F121E4A5E
:1018890090002DEEF0A3EFF090006FE4F0A3F0A329
:10189900F07FF47E01120003E4FBFAD390002EE0FE
:1018A9009B90002DE09A40E9D2B1C2B112212A746D
:1018B9002F2BF58274003AF583E0F9E4FDEDC3942A
:1018C90008748094805014E930E004D2B18002C2D7
:1018D900B1E9C313F912212A0D80E2D2B112212AEA
:0A18E90012212A0BBB00010A80B196
:0B199B00900136EBF0A3EAF0A3E9F0A6
:1019A600E4FFFE90013CF0A3F0A3F0A3F090013613
:1019B600E0FBA3E0FAA3E0F91204FE607790013F92
:1019C600E004F0700690013EE004F0900139E0FB7F
:1019D600A3E0FAA3E0F98F828E83120517FD90012A
:1019E60036E0FBA3E0FAA3E0F91204FEB505070F03
:1019F600BF00010E8012E4FEFF90013EE0FDA3E071
:101A060090013CCDF0A3EDF0900137E475F00112A2
:101A1600058A900139E0FBA3E0FAA3E0F98F828EF4
:101A260083120517FD3395E04D708290013CE0FE70
:081A3600A3E0FF227EFF7FFF09
:011A3E002285
:10167700E4900154F0900156F0900155F090015517
:10168700E0C3940A748094804003021759E07E00F7
:101697002DF582EE3CF583120517FF3395E0FEC367
:1016A700EF9430EE648094804052D3EF9437EE6429
:1016B7008094805047900156E004F0E0640170196F
:1016C700900155E07E002DF582EE3CF5831205175B
:1016D70024D0C454F0900154F0900156E064027095
:1016E7001B900155E07E002DF582EE3CF583120537
:1016F7001724D0FF900154E04FFFF022900155E0EE
:101707007E002DF582EE3CF583120517FF3395E039
:10171700FEC3EF9438EE648094804011D3EF943980
:10172700EE648094805006900156E004F0900155D5
:10173700E07E002DF582EE3CF583120517FF642C41
:101747006010EF3395E04F6009900155E004F00217
:071757001684900154E0FF2D
:01175E002268
:08175F00900140ECF0A3EDF055
:10176700E4A3F0A3F0A3F0900144E0FFC394147442
:101777008094804003021825900141E02FFF9001DB
:1017870040E034008F82F583120517FF3395E0FEA2
:10179700C3EF9430EE648094804051D3EF9439EED8
:1017A700648094805046900142E0FEA3E0FF7C00F5
:1017B7007D0A120578900142EEF0A3EFF0A3E0FF57
:1017C700900141E02FFF900140E034008F82F583C4
:1017D700120517FF3395E0FEEF24D0FFEE34FFFE2E
:1017E700900143E02FF0900142E03EF0900144E089
:1017F700FF900141E02FFF900140E034008F82F518
:1018070083120517FF642C6015EF642E6010EF3309
:1018170095E04F6009900144E004F002176E9001D3
:0618270042E0FEA3E0FF19
:01182D002298
:10133D00900118EBF0A3EAF0A3E9F0A3ECF0A3ED14
:01134D00F0AF
:10134E00E4900124F0A3F0A3F0A3F0A3F0A3F09097
:10135E000122F0A3F090011BE0FEA3E0FF9001221A
:10136E00E0FCA3E0FDC39FEC9E400302140D900130
:10137E001DE0FBA3E0FAA3E0F9900124E0FEA3E058
:10138E00F5828E83120517FF900118E0FBA3E0FA99
:10139E00A3E0F98D828C83120517B50733900125D2
:1013AE00E004F07006900124E004F0900120E0FECD
:1013BE00A3E0FF900124E0B50631A3E0B5072C9021
:1013CE000122E0FFA3E0900128CFF0A3EFF0802FE1
:1013DE00E4900124F0A3F0900123E02401FE90019B
:1013EE0022E03400900126F0A3CEF0900123E00419
:1013FE00F06003021363900122E004F00213639085
:10140E000128E0FEA3E0FF900126E0FCA3E0FDD35F
:10141E009FEC9E5044900122ECF0A3EDF090012839
:10142E00E0FEA3E0FF900122E0FCA3E0FDC39FECF1
:10143E009E5023900118E0FBA3E0FAA3E0F98D8201
:10144E008C83E4120556900123E004F070CF9001D6
:0B145E0022E004F080C77F01227F0025
:011469002260
:10119B006770696F5F757070756C6C283C44253097
:1011AB0032583E2C2564293BB2BBB4E6D4DAB8C323
:1011BB00494F0D0A006770696F5F757070756C6CC5
:1011CB00283C44253032583E2C31293BB2BBB4E687
:1011DB00D4DAB8C3494F0D0A006770696F5F757039
:1011EB0070756C6C283C44253032583E2C30293BB2
:1011FB00B2BBB4E6D4DAB8C3494F0D0A00677069C5
:10120B006F5F6D6F6465283C44253032583E2C254A
:10121B0064293BB2BBB4E6D4DAB8C3494F0D0A001C
:10122B006770696F5F6D6F64652844253032582C89
:10123B003C25643E293BB2BBB4E6D4DAB8C3C4A3A5
:10124B00CABD0D0A006770696F5F77726974652894
:10125B003C25643E2C2564293BB2BBB4E6D4DAB8FA
:10126B00C350BFDA0D0A006770696F5F7265616406
:10127B00283C5025643E293BB2BBB4E6D4DAB8C354
:10128B0050BFDA0D0A006770696F5F6F7574283C89
:10129B0044253032583E2C2564293BB2BBB4E6D4EE
:1012AB00DAB8C3494F0D0A006770696F5F6F7574C9
:1012BB00283C44253032583E2C31293BB2BBB4E696
:1012CB00D4DAB8C3494F0D0A006770696F5F6F7549
:1012DB0074283C44253032583E2C30293BB2BBB4E9
:1012EB00E6D4DAB8C3494F0D0A006770696F5F69BE
:1012FB006E283C44253032583E293BB2BBB4E6D471
:10130B00DAB8C3494F0D0A006770696F5F746F6776
:10131B00676C65283C44253032583E293BB2BBB440
:10132B00E6D4DAB8C3494F0D0A00010204081020B5
:02133B004080F0
:05146A00900157EFF0B6
:10146F0064887003021571E0FF54F0F50DEF540F0F
:10147F00FF90133593F50ED3EF940774809480404B
:10148F00217BFF7A11799B900157E0FF900005E4D3
:10149F00F0A3EFF0A20AE4FF33A3CFF0A3EFF01213
:1014AF00182E300A55E50D24F0602124F060222417
:1014BF00F0602324F0602424F0602524F0602624BB
:1014CF00F060272470702B90FE10802190FE118009
:1014DF001C90FE12801790FE13801290FE14800D48
:1014EF0090FE15800890FE16800390FE17E0450EC3
:1014FF00F0227BFF7A1179C08058E50D24F060212E
:10150F0024F0602224F0602324F0602424F060256E
:10151F0024F0602624F060272470703090FE108035
:10152F002190FE11801C90FE12801790FE138012E6
:10153F0090FE14800D90FE15800890FE168003908B
:10154F00FE17E0FFE50EF4FEEF5EF0227BFF7A114F
:10155F0079E4900157E0FF900005E4F0A3EFF0125B
:02156F00182E34
:011571002257
:0A0C2500900001EDF0900000EFF0E8
:100C2F0064887003020F38E0FF54F0F50DEF540F96
:100C3F00FF90133593F50ED3EF9407748094804093
:100C4F00237BFF7A127908900000E0FF900005E403
:100C5F00F0A3EFF0900001E0FF900007E4F0A3EFA6
:100C6F00F012182EE50D24F0602124F0602224F0FC
:100C7F00602324F0602424F0602524F0602624F003
:100C8F00602724707028E4F50D8046750D018041B2
:100C9F00750D02803C750D038037750D048032751C
:100CAF000D05802D750D068028750D0780237BFFA0
:100CBF007A127908900000E0FF900005E4F0A3EFAE
:100CCF00F0900001E0FF900007E4F0A3EFF012189E
:100CDF002E900001E0FFD3940374809480401C7B1E
:100CEF00FF7A12792B900000E0FD900005E4F0A34D
:100CFF00EDF0A3E4F0A3EFF012182EE50D70409085
:100D0F000001E0FF7E007007E50EF452935294EF5E
:100D1F0064014E7009E50E4293E50EF45294900073
:100D2F0001E064027008E50E4293E50E42949000D4
:100D3F0001E064037009E50EF45293E50E4294E569
:100D4F000D64017040900001E0FF7E007007E50E1A
:100D5F00F452915292EF64014E7009E50E4291E503
:100D6F000EF45292900001E064027008E50E429179
:100D7F00E50E4292900001E064037009E50EF45213
:100D8F0091E50E4292E50D64027040900001E0FF84
:100D9F007E007007E50EF452955296EF64014E7087
:100DAF0009E50E4295E50EF45296900001E06402BB
:100DBF007008E50E4295E50E4296900001E064033F
:100DCF007009E50EF45295E50E4296E50D64037039
:100DDF0040900001E0FF7E007007E50EF452B15223
:100DEF00B2EF64014E7009E50E42B1E50EF452B256
:100DFF00900001E064027008E50E42B1E50E42B2C8
:100E0F00900001E064037009E50EF452B1E50E4263
:100E1F00B2E50D64047040900001E0FF7E007007A2
:100E2F00E50EF452B352B4EF64014E7009E50E4271
:100E3F00B3E50EF452B4900001E064027008E50EC1
:100E4F0042B3E50E42B4900001E064037009E50E71
:100E5F00F452B3E50E42B4E50D6405704090000105
:100E6F00E0FF7E007007E50EF452C952CAEF64012D
:100E7F004E7009E50E42C9E50EF452CA900001E02A
:100E8F0064027008E50E42C9E50E42CA900001E007
:100E9F0064037009E50EF452C9E50E42CAE50D640C
:100EAF00067040900001E0FF7E007007E50EF452DF
:100EBF00CB52CCEF64014E7009E50E42CBE50EF438
:100ECF0052CC900001E064027008E50E42CBE50EB3
:100EDF0042CC900001E064037009E50EF452CBE5BB
:100EEF000E42CCE50D64077040900001E0FF7E00DC
:100EFF007007E50EF452E152E2EF64014E7009E51E
:100F0F000E42E1E50EF452E2900001E06402700837
:100F1F00E50E42E1E50E42E2900001E06403700944
:090F2F00E50EF452E1E50E42E288
:010F38002296
:101D4700EFB40900503A901D54F8282873021D6F0C
:101D5700021D72021D75021D78021D7B021D7E0287
:101D67001D81021D84021DA08D80228D90228DA0D1
:101D7700228DB0228DC0228DC8228DE8228DF822B7
:101D87007BFF7A127950900005E4F0A3EFF0AF05DE
:0A1D9700A3E4F0A3EFF012182E22CF
:101DA100EFB40900503D901DAEF8282873021DC9FB
:101DB100021DCC021DCF021DD2021DD5021DD8026B
:101DC1001DDB021DDE021DE1AF8022AF9022AFA01C
:101DD10022AFB022AFC022AFC822AFE822AFF822B3
:101DE1007FFF227BFF7A127972900005E4F0A3EF66
:071DF100F012182E7FFF2203
:05157200900158EFF0AC
:1015770064887003021676E0FF54F0F50DEF540F00
:10158700FF90133593F50ED3EF9407748094804042
:10159700217BFF7A127991900158E0FF900005E4D2
:1015A700F0A3EFF0A20BE4FF33A3CFF0A3EFF01209
:1015B700182E300B52E50D24F0602124F060222410
:1015C700F0602324F0602424F0602524F0602624B2
:1015D700F0602724707028E50E428022E50E4290C5
:1015E70022E50E42A022E50E42B022E50E42C022BD
:1015F700E50E42C822E50E42E822E50E42F8227BBC
:10160700FF7A1279B38058E50D24F0602224F06048
:101617002424F0602624F0602824F0602A24F06057
:101627002C24F0602E24707030E50EF4528022E5F1
:101637000EF4529022E50EF452A022E50EF452B0B9
:1016470022E50EF452C022E50EF452C822E50EF44C
:1016570052E822E50EF452F8227BFF7A1279D490F1
:0F1667000158E0FF900005E4F0A3EFF012182EF9
:011676002251
:0518F300900159EFF027
:1018F80064887002C322900159E0FF54F0F50DEF9F
:10190800540FFF90133593F50ED3EF94077480941A
:101918008040167BFF7A1279F5900159E0FF90001C
:1019280005E4F0A3EFF012182EE50D24F060212451
:10193800F0602224F0602324F0602424F060252441
:10194800F0602624F060272470702885800F803985
:1019580085900F803485A00F802F85B00F802A8551
:10196800C00F802585C80F802085E80F801B85F86B
:101978000F80167BFF7A1279F5900159E0FF9000ED
:1019880005E4F0A3EFF012182EE50F550E6002D310
:0219980022C368
:01199A00222A
:051A3F0090015AEFF0D8
:101A440064887003021ADBE0FF54F0F50DEF540FC5
:101A5400FF90133593F50ED3EF9407748094804070
:101A6400167BFF7A13791390015AE0FF900005E486
:101A7400F0A3EFF012182EE50D24F0602124F0609D
:101A84002224F0602324F0602424F0602524F060F4
:101A94002624F0602724707028E50E628022E50E6B
:101AA400629022E50E62A022E50E62B022E50E628B
:101AB400C022E50E62C822E50E62E822E50E62F855
:101AC400227BFF7A13791390015AE0FF900005E41A
:071AD400F0A3EFF012182E41
:011ADB0022E8
:101F2400EFB40800503E901F31F8282873021F496F
:101F3400021F4D021F51021F55021F59021F5D024D
:101F44001F61021F65ED628022ED629022ED62A0A6
:101F540022ED62B022ED62C022ED62C822ED62E899
:051F640022ED62F822ED
:101ADC00300C48EFB408004003021B73901AEFF867
:101AEC00282873021B07021B0B021B0F021B13027D
:101AFC001B17021B1B021B1F021B23ED428022ED36
:101B0C00429022ED42A022ED42B022ED42C022EDE5
:101B1C0042C822ED42E822ED42F822EFB408005010
:101B2C0046901B34F8282873021B4C021B51021BD5
:101B3C0056021B5B021B60021B65021B6A021B6FB9
:101B4C00EDF4528022EDF4529022EDF452A022EDED
:101B5C00F452B022EDF452C022EDF452C822EDF44E
:081B6C0052E822EDF452F822C8
:101DF800EFB409005044901E05F8282873021E20ED
:101E0800021E24021E28021E2C021E30021E34024C
:101E18001E38021E3C021E40AE80801EAE90801A04
:101E2800AEA08016AEB08012AEC0800EAEC8800ADA
:101E3800AEE88006AEF88002D322EE5D6002D322BF
:011E4800C3D6
:011E49002276
:1020EA0075DE2578EFE6FC08E6FDE41201D1E4FB93
:1020FA00FA797A784412012F90014A1206F27D0188
:05210A007F10020C250E
:10210F00EF540F44C0F5BC0000E5BC542060FA53F7
:0B211F00BCDFAFBDEFFEADBEEDFF2248
:1020C40012210FAD07AC06E41201D1900146E0F8ED
:1020D400A3E0F9A3E0FAA3E0FB120026E4FBFA79FB
:0620E40080784502012F87
:03218500D2AD22B6
:03218800C2AD22C3
:101F69007F0F12210FEF4E7005FFFEFDFC22AD071A
:101F7900AC06E41201D1C004C005C006C007E4FFE5
:101F8900FE7D807C4590014AE0F8A3E0F9A3E0FAE0
:101F9900A3E0FB120026D003D002D001D000120129
:011FA9002F08
:011FAA002214
:101E940075985053873F538EDE53A23FE47B04FA78
:101EA400F9F8900132E0FCA3E0FDA3E0FEA3E0FF1B
:101EB4001206417B007AC279017800120641C3E41C
:101EC4009FFFE49E438E4053890F8F8BF58DC2ABE9
:081ED400C28FD28EC20ED2AC07
:011EDC0022E3
:0B216900EF14700653A23FED42A222CB
:051FAB0090014FEFF072
:101FB000E47B04FAF9F8900132E0FCA3E0FDA3E031
:101FC000FEA3E0FF120641900150E0F8A3E0F9A360
:101FD000E0FAA3E0FB120641C3E49FFFE49EFE90FB
:0B1FE000014FE01470058F8BEEF58DB3
:011FEB0022D3
:0E214F00EF147009AF058F99D20E200EFD22FD
:10213D00EF14700DA20D929BAF058F99D20E200E4C
:02214D00FD2271
:101FEC0090006FEBF0A3EAF0A3E9F0AE0790006F5E
:101FFC00E0FBA3E0FAA3E0F91204FE6019AF06902F
:10200C00006FA3E475F0011205A0A9F0FA1204FE0A
:07201C00FD12214F80D722C5
:0E1C8100900000EFF0A3EBF0A3EAF0A3E9F06F
:101C8F0090006C7401F0A37400F0A37404F0900042
:101C9F0001E0F9A3E0FAA3E0900074C9F0A3EAF021
:101CAF00A3E9F090006CE0F9A3E0FAA3E0900077CD
:101CBF00C9F0A3EAF0A3E9F07B017A00792C121E98
:101CCF004A90006CE4F0A3F0A3F0900000E0FF7BDB
:081CDF00017A00792C021FECD0
:03002300021EDDDD
:101EDD00C0E0C0F0C083C082C0D075D000C000C0CB
:101EED0001C002C003C004C005C006C0073098057C
:101EFD00C298122023309904C299C20ED007D00681
:101F0D00D005D004D003D002D001D000D0D0D082E3
:071F1D00D083D0F0D0E032C8
:10002600EC4D6011E8497017ED33EC3304600DE4D4
:10003600FCFFFEFD22E933E8330470F802023F12AA
:10004600020A58046009E4CC2481500628500902AB
:100056000249284003020246C0E0EB4A7044B980D8
:1000660006D0E0FB020235EF4E701CBD8008EBFFA8
:10007600EAFEE9FD80EBE98DF0A4FEE5F002010F52
:10008600E9CDF9EAFEEBFFEF89F0A4FCE5F0CE89B5
:10009600F0A42EFFE435F0CD89F0A42DFEE435F072
:1000A6008067EF4E7005BD80D780C3EF8BF0A4ACA0
:1000B600F0EE8BF0A42CFCE435F0F8EF8AF0A42CDB
:1000C600E5F038FCE433CB8DF0A42CFCE5F03BF8EE
:1000D600EE8AF0A42CFCE5F038F8E433CF89F0A4DE
:1000E6002CFCE5F038CF3400CE89F0A42FFFE5F0E4
:1000F6003EFEE433C98DF0A42EFEE5F039CD8AF03C
:10010600A42FFFE5F03EFEE43DFD33D0E0FB5007B3
:100116000BBB000F020249EC2CFCEF33FFEE33FE63
:06012600ED33FD02022191
:10012C00020249EC5D046005E85904700302023FC9
:10013C0012020A580460F6EC4860F2EC7004FDFE02
:10014C00FF22C860DB2481C85009C39860025006A6
:10015C000202469850CAF582E9294B4A7005AB82D7
:10016C0002023575F0007C1A7880C3EF9BEE9AED95
:10017C0099400DC3EF9BFFEE9AFEED99FDE842F01E
:10018C00DC23ACF0D0E0FFD0E0FED0E0FDAB822071
:10019C00E7101BEB60BAEC2CFCEF33FFEE33FEEDFB
:1001AC0033FD020221E803F830E705C0F075F000DA
:1001BC00EF2FFFEE33FEED33FD40B830E7C280AADF
:1001CC0075F020800E75F010800575F0087D007EAE
:1001DC00007F003392D530D5031206D3EC33401098
:1001EC00EF33FFEE33FEED33FDEC33FCD5F0ED22B7
:0E01FC00E5F0247EA2D513CC92E7CDCEFF22F3
:101E4A00900074E0FFA3E0FEA3E0CF90007DF0A332
:101E5A00EEF0A3EFF0900077E0CBF0A3E0CAF0A396
:101E6A00E0C9F07F22900080AD82AC831204FE8D1F
:101E7A00828C83F0A309E970010ADFEC900077E015
:0A1E8A00FBA3E0FAA3E0F902080749
:10020A00E9D2E7C933E833F892D5EDD2E7CD33EC3A
:07021A0033FC5002B2D522B3
:10022100EC30E7100FBF000C0EBE00080DBD00043E
:100231000BEB6014A2D5EB13FCED92E7FD2274FFEA
:10024100FCFDFEFF22E480F8A2D574FF13FC7D8043
:03025100E480EF57
:1007A200E508247DF582E43400F583E00508229013
:1007B200007A30070390007DE475F00112072F02E2
:1007C20004FE2000E97F2ED2008018EF540F2490FF
:1007D200D43440D4FF30040BEF24BFB41A005003CA
:1007E2002461FFE50960021509050CE50C7002059C
:1007F2000B30070E90007AE475F00112072FEF021A
:1008020005440220777403D2078003E4C207F50887
:1008120090007A120746E4F509F50BF50CE509603C
:10082200077F201207E580F5750AFFC201C200C2E8
:1008320002C203C205C206C2081207B1FF700D3020
:1008420007057F001207F6AF0CAE0B22B4255FC27C
:10085200D5C2041207B1FF24D0B40A00501A75F0B1
:100862000A780930D50508B6FF0106C6A426F62087
:10087200D5047002D20380D924CFB41A00EF5004F9
:10088200C2E5D204020AE8D20180C6D20080C0D2F8
:100892000280BCD2D580BAD20580B47F201207E58F
:1008A2002002077401B5090040F11207A2FF1207E6
:1008B200E502081FD208D20680951207A2FB120792
:1008C200A2FA1207A2F94A4B700679E67A0B7BFF6D
:1008D20020022EE509602A7E008E827583001205B1
:1008E2001760060EEE650A70F0C2D5EBC0E0EAC0F2
:1008F200E0E9C0E0EE120B49D0E0F9D0E0FAD0E036
:10090200FB1204FEFF60AAEBC0E0EAC0E0E9C0E02F
:100912001207E5D0E02401F9D0E03400FAD0E0FB80
:10092200E50A0460DCD50AD98087D20280A2120BC4
:100932002B60F7E50A700104120254A90A600DE562
:100942000A600914F50A120BD3EF60F3EA30E702EA
:10095200F404C3995079EAF4250A0430E701E40467
:10096200F50A800D120B2B60C1EA050A250A120254
:1009720054EA9000A9F030E701E4250A04D50A04FC
:1009820020050114120B49E4C0E0120BD39000A918
:10099200E0601320E70714F01207CD802204F0D0A4
:1009A200E014C0E07F001207CDE50A60071207C419
:1009B200150A800B3005031207C4D0E002081FD0CD
:1009C200E00480C4120B2B609EE50A0412025490CC
:1009D20000A9EAF0E50A2005026001042404120BD2
:0109E20049CB
:1009E30074FF04C0E0120BD31207CDE50A20050201
:1009F30060031207C4D0E0B50AE87F451207D79019
:100A030000A9E07F2B30E7047F2DF404C0E0120738
:100A1300E5D0E075F00A84C0F01207CED0E01207EB
:100A2300CE02081F791080027908C206C208800826
:100A3300D2D5790A8004790AC2D5E50A047002F591
:100A43000AE4FAFDFEFF1207A2FC7B082001131241
:100A530007A2FD7B1030000A1207A2FE1207A2FFB5
:100A63007B20EC3382D592D55013C3E43000069F2C
:100A7300FFE49EFEE42001039DFDE49CFCE4CBF82F
:100A8300C201EC700CCFCECDCCE824F8F870F38023
:100A930017C3EF33FFEE33FEED33FDEC33FCEB33E3
:100AA300FB994002FB0FD8E9EB300105F8D0E0C415
:100AB30048B201C0E00AEC4D4E4F78207B0070C273
:100AC300EAB50A0040BCC0E0120B4BD0F0D0E020E6
:100AD3000104C4C0E0C4B201C0F01207CED0F0D507
:100AE300F0EB02081F12074F08BC530A2758088D62
:100AF3004C0889420A2B4F0A33440A334908A2435C
:100B03000A395509664609C6450930470C06500897
:100B1300912D08952E08B82B08992308B6200BEFC2
:100B23002A085148000008B0E50AB4FF03750A0615
:100B33001207A2FC1207A2FD1207A2FE1207A2FFD0
:100B43009000A2020291790AA2D52003143005096C
:100B5300B910020404B9080104A2D5200602500109
:100B6300042002689202B509005034C0E07F2030AF
:100B730003197F30A20272067205500F120BA2C234
:100B830002C206C205C2087F30800F300503E9C0E8
:100B9300E01207E5300503D0E0F9D0E0B509CC3029
:100BA30005177F30B9100C1207E57F583004077F13
:100BB300788003B908031207E53002057F2D020789
:100BC300E57F202008F87F2B2006F322920280CFB6
:100BD3007F00B40700500B24A2F582E43400F583B0
:100BE300E0FF22286E756C6C2900D2011207A23037
:100BF30001F8C201780930D50108F60208512D50D9
:100C03004349581207A22403B405004001E4900CA1
:100C130001931207D6743A1207D6D2037509040258
:020C23000A279E
:10025400F920E73624F950037907E4F42402FBE596
:1002640082158270021583DBF6E024FB501BE960E3
:1002740014E4F0E582158270021583E004F0B40AF8
:0D02840008E4F0D9EE7401F00A22C2D52280
:10029100ED33EC3392D5FA602AB4FF33EDC2E77B3C
:1002A100FF60067A0279B6E4227A0279BF20D5048A
:1002B1007A0279BA224E614E002B494E46002D49F1
:1002C1004E4600E47A08F0A3DAFC7B00740722C0F2
:1002D10083C082ECC0E0EDC0E0EEC0E0EFC0E0EA38
:1002E10075F010A4CAABF075F04DA42BFBE435F00A
:1002F100FCEA2410FAEB34C5FBEC34D9FCEDC2E77F
:10030100FF75F056A4F42411C5F0F434C58FF0A4A0
:100311002AE5F03BE43CF020E7141204BED0E0FFF4
:10032100D0E0FED0E0FDD0E0FC12012F8014F404F7
:100331001204BED0E0FFD0E0FED0E0FDD0E0FC1220
:100341000026D082D083E0FAEDD2E7CD33EC33241E
:1003510082FBE4C3CF33CFCE33CECD33CD33DBF30A
:100361007B0775F00A846004F0A31B0AE5F0F0A393
:100371008FF0740AA4FFACF08EF0740AA42CFEACCA
:10038100F050010C8DF0740AA42CFDE435F0F0A3BB
:05039100DBDE74072211
:1003960002023FE86480F8E933E83360110460F054
:1003A600ED33EC337009E8FCE9FDEAFEEBFF2204CD
:1003B60060DED3EB9FEA9EE99DE8C2E78CF0C2F7C8
:1003C60095F0400CE8CCF8E9CDF9EACEFAEBCFFB94
:1003D60012020A85D0F05804700320D5B3E80470E1
:1003E600075002B2D502024992D5EC0460F7E4CC7C
:1003F600C0E0C398F8603B94186008400DD0E0FB5D
:10040600020221E4FBFAC9FC8028E830E406E4C9CC
:10041600FBE4CAFCE830E305E4C9CACBFCE85407B0
:100426006010F8C3E913F9EA13FAEB13FBEC13FCBB
:10043600D8F130F52FC3E49CFCEF9BFFEE9AFEED5E
:1004460099FDD0E0FBEF4E4D4C701222DB03020209
:1004560046EC2CFCEF33FFEE33FEED33FDED30E7DB
:10046600EB020221EF2BFFEE3AFEED39FDD0E0FB69
:1004760050130BBB0003020249ED13FDEE13FEEF12
:0804860013FFEC13FC0202213C
:10048E003F8000004120000042C80000447A000076
:10049E00461C400047C35000497424004B189680F8
:1004AE004CBEBC205A0E1BCA6753C21C749DC5AEEF
:1004BE00FB60065407601C23231204ECEB543860D7
:1004CE00091204D81204E7120026ECF8EDF9EEFA40
:1004DE00EFCB22EB1204E780F1543803241C900476
:1004EE008EFE93FC0EEE93FD0EEE930ECE93FF2238
:101B8000022050E493A3F8E493A34003F68001F20B
:101B900008DFF48029E493A3F85407240CC8C33366
:101BA000C4540F4420C8834004F456800146F6DF35
:101BB000E4800B010204081020408090217DE47E27
:101BC000019360BCA3FF543F30E509541FFEE4932A
:101BD000A360010ECF54C025E060A840B8E493A3F1
:101BE000FAE493A3F8E493A3C8C582C8CAC583CA1C
:101BF000F0A3C8C582C8CAC583CADFE9DEE780BED4
:01218400005A
:1004FE00BB010689828A83E0225002E722BBFE02FC
:09050E00E32289828A83E493222E
:10051700BB010CE58229F582E5833AF583E0225099
:1005270006E92582F8E622BBFE06E92582F8E222E3
:0D053700E58229F582E5833AF583E49322FD
:10054400BB010689828A83F0225002F722BBFE0196
:02055400F32290
:10055600F8BB010DE58229F582E5833AF583E8F0DB
:10056600225006E92582C8F622BBFE05E92582C887
:02057600F2226F
:10057800EF8DF0A4A8F0CF8CF0A428CE8DF0A42E97
:02058800FE2251
:10058A00C5F0F8A3E028F0C5F0F8E58215827002FC
:06059A001583E038F02299
:1005A000A3F8E0C5F025F0F0E5821582700215830E
:0605B000E0C838F0E8226B
:1005B600E88FF0A4CC8BF0A42CFCE98EF0A42CFCE4
:1005C6008AF0EDA42CFCEA8EF0A4CDA8F08BF0A462
:1005D6002DCC3825F0FDE98FF0A42CCD35F0FCEBC1
:1005E6008EF0A4FEA9F0EB8FF0A4CFC5F02ECD3986
:0F05F600FEE43CFCEAA42DCE35F0FDE43CFC22F3
:1006050075F008758200EF2FFFEE33FECD33CDCCAC
:1006150033CCC58233C5829BED9AEC99E58298402F
:100625000CF582EE9BFEED9AFDEC99FC0FD5F0D60C
:10063500E4CEFBE4CDFAE4CCF9A88222B800C1B936
:100645000059BA002DEC8BF084CFCECDFCE5F0CB74
:10065500F97818EF2FFFEE33FEED33FDEC33FCEBAD
:1006650033FB10D703994004EB99FB0FD8E5E4F968
:10067500FA227818EF2FFFEE33FEED33FDEC33FC55
:10068500C933C910D7059BE99A4007EC9BFCE99A49
:10069500F90FD8E0E4C9FAE4CCFB2275F010EF2F8E
:1006A500FFEE33FEED33FDCC33CCC833C810D7078E
:1006B5009BEC9AE899400AED9BFDEC9AFCE899F8C9
:0E06C5000FD5F0DAE4CDFBE4CCFAE4C8F9225C
:0E06D300C3E49FFFE49EFEE49DFDE49CFC2238
:1006E100EB9FF5F0EA9E42F0E99D42F0E89C45F06F
:0106F10022E6
:0C06F200ECF0A3EDF0A3EEF0A3EFF0227B
:1006FE00A8828583F0D083D08212071512071512B7
:10070E000715120715E473E493A3C583C5F0C583DB
:10071E00C8C582C8F0A3C583C5F0C583C8C582C845
:01072E0022A8
:10072F00F8E0FBA3A3E0F925F0F0E5821582700253
:07073F001583E0FA38F022F7
:09074600EBF0A3EAF0A3E9F022B4
:10074F00D083D082F8E4937012740193700DA3A339
:10075F0093F8740193F5828883E47374029368604D
:06076F00EFA3A3A380DF4D
:10077500EC8EF0A4CCC5F0CCCDF8EFA4CEC5F02D11
:10078500FDE43CFCE8A42EC8C5F03DFDE43CFCEFCF
:0D079500A4FFE5F028FEE43DFDE43CFC225D
:10207700EFB40A07740D122082740A309811A899D8
:10208700B8130CC2983098FDA899C298B811F630C9
:0720970099FDC299F59922A1
:00000001FF
