:030000000220D803
:0C20D800787FE4F6D8FD75812102211FFD
:10267D0025302E33662C25302E33662C25302E3307
:04268D00660D0A00CC
:101FA80012144B12263E7B017A00790490001B1212
:101FB80008663DCCCCCD7F0A7ED77DA37C3C12251C
:101FC800757FF47E011200031224BB9000001208F2
:101FD8005A7B017A007904900000E0FCA3E0FDA39D
:101FE800E0FEA3E0FF120E657BFF7A26797D900064
:101FF80000E0FCA3E0FDA3E0FEA3E0FF90001812C0
:10200800085A900010E0FCA3E0FDA3E0FEA3E0FF67
:1020180090001C12085A90000CE0FCA3E0FDA3E01D
:10202800FEA3E0FF90002012085A7F011221E57FED
:08203800F47E01120003809008
:0726DB00440146000000006D
:10000300EF4E601A90013EE0FCA3E0FDED1D700190
:0E0013001C144C70F7EF1F70011E144E70E6A7
:0100210022BC
:08269100900086E0FEA3E0FFCB
:0A269900EF1FAC0670011E4C70F636
:0126A3002214
:1026180090013EE0FCA3E0FD120901E47B83FAF996
:10262800F812064090014212085A900142E0C31382
:06263800FEA3E013FF22E7
:1025A100900141E06599600AE599F0E4900140F0FD
:1025B1008006900140E004F0900140E0C394E940BE
:0925C10007000075C7600000224C
:0B229C009000BEEBF0A3EAF0A3E9F015
:1022A7009001297401F0A37400F0A374C1F09000A9
:1022B700BEE0F9A3E0FAA3E0900088C9F0A3EAF032
:1022C700A3E9F0900129E0F9A3E0FAA3E090008BDD
:1022D700C9F0A3EAF0A3E9F07B017A0079E91223B8
:0C22E7009C7B017A0079E97F0102253E12
:10216400EF14600D14602614603C14605424047051
:102174006F90FE027480F090FE02E030E0F990FE71
:1021840000E054FCF090FE03E4F0A3F02290FE047F
:102194007480F090FE04E030E0F990FE00E0440327
:1021A400F090FE03803490FE037480F090FE03E010
:1021B40030E0F990FE00E054FC4401F090FE04800D
:1021C4001990FE0374C0F090FE03E030E0F990FE35
:1021D40000E054FC4402F090FE04E4F090FE02F0AF
:0121E40022D8
:0C26C400EF90FE01700304F022EFF02202
:10144B0043BA80AF9FE4FCFDFEC004A905AA06AB1E
:10145B000778FBE6FFD000C3EF9BFFEE9AFEED99FA
:10146B00FDEC98FCE47BF07AD2F9F8120640C3E469
:10147B009FFF74369EFE746E9DFD74019CFC900064
:10148B001412085A900014E0FCA3E0FDA3E0FEA3A5
:10149B00E0FFC00790FE01E0FBE4FAF9F8D0071279
:1014AB0006CB90001412085A7FC07EF67D577C0045
:1014BB00900014E0F8A3E0F9A3E0FAA3E0FBC31259
:1014CB00076B500D9001461208660054600002161F
:1014DB007A7FC07E267D827C00900014E0F8A3E02A
:1014EB00F9A3E0FAA3E0FBC312076B500D90014682
:1014FB00120866005B8D8002167A7F807EED7DAFD1
:10150B007C00900014E0F8A3E0F9A3E0FAA3E0FB61
:10151B00C312076B500D90014612086600A8C0005D
:10152B0002167A7F807E2D7DE87C00900014E0F817
:10153B00A3E0F9A3E0FAA3E0FBC312076B500D90F5
:10154B00014612086600B71B0002167A7F807E36B2
:10155B007D257C01900014E0F8A3E0F9A3E0FAA349
:10156B00E0FBC312076B500D900146120866011980
:10157B00400002167A7F807E567D417C01900014DC
:10158B00E0F8A3E0F9A3E0FAA3E0FBC312076B506A
:10159B000D90014612086601312D0002167A7F006C
:1015AB007EDB7D5F7C01900014E0F8A3E0F9A3E003
:1015BB00FAA3E0FBC312076B500D900146120866AD
:1015CB000151800002167A7F607E197D857C019027
:1015DB000014E0F8A3E0F9A3E0FAA3E0FBC31207C1
:1015EB006B500D900146120866016E360002167A9A
:1015FB007F207EE07DB27C01900014E0F8A3E0F93F
:10160B00A3E0FAA3E0FBC312076B500C9001461248
:10161B000866019BFCC080577FE07EA67DE07C01C5
:10162B00900014E0F8A3E0F9A3E0FAA3E0FBC312E7
:10163B00076B500C90014612086601C9C380802FBE
:10164B007F607E2B7DFF7C01900014E0F8A3E0F916
:10165B00A3E0FAA3E0FBC312076B900146500912FB
:10166B00086601FA4000800712086602160EC0E4F5
:10167B007B107A27F9F8900146E0FCA3E0FDA3E08C
:10168B00FEA3E0FF1206CB90013EEEF0A3EFF0E4D9
:10169B00900141F0900140F0C2091223E600D2AF55
:0116AB00003E
:0116AC00221B
:0B1D1600900016EBF0A3EAF0A3E9F048
:101D21007F647E00122618900086EEF0A3EFF090FB
:101D310000837401F0A37400F0A37419F0900016ED
:101D4100E0F9A3E0FAA3E0900088C9F0A3EAF0A3C8
:101D5100E9F0900083E0F9A3E0FAA3E090008BC9D9
:101D6100F0A3EAF0A3E9F07B017A00794312239C06
:101D7100900041EEF0A3EFF07FF47E01120003E446
:101D8100FBFAD3900042E09B900041E09A40E9D2F7
:101D9100B1C2B112269174432BF58274003AF583D6
:101DA100E0F9E4FDE930E004D2B18002C2B1E9C357
:101DB10013F91226910DEDB408EAD2B1122691124F
:091DC10026910BBB00010A80B958
:0B1E6D0090014AEBF0A3EAF0A3E9F0BB
:101E7800E4FFFE900150F0A3F0A3F0A3F090014A14
:101E8800E0FBA3E0FAA3E0F9120588607290015321
:101E9800E004F07006900152E004F090014DE0FB80
:101EA800A3E0FAA3E0F98F828E831205A1FD9001C9
:101EB8004AE0FBA3E0FAA3E0F9120588B505070F8D
:101EC800BF00010E8012E4FEFF900152E0FDA3E086
:101ED800900150CDF0A3EDF090014BE475F00112A4
:101EE800061490014DE0FBA3E0FAA3E0F98F828E7F
:101EF800831205A17087900150E0FEA3E0FF227EC7
:031F0800FF7FFF59
:011F0B0022B3
:101C5F00E4900168F090016AF0900169F0900169D9
:101C6F00E0FFC3940A4003021D107E00ED2FF582A2
:101C7F00EE3CF5831205A1FFC3648094B0404BD3B3
:101C8F00EF648094B7504390016AE004F0E0B40130
:101C9F0017900169E02DF582EE3CF5831205A12422
:101CAF00D0C454F0900168F090016AE0B4021B9028
:101CBF000169E07E002DF582EE3CF5831205A1242B
:101CCF00D0FF900168E04FFFF022900169E07E00A5
:101CDF002DF582EE3CF5831205A1FFC3648094B805
:101CEF00400ED3EF648094B9500690016AE004F07F
:101CFF00EF642C600CEF6009900169E004F0021CA6
:061D0F006C900168E0FF8A
:011D150022AB
:081BA300900154ECF0A3EDF0F9
:101BAB00E4A3F0A3F0A3F0900158E0FFC39414401A
:101BBB0003021C56900155E02FFF900154E03400B6
:101BCB008F82F5831205A1FFC3648094B0404ED37E
:101BDB00EF648094B95046900156E0FEA3E0FF7C81
:101BEB00007D0A120602900156EEF0A3EFF0A3E07F
:101BFB00FF900155E02FFF900154E034008F82F5E8
:101C0B00831205A1FF3395E0FEEF24D0FFEE34FFE6
:101C1B00FE900157E02FF0900156E03EF0900158F6
:101C2B00E0FF900155E02FFF900154E034008F82CC
:101C3B00F5831205A1FF642C6011EF642E600CEF8D
:101C4B006009900158E004F0021BB2900156E0FECF
:031C5B00A3E0FF04
:011C5E002263
:10184F0090012CEBF0A3EAF0A3E9F0A3ECF0A3EDE9
:01185F00F098
:10186000E4900138F0A3F0A3F0A3F0A3F0A3F0906C
:101870000136F0A3F090012FE0FEA3E0FF900136C7
:10188000E0FCA3E0FDC39FEC9E400302191F900102
:1018900031E0FBA3E0FAA3E0F9900138E0FEA3E019
:1018A000F5828E831205A1FF90012CE0FBA3E0FAE4
:1018B000A3E0F98D828C831205A1B507339001391D
:1018C000E004F07006900138E004F0900134E0FE8E
:1018D000A3E0FF900138E0B50631A3E0B5072C90F6
:1018E0000136E0FFA3E090013CCFF0A3EFF0802FA2
:1018F000E4900138F0A3F0900137E02401FE90015C
:1019000036E0340090013AF0A3CEF0900137E004C5
:10191000F06003021875900136E004F0021875902B
:10192000013CE0FEA3E0FF90013AE0FCA3E0FDD320
:101930009FEC9E5044900136ECF0A3EDF090013CFA
:10194000E0FEA3E0FF900136E0FCA3E0FDC39FECC6
:101950009E502390012CE0FBA3E0FAA3E0F98D82D6
:101960008C83E41205E0900137E004F070CF900121
:0B19700036E004F080C77F01227F00FA
:01197B002249
:1016AD006770696F5F757070756C6C283C44253080
:1016BD0032583E2C2564293BB2BBB4E6D4DAB8C30C
:1016CD00494F0D0A006770696F5F757070756C6CAE
:1016DD00283C44253032583E2C31293BB2BBB4E670
:1016ED00D4DAB8C3494F0D0A006770696F5F757022
:1016FD0070756C6C283C44253032583E2C30293B9B
:10170D00B2BBB4E6D4DAB8C3494F0D0A00677069AD
:10171D006F5F6D6F6465283C44253032583E2C2533
:10172D0064293BB2BBB4E6D4DAB8C3494F0D0A0005
:10173D006770696F5F6D6F64652844253032582C72
:10174D003C25643E293BB2BBB4E6D4DAB8C3C4A38E
:10175D00CABD0D0A006770696F5F7772697465287D
:10176D003C25643E2C2564293BB2BBB4E6D4DAB8E3
:10177D00C350BFDA0D0A006770696F5F72656164EF
:10178D00283C5025643E293BB2BBB4E6D4DAB8C33D
:10179D0050BFDA0D0A006770696F5F6F7574283C72
:1017AD0044253032583E2C2564293BB2BBB4E6D4D7
:1017BD00DAB8C3494F0D0A006770696F5F6F7574B2
:1017CD00283C44253032583E2C31293BB2BBB4E67F
:1017DD00D4DAB8C3494F0D0A006770696F5F6F7532
:1017ED0074283C44253032583E2C30293BB2BBB4D2
:1017FD00E6D4DAB8C3494F0D0A006770696F5F69A7
:10180D006E283C44253032583E293BB2BBB4E6D459
:10181D00DAB8C3494F0D0A006770696F5F746F675F
:10182D00676C65283C44253032583E293BB2BBB429
:10183D00E6D4DAB8C3494F0D0A000102040810209E
:02184D004080D9
:05197C0090016BEFF08B
:1019810064887003021A9090016BE0FF54F0F50D2A
:10199100EF540FFF90184793F50EEFD394074021B2
:1019A1007BFF7A1679AD90016BE0FF900019E4F0AE
:1019B100A3EFF0A20AE4FF33A3CFF0A3EFF0121DCF
:1019C10016300A63E50D24F0602124F0602224F032
:1019D100602324F0602424F0602524F0602624F0A4
:1019E10060272470702B90FE10802190FE11801CC6
:1019F10090FE12801790FE13801290FE14800D90BD
:101A0100FE15800890FE16800390FE17E0450EF04B
:101A1100227BFF7A1679D290016BE0FF900019E4E6
:101A2100F0A3EFF0021D16E50D24F0602124F06013
:101A31002224F0602324F0602424F0602524F06047
:101A41002624F060272470703090FE10802190FED3
:101A510011801C90FE12801790FE13801290FE14CC
:101A6100800D90FE15800890FE16800390FE17E011
:101A7100FFE50EF4FEEF5EF0227BFF7A1679F69019
:0F1A8100016BE0FF900019E4F0A3EFF0121D16C7
:011A90002233
:0A116C00900015EDF0900014EFF074
:101176006488700302144A900014E0FF54F0F50DE1
:10118600EF540FFF90184793F50EEFD394074023C3
:101196007BFF7A17791A900014E0FF900019E4F0AB
:1011A600A3EFF0900015E0FF90001BE4F0A3EFF032
:1011B600121D16E50D24F0602124F0602224F06053
:1011C6002324F0602424F0602524F0602624F060B7
:1011D6002724707028E4F50D8046750D0180417551
:1011E6000D02803C750D038037750D048032750D38
:1011F60005802D750D068028750D0780237BFF7AE7
:1012060017791A900014E0FF900019E4F0A3EFF0AC
:10121600900015E0FF90001BE4F0A3EFF0121D16FE
:10122600900015E0FFD39403401C7BFF7A17793DAD
:10123600900014E0FD900019E4F0A3EDF0A3E4F0B3
:10124600A3EFF0121D16E50D703A900015E0FF7041
:1012560007E50EF452935294EFB40109E50E42935A
:10126600E50EF45294900015E0B40208E50E4293A0
:10127600E50E4294900015E0B40309E50EF452938E
:10128600E50E4294E50D6401703A900015E0FF709A
:1012960007E50EF452915292EFB40109E50E429120
:1012A600E50EF45292900015E0B40208E50E429164
:1012B600E50E4292900015E0B40309E50EF4529152
:1012C600E50E4292E50D6402703A900015E0FF705B
:1012D60007E50EF452955296EFB40109E50E4295D4
:1012E600E50EF45296900015E0B40208E50E42951C
:1012F600E50E4296900015E0B40309E50EF452950A
:10130600E50E4296E50D6403703A900015E0FF7015
:1013160007E50EF452B152B2EFB40109E50E42B13F
:10132600E50EF452B2900015E0B40208E50E42B1A3
:10133600E50E42B2900015E0B40309E50EF452B191
:10134600E50E42B2E50D6404703A900015E0FF70B8
:1013560007E50EF452B352B4EFB40109E50E42B3F9
:10136600E50EF452B4900015E0B40208E50E42B35F
:10137600E50E42B4900015E0B40309E50EF452B34D
:10138600E50E42B4E50D6405703A900015E0FF7075
:1013960007E50EF452C952CAEFB40109E50E42C977
:1013A600E50EF452CA900015E0B40208E50E42C9F3
:1013B600E50E42CA900015E0B40309E50EF452C9E1
:1013C600E50E42CAE50D6406703A900015E0FF701E
:1013D60007E50EF452CB52CCEFB40109E50E42CB31
:1013E600E50EF452CC900015E0B40208E50E42CBAF
:1013F600E50E42CC900015E0B40309E50EF452CB9D
:10140600E50E42CCE50D6407703A900015E0FF70DA
:1014160007E50EF452E152E2EFB40109E50E42E1AE
:10142600E50EF452E2900015E0B40208E50E42E142
:10143600E50E42E2900015E0B40309E50EF452E130
:04144600E50E42E28B
:01144A00227F
:10224200EFB40900503A90224FF828287302226A0C
:1022520002226D0222700222730222760222790287
:10226200227C02227F02229B8D80228D90228DA0D1
:10227200228DB0228DC0228DC8228DE8228DF822B7
:102282007BFF7A177962900019E4F0A3EFF0AF05B3
:0A229200A3E4F0A3EFF0121D1622E2
:1022F300EFB40900503D902300F828287302231BF4
:1023030002231E02232102232402232702232A025B
:10231300232D022330022333AF8022AF9022AFA0BC
:1023230022AFB022AFC022AFC822AFE822AFF8225B
:102333007FFF227BFF7A177984900019E4F0A3EFE3
:07234300F0121D167FFF22BE
:051A910090016CEFF074
:101A960064887003021BA290016CE0FF54F0F50D00
:101AA600EF540FFF90184793F50EEFD3940740219C
:101AB6007BFF7A1779A390016CE0FF900019E4F0A0
:101AC600A3EFF0A20BE4FF33A3CFF0A3EFF0121DB8
:101AD60016300B60E50D24F0602124F0602224F01E
:101AE600602324F0602424F0602524F0602624F08E
:101AF600602724707028E50E428022E50E4290226F
:101B0600E50E42A022E50E42B022E50E42C022E5D5
:101B16000E42C822E50E42E822E50E42F8227BFF7D
:101B26007A1779C590016CE0FF900019E4F0A3EFF5
:101B3600F0021D16E50D24F0602224F0602424F046
:101B4600602624F0602824F0602A24F0602C24F01B
:101B5600602E24707030E50EF4528022E50EF452A9
:101B66009022E50EF452A022E50EF452B022E50EC4
:101B7600F452C022E50EF452C822E50EF452E822D1
:101B8600E50EF452F8227BFF7A1779E690016CE0B5
:0C1B9600FF900019E4F0A3EFF0121D1600
:011BA2002220
:051DCA0090016DEFF037
:101DCF00BF8802C32290016DE0FF54F0F50DEF5470
:101DDF000FFF90184793F50EEFD3940740167BFF34
:101DEF007A18790790016DE0FF900019E4F0A3EFE6
:101DFF00F0121D16E50D24F0602124F0602224F06E
:101E0F00602324F0602424F0602524F0602624F061
:101E1F0060272470702885800F803985900F80345B
:101E2F0085A00F802F85B00F802A85C00F80258554
:101E3F00C80F802085E80F801B85F80F80167BFF69
:101E4F007A18790790016DE0FF900019E4F0A3EF85
:0D1E5F00F0121D16E50F550E6002D322C3D0
:011E6C002253
:051F0C0090016EEFF0F2
:101F110064887003021FA790016EE0FF54F0F50D75
:101F2100EF540FFF90184793F50EEFD39407401627
:101F31007BFF7A18792590016EE0FF900019E4F09B
:101F4100A3EFF0121D16E50D24F0602124F06022AC
:101F510024F0602324F0602424F0602524F060261E
:101F610024F0602724707028E50E628022E50E625D
:101F71009022E50E62A022E50E62B022E50E62C05B
:101F810022E50E62C822E50E62E822E50E62F82221
:101F91007BFF7A18792590016EE0FF900019E4F03B
:061FA100A3EFF0121D1673
:011FA7002217
:10247600EFB40800503E902483F828287302249B6A
:1024860002249F0224A30224A70224AB0224AF0243
:1024960024B30224B7ED628022ED629022ED62A0A1
:1024A60022ED62B022ED62C022ED62C822ED62E842
:0524B60022ED62F82296
:10204000300C48EFB4080040030220D7902053F82A
:1020500028287302206B02206F022073022077026F
:10206000207B02207F022083022087ED428022ED28
:10207000429022ED42A022ED42B022ED42C022ED7C
:1020800042C822ED42E822ED42F822EFB4080050A7
:1020900046902098F82828730220B00220B502202C
:1020A000BA0220BF0220C40220C90220CE0220D3DF
:1020B000EDF4528022EDF4529022EDF452A022ED84
:1020C000F452B022EDF452C022EDF452C822EDF4E5
:0820D00052E822EDF452F8225F
:10234A00EFB409005044902357F8282873022372E7
:10235A0002237602237A02237E0223820223860242
:10236A00238A02238E022392AE80801EAE90801AA8
:10237A00AEA08016AEB08012AEC0800EAEC8800A83
:10238A00AEE88006AEF88002D322EE5D6002D32268
:01239A00C37F
:01239B00221F
:10263E0075DE2578EFE6FC08E6FDE4120353E4FBB5
:10264E00FA797A784412022790015E12085A7D01B7
:05265E007F1002116C69
:10266300EF540F44C0F5BC0000E5BC30E5FB53BCA0
:0A267300DFAFBDEFFEADBEEDFF22AC
:1025CA00122663AD07AC06E412035390015AE0F8F1
:1025DA00A3E0F9A3E0FAA3E0FB12011EE4FBFA79F7
:0625EA0080784512022773
:0125F00022C8
:0326E300D2AD2253
:0326E600C2AD2260
:1024BB007F0F122663EF4E7005FFFEFDFC22AD076A
:1024CB00AC06E4120353C004C005C006C007E4FF0A
:1024DB00FE7D807C4590015EE0F8A3E0F9A3E0FA75
:1024EB00A3E0FB12011ED003D002D001D0001202D8
:0124FB0027B9
:0124FC0022BD
:1023E60075985053873F538EDE53A23FE47B04FA21
:1023F600F9F8900146E0FCA3E0FDA3E0FEA3E0FFB0
:102406001206CB7B007AC2790178001206CBC3E4B0
:102416009FFFE49E438E4053890F8F8BF58DC2AB91
:08242600C28FD28EC20ED2ACAF
:01242E00228B
:0B26D000EF14700653A23FED42A2225F
:0524FD00900163EFF007
:10250200E47B04FAF9F8900146E0FCA3E0FDA3E0C5
:10251200FEA3E0FF1206CB900164E0F8A3E0F9A36A
:10252200E0FAA3E0FB1206CBC3E49FFFE49EFE9019
:0B2532000163E01470058F8BEEF58D47
:01253D00227B
:0E26B600EF147009AF058F99D20E200EFD2291
:1026A400EF14700DA20D929BAF058F99D20E200EE0
:0226B400FD2205
:10253E00900083EBF0A3EAF0A3E9F0AE07900083DE
:10254E00E0FBA3E0FAA3E0F91205886019AF06904C
:10255E000083A3E475F00112062AA9F0FA12058889
:07256E00FD1226B680D72202
:0E21E500900014EFF0A3EBF0A3EAF0A3E9F0F2
:1021F3009000807401F0A37400F0A37418F09000B1
:1022030015E0F9A3E0FAA3E0900088C9F0A3EAF08F
:10221300A3E9F0900080E0F9A3E0FAA3E090008B3B
:10222300C9F0A3EAF0A3E9F07B017A007940122315
:0F2233009C900014E0FF7B017A00794002253E69
:0300230002242F85
:10242F00C0E0C0F0C083C082C0D075D000C000C073
:10243F0001C002C003C004C005C006C00730980524
:10244F00C2981225A1309904C299C20ED007D006A6
:10245F00D005D004D003D002D001D000D0D0D0828C
:07246F00D083D0F0D0E03271
:102575001207CC90001BE0FCA3E0FDA3E0FEA3E066
:10258500FF9000041207E690000C12089700000067
:0C259500009000081208970000000022CF
:0F0E6500900014EBF0A3EAF0A3E9F0A312085AEF
:100E740090001B1208660000000090001F12086614
:100E840000000000900014E0FBA3E0FAA3E0F99056
:100E9400000C12079C900017E0F8A3E0F9A3E0FA15
:100EA400A3E0FB1202C4900014E0FBA3E0FAA3E069
:100EB400F990000C501312079C900017E0F8A3E07F
:100EC400F9A3E0FAA3E0FB801112082A900017E0CE
:100ED400FCA3E0FDA3E0FEA3E0FF12002990001FA5
:100EE40012085A900014E0FBA3E0FAA3E0F91207F9
:100EF4007C90001FE0F8A3E0F9A3E0FAA3E0FB1262
:100F040002C44003021094900014E0FBA3E0FAA38F
:100F1400E0F990000812079C900017E0F8A3E0F9AC
:100F2400A3E0FAA3E0FB12002D900014E0FBA3E081
:100F3400FAA3E0F990000C12082A12002990001478
:100F4400E0FBA3E0FAA3E0F99000081207E69000A2
:100F54000812079C12080A1202C4403F900014E0D1
:100F6400FBA3E0FAA3E0F990000812079CC004C0B8
:100F740005C006C007900014A3A3E012077C120367
:100F84003DA804A905AA06AB07D007D006D005D012
:100F9400041202C46002500302116B900014E0FBBF
:100FA400A3E0FAA3E0F990000412082A90001FE0DD
:100FB400FCA3E0FDA3E0FEA3E0FF12022790001BC8
:100FC40012085AE4FFFE7D807C3F90001BE0F8A3EA
:100FD400E0F9A3E0FAA3E0FB1202C4600C400A901B
:100FE400001B1208663F800000900014E0FBA3E0A1
:100FF400FAA3E0F990000C12082AC000C001C00254
:10100400C00390001BE0F8A3E0F9A3E0FAA3E0FB1F
:10101400E4FFFE7D807C3F120029D003D002D00182
:10102400D00012011EC004C005C006C00790001BFA
:10103400E0FCA3E0FDA3E0FEA3E0FF900017E0F8CE
:10104400A3E0F9A3E0FAA3E0FB12011ED003D0024F
:10105400D001D00012002D900014E0FBA3E0FAA30D
:10106400E0F990000C1207E690000C12082A900098
:1010740017E0FCA3E0FDA3E0FEA3E0FF120029902B
:101084000014E0FBA3E0FAA3E0F99000080207E6ED
:10109400900014E0FBA3E0FAA3E0F9900004120826
:1010A4002A90001FE0FCA3E0FDA3E0FEA3E0FF12F2
:1010B400022790001B12085AE4FFFE7D807C3F90BB
:1010C400001BE0F8A3E0F9A3E0FAA3E0FB1202C4DA
:1010D400600C400A90001B1208663F8000009000DC
:1010E40014E0FBA3E0FAA3E0F990000C12082AC074
:1010F40000C001C002C00390001BE0F8A3E0F9A304
:10110400E0FAA3E0FBE4FFFE7D807C3F120029D0DF
:1011140003D002D001D00012011EC004C005C006D5
:10112400C00790001BE0FCA3E0FDA3E0FEA3E0FFEA
:10113400900017E0F8A3E0F9A3E0FAA3E0FB1201A2
:101144001ED003D002D001D00012002D900014E074
:10115400FBA3E0FAA3E0F990000C1207E690000864
:0711640012089700000000D3
:01116B002261
:100026000203C1E86480F8E933E83360110460F044
:10003600ED33EC337009E8FCE9FDEAFEEBFF220440
:1000460060DED3EB9FEA9EE99DE8C2E78CF0C2F73B
:1000560095F0400CE8CCF8E9CDF9EACEFAEBCFFB07
:1000660012038C85D0F05804700320D5B3E80470D1
:10007600075002B2D50203CB92D5EC0460F7E4CC6C
:10008600C0E0C398F8603B94186008400DD0E0FBD0
:100096000203A3E4FBFAC9FC8028E830E406E4C9BD
:1000A600FBE4CAFCE830E305E4C9CACBFCE8540724
:1000B6006010F8C3E913F9EA13FAEB13FBEC13FC2F
:1000C600D8F130F52FC3E49CFCEF9BFFEE9AFEEDD2
:1000D60099FDD0E0FBEF4E4D4C701222DB0302037C
:1000E600C8EC2CFCEF33FFEE33FEED33FDED30E7CD
:1000F600EB0203A3EF2BFFEE3AFEED39FDD0E0FB5A
:1001060050130BBB00030203CBED13FDEE13FEEF02
:0801160013FFEC13FC0203A32C
:10011E00EC4D6011E8497017ED33EC3304600DE4DB
:10012E00FCFFFEFD22E933E8330470F80203C1122E
:10013E00038C58046009E4CC24815006285009022F
:10014E0003CB2840030203C8C0E0EB4A7044B980D9
:10015E0006D0E0FB0203B7EF4E701CBD8008EBFF2C
:10016E00EAFEE9FD80EBE98DF0A4FEE5F002020760
:10017E00E9CDF9EAFEEBFFEF89F0A4FCE5F0CE89BC
:10018E00F0A42EFFE435F0CD89F0A42DFEE435F079
:10019E008067EF4E7005BD80D780C3EF8BF0A4ACA7
:1001AE00F0EE8BF0A42CFCE435F0F8EF8AF0A42CE2
:1001BE00E5F038FCE433CB8DF0A42CFCE5F03BF8F5
:1001CE00EE8AF0A42CFCE5F038F8E433CF89F0A4E5
:1001DE002CFCE5F038CF3400CE89F0A42FFFE5F0EB
:1001EE003EFEE433C98DF0A42EFEE5F039CD8AF043
:1001FE00A42FFFE5F03EFEE43DFD33D0E0FB5007BB
:10020E000BBB000F0203CBEC2CFCEF33FFEE33FEE7
:06021E00ED33FD0203A315
:100224000203CBEC5D046005E8590470030203C1CA
:1002340012038C580460F6EC4860F2EC7004FDFE86
:10024400FF22C860DB2481C85009C39860025006AD
:100254000203C89850CAF582E9294B4A7005AB825B
:100264000203B775F0007C1A7880C3EF9BEE9AED19
:1002740099400DC3EF9BFFEE9AFEED99FDE842F025
:10028400DC23ACF0D0E0FFD0E0FED0E0FDAB822078
:10029400E7101BEB60BAEC2CFCEF33FFEE33FEED02
:1002A40033FD0203A3E803F830E705C0F075F0005E
:1002B400EF2FFFEE33FEED33FD40B830E7C280AAE6
:1002C40074F8CC6480CCC86480C8F58204604FC3E1
:1002D400EB9FF5F0EA9E42F0E99D42F0E89C45F080
:1002E400603C501DE5825FFFE582D313CB5BCBF40A
:1002F4002B5582FB50280ABA002409B90020088033
:100304001DE5825BFBE582D313CF5FCFF4C3132FCC
:100314005582FF50090EBE00050DBD00010CC3EB54
:100324009FF5F0EA9E42F0E99D42F0E89C45F060BA
:0903340007CC4820E701B3EC22DC
:10033D00ED33EC33600A047003BD8004ECB2E7FCCE
:01034D00228D
:10034E0075F020800E75F010800575F0087D007E2A
:10035E00007F003392D530D50312075DEC33401089
:10036E00EF33FFEE33FEED33FDEC33FCD5F0ED2233
:0E037E00E5F0247EA2D513CC92E7CDCEFF226F
:10239C00900088E0FFA3E0FEA3E0CF900091F0A3B3
:1023AC00EEF0A3EFF090008BE0CBF0A3E0CAF0A32B
:1023BC00E0C9F07F22900094AD82AC831205888D29
:1023CC00828C83F0A309E970010ADFEC90008BE0AA
:0A23DC00FBA3E0FAA3E0F9020A47B0
:10038C00E9D2E7C933E833F892D5EDD2E7CD33ECB7
:07039C0033FC5002B2D52230
:1003A300EC30E7100FBF000C0EBE00080DBD0004BB
:1003B3000BEB6014A2D5EB13FCED92E7FD2274FF67
:1003C300FCFDFEFF22E480F8A2D574FF13FC7D80C0
:0303D300E480EFD4
:1009E200E5082491F582E43400F583E005082290BD
:1009F200008E300703900091E475F0011208BB02EB
:100A020005882000E97F2ED2008018EF540F249031
:100A1200D43440D4FF30040BEF24BFB41A00500387
:100A22002461FFE50960021509050CE50C70020559
:100A32000B30070E90008EE475F0011208BBEF0236
:100A420005CE0225F17403D2078003E4C207F5083C
:100A520090008E1208D2E4F509F50BF50CE5096059
:100A6200077F20120A2580F5750AFFC201C200C263
:100A720002C203C205C206C2081209F1FF700D309C
:100A820007057F00120A36AF0CAE0B22B4255FC2F7
:100A9200D5C2041209F1FF24D0B40A00501A75F02D
:100AA2000A780930D50508B6FF0106C6A426F62045
:100AB200D5047002D20380D924CFB41A00EF5004B7
:100AC200C2E5D204020D28D20180C6D20080C0D273
:100AD2000280BCD2D580BAD20580B47F20120A250A
:100AE2002002077401B5090040F11209E2FF120A5F
:100AF20025020A5FD208D20680951209E2FB12098A
:100B0200E2FA1209E2F94A4B700679267A0E7BFF65
:100B120020022EE509602A7E008E8275830012056E
:100B2200A160060EEE650A70F0C2D5EBC0E0EAC025
:100B3200E0E9C0E0EE120D89D0E0F9D0E0FAD0E0B1
:100B4200FB120588FF60AAEBC0E0EAC0E0E9C0E062
:100B5200120A25D0E02401F9D0E03400FAD0E0FBFB
:100B6200E50A0460DCD50AD98087D20280A2120D80
:100B72006B60F7E50A7001041203D6A90A600DE55D
:100B82000A600914F50A120E13EF60F3EA30E70265
:100B9200F404C3995079EAF4250A0430E701E40425
:100BA200F50A800D120D6B60C1EA050A250A1203CF
:100BB200D6EA9000BDF030E701E4250A04D50A0424
:100BC20020050114120D89E4C0E0120E139000BD3D
:100BD200E0601320E70714F0120A0D802204F0D01F
:100BE200E014C0E07F00120A0DE50A6007120A0451
:100BF200150A800B300503120A04D0E0020A5FD006
:100C0200E00480C4120D6B609EE50A041203D690C4
:100C120000BDEAF0E50A2005026001042404120D79
:010C22008948
:100C230074FF04C0E0120E13120A0DE50A20050238
:100C33006003120A04D0E0B50AE87F45120A179050
:100C430000BDE07F2B30E7047F2DF404C0E0120ADF
:100C530025D0E075F00A84C0F0120A0ED0E0120A23
:100C63000E020A5F791080027908C206C208800862
:100C7300D2D5790A8004790AC2D5E50A047002F54F
:100C83000AE4FAFDFEFF1209E2FC7B0820011312BD
:100C930009E2FD7B1030000A1209E2FE1209E2FFAD
:100CA3007B20EC3382D592D55013C3E43000069FEA
:100CB300FFE49EFEE42001039DFDE49CFCE4CBF8ED
:100CC300C201EC700CCFCECDCCE824F8F870F380E1
:100CD30017C3EF33FFEE33FEED33FDEC33FCEB33A1
:100CE300FB994002FB0FD8E9EB300105F8D0E0C4D3
:100CF30048B201C0E00AEC4D4E4F78207B0070C231
:100D0300EAB50A0040BCC0E0120D8BD0F0D0E02061
:100D13000104C4C0E0C4B201C0F0120A0ED0F0D581
:100D2300F0EB020A5F1208DB0AFC530C67580ACD8A
:100D33004C0AC9420C6B4F0C73440C73490AE243CF
:100D43000C79550BA6460C06450B70470E46500A08
:100D5300D12D0AD52E0AF82B0AD9230AF6200E2FF5
:100D63002A0A914800000AF0E50AB4FF03750A064F
:100D73001209E2FC1209E2FD1209E2FE1209E2FF86
:100D83009000B6020413790AA2D520031430050992
:100D9300B910020404B9080104A2D52006025001C7
:100DA300042002689202B509005034C0E07F20306D
:100DB30003197F30A20272067205500F120DE2C2B0
:100DC30002C206C205C2087F30800F300503E9C0A6
:100DD300E0120A25300503D0E0F9D0E0B509CC30A4
:100DE30005177F30B9100C120A257F583004077F8E
:100DF300788003B90803120A253002057F2D020A01
:100E0300257F202008F87F2B2006F322920280CF33
:100E13007F00B40700500B24B6F582E43400F58359
:100E2300E0FF22286E756C6C2900D2011209E230B2
:100E330001F8C201780930D50108F6020A912D5054
:100E43004349581209E22403B405004001E4900E1B
:100E53004193120A16743A120A16D2037509040250
:020E63000C671A
:1003D600F920E73624F950037907E4F42402FBE513
:1003E60082158270021583DBF6E024FB501BE96060
:1003F60014E4F0E582158270021583E004F0B40A75
:0D04060008E4F0D9EE7401F00A22C2D522FC
:10041300ED33EC3392D5FA602AB4FF33EDC2E77BB8
:10042300FF60067A047938E4227A04794120D504FE
:100433007A04793C224E614E002B494E46002D49E9
:100443004E4600E47A08F0A3DAFC7B00740722C06E
:1004530083C082ECC0E0EDC0E0EEC0E0EFC0E0EAB4
:1004630075F010A4CAABF075F04DA42BFBE435F086
:10047300FCEA2410FAEB34C5FBEC34D9FCEDC2E7FB
:10048300FF75F056A4F42411C5F0F434C58FF0A41D
:100493002AE5F03BE43CF020E714120548D0E0FFE6
:1004A300D0E0FED0E0FDD0E0FC1202278014F4047B
:1004B300120548D0E0FFD0E0FED0E0FDD0E0FC1212
:1004C300011ED082D083E0FAEDD2E7CD33EC3324A2
:1004D30082FBE4C3CF33CFCE33CECD33CD33DBF387
:1004E3007B0775F00A846004F0A31B0AE5F0F0A310
:1004F3008FF0740AA4FFACF08EF0740AA42CFEAC47
:10050300F050010C8DF0740AA42CFDE435F0F0A337
:05051300DBDE7407228D
:100518003F8000004120000042C80000447A0000EB
:10052800461C400047C35000497424004B1896806D
:100538004CBEBC205A0E1BCA6753C21C749DC5AE64
:10054800FB60065407601C2323120576EB543860C1
:100558000912056212057112011EECF8EDF9EEFAA6
:10056800EFCB22EB12057180F1543803241C90055F
:1005780018FE93FC0EEE93FD0EEE930ECE93FF2223
:1020E400021FA8E493A3F8E493A34003F68001F24B
:1020F40008DFF48029E493A3F85407240CC8C333FD
:10210400C4540F4420C8834004F456800146F6DFCB
:10211400E4800B01020408102040809026DBE47E5A
:10212400019360BCA3FF543F30E509541FFEE493C0
:10213400A360010ECF54C025E060A840B8E493A387
:10214400FAE493A3F8E493A3C8C582C8CAC583CAB2
:10215400F0A3C8C582C8CAC583CADFE9DEE780BE6A
:0126E20000F7
:10058800BB010689828A83E0225002E722BBFE0271
:09059800E32289828A83E49322A4
:1005A100BB010CE58229F582E5833AF583E022500F
:1005B10006E92582F8E622BBFE06E92582F8E22259
:0D05C100E58229F582E5833AF583E4932273
:1005CE00BB010689828A83F0225002F722BBFE010C
:0205DE00F32206
:1005E000F8BB010DE58229F582E5833AF583E8F051
:1005F000225006E92582C8F622BBFE05E92582C8FD
:02060000F222E4
:10060200EF8DF0A4A8F0CF8CF0A428CE8DF0A42E0C
:02061200FE22C6
:10061400C5F0F8A3E028F0C5F0F8E5821582700271
:060624001583E038F0220E
:10062A00A3F8E0C5F025F0F0E58215827002158383
:06063A00E0C838F0E822E0
:10064000E88FF0A4CC8BF0A42CFCE98EF0A42CFC59
:100650008AF0EDA42CFCEA8EF0A4CDA8F08BF0A4D7
:100660002DCC3825F0FDE98FF0A42CCD35F0FCEB36
:100670008EF0A4FEA9F0EB8FF0A4CFC5F02ECD39FB
:0F068000FEE43CFCEAA42DCE35F0FDE43CFC2268
:10068F0075F008758200EF2FFFEE33FECD33CDCC22
:10069F0033CCC58233C5829BED9AEC99E5829840A5
:1006AF000CF582EE9BFEED9AFDEC99FC0FD5F0D682
:1006BF00E4CEFBE4CDFAE4CCF9A88222B800C1B9AC
:1006CF000059BA002DEC8BF084CFCECDFCE5F0CBEA
:1006DF00F97818EF2FFFEE33FEED33FDEC33FCEB23
:1006EF0033FB10D703994004EB99FB0FD8E5E4F9DE
:1006FF00FA227818EF2FFFEE33FEED33FDEC33FCCB
:10070F00C933C910D7059BE99A4007EC9BFCE99ABE
:10071F00F90FD8E0E4C9FAE4CCFB2275F010EF2F03
:10072F00FFEE33FEED33FDCC33CCC833C810D70703
:10073F009BEC9AE899400AED9BFDEC9AFCE899F83E
:0E074F000FD5F0DAE4CDFBE4CCFAE4C8F922D1
:0E075D00C3E49FFFE49EFEE49DFDE49CFC22AD
:10076B00EB9FF5F0EA9E42F0E99D42F0E89C45F0E4
:01077B00225B
:10077C00BB010789828A8302093A5005E9F802090C
:10078C002EBBFE05E9F802094689828A83020952CA
:10079C00BB010DE58229F582E5833AF58302093A1E
:1007AC005007E92582F802092EBBFE07E92582F8DD
:1007BC00020946E58229F582E5833AF5830209525E
:1007CC00BB010789828A8302085A5005E9F802099D
:0A07DC0098BBFE05E9F80209A4220B
:1007E600BB010DE58229F582E5833AF58302085AB5
:1007F6005007E92582F8020998BBFE07E92582F829
:040806000209A4221D
:10080A00BB010789828A8302096F5005E9F8020948
:10081A0062BBFE05E9F802097B89828A830209889C
:10082A00BB010DE58229F582E5833AF58302096F5A
:10083A005007E92582F8020962BBFE07E92582F81A
:10084A0002097BE58229F582E5833AF58302098864
:0C085A00ECF0A3EDF0A3EEF0A3EFF02211
:10086600A8828583F0D083D08212087D12087D127B
:10087600087D12087DE473E493A3C583C5F0C583A0
:10088600C8C582C8F0A3C583C5F0C583C8C582C8DC
:01089600223F
:10089700BB010DE58229F582E5833AF583020866F7
:1008A7005007E92582F80209B0BBFE07E92582F85F
:0408B7000209C92247
:1008BB00F8E0FBA3A3E0F925F0F0E58215827002C6
:0708CB001583E0FA38F0226A
:0908D200EBF0A3EAF0A3E9F02227
:1008DB00D083D082F8E4937012740193700DA3A3AC
:1008EB0093F8740193F5828883E4737402936860C0
:0608FB00EFA3A3A380DFC0
:10090100EC8EF0A4CCC5F0CCCDF8EFA4CEC5F02D83
:10091100FDE43CFCE8A42EC8C5F03DFDE43CFCEF41
:0D092100A4FFE5F028FEE43DFDE43CFC22CF
:1025F100EFB40A07740D1225FC740A309811A899DA
:10260100B8130CC2983098FDA899C298B811F63049
:0726110099FDC299F5992221
:0C092E00E6FC08E6FD08E6FE08E6FF22F5
:0C093A00E0FCA3E0FDA3E0FEA3E0FF2230
:0C094600E2FC08E2FD08E2FE08E2FF22ED
:10095200E493FC740193FD740293FE740393FF22EB
:0D096200E6FB08E6F908E6FA08E6CBF82205
:0C096F00E0F8A3E0F9A3E0FAA3E0FB220B
:0D097B00E2FB08E2F908E2FA08E2CBF822FC
:10098800E493F8740193F9740293FA740393FB22C5
:0C099800ECF608EDF608EEF608EFF6228B
:0C09A400ECF208EDF208EEF208EFF2228F
:1009B000D083D082E493F608740193F6087402930E
:0909C000F608740393F674047345
:1009C900D083D082E493F208740193F208740293FD
:0909D900F208740393F274047334
:00000001FF
