:0300000002155D89
:0C155D00787FE4F6D8FD7581210215A40A
:101A4E0048656C6C6F2C4543424D2069732072754E
:101A5E006E696E672061742025642074696D6573EC
:041A6E002E0D0A002F
:10197A00E4900000F0120968E4FD7F03121A8E90C9
:10198A000000E004F07BFF7A1A794EE0FF90000530
:10199A00E4F0A3EFF07F0312166A7FE87E031200D9
:0319AA000380DCDB
:071ADB004401980000000027
:10000300EF4E601A900190E0FCA3E0FDED1D70013E
:0E0013001C144C70F7EF1F70011E144E70E6A7
:0100210022BC
:081ABC0090010EE0FEA3E0FF23
:0A1AC400EF1FAC0670011E4C70F617
:011ACE0022F5
:101A2800900190E0FCA3E0FD1208E3E47B83FAF95F
:101A3800F81207789001941208A6900194E0C31355
:061A4800FEA3E013FF22E3
:1019D800900193E06599600AE599F0E4900192F02E
:1019E8008006900192E004F0900192E0C394E940EF
:0919F80007000075C76000002221
:0B172100900110EBF0A3EAF0A3E9F048
:10172C0090017B7401F0A37401F0A37413F0900189
:10173C0010E0F9A3E0FAA3E0900070C9F0A3EAF07E
:10174C00A3E9F090017BE0F9A3E0FAA3E090007329
:10175C00C9F0A3EAF0A3E9F07B017A01793B1218F6
:0C176C006D7B017A01793B7F010219437B
:1015E900EF14600D14602614603C146054240470D8
:1015F9006F90FE027480F090FE02E030E0F990FEF8
:1016090000E054FCF090FE03E4F0A3F02290FE0405
:101619007480F090FE04E030E0F990FE00E04403AD
:10162900F090FE03803490FE037480F090FE03E096
:1016390030E0F990FE00E054FC4401F090FE048093
:101649001990FE0374C0F090FE03E030E0F990FEBB
:1016590000E054FC4402F090FE04E4F090FE02F035
:01166900225E
:0C1ACF00EF90FE01700304F022EFF02203
:1009680043BA80AF9FE4FCFDFEC004A905AA06AB0C
:100978000778FBE6FFD000C3EF9BFFEE9AFEED99E8
:10098800FDEC98FCE47BF07AD2F9F8120778C3E41E
:100998009FFF74369EFE746E9DFD74019CFC900052
:1009A800011208A6900001E0FCA3E0FDA3E0FEA36D
:1009B800E0FFC00790FE01E0FBE4FAF9F8D0071267
:1009C80008039000011208A67FC07EF67D577C00C0
:1009D800900001E0F8A3E0F9A3E0FAA3E0FBC3125A
:1009E8000895500D9001981208B200546000020B4F
:1009F800977FC07E267D827C00900001E0F8A3E00E
:100A0800F9A3E0FAA3E0FBC3120895500D900198F2
:100A18001208B2005B8D80020B977F807EED7DAF60
:100A28007C00900001E0F8A3E0F9A3E0FAA3E0FB62
:100A3800C3120895500D9001981208B200A8C00082
:100A4800020B977F807E2D7DE87C00900001E0F806
:100A5800A3E0F9A3E0FAA3E0FBC3120895500D90B8
:100A680001981208B200B71B00020B977F807E36F0
:100A78007D257C01900001E0F8A3E0F9A3E0FAA34A
:100A8800E0FBC3120895500D9001981208B20119A5
:100A98004000020B977F807E567D417C01900001CB
:100AA800E0F8A3E0F9A3E0FAA3E0FBC3120895502D
:100AB8000D9001981208B201312D00020B977F00AA
:100AC8007EDB7D5F7C01900001E0F8A3E0F9A3E004
:100AD800FAA3E0FBC3120895500D9001981208B2D2
:100AE80001518000020B977F607E197D857C019003
:100AF8000001E0F8A3E0F9A3E0FAA3E0FBC31208C1
:100B080095500D9001981208B2016E3600020B97AD
:100B18007F207EE07DB27C01900001E0F8A3E0F93F
:100B2800A3E0FAA3E0FBC3120895500C90019812B9
:100B380008B2019BFCC080577FE07EA67DE07C0167
:100B4800900001E0F8A3E0F9A3E0FAA3E0FBC312E8
:100B58000895500C9001981208B201C9C380802FE3
:100B68007F607E2B7DFF7C01900001E0F8A3E0F917
:100B7800A3E0FAA3E0FBC31208959001985009126C
:100B880008B201FA400080071208B202160EC0E44B
:100B98007B107A27F9F8900198E0FCA3E0FDA3E028
:100BA800FEA3E0FF120803900190EEF0A3EFF0E43B
:100BB800900193F0900192F0C20B12002600D2AF80
:010BC800002C
:010BC9002209
:0B12330090009EEBF0A3EAF0A3E9F0AE
:10123E007F647E00121A2890010EEEF0A3EFF0905C
:10124E00010B7401F0A37400F0A374A1F090009E42
:10125E00E0F9A3E0FAA3E0900070C9F0A3EAF0A3CE
:10126E00E9F090010BE0F9A3E0FAA3E0900073C956
:10127E00F0A3EAF0A3E9F07B017A0079CB12186DA6
:10128E009000C9EEF0A3EFF07FF47E01120003E4AC
:10129E00FBFAD39000CAE09B9000C9E09A40E9D2D5
:1012AE00B1C2B1121ABC74CB2BF58274003AF5831D
:1012BE00E0F9E4FDE930E004D2B18002C2B1E9C345
:1012CE0013F9121ABC0DEDB408EAD2B1121ABC12FF
:0912DE001ABC0BBB00010A80B927
:0B138A0090019CEBF0A3EAF0A3E9F057
:10139500E4FFFE9001A2F0A3F0A3F0A3F090019C5E
:1013A500E0FBA3E0FAA3E0F91206D260729001A572
:1013B500E004F070069001A4E004F090019FE0FBCA
:1013C500A3E0FAA3E0F98F828E831206EBFD90016C
:1013D5009CE0FBA3E0FAA3E0F91206D2B505070FDE
:1013E500BF00010E8012E4FEFF9001A4E0FDA3E022
:1013F5009001A2CDF0A3EDF090019DE475F00112EE
:10140500074C90019FE0FBA3E0FAA3E0F98F828EE1
:10141500831206EB70879001A2E0FEA3E0FF227E17
:03142500FF7FFF47
:0114280022A1
:10117C00E49001B0F09001B2F09001B1F09001B1A7
:10118C00E0FFC3940A400302122D7E00ED2FF5827E
:10119C00EE3CF5831206EBFFC3648094B0404BD356
:1011AC00EF648094B750439001B2E004F0E0B401D6
:1011BC00179001B1E02DF582EE3CF5831206EB247D
:1011CC00D0C454F09001B0F09001B2E0B4021B9086
:1011DC0001B1E07E002DF582EE3CF5831206EB2486
:1011EC00D0FF9001B0E04FFFF0229001B1E07E0003
:1011FC002DF582EE3CF5831206EBFFC3648094B8A8
:10120C00400ED3EF648094B950069001B2E004F024
:10121C00EF642C600CEF60099001B1E004F0021156
:06122C00899001B0E0FF13
:011232002299
:0810C0009001A6ECF0A3EDF095
:1010C800E4A3F0A3F0A3F09001AAE0FFC3941440B6
:1010D800030211739001A7E02FFF9001A6E03400EE
:1010E8008F82F5831206EBFFC3648094B0404ED321
:1010F800EF648094B950469001A8E0FEA3E0FF7C1D
:10110800007D0A12073A9001A8EEF0A3EFF0A3E0E1
:10111800FF9001A7E02FFF9001A6E034008F82F531
:10112800831206EBFF3395E0FEEF24D0FFEE34FF89
:10113800FE9001A9E02FF09001A8E03EF09001AAEE
:10114800E0FF9001A7E02FFF9001A6E034008F8216
:10115800F5831206EBFF642C6011EF642E600CEF30
:1011680060099001AAE004F00210CF9001A8E0FE07
:03117800A3E0FFF2
:01117B002251
:100D6C0090017EEBF0A3EAF0A3E9F0A3ECF0A3ED85
:010D7C00F086
:100D7D00E490018AF0A3F0A3F0A3F0A3F0A3F09008
:100D8D000188F0A3F0900181E0FEA3E0FF900188BF
:100D9D00E0FCA3E0FDC39FEC9E4003020E3C9001DE
:100DAD0083E0FBA3E0FAA3E0F990018AE0FEA3E063
:100DBD00F5828E831206EBFF90017EE0FBA3E0FA35
:100DCD00A3E0F98D828C831206EBB5073390018B6E
:100DDD00E004F0700690018AE004F0900186E0FED8
:100DED00A3E0FF90018AE0B50631A3E0B5072C9092
:100DFD000188E0FFA3E090018ECFF0A3EFF0802FEC
:100E0D00E490018AF0A3F0900189E02401FE9001A5
:100E1D0088E0340090018CF0A3CEF0900189E004BD
:100E2D00F06003020D92900188E004F0020D9290A3
:100E3D00018EE0FEA3E0FF90018CE0FCA3E0FDD36A
:100E4D009FEC9E5044900188ECF0A3EDF090018E44
:100E5D00E0FEA3E0FF900188E0FCA3E0FDC39FEC62
:100E6D009E502390017EE0FBA3E0FAA3E0F98D8272
:100E7D008C83E4120718900189E004F070CF900183
:0B0E8D0088E004F080C77F01227F0096
:010E98002237
:100BCA006770696F5F757070756C6C283C4425306E
:100BDA0032583E2C2564293BB2BBB4E6D4DAB8C3FA
:100BEA00494F0D0A006770696F5F757070756C6C9C
:100BFA00283C44253032583E2C31293BB2BBB4E65E
:100C0A00D4DAB8C3494F0D0A006770696F5F75700F
:100C1A0070756C6C283C44253032583E2C30293B88
:100C2A00B2BBB4E6D4DAB8C3494F0D0A006770699B
:100C3A006F5F6D6F6465283C44253032583E2C2521
:100C4A0064293BB2BBB4E6D4DAB8C3494F0D0A00F3
:100C5A006770696F5F6D6F64652844253032582C60
:100C6A003C25643E293BB2BBB4E6D4DAB8C3C4A37C
:100C7A00CABD0D0A006770696F5F7772697465286B
:100C8A003C25643E2C2564293BB2BBB4E6D4DAB8D1
:100C9A00C350BFDA0D0A006770696F5F72656164DD
:100CAA00283C5025643E293BB2BBB4E6D4DAB8C32B
:100CBA0050BFDA0D0A006770696F5F6F7574283C60
:100CCA0044253032583E2C2564293BB2BBB4E6D4C5
:100CDA00DAB8C3494F0D0A006770696F5F6F7574A0
:100CEA00283C44253032583E2C31293BB2BBB4E66D
:100CFA00D4DAB8C3494F0D0A006770696F5F6F7520
:100D0A0074283C44253032583E2C30293BB2BBB4BF
:100D1A00E6D4DAB8C3494F0D0A006770696F5F6994
:100D2A006E283C44253032583E293BB2BBB4E6D447
:100D3A00DAB8C3494F0D0A006770696F5F746F674D
:100D4A00676C65283C44253032583E293BB2BBB417
:100D5A00E6D4DAB8C3494F0D0A000102040810208C
:020D6A004080C7
:050E99009001B5EFF02F
:100E9E0064887003020FAD9001B5E0FF54F0F50DBC
:100EAE00EF540FFF900D6493F50EEFD3940740218E
:100EBE007BFF7A0B79CA9001B5E0FF9000A1E4F0B8
:100ECE00A3EFF0A20CE4FF33A3CFF0A3EFF01212C6
:100EDE0033300C63E50D24F0602124F0602224F001
:100EEE00602324F0602424F0602524F0602624F092
:100EFE0060272470702B90FE10802190FE11801CB4
:100F0E0090FE12801790FE13801290FE14800D90AA
:100F1E00FE15800890FE16800390FE17E0450EF039
:100F2E00227BFF7A0B79EF9001B5E0FF9000A1E4F0
:100F3E00F0A3EFF0021233E50D24F0602124F060EF
:100F4E002224F0602324F0602424F0602524F06035
:100F5E002624F060272470703090FE10802190FEC1
:100F6E0011801C90FE12801790FE13801290FE14BA
:100F7E00800D90FE15800890FE16800390FE17E0FF
:100F8E00FFE50EF4FEEF5EF0227BFF7A0C791390F4
:0F0F9E0001B5E0FF9000A1E4F0A3EFF0121233D1
:010FAD002221
:0A03F3009001B4EDF09001B3EFF0BB
:1003FD00648870030206D19001B3E0FF54F0F50D4F
:10040D00EF540FFF900D6493F50EEFD39407402337
:10041D007BFF7A0C79379001B3E0FF9000A1E4F0F7
:10042D00A3EFF09001B4E0FF9000A3E4F0A3EFF090
:10043D00121233E50D24F0602124F0602224F060C7
:10044D002324F0602424F0602524F0602624F0603D
:10045D002724707028E4F50D8046750D01804175D7
:10046D000D02803C750D038037750D048032750DBE
:10047D0005802D750D068028750D0780237BFF7A6D
:10048D000C79379001B3E0FF9000A1E4F0A3EFF0F9
:10049D009001B4E0FF9000A3E4F0A3EFF01212334B
:1004AD009001B4E0FFD39403401C7BFF7A0C795A82
:1004BD009001B3E0FD9000A1E4F0A3EDF0A3E4F012
:1004CD00A3EFF0121233E50D703A9001B4E0FF7016
:1004DD0007E50EF452935294EFB40109E50E4293E1
:1004ED00E50EF452949001B4E0B40208E50E429387
:1004FD00E50E42949001B4E0B40309E50EF4529375
:10050D00E50E4294E50D6401703A9001B4E0FF7080
:10051D0007E50EF452915292EFB40109E50E4291A6
:10052D00E50EF452929001B4E0B40208E50E42914A
:10053D00E50E42929001B4E0B40309E50EF4529138
:10054D00E50E4292E50D6402703A9001B4E0FF7041
:10055D0007E50EF452955296EFB40109E50E42955A
:10056D00E50EF452969001B4E0B40208E50E429502
:10057D00E50E42969001B4E0B40309E50EF45295F0
:10058D00E50E4296E50D6403703A9001B4E0FF70FC
:10059D0007E50EF452B152B2EFB40109E50E42B1C6
:1005AD00E50EF452B29001B4E0B40208E50E42B18A
:1005BD00E50E42B29001B4E0B40309E50EF452B178
:1005CD00E50E42B2E50D6404703A9001B4E0FF709F
:1005DD0007E50EF452B352B4EFB40109E50E42B380
:1005ED00E50EF452B49001B4E0B40208E50E42B346
:1005FD00E50E42B49001B4E0B40309E50EF452B334
:10060D00E50E42B4E50D6405703A9001B4E0FF705B
:10061D0007E50EF452C952CAEFB40109E50E42C9FD
:10062D00E50EF452CA9001B4E0B40208E50E42C9D9
:10063D00E50E42CA9001B4E0B40309E50EF452C9C7
:10064D00E50E42CAE50D6406703A9001B4E0FF7004
:10065D0007E50EF452CB52CCEFB40109E50E42CBB7
:10066D00E50EF452CC9001B4E0B40208E50E42CB95
:10067D00E50E42CC9001B4E0B40309E50EF452CB83
:10068D00E50E42CCE50D6407703A9001B4E0FF70C1
:10069D0007E50EF452E152E2EFB40109E50E42E135
:1006AD00E50EF452E29001B4E0B40208E50E42E129
:1006BD00E50E42E29001B4E0B40309E50EF452E117
:0406CD00E50E42E212
:0106D1002206
:1016C700EFB40900503A9016D4F82828730216EFA1
:1016D7000216F20216F50216F80216FB0216FE02B1
:1016E70017010217040217208D80228D90228DA0EA
:1016F700228DB0228DC0228DC8228DE8228DF8223E
:101707007BFF7A0C797F9000A1E4F0A3EFF0AF059F
:0A171700A3E4F0A3EFF01212332256
:10177800EFB40900503D901785F82828730217A088
:101788000217A30217A60217A90217AC0217AF0285
:1017980017B20217B50217B8AF8022AF9022AFA0D8
:1017A80022AFB022AFC022AFC822AFE822AFF822E2
:1017B8007FFF227BFF7A0C79A19000A1E4F0A3EFD0
:0717C800F01212337FFF2233
:050FAE009001B6EFF018
:100FB300648870030210BF9001B6E0FF54F0F50D92
:100FC300EF540FFF900D6493F50EEFD39407402178
:100FD3007BFF7A0C79C09001B6E0FF9000A1E4F0AA
:100FE300A3EFF0A20DE4FF33A3CFF0A3EFF01212AF
:100FF30033300D60E50D24F0602124F0602224F0ED
:10100300602324F0602424F0602524F0602624F07B
:10101300602724707028E50E428022E50E4290225C
:10102300E50E42A022E50E42B022E50E42C022E5C3
:101033000E42C822E50E42E822E50E42F8227BFF6B
:101043007A0C79E29001B6E0FF9000A1E4F0A3EFFF
:10105300F0021233E50D24F0602224F0602424F022
:10106300602624F0602824F0602A24F0602C24F009
:10107300602E24707030E50EF4528022E50EF45297
:101083009022E50EF452A022E50EF452B022E50EB2
:10109300F452C022E50EF452C822E50EF452E822BF
:1010A300E50EF452F8227BFF7A0D79039001B6E046
:0C10B300FF9000A1E4F0A3EFF012123354
:0110BF00220E
:0512E7009001B7EFF0DB
:1012EC00BF8802C3229001B7E0FF54F0F50DEF5414
:1012FC000FFF900D6493F50EEFD3940740167BFF10
:10130C007A0D79249001B7E0FF9000A1E4F0A3EFEF
:10131C00F0121233E50D24F0602124F0602224F049
:10132C00602324F0602424F0602524F0602624F04F
:10133C0060272470702885800F803985900F803449
:10134C0085A00F802F85B00F802A85C00F80258542
:10135C00C80F802085E80F801B85F80F80167BFF57
:10136C007A0D79249001B7E0FF9000A1E4F0A3EF8F
:0D137C00F0121233E50F550E6002D322C3AC
:011389002241
:051429009001B8EFF096
:10142E00648870030214C49001B8E0FF54F0F50D07
:10143E00EF540FFF900D6493F50EEFD39407401603
:10144E007BFF7A0D79429001B8E0FF9000A1E4F0A5
:10145E00A3EFF0121233E50D24F0602124F0602288
:10146E0024F0602324F0602424F0602524F060260C
:10147E0024F0602724707028E50E628022E50E624B
:10148E009022E50E62A022E50E62B022E50E62C049
:10149E0022E50E62C822E50E62E822E50E62F8220F
:1014AE007BFF7A0D79429001B8E0FF9000A1E4F045
:0614BE00A3EFF01212334F
:0114C4002205
:1018FE00EFB40800503E90190BF8282873021923F4
:10190E0002192702192B02192F0219330219370255
:10191E00193B02193FED628022ED629022ED62A02A
:10192E0022ED62B022ED62C022ED62C822ED62E8C5
:05193E0022ED62F82219
:1014C500300E48EFB40800400302155C9014D8F8BC
:1014D5002828730214F00214F40214F80214FC0212
:1014E500150002150402150802150CED428022EDC7
:1014F500429022ED42A022ED42B022ED42C022ED03
:1015050042C822ED42E822ED42F822EFB40800502D
:101515004690151DF828287302153502153A02154F
:101525003F02154402154902154E0215530215587E
:10153500EDF4528022EDF4529022EDF452A022ED0A
:10154500F452B022EDF452C022EDF452C822EDF46B
:0815550052E822EDF452F822E5
:1017CF00EFB4090050449017DCF82828730217F77C
:1017DF000217FB0217FF02180302180702180B0269
:1017EF00180F021813021817AE80801EAE90801AC1
:1017FF00AEA08016AEB08012AEC0800EAEC8800A0A
:10180F00AEE88006AEF88002D322EE5D6002D322EE
:01181F00C305
:0118200022A5
:1000260075985053873F538EDE53A23FE47B04FA04
:10003600F9F8900198E0FCA3E0FDA3E0FEA3E0FF41
:100046001208037B007AC279017800120803C3E420
:100056009FFDE49EAF05438E4053890F8F8BF58D30
:10006600C2ABC28FD28EC209D2AC75AC1053BAFDE8
:10007600438E048FD7F5D653AFFB438E10C20A4387
:02008600AF08C1
:010088002255
:101A8E00EF24FD600B2402700D53A23FED42A22203
:071A9E0053BAFDED42BA222C
:051821009001ABEFF0A7
:10182600E47B04FAF9F8900198E0FCA3E0FDA3E05C
:10183600FEA3E0FF1208039001ACE0F8A3E0F9A3D1
:10184600E0FAA3E0FB120803C3E49FFFE49EFE90C8
:1018560001ABE024FD600A2402700B8F8BEEF58D40
:06186600228FD7EEF5D63B
:01186C002259
:101A7200EF24FD600D240270128D99D20930090BFA
:0C1A820080FBAF058FADD20A200AFD22C8
:1019AD00EF24FD601124027021A20F929B8D99D21C
:1019BD000930091680FB300F0543AC08800353AC8A
:0B19CD00F7AF058FADD20A200AFD2203
:10194300900070EBF0A3EAF0A3E9F0AE079000700B
:10195300E0FBA3E0FAA3E0F91206D26019AF069008
:101963000070A3E475F001120762A9F0FA1206D21F
:07197300FD121A7280D72259
:0E166A00900001EFF0A3EBF0A3EAF0A3E9F08B
:1016780090006D7401F0A37400F0A37405F090005D
:1016880002E0F9A3E0FAA3E0900070C9F0A3EAF041
:10169800A3E9F090006DE0F9A3E0FAA3E0900073ED
:1016A800C9F0A3EAF0A3E9F07B017A00792D1218BA
:0F16B8006D900001E0FF7B017A00792D0219434C
:030023000218B709
:1018B700C0E0C0F0C083C082C0D075D000C000C0F7
:1018C70001C002C003C004C005C006C007309805A8
:1018D700C2981219D8309904C299C209D007D00604
:1018E700D005D004D003D002D001D000D0D0D08210
:0718F700D083D0F0D0E032F5
:03008B00021AA5B1
:101AA500C0E0E5AC30E00353ACFEE5AC30E10553F6
:071AB500ACFDC20AD0E032D3
:1015690002197AE493A3F8E493A34003F68001F205
:1015790008DFF48029E493A3F85407240CC8C33383
:10158900C4540F4420C8834004F456800146F6DF52
:10159900E4800B0102040810204080901ADBE47EED
:1015A900019360BCA3FF543F30E509541FFEE49347
:1015B900A360010ECF54C025E060A840B8E493A30E
:1015C900FAE493A3F8E493A3C8C582C8CAC583CA39
:1015D900F0A3C8C582C8CAC583CADFE9DEE780BEF1
:011AE2000003
:1006D200BB010689828A83E0225002E722BBFE0226
:0906E200E32289828A83E4932259
:1006EB00BB010CE58229F582E5833AF583E02250C4
:1006FB0006E92582F8E622BBFE06E92582F8E2220E
:0D070B00E58229F582E5833AF583E4932227
:10071800F8BB010DE58229F582E5833AF583E8F017
:10072800225006E92582C8F622BBFE05E92582C8C3
:02073800F222AB
:10073A00EF8DF0A4A8F0CF8CF0A428CE8DF0A42ED3
:02074A00FE228D
:10074C00C5F0F8A3E028F0C5F0F8E5821582700238
:06075C001583E038F022D5
:10076200A3F8E0C5F025F0F0E5821582700215834A
:06077200E0C838F0E822A7
:10077800E88FF0A4CC8BF0A42CFCE98EF0A42CFC20
:100788008AF0EDA42CFCEA8EF0A4CDA8F08BF0A49E
:100798002DCC3825F0FDE98FF0A42CCD35F0FCEBFD
:1007A8008EF0A4FEA9F0EB8FF0A4CFC5F02ECD39C2
:0F07B800FEE43CFCEAA42DCE35F0FDE43CFC222F
:1007C70075F008758200EF2FFFEE33FECD33CDCCE9
:1007D70033CCC58233C5829BED9AEC99E58298406C
:1007E7000CF582EE9BFEED9AFDEC99FC0FD5F0D649
:1007F700E4CEFBE4CDFAE4CCF9A88222B800C1B973
:100807000059BA002DEC8BF084CFCECDFCE5F0CBB0
:10081700F97818EF2FFFEE33FEED33FDEC33FCEBE9
:1008270033FB10D703994004EB99FB0FD8E5E4F9A4
:10083700FA227818EF2FFFEE33FEED33FDEC33FC91
:10084700C933C910D7059BE99A4007EC9BFCE99A85
:10085700F90FD8E0E4C9FAE4CCFB2275F010EF2FCA
:10086700FFEE33FEED33FDCC33CCC833C810D707CA
:100877009BEC9AE899400AED9BFDEC9AFCE899F805
:0E0887000FD5F0DAE4CDFBE4CCFAE4C8F92298
:10089500EB9FF5F0EA9E42F0E99D42F0E89C45F0B9
:0108A5002230
:0C08A600ECF0A3EDF0A3EEF0A3EFF022C5
:1008B200A8828583F0D083D0821208C91208C91297
:1008C20008C91208C9E473E493A3C583C5F0C583BC
:1008D200C8C582C8F0A3C583C5F0C583C8C582C890
:0108E20022F3
:1008E300EC8EF0A4CCC5F0CCCDF8EFA4CEC5F02DA2
:1008F300FDE43CFCE8A42EC8C5F03DFDE43CFCEF60
:0D090300A4FFE5F028FEE43DFDE43CFC22ED
:10186D00900070E0FFA3E0FEA3E0CF900079F0A31D
:10187D00EEF0A3EFF0900073E0CBF0A3E0CAF0A37D
:10188D00E0C9F07F2290007CAD82AC831206D28D30
:10189D00828C83F0A309E970010ADFEC900073E0FC
:0A18AD00FBA3E0FAA3E0F90200F348
:10008E00E5082479F582E43400F583E00508229032
:10009E000076300703900079E475F0011209220210
:1000AE0006D22000E97F2ED2008018EF540F249044
:1000BE00D43440D4FF30040BEF24BFB41A005003E5
:1000CE002461FFE50960021509050CE50C700205B7
:1000DE000B30070E900076E475F001120922EF0244
:1000EE000910021A017403D2078003E4C207F5084F
:1000FE00900076120939E4F509F50BF50CE5096067
:10010E00077F201200D180F5750AFFC201C200C21E
:10011E0002C203C205C206C20812009DFF700D3056
:10012E0007057F001200E2AF0CAE0B22B4255FC2B2
:10013E00D5C20412009DFF24D0B40A00501A75F0E7
:10014E000A780930D50508B6FF0106C6A426F620A2
:10015E00D5047002D20380D924CFB41A00EF500414
:10016E00C2E5D2040202E3D20180C6D20080C0D220
:10017E000280BCD2D580BAD20580B47F201200D1C5
:10018E002002077401B5090040F112008EFF120023
:10019E00D102010BD208D206809512008EFB1200FE
:1001AE008EFA12008EF94A4B700679B47A037BFFF1
:1001BE0020022EE509602A7E008E827583001206CB
:1001CE00EB60060EEE650A70F0C2D5EBC0E0EAC039
:1001DE00E0E9C0E0EE12032AD0E0F9D0E0FAD0E078
:1001EE00FB1206D2FF60AAEBC0E0EAC0E0E9C0E075
:1001FE001200D1D0E02401F9D0E03400FAD0E0FBB7
:10020E00E50A0460DCD50AD980877BFF7A0379265C
:10021E00D202809C791080027908C206C20880083A
:10022E00D2D5790A8004790AC2D5E50A047002F59E
:10023E000AE4FAFDFEFF12008EFC7B082001131269
:10024E00008EFD7B1030000A12008EFE12008EFF13
:10025E007B20EC3382D592D55013C3E43000069F39
:10026E00FFE49EFEE42001039DFDE49CFCE4CBF83C
:10027E00C201EC700CCFCECDCCE824F8F870F38030
:10028E0017C3EF33FFEE33FEED33FDEC33FCEB33F0
:10029E00FB994002FB0FD8E9EB300105F8D0E0C422
:1002AE0048B201C0E00AEC4D4E4F78207B0070C280
:1002BE00EAB50A0040BCC0E012032CD0F0D0E0201A
:1002CE000104C4C0E0C4B201C0F01200BAD0F0D52F
:1002DE00F0EB02010B12094201A8530222580179D8
:1002EE004C01754202264F022E44022E49018E43C6
:0802FE000234550218460218F3
:100306004502184703D450017D2D01812E01A42BEF
:1003160001852301A22003BD2A013D480000019C5E
:100326003F3F3F00790AA2D5200314300509B910D2
:10033600020404B9080104A2D520060250010420D3
:1003460002689202B509005034C0E07F20300319DC
:100356007F30A20272067205500F120383C202C2D8
:1003660006C205C2087F30800F300503E9C0E012DF
:1003760000D1300503D0E0F9D0E0B509CC3005173F
:100386007F30B9100C1200D17F583004077F788077
:1003960003B908031200D13002057F2D0200D17F78
:1003A600202008F87F2B2006F322920280CF286EA9
:1003B600756C6C2900D20112008E3001F8C20178EA
:1003C6000930D50108F602013D2D50434958120067
:1003D6008E2403B405004001E49003CF931200C2BB
:0D03E600743A1200C2D2037509040202220B
:10091000BB010689828A83F0225002F722BBFE01C6
:02092000F322C0
:10092200F8E0FBA3A3E0F925F0F0E582158270025E
:070932001583E0FA38F02202
:09093900EBF0A3EAF0A3E9F022BF
:10094200D083D082F8E4937012740193700DA3A344
:1009520093F8740193F5828883E473740293686058
:06096200EFA3A3A380DF58
:101A0100EFB40A07740D121A0C740A309811A899D0
:101A1100B8130CC2983098FDA899C298B811F63045
:071A210099FDC299F599221D
:00000001FF
