:0300000002156581
:0C156500787FE4F6D8FD7581210215ACFA
:101A4F0048656C6C6F2C4543424D2069732072754D
:101A5F006E696E672061742025642074696D6573EB
:041A6F002E0D0A002E
:10198200E4900000F0120970900000E004F07BFF88
:101992007A1A794FE0FF900005E4F0A3EFF07F049C
:0C19A2001216727FE87E0312000380DC46
:070089004401980000000093
:10000300EF4E601A900190E0FCA3E0FDED1D70013E
:0E0013001C144C70F7EF1F70011E144E70E6A7
:0100210022BC
:081ABD0090010EE0FEA3E0FF22
:0A1AC500EF1FAC0670011E4C70F616
:011ACF0022F4
:101A2900900190E0FCA3E0FD1208EBE47B83FAF956
:101A3900F81207809001941208AE900194E0C31344
:061A4900FEA3E013FF22E2
:1019D900900193E06599600AE599F0E4900192F02D
:1019E9008006900192E004F0900192E0C394E940EE
:0919F90007000075C76000002220
:0B172900900110EBF0A3EAF0A3E9F040
:1017340090017B7401F0A37401F0A37413F0900181
:1017440010E0F9A3E0FAA3E0900070C9F0A3EAF076
:10175400A3E9F090017BE0F9A3E0FAA3E090007321
:10176400C9F0A3EAF0A3E9F07B017A01793B1218EE
:0C177400757B017A01793B7F0102194B63
:1015F100EF14600D14602614603C146054240470D0
:101601006F90FE027480F090FE02E030E0F990FEEF
:1016110000E054FCF090FE03E4F0A3F02290FE04FD
:101621007480F090FE04E030E0F990FE00E04403A5
:10163100F090FE03803490FE037480F090FE03E08E
:1016410030E0F990FE00E054FC4401F090FE04808B
:101651001990FE0374C0F090FE03E030E0F990FEB3
:1016610000E054FC4402F090FE04E4F090FE02F02D
:011671002256
:0C1AD000EF90FE01700304F022EFF02202
:1009700043BA80AF9FE4FCFDFEC004A905AA06AB04
:100980000778FBE6FFD000C3EF9BFFEE9AFEED99E0
:10099000FDEC98FCE47BF07AD2F9F8120780C3E40E
:1009A0009FFF74369EFE746E9DFD74019CFC90004A
:1009B000011208AE900001E0FCA3E0FDA3E0FEA35D
:1009C000E0FFC00790FE01E0FBE4FAF9F8D007125F
:1009D000080B9000011208AE7FC07EF67D577C00A8
:1009E000900001E0F8A3E0F9A3E0FAA3E0FBC31252
:1009F000089D500D9001981208BA00546000020B37
:100A00009F7FC07E267D827C00900001E0F8A3E0FD
:100A1000F9A3E0FAA3E0FBC312089D500D900198E2
:100A20001208BA005B8D80020B9F7F807EED7DAF48
:100A30007C00900001E0F8A3E0F9A3E0FAA3E0FB5A
:100A4000C312089D500D9001981208BA00A8C0006A
:100A5000020B9F7F807E2D7DE87C00900001E0F8F6
:100A6000A3E0F9A3E0FAA3E0FBC312089D500D90A8
:100A700001981208BA00B71B00020B9F7F807E36D8
:100A80007D257C01900001E0F8A3E0F9A3E0FAA342
:100A9000E0FBC312089D500D9001981208BA01198D
:100AA0004000020B9F7F807E567D417C01900001BB
:100AB000E0F8A3E0F9A3E0FAA3E0FBC312089D501D
:100AC0000D9001981208BA01312D00020B9F7F0092
:100AD0007EDB7D5F7C01900001E0F8A3E0F9A3E0FC
:100AE000FAA3E0FBC312089D500D9001981208BABA
:100AF00001518000020B9F7F607E197D857C0190F3
:100B00000001E0F8A3E0F9A3E0FAA3E0FBC31208B8
:100B10009D500D9001981208BA016E3600020B9F8D
:100B20007F207EE07DB27C01900001E0F8A3E0F937
:100B3000A3E0FAA3E0FBC312089D500C90019812A9
:100B400008BA019BFCC080577FE07EA67DE07C0157
:100B5000900001E0F8A3E0F9A3E0FAA3E0FBC312E0
:100B6000089D500C9001981208BA01C9C380802FCB
:100B70007F607E2B7DFF7C01900001E0F8A3E0F90F
:100B8000A3E0FAA3E0FBC312089D9001985009125C
:100B900008BA01FA400080071208BA02160EC0E433
:100BA0007B107A27F9F8900198E0FCA3E0FDA3E020
:100BB000FEA3E0FF12080B900190EEF0A3EFF0E42B
:100BC000900193F0900192F0C20B12002600D2AF78
:010BD0000024
:010BD1002201
:0B123B0090009EEBF0A3EAF0A3E9F0A6
:101246007F647E00121A2990010EEEF0A3EFF09053
:10125600010B7401F0A37400F0A374A1F090009E3A
:10126600E0F9A3E0FAA3E0900070C9F0A3EAF0A3C6
:10127600E9F090010BE0F9A3E0FAA3E0900073C94E
:10128600F0A3EAF0A3E9F07B017A0079CB12187596
:101296009000C9EEF0A3EFF07FF47E01120003E4A4
:1012A600FBFAD39000CAE09B9000C9E09A40E9D2CD
:1012B600B1C2B1121ABD74CB2BF58274003AF58314
:1012C600E0F9E4FDE930E004D2B18002C2B1E9C33D
:1012D60013F9121ABD0DEDB408EAD2B1121ABD12F5
:0912E6001ABD0BBB00010A80B91E
:0B13920090019CEBF0A3EAF0A3E9F04F
:10139D00E4FFFE9001A2F0A3F0A3F0A3F090019C56
:1013AD00E0FBA3E0FAA3E0F91206DA60729001A562
:1013BD00E004F070069001A4E004F090019FE0FBC2
:1013CD00A3E0FAA3E0F98F828E831206F3FD90015C
:1013DD009CE0FBA3E0FAA3E0F91206DAB505070FCE
:1013ED00BF00010E8012E4FEFF9001A4E0FDA3E01A
:1013FD009001A2CDF0A3EDF090019DE475F00112E6
:10140D00075490019FE0FBA3E0FAA3E0F98F828ED1
:10141D00831206F370879001A2E0FEA3E0FF227E07
:03142D00FF7FFF3F
:011430002299
:10118400E49001B0F09001B2F09001B1F09001B19F
:10119400E0FFC3940A40030212357E00ED2FF5826E
:1011A400EE3CF5831206F3FFC3648094B0404BD346
:1011B400EF648094B750439001B2E004F0E0B401CE
:1011C400179001B1E02DF582EE3CF5831206F3246D
:1011D400D0C454F09001B0F09001B2E0B4021B907E
:1011E40001B1E07E002DF582EE3CF5831206F32476
:1011F400D0FF9001B0E04FFFF0229001B1E07E00FB
:101204002DF582EE3CF5831206F3FFC3648094B897
:10121400400ED3EF648094B950069001B2E004F01C
:10122400EF642C600CEF60099001B1E004F002114E
:06123400919001B0E0FF03
:01123A002291
:0810C8009001A6ECF0A3EDF08D
:1010D000E4A3F0A3F0A3F09001AAE0FFC3941440AE
:1010E0000302117B9001A7E02FFF9001A6E03400DE
:1010F0008F82F5831206F3FFC3648094B0404ED311
:10110000EF648094B950469001A8E0FEA3E0FF7C14
:10111000007D0A1207429001A8EEF0A3EFF0A3E0D1
:10112000FF9001A7E02FFF9001A6E034008F82F529
:10113000831206F3FF3395E0FEEF24D0FFEE34FF79
:10114000FE9001A9E02FF09001A8E03EF09001AAE6
:10115000E0FF9001A7E02FFF9001A6E034008F820E
:10116000F5831206F3FF642C6011EF642E600CEF20
:1011700060099001AAE004F00210D79001A8E0FEF7
:03118000A3E0FFEA
:011183002249
:100D740090017EEBF0A3EAF0A3E9F0A3ECF0A3ED7D
:010D8400F07E
:100D8500E490018AF0A3F0A3F0A3F0A3F0A3F09000
:100D95000188F0A3F0900181E0FEA3E0FF900188B7
:100DA500E0FCA3E0FDC39FEC9E4003020E449001CE
:100DB50083E0FBA3E0FAA3E0F990018AE0FEA3E05B
:100DC500F5828E831206F3FF90017EE0FBA3E0FA25
:100DD500A3E0F98D828C831206F3B5073390018B5E
:100DE500E004F0700690018AE004F0900186E0FED0
:100DF500A3E0FF90018AE0B50631A3E0B5072C908A
:100E05000188E0FFA3E090018ECFF0A3EFF0802FE3
:100E1500E490018AF0A3F0900189E02401FE90019D
:100E250088E0340090018CF0A3CEF0900189E004B5
:100E3500F06003020D9A900188E004F0020D9A908B
:100E4500018EE0FEA3E0FF90018CE0FCA3E0FDD362
:100E55009FEC9E5044900188ECF0A3EDF090018E3C
:100E6500E0FEA3E0FF900188E0FCA3E0FDC39FEC5A
:100E75009E502390017EE0FBA3E0FAA3E0F98D826A
:100E85008C83E4120720900189E004F070CF900173
:0B0E950088E004F080C77F01227F008E
:010EA000222F
:100BD2006770696F5F757070756C6C283C44253066
:100BE20032583E2C2564293BB2BBB4E6D4DAB8C3F2
:100BF200494F0D0A006770696F5F757070756C6C94
:100C0200283C44253032583E2C31293BB2BBB4E655
:100C1200D4DAB8C3494F0D0A006770696F5F757007
:100C220070756C6C283C44253032583E2C30293B80
:100C3200B2BBB4E6D4DAB8C3494F0D0A0067706993
:100C42006F5F6D6F6465283C44253032583E2C2519
:100C520064293BB2BBB4E6D4DAB8C3494F0D0A00EB
:100C62006770696F5F6D6F64652844253032582C58
:100C72003C25643E293BB2BBB4E6D4DAB8C3C4A374
:100C8200CABD0D0A006770696F5F77726974652863
:100C92003C25643E2C2564293BB2BBB4E6D4DAB8C9
:100CA200C350BFDA0D0A006770696F5F72656164D5
:100CB200283C5025643E293BB2BBB4E6D4DAB8C323
:100CC20050BFDA0D0A006770696F5F6F7574283C58
:100CD20044253032583E2C2564293BB2BBB4E6D4BD
:100CE200DAB8C3494F0D0A006770696F5F6F757498
:100CF200283C44253032583E2C31293BB2BBB4E665
:100D0200D4DAB8C3494F0D0A006770696F5F6F7517
:100D120074283C44253032583E2C30293BB2BBB4B7
:100D2200E6D4DAB8C3494F0D0A006770696F5F698C
:100D32006E283C44253032583E293BB2BBB4E6D43F
:100D4200DAB8C3494F0D0A006770696F5F746F6745
:100D5200676C65283C44253032583E293BB2BBB40F
:100D6200E6D4DAB8C3494F0D0A0001020408102084
:020D72004080BF
:050EA1009001B5EFF027
:100EA60064887003020FB59001B5E0FF54F0F50DAC
:100EB600EF540FFF900D6C93F50EEFD3940740217E
:100EC6007BFF7A0B79D29001B5E0FF9000A1E4F0A8
:100ED600A3EFF0A20CE4FF33A3CFF0A3EFF01212BE
:100EE6003B300C63E50D24F0602124F0602224F0F1
:100EF600602324F0602424F0602524F0602624F08A
:100F060060272470702B90FE10802190FE11801CAB
:100F160090FE12801790FE13801290FE14800D90A2
:100F2600FE15800890FE16800390FE17E0450EF031
:100F3600227BFF7A0B79F79001B5E0FF9000A1E4E0
:100F4600F0A3EFF002123BE50D24F0602124F060DF
:100F56002224F0602324F0602424F0602524F0602D
:100F66002624F060272470703090FE10802190FEB9
:100F760011801C90FE12801790FE13801290FE14B2
:100F8600800D90FE15800890FE16800390FE17E0F7
:100F9600FFE50EF4FEEF5EF0227BFF7A0C791B90E4
:0F0FA60001B5E0FF9000A1E4F0A3EFF012123BC1
:010FB5002219
:0A03FB009001B4EDF09001B3EFF0B3
:10040500648870030206D99001B3E0FF54F0F50D3E
:10041500EF540FFF900D6C93F50EEFD39407402327
:100425007BFF7A0C793F9001B3E0FF9000A1E4F0E7
:10043500A3EFF09001B4E0FF9000A3E4F0A3EFF088
:1004450012123BE50D24F0602124F0602224F060B7
:100455002324F0602424F0602524F0602624F06035
:100465002724707028E4F50D8046750D01804175CF
:100475000D02803C750D038037750D048032750DB6
:1004850005802D750D068028750D0780237BFF7A65
:100495000C793F9001B3E0FF9000A1E4F0A3EFF0E9
:1004A5009001B4E0FF9000A3E4F0A3EFF012123B3B
:1004B5009001B4E0FFD39403401C7BFF7A0C796272
:1004C5009001B3E0FD9000A1E4F0A3EDF0A3E4F00A
:1004D500A3EFF012123BE50D703A9001B4E0FF7006
:1004E50007E50EF452935294EFB40109E50E4293D9
:1004F500E50EF452949001B4E0B40208E50E42937F
:10050500E50E42949001B4E0B40309E50EF452936C
:10051500E50E4294E50D6401703A9001B4E0FF7078
:1005250007E50EF452915292EFB40109E50E42919E
:10053500E50EF452929001B4E0B40208E50E429142
:10054500E50E42929001B4E0B40309E50EF4529130
:10055500E50E4292E50D6402703A9001B4E0FF7039
:1005650007E50EF452955296EFB40109E50E429552
:10057500E50EF452969001B4E0B40208E50E4295FA
:10058500E50E42969001B4E0B40309E50EF45295E8
:10059500E50E4296E50D6403703A9001B4E0FF70F4
:1005A50007E50EF452B152B2EFB40109E50E42B1BE
:1005B500E50EF452B29001B4E0B40208E50E42B182
:1005C500E50E42B29001B4E0B40309E50EF452B170
:1005D500E50E42B2E50D6404703A9001B4E0FF7097
:1005E50007E50EF452B352B4EFB40109E50E42B378
:1005F500E50EF452B49001B4E0B40208E50E42B33E
:10060500E50E42B49001B4E0B40309E50EF452B32B
:10061500E50E42B4E50D6405703A9001B4E0FF7053
:1006250007E50EF452C952CAEFB40109E50E42C9F5
:10063500E50EF452CA9001B4E0B40208E50E42C9D1
:10064500E50E42CA9001B4E0B40309E50EF452C9BF
:10065500E50E42CAE50D6406703A9001B4E0FF70FC
:1006650007E50EF452CB52CCEFB40109E50E42CBAF
:10067500E50EF452CC9001B4E0B40208E50E42CB8D
:10068500E50E42CC9001B4E0B40309E50EF452CB7B
:10069500E50E42CCE50D6407703A9001B4E0FF70B9
:1006A50007E50EF452E152E2EFB40109E50E42E12D
:1006B500E50EF452E29001B4E0B40208E50E42E121
:1006C500E50E42E29001B4E0B40309E50EF452E10F
:0406D500E50E42E20A
:0106D90022FE
:1016CF00EFB40900503A9016DCF82828730216F789
:1016DF000216FA0216FD021700021703021706027E
:1016EF00170902170C0217288D80228D90228DA0CA
:1016FF00228DB0228DC0228DC8228DE8228DF82236
:10170F007BFF7A0C79879000A1E4F0A3EFF0AF058F
:0A171F00A3E4F0A3EFF012123B2246
:10178000EFB40900503D90178DF82828730217A870
:101790000217AB0217AE0217B10217B40217B70255
:1017A00017BA0217BD0217C0AF8022AF9022AFA0B8
:1017B00022AFB022AFC022AFC822AFE822AFF822DA
:1017C0007FFF227BFF7A0C79A99000A1E4F0A3EFC0
:0717D000F012123B7FFF2223
:050FB6009001B6EFF010
:100FBB00648870030210C79001B6E0FF54F0F50D82
:100FCB00EF540FFF900D6C93F50EEFD39407402168
:100FDB007BFF7A0C79C89001B6E0FF9000A1E4F09A
:100FEB00A3EFF0A20DE4FF33A3CFF0A3EFF01212A7
:100FFB003B300D60E50D24F0602124F0602224F0DD
:10100B00602324F0602424F0602524F0602624F073
:10101B00602724707028E50E428022E50E42902254
:10102B00E50E42A022E50E42B022E50E42C022E5BB
:10103B000E42C822E50E42E822E50E42F8227BFF63
:10104B007A0C79EA9001B6E0FF9000A1E4F0A3EFEF
:10105B00F002123BE50D24F0602224F0602424F012
:10106B00602624F0602824F0602A24F0602C24F001
:10107B00602E24707030E50EF4528022E50EF4528F
:10108B009022E50EF452A022E50EF452B022E50EAA
:10109B00F452C022E50EF452C822E50EF452E822B7
:1010AB00E50EF452F8227BFF7A0D790B9001B6E036
:0C10BB00FF9000A1E4F0A3EFF012123B44
:0110C7002206
:0512EF009001B7EFF0D3
:1012F400BF8802C3229001B7E0FF54F0F50DEF540C
:101304000FFF900D6C93F50EEFD3940740167BFFFF
:101314007A0D792C9001B7E0FF9000A1E4F0A3EFDF
:10132400F012123BE50D24F0602124F0602224F039
:10133400602324F0602424F0602524F0602624F047
:1013440060272470702885800F803985900F803441
:1013540085A00F802F85B00F802A85C00F8025853A
:10136400C80F802085E80F801B85F80F80167BFF4F
:101374007A0D792C9001B7E0FF9000A1E4F0A3EF7F
:0D138400F012123BE50F550E6002D322C39C
:011391002239
:051431009001B8EFF08E
:10143600648870030214CC9001B8E0FF54F0F50DF7
:10144600EF540FFF900D6C93F50EEFD394074016F3
:101456007BFF7A0D794A9001B8E0FF9000A1E4F095
:10146600A3EFF012123BE50D24F0602124F0602278
:1014760024F0602324F0602424F0602524F0602604
:1014860024F0602724707028E50E628022E50E6243
:101496009022E50E62A022E50E62B022E50E62C041
:1014A60022E50E62C822E50E62E822E50E62F82207
:1014B6007BFF7A0D794A9001B8E0FF9000A1E4F035
:0614C600A3EFF012123B3F
:0114CC0022FD
:10190600EFB40800503E901913F828287302192BDB
:1019160002192F02193302193702193B02193F0225
:101926001943021947ED628022ED629022ED62A012
:1019360022ED62B022ED62C022ED62C822ED62E8BD
:0519460022ED62F82211
:1014CD00300E48EFB4080040030215649014E0F8A4
:1014DD002828730214F80214FC02150002150402E8
:1014ED00150802150C021510021514ED428022ED9F
:1014FD00429022ED42A022ED42B022ED42C022EDFB
:10150D0042C822ED42E822ED42F822EFB408005025
:10151D0046901525F828287302153D02154202152F
:10152D004702154C02155102155602155B02156046
:10153D00EDF4528022EDF4529022EDF452A022ED02
:10154D00F452B022EDF452C022EDF452C822EDF463
:08155D0052E822EDF452F822DD
:1017D700EFB4090050449017E4F82828730217FF64
:1017E70002180302180702180B02180F0218130237
:1017F700181702181B02181FAE80801EAE90801AA1
:10180700AEA08016AEB08012AEC0800EAEC8800A01
:10181700AEE88006AEF88002D322EE5D6002D322E6
:01182700C3FD
:01182800229D
:1000260075985053873F538EDE53A23FE47B04FA04
:10003600F9F8900198E0FCA3E0FDA3E0FEA3E0FF41
:1000460012080B7B007AC27901780012080BC3E410
:100056009FFDE49EAF05438E4053890F8F8BF58D30
:10006600C2ABC28FD28EC209D2AC75845053BAFBD2
:1000760043D1208FD3F5D253AFBF43D180C20A43B9
:02008600AF10B9
:010088002255
:101A8F00EF24FC600B2403700D53A23FED42A22202
:071A9F0053BAFBED42BA222D
:051829009001ABEFF09F
:10182E00E47B04FAF9F8900198E0FCA3E0FDA3E054
:10183E00FEA3E0FF12080B9001ACE0F8A3E0F9A3C1
:10184E00E0FAA3E0FB12080BC3E49FFFE49EFE90B8
:10185E0001ABE024FC600A2403700B8F8BEEF58D38
:06186E00228FD3EEF5D23B
:011874002251
:101A7300EF24FC600D240370128D99D20930090BF9
:0C1A830080FBAF058F85D20A200AFD22EF
:1019AE00EF24FC601124037021A20F929B8D99D21B
:1019BE000930091680FB300F0543840880035384D9
:0B19CE00F7AF058F85D20A200AFD222A
:10194B00900070EBF0A3EAF0A3E9F0AE0790007003
:10195B00E0FBA3E0FAA3E0F91206DA6019AF0690F8
:10196B000070A3E475F00112076AA9F0FA1206DA07
:07197B00FD121A7380D72250
:0E167200900001EFF0A3EBF0A3EAF0A3E9F083
:1016800090006D7401F0A37400F0A37405F0900055
:1016900002E0F9A3E0FAA3E0900070C9F0A3EAF039
:1016A000A3E9F090006DE0F9A3E0FAA3E0900073E5
:1016B000C9F0A3EAF0A3E9F07B017A00792D1218B2
:0F16C00075900001E0FF7B017A00792D02194B34
:030023000218BF01
:1018BF00C0E0C0F0C083C082C0D075D000C000C0EF
:1018CF0001C002C003C004C005C006C007309805A0
:1018DF00C2981219D9309904C299C209D007D006FB
:1018EF00D005D004D003D002D001D000D0D0D08208
:0718FF00D083D0F0D0E032ED
:03009300021AA6A8
:101AA600C0E0E58430E0035384FEE58430E105536D
:071AB60084FDC20AD0E032FA
:10157100021982E493A3F8E493A34003F68001F2F5
:1015810008DFF48029E493A3F85407240CC8C3337B
:10159100C4540F4420C8834004F456800146F6DF4A
:1015A100E4800B0102040810204080900089E47E51
:1015B100019360BCA3FF543F30E509541FFEE4933F
:1015C100A360010ECF54C025E060A840B8E493A306
:1015D100FAE493A3F8E493A3C8C582C8CAC583CA31
:1015E100F0A3C8C582C8CAC583CADFE9DEE780BEE9
:01009000006F
:1006DA00BB010689828A83E0225002E722BBFE021E
:0906EA00E32289828A83E4932251
:1006F300BB010CE58229F582E5833AF583E02250BC
:1007030006E92582F8E622BBFE06E92582F8E22205
:0D071300E58229F582E5833AF583E493221F
:10072000F8BB010DE58229F582E5833AF583E8F00F
:10073000225006E92582C8F622BBFE05E92582C8BB
:02074000F222A3
:10074200EF8DF0A4A8F0CF8CF0A428CE8DF0A42ECB
:02075200FE2285
:10075400C5F0F8A3E028F0C5F0F8E5821582700230
:060764001583E038F022CD
:10076A00A3F8E0C5F025F0F0E58215827002158342
:06077A00E0C838F0E8229F
:10078000E88FF0A4CC8BF0A42CFCE98EF0A42CFC18
:100790008AF0EDA42CFCEA8EF0A4CDA8F08BF0A496
:1007A0002DCC3825F0FDE98FF0A42CCD35F0FCEBF5
:1007B0008EF0A4FEA9F0EB8FF0A4CFC5F02ECD39BA
:0F07C000FEE43CFCEAA42DCE35F0FDE43CFC2227
:1007CF0075F008758200EF2FFFEE33FECD33CDCCE1
:1007DF0033CCC58233C5829BED9AEC99E582984064
:1007EF000CF582EE9BFEED9AFDEC99FC0FD5F0D641
:1007FF00E4CEFBE4CDFAE4CCF9A88222B800C1B96B
:10080F000059BA002DEC8BF084CFCECDFCE5F0CBA8
:10081F00F97818EF2FFFEE33FEED33FDEC33FCEBE1
:10082F0033FB10D703994004EB99FB0FD8E5E4F99C
:10083F00FA227818EF2FFFEE33FEED33FDEC33FC89
:10084F00C933C910D7059BE99A4007EC9BFCE99A7D
:10085F00F90FD8E0E4C9FAE4CCFB2275F010EF2FC2
:10086F00FFEE33FEED33FDCC33CCC833C810D707C2
:10087F009BEC9AE899400AED9BFDEC9AFCE899F8FD
:0E088F000FD5F0DAE4CDFBE4CCFAE4C8F92290
:10089D00EB9FF5F0EA9E42F0E99D42F0E89C45F0B1
:0108AD002228
:0C08AE00ECF0A3EDF0A3EEF0A3EFF022BD
:1008BA00A8828583F0D083D0821208D11208D1127F
:1008CA0008D11208D1E473E493A3C583C5F0C583A4
:1008DA00C8C582C8F0A3C583C5F0C583C8C582C888
:0108EA0022EB
:1008EB00EC8EF0A4CCC5F0CCCDF8EFA4CEC5F02D9A
:1008FB00FDE43CFCE8A42EC8C5F03DFDE43CFCEF58
:0D090B00A4FFE5F028FEE43DFDE43CFC22E5
:10187500900070E0FFA3E0FEA3E0CF900079F0A315
:10188500EEF0A3EFF0900073E0CBF0A3E0CAF0A375
:10189500E0C9F07F2290007CAD82AC831206DA8D20
:1018A500828C83F0A309E970010ADFEC900073E0F4
:0A18B500FBA3E0FAA3E0F90200FB38
:10009600E5082479F582E43400F583E0050822902A
:1000A6000076300703900079E475F00112092A0200
:1000B60006DA2000E97F2ED2008018EF540F249034
:1000C600D43440D4FF30040BEF24BFB41A005003DD
:1000D6002461FFE50960021509050CE50C700205AF
:1000E6000B30070E900076E475F00112092AEF0234
:1000F6000918021A027403D2078003E4C207F5083E
:10010600900076120941E4F509F50BF50CE5096056
:10011600077F201200D980F5750AFFC201C200C20E
:1001260002C203C205C206C2081200A5FF700D3046
:1001360007057F001200EAAF0CAE0B22B4255FC2A2
:10014600D5C2041200A5FF24D0B40A00501A75F0D7
:100156000A780930D50508B6FF0106C6A426F6209A
:10016600D5047002D20380D924CFB41A00EF50040C
:10017600C2E5D2040202EBD20180C6D20080C0D210
:100186000280BCD2D580BAD20580B47F201200D9B5
:100196002002077401B5090040F1120096FF120013
:1001A600D9020113D208D2068095120096FB1200DE
:1001B60096FA120096F94A4B700679BC7A037BFFD1
:1001C60020022EE509602A7E008E827583001206C3
:1001D600F360060EEE650A70F0C2D5EBC0E0EAC029
:1001E600E0E9C0E0EE120332D0E0F9D0E0FAD0E068
:1001F600FB1206DAFF60AAEBC0E0EAC0E0E9C0E065
:100206001200D9D0E02401F9D0E03400FAD0E0FBA6
:10021600E50A0460DCD50AD980877BFF7A03792E4C
:10022600D202809C791080027908C206C208800832
:10023600D2D5790A8004790AC2D5E50A047002F596
:100246000AE4FAFDFEFF120096FC7B082001131259
:100256000096FD7B1030000A120096FE120096FFF3
:100266007B20EC3382D592D55013C3E43000069F31
:10027600FFE49EFEE42001039DFDE49CFCE4CBF834
:10028600C201EC700CCFCECDCCE824F8F870F38028
:1002960017C3EF33FFEE33FEED33FDEC33FCEB33E8
:1002A600FB994002FB0FD8E9EB300105F8D0E0C41A
:1002B60048B201C0E00AEC4D4E4F78207B0070C278
:1002C600EAB50A0040BCC0E0120334D0F0D0E0200A
:1002D6000104C4C0E0C4B201C0F01200C2D0F0D51F
:1002E600F0EB02011312094A01B053022A580181A8
:1002F6004C017D42022E4F02364402364901964396
:08030600023C550220460220D2
:10030E004502204703DC5001852D01892E01AC2BBF
:10031E00018D2301AA2003C52A014548000001A42E
:10032E003F3F3F00790AA2D5200314300509B910CA
:10033E00020404B9080104A2D520060250010420CB
:10034E0002689202B509005034C0E07F20300319D4
:10035E007F30A20272067205500F12038BC202C2C8
:10036E0006C205C2087F30800F300503E9C0E012D7
:10037E0000D9300503D0E0F9D0E0B509CC3005172F
:10038E007F30B9100C1200D97F583004077F788067
:10039E0003B908031200D93002057F2D0200D97F60
:1003AE00202008F87F2B2006F322920280CF286EA1
:1003BE00756C6C2900D2011200963001F8C20178DA
:1003CE000930D50108F60201452D50434958120057
:1003DE00962403B405004001E49003D7931200CA9B
:0D03EE00743A1200CAD20375090402022AF3
:10091800BB010689828A83F0225002F722BBFE01BE
:02092800F322B8
:10092A00F8E0FBA3A3E0F925F0F0E5821582700256
:07093A001583E0FA38F022FA
:09094100EBF0A3EAF0A3E9F022B7
:10094A00D083D082F8E4937012740193700DA3A33C
:10095A0093F8740193F5828883E473740293686050
:06096A00EFA3A3A380DF50
:101A0200EFB40A07740D121A0D740A309811A899CE
:101A1200B8130CC2983098FDA899C298B811F63044
:071A220099FDC299F599221C
:00000001FF
