:0300000002199E44
:0C199E00787FE4F6D8FD7581210219E580
:051E930012069F80FE15
:071E830044017E0000000095
:10000300EF4E601A900176E0FCA3E0FDED1D700158
:0E0013001C144C70F7EF1F70011E144E70E6A7
:0100210022BC
:081E5600900077E0FEA3E0FF1D
:0A1E5E00EF1FAC0670011E4C70F679
:011E68002257
:101E1500900176E0FCA3E0FD120B4CE47B83FAF91C
:101E2500F81209E190017A120B0F90017AE0C313C1
:061E3500FEA3E013FF22F2
:101DC200900179E06599600AE599F0E4900178F074
:101DD2008006900178E004F0900178E0C394E97401
:0C1DE20080948040060075C7600000225D
:0B1A90009000A7EBF0A3EAF0A3E9F040
:101A9B009001127401F0A37400F0A374AAF09000EB
:101AAB00A7E0F9A3E0FAA3E0900079C9F0A3EAF06C
:101ABB00A3E9F0900112E0F9A3E0FAA3E090007C17
:101ACB00C9F0A3EAF0A3E9F07B017A0079D2121CEA
:101ADB0044900112E4F0A3F0A3F07B017A0079D2D9
:051AEB007F01021D5BFC
:10166100EF14601614602C14604D14606C14700338
:101671000216F52405600302171890FE02E0547E5D
:101681004480F0E030E0F390FE00E054FCF090FE86
:1016910003807A90FE04E0547E4480F0E030E0F371
:1016A10090FE00E054FC4403F090FE02E4F090FE52
:1016B10008F090FE03F02290FE08E0547E4480F092
:1016C100E030E0F390FE00E054FC4402F090FE04B0
:1016D100E4F090FE02F0A3F02290FE03E0543E44B9
:1016E10080F0E030E0F390FE00E054FC4401F09023
:1016F100FE02801990FE03E0543E44C0F0E030E069
:10170100F390FE00E054FC4401F090FE02E4F090FE
:08171100FE08F090FE04F02236
:0C1E7700EF90FE01700304F022EFF02257
:10069F0043BA80E59DAF9F603AE4FCFDFEC004A91C
:1006AF0005AA06AB0778FAE6FFD000C3EF9BFFEE73
:1006BF009AFEED99FDEC98FC7BE07A2879017800A1
:1006CF001209E1C3E49FFF74519EFE74259DFD74D2
:1006DF00028037E4FCFDFEC004A905AA06AB07782B
:1006EF00FBE6FFD000C3EF9BFFEE9AFEED99FDEC0A
:1006FF0098FCE47B807ABBF9F81209E1C3E49FFF11
:10070F0074369EFE746E9DFD74019CFC9000001269
:10071F000B0F900000E0FCA3E0FDA3E0FEA3E0FFC1
:10072F00C00790FE01E0FBE4FAF9F8D007120A6C5B
:10073F00900000120B0F7FC07EF67D577C0090005B
:10074F0000E0F8A3E0F9A3E0FAA3E0FBC3120AFE6E
:10075F00500D90017E120B1B0054600002090C7F9C
:10076F00C07E267D827C00900000E0F8A3E0F9A314
:10077F00E0FAA3E0FBC3120AFE500D90017E120BAC
:10078F001B005B8D8002090C7F807EED7DAF7C00AE
:10079F00900000E0F8A3E0F9A3E0FAA3E0FBC31296
:1007AF000AFE500D90017E120B1B00A8C00002091B
:1007BF000C7F807E2D7DE87C00900000E0F8A3E0A8
:1007CF00F9A3E0FAA3E0FBC3120AFE500D90017EDD
:1007DF00120B1B00B71B0002090C7F807E367D2594
:1007EF007C01900000E0F8A3E0F9A3E0FAA3E0FB9E
:1007FF00C3120AFE500D90017E120B1B011940000F
:10080F0002090C7F807E567D417C01900000E0F84C
:10081F00A3E0F9A3E0FAA3E0FBC3120AFE500D9088
:10082F00017E120B1B01312D0002090C7F007EDBB4
:10083F007D5F7C01900000E0F8A3E0F9A3E0FAA34C
:10084F00E0FBC3120AFE500D90017E120B1B0151EB
:10085F00800002090C7F607E197D857C019000006D
:10086F00E0F8A3E0F9A3E0FAA3E0FBC3120AFE50FD
:10087F000D90017E120B1B016E360002090C7F20BA
:10088F007EE07DB27C01900000E0F8A3E0F9A3E0E8
:10089F00FAA3E0FBC3120AFE500C90017E120B1B51
:1008AF00019BFCC080577FE07EA67DE07C0190001D
:1008BF0000E0F8A3E0F9A3E0FAA3E0FBC3120AFEFD
:1008CF00500C90017E120B1B01C9C380802F7F60DB
:1008DF007E2B7DFF7C01900000E0F8A3E0F9A3E000
:1008EF00FAA3E0FBC3120AFE90017E5009120B1B04
:1008FF0001FA40008007120B1B02160EC0E47B109A
:10090F007A27F9F890017EE0FCA3E0FDA3E0FEA3B7
:10091F00E0FF120A6C900176EEF0A3EFF0E4900185
:0B092F0079F0900178F0121D92D2AF19
:01093A00229A
:0B159C00900007EBF0A3EAF0A3E9F0D9
:1015A7007F647E00121E15900077EEF0A3EFF09097
:1015B70000747401F0A37400F0A3740AF09000079C
:1015C700E0F9A3E0FAA3E0900079C9F0A3EAF0A359
:1015D700E9F0900074E0F9A3E0FAA3E090007CC979
:1015E700F0A3EAF0A3E9F07B017A007934121C44F6
:1015F700900032EEF0A3EFF0900074E4F0A3F0A3B4
:10160700F07FF47E01120003E4FBFAD3900033E08D
:101617009B900032E09A40E9D2B1C2B1121E5674D3
:10162700342BF58274003AF583E0F9E4FDEDC394B9
:1016370008748094805014E930E004D2B18002C26B
:10164700B1E9C313F9121E560D80E2D2B1121E562C
:0A165700121E560BBB00010A80B101
:0B17C300900182EBF0A3EAF0A3E9F034
:1017CE00E4FFFE900188F0A3F0A3F0A3F090018255
:1017DE00E0FBA3E0FAA3E0F912093B607790018BDE
:1017EE00E004F0700690018AE004F0900185E0FBC1
:1017FE00A3E0FAA3E0F98F828E83120954FD9001C3
:10180E0082E0FBA3E0FAA3E0F912093BB505070F4E
:10181E00BF00010E8012E4FEFF90018AE0FDA3E0FE
:10182E00900188CDF0A3EDF0900183E475F00112E4
:10183E0009B5900185E0FBA3E0FAA3E0F98F828E53
:10184E0083120954FD3395E04D7082900188E0FEBD
:08185E00A3E0FF227EFF7FFFE3
:01186600225F
:1013E500E4900191F0900193F0900192F0900192B8
:1013F500E0C3940A7480948040030214C7E07E0021
:101405002DF582EE3CF583120954FF3395E0FEC3BA
:10141500EF9430EE648094804052D3EF9437EE64BD
:101425008094805047900193E004F0E064017019C6
:10143500900192E07E002DF582EE3CF58312095471
:1014450024D0C454F0900191F0900193E0640270AF
:101455001B900192E07E002DF582EE3CF58312098A
:101465005424D0FF900191E04FFFF022900192E0CB
:101475007E002DF582EE3CF583120954FF3395E08D
:10148500FEC3EF9438EE648094804011D3EF943915
:10149500EE648094805006900193E004F0900192F0
:1014A500E07E002DF582EE3CF583120954FF642C95
:1014B5006010EF3395E04F6009900192E004F0026F
:0714C50013F2900191E0FF1A
:0114CC0022FD
:0814CD0090018CECF0A3EDF09E
:1014D500E4A3F0A3F0A3F0900190E0FFC39414748B
:1014E500809480400302159390018DE02FFF9001B9
:1014F5008CE034008F82F583120954FF3395E0FEAA
:10150500C3EF9430EE648094804051D3EF9439EE6C
:1015150064809480504690018EE0FEA3E0FF7C003D
:101525007D0A1209A390018EEEF0A3EFF0A3E0FF70
:1015350090018DE02FFF90018CE034008F82F583C0
:10154500120954FF3395E0FEEF24D0FFEE34FFFE81
:1015550090018FE02FF090018EE03EF0900190E039
:10156500FF90018DE02FFF90018CE034008F82F514
:1015750083120954FF642C6015EF642E6010EF335D
:1015850095E04F6009900190E004F00214DC9001B1
:061595008EE0FEA3E0FF62
:01159B00222D
:10109700900164EBF0A3EAF0A3E9F0A3ECF0A3ED71
:0110A700F058
:1010A800E4900170F0A3F0A3F0A3F0A3F0A3F090F4
:1010B800016EF0A3F0900167E0FEA3E0FF90016EDF
:1010C800E0FCA3E0FDC39FEC9E4003021167900182
:1010D80069E0FBA3E0FAA3E0F9900170E0FEA3E069
:1010E800F5828E83120954FF900164E0FBA3E0FAB5
:1010F800A3E0F98D828C83120954B50733900171EE
:10110800E004F07006900170E004F090016CE0FEDD
:10111800A3E0FF900170E0B50631A3E0B5072C907D
:10112800016EE0FFA3E0900174CFF0A3EFF0802FF1
:10113800E4900170F0A3F090016FE02401FE9001AB
:101148006EE03400900172F0A3CEF090016FE004DD
:10115800F060030210BD90016EE004F00210BD9033
:101168000174E0FEA3E0FF900172E0FCA3E0FDD370
:101178009FEC9E504490016EECF0A3EDF09001744A
:10118800E0FEA3E0FF90016EE0FCA3E0FDC39FEC4E
:101198009E5023900164E0FBA3E0FAA3E0F98D825E
:1011A8008C83E412098190016FE004F070CF900104
:0B11B8006EE004F080C77F01227F0082
:0111C3002209
:100BD1006770696F5F757070756C6C283C44253067
:100BE10032583E2C2564293BB2BBB4E6D4DAB8C3F3
:100BF100494F0D0A006770696F5F757070756C6C95
:100C0100283C44253032583E2C31293BB2BBB4E656
:100C1100D4DAB8C3494F0D0A006770696F5F757008
:100C210070756C6C283C44253032583E2C30293B81
:100C3100B2BBB4E6D4DAB8C3494F0D0A0067706994
:100C41006F5F6D6F6465283C44253032583E2C251A
:100C510064293BB2BBB4E6D4DAB8C3494F0D0A00EC
:100C61006770696F5F6D6F64652844253032582C59
:100C71003C25643E293BB2BBB4E6D4DAB8C3C4A375
:100C8100CABD0D0A006770696F5F7370656564287E
:100C91003C44253032583E2C2564293BB2BBB4E696
:100CA100D4DAB8C3494F0D0A006770696F5F637585
:100CB1007272656E74283C44253032583E2C25648E
:100CC100293BB2BBB4E6D4DAB8C3494F0D0A006779
:100CD10070696F5F7772697465283C25643E2C25C5
:100CE10064293BB2BBB4E6D4DAB8C350BFDA0D0A0B
:100CF100006770696F5F72656164283C5025643ECE
:100D0100293BB2BBB4E6D4DAB8C350BFDA0D0A004E
:100D11006770696F5F6F7574283C44253032583EA7
:100D21002C2564293BB2BBB4E6D4DAB8C3494F0DD4
:100D31000A006770696F5F6F7574283C4425303213
:100D4100583E2C31293BB2BBB4E6D4DAB8C3494F83
:100D51000D0A006770696F5F6F7574283C44253018
:100D610032583E2C30293BB2BBB4E6D4DAB8C34981
:100D71004F0D0A006770696F5F696E283C4425302A
:100D810032583E293BB2BBB4E6D4DAB8C3494F0D61
:100D91000A006770696F5F746F67676C65283C4410
:100DA100253032583E293BB2BBB4E6D4DAB8C34948
:0C0DB1004F0D0A000102040810204080D1
:0A11C400900198EDF0900197EFF014
:1011CE00648870030212D5E0FF54F0F50DEF540F52
:1011DE00FF900DB593F50ED3EF9407748094804075
:1011EE00237BFF7A0B79D1900197E0FF90000AE400
:1011FE00F0A3EFF0900198E0FF90000CE4F0A3EF65
:10120E00F012159C900198E06055E50D24F06021D8
:10121E0024F0602224F0602324F0602424F0602562
:10122E0024F0602624F060272470702B90FE10802E
:10123E002190FE11801C90FE12801790FE138012DA
:10124E0090FE14800D90FE15800890FE168003907F
:10125E00FE17E0450EF0227BFF7A0B79F68058E5FB
:10126E000D24F0602124F0602224F0602324F0602D
:10127E002424F0602524F0602624F060272470706A
:10128E003090FE10802190FE11801C90FE1280176F
:10129E0090FE13801290FE14800D90FE1580089023
:1012AE00FE16800390FE17E0FFE50EF4FEEF5EF0F3
:1012BE00227BFF7A0C791A900197E0FF90000AE4E6
:0712CE00F0A3EFF012159CE4
:0112D50022F6
:0A038B00900006EDF0900005EFF081
:100395006488700302069EE0FF54F0F50DEF540FDC
:1003A500FF900DB593F50ED3EF94077480948040BC
:1003B500237BFF7A0C793E900005E0FF90000AE46C
:1003C500F0A3EFF0900006E0FF90000CE4F0A3EF3F
:1003D500F012159CE50D24F0602124F0602224F034
:1003E500602324F0602424F0602524F0602624F0A6
:1003F500602724707028E4F50D8046750D01804155
:10040500750D02803C750D038037750D04803275BE
:100415000D05802D750D068028750D0780237BFF42
:100425007A0C793E900005E0FF90000AE4F0A3EF16
:10043500F0900006E0FF90000CE4F0A3EFF0121539
:100445009C900006E0FFD3940374809480401C7B4D
:10045500FF7A0C7961900005E0FD90000AE4F0A3B5
:10046500EDF0A3E4F0A3EFF012159CE50D704090BC
:100475000006E0FF7E007007E50EF452935294EFFC
:1004850064014E7009E50E4293E50EF45294900016
:1004950006E064027008E50E4293E50E4294900072
:1004A50006E064037009E50EF45293E50E4294E507
:1004B5000D64017040900006E0FF7E007007E50EB8
:1004C500F452915292EF64014E7009E50E4291E5A6
:1004D5000EF45292900006E064027008E50E429117
:1004E500E50E4292900006E064037009E50EF452B1
:1004F50091E50E4292E50D64027040900006E0FF22
:100505007E007007E50EF452955296EF64014E7029
:1005150009E50E4295E50EF45296900006E0640258
:100525007008E50E4295E50E4296900006E06403DC
:100535007009E50EF45295E50E4296E50D640370DB
:1005450040900006E0FF7E007007E50EF452B152C0
:10055500B2EF64014E7009E50E42B1E50EF452B2F8
:10056500900006E064027008E50E42B1E50E42B265
:10057500900006E064037009E50EF452B1E50E4201
:10058500B2E50D64047040900006E0FF7E00700740
:10059500E50EF452B352B4EF64014E7009E50E4214
:1005A500B3E50EF452B4900006E064027008E50E5F
:1005B50042B3E50E42B4900006E064037009E50E0F
:1005C500F452B3E50E42B4E50D64057040900006A3
:1005D500E0FF7E007007E50EF452C952CAEF6401D0
:1005E5004E7009E50E42C9E50EF452CA900006E0C8
:1005F50064027008E50E42C9E50E42CA900006E0A5
:1006050064037009E50EF452C9E50E42CAE50D64AE
:10061500067040900006E0FF7E007007E50EF4527C
:10062500CB52CCEF64014E7009E50E42CBE50EF4DA
:1006350052CC900006E064027008E50E42CBE50E50
:1006450042CC900006E064037009E50EF452CBE558
:100655000E42CCE50D64077040900006E0FF7E0079
:100665007007E50EF452E152E2EF64014E7009E5C0
:100675000E42E1E50EF452E2900006E064027008D5
:10068500E50E42E1E50E42E2900006E064037009E2
:09069500E50EF452E1E50E42E22B
:01069E002239
:0A0DBD0090019AEDF0900199EFF01B
:100DC70064887003020F29E0FF54F0F50DEF540F0C
:100DD700FF900DB593F50ED3EF9407748094804080
:100DE700237BFF7A0C7986900199E0FF90000AE453
:100DF700F0A3EFF090019AE0FF90000CE4F0A3EF6E
:100E0700F012159CE50D24F0602124F0602224F0F7
:100E1700602324F0602424F0602524F0602624F069
:100E2700602724707028E4F50D8046750D01804118
:100E3700750D02803C750D038037750D0480327582
:100E47000D05802D750D068028750D0780237BFF06
:100E57007A0C7986900199E0FF90000AE4F0A3EFFD
:100E6700F090019AE0FF90000CE4F0A3EFF0121568
:100E77009C90019AE064017054E50DB408004003AA
:100E8700020F29900E91F8282873020EA9020EAEC0
:100E9700020EB3020EB8020EBD020EC2020EC70248
:100EA7000ECC90FE20802190FE21801C90FE228097
:100EB7001790FE23801290FE24800D90FE25800857
:100EC70090FE26800390FE27E0450EF022E50DB444
:100ED7000800504E900EE2F8282873020EFA020E10
:100EE700FF020F04020F09020F0E020F13020F1861
:100EF700020F1D90FE20802190FE21801C90FE2273
:100F0700801790FE23801290FE24800D90FE25808E
:100F17000890FE26800390FE27E0FFE50EF4FEEF23
:020F27005EF07A
:010F290022A5
:0A0F2A0090019CEDF090019BEFF0A8
:100F340064887003021096E0FF54F0F50DEF540F2F
:100F4400FF900DB593F50ED3EF9407748094804011
:100F5400237BFF7A0C79AA90019BE0FF90000AE4BE
:100F6400F0A3EFF090019CE0FF90000CE4F0A3EFFD
:100F7400F012159CE50D24F0602124F0602224F089
:100F8400602324F0602424F0602524F0602624F0FB
:100F9400602724707028E4F50D8046750D018041AA
:100FA400750D02803C750D038037750D0480327514
:100FB4000D05802D750D068028750D0780237BFF98
:100FC4007A0C79AA90019BE0FF90000AE4F0A3EF69
:100FD400F090019CE0FF90000CE4F0A3EFF01215F8
:100FE4009C90019CE064017054E50DB4080040033A
:100FF400021096900FFEF828287302101602101B98
:1010040002102002102502102A02102F02103402AE
:10101400103990FE28802190FE29801C90FE2A80A1
:101024001790FE2B801290FE2C800D90FE2D8008D0
:1010340090FE2E800390FE2FE0450EF022E50DB4C5
:101044000800504E90104FF82828730210670210C1
:101054006C02107102107602107B0210800210855F
:1010640002108A90FE28802190FE29801C90FE2A7E
:10107400801790FE2B801290FE2C800D90FE2D8008
:101084000890FE2E800390FE2FE0FFE50EF4FEEFA5
:021094005EF00C
:011096002237
:101AF000EFB40900503A901AFDF8282873021B1819
:101B0000021B1B021B1E021B21021B24021B27029D
:101B10001B2A021B2D021B498D80228D90228DA035
:101B2000228DB0228DC0228DC8228DE8228DF82210
:101B30007BFF7A0C79D090000AE4F0A3EFF0AF05B8
:0A1B4000A3E4F0A3EFF012159C22BD
:101B4A00EFB40900503D901B57F8282873021B7206
:101B5A00021B75021B78021B7B021B7E021B810281
:101B6A001B84021B87021B8AAF8022AF9022AFA080
:101B7A0022AFB022AFC022AFC822AFE822AFF8220C
:101B8A007FFF227BFF7A0C79F290000AE4F0A3EF40
:071B9A00F012159C7FFF22F1
:0A12D60090019EEDF090019DEFF0F5
:1012E000648870030213E4E0FF54F0F50DEF540F2F
:1012F000FF900DB593F50ED3EF9407748094804062
:10130000237BFF7A0D791190019DE0FF90000AE4A4
:10131000F0A3EFF090019EE0FF90000CE4F0A3EF4B
:10132000F012159C90019EE06052E50D24F06021C2
:1013300024F0602224F0602324F0602424F060254F
:1013400024F0602624F0602724707028E50E428087
:1013500022E50E429022E50E42A022E50E42B02286
:10136000E50E42C022E50E42C822E50E42E822E523
:101370000E42F8227BFF7A0D79338058E50D24F078
:10138000602224F0602424F0602624F0602824F0F9
:10139000602A24F0602C24F0602E24707030E50E5A
:1013A000F4528022E50EF4529022E50EF452A0226F
:1013B000E50EF452B022E50EF452C022E50EF452CE
:1013C000C822E50EF452E822E50EF452F8227BFF23
:1013D0007A0D795490019DE0FF90000AE4F0A3EFAC
:0413E000F012159C56
:0113E40022E6
:0517190090019FEFF0BC
:10171E0064887002FF2290019FE0FF54F0F50DEFF8
:10172E00540FFF900DB593F50ED3EF94077480947C
:10173E008040167BFF7A0D797590019FE0FF900037
:10174E000AE4F0A3EFF012159CE50D24F0602124BD
:10175E00F0602224F0602324F0602424F06025241D
:10176E00F0602624F060272470702885800F803961
:10177E0085900F803485A00F802F85B00F802A852D
:10178E00C00F802585C80F802085E80F801B85F847
:10179E000F80167BFF7A0D797590019FE0FF900008
:1017AE000AE4F0A3EFF012159CE50F550E60037FCF
:0417BE0001227F0085
:0117C2002204
:051867009001A0EFF06C
:10186C0064887003021903E0FF54F0F50DEF540F78
:10187C00FF900DB593F50ED3EF94077480948040D0
:10188C00167BFF7A0D79939001A0E0FF90000AE49B
:10189C00F0A3EFF012159CE50D24F0602124F0600C
:1018AC002224F0602324F0602424F0602524F060CE
:1018BC002624F0602724707028E50E628022E50E45
:1018CC00629022E50E62A022E50E62B022E50E6265
:1018DC00C022E50E62C822E50E62E822E50E62F82F
:1018EC00227BFF7A0D79939001A0E0FF90000AE42F
:0718FC00F0A3EFF012159CB0
:0119030022C1
:101CD500EFB40800503E901CE2F8282873021CFA65
:101CE500021CFE021D02021D06021D0A021D0E0235
:101CF5001D12021D16ED628022ED629022ED62A09A
:101D050022ED62B022ED62C022ED62C822ED62E8EA
:051D150022ED62F8223E
:10190400A907EB6048E9B40800400302199D901947
:1019140019F82828730219310219350219390219E4
:101924003D02194102194502194902194DED42803F
:1019340022ED429022ED42A022ED42B022ED42C0BF
:1019440022ED42C822ED42E822ED42F822E9B40831
:1019540000504690195EF828287302197602197B04
:1019640002198002198502198A02198F0219940238
:101974001999EDF4528022EDF4529022EDF452A024
:1019840022EDF452B022EDF452C022EDF452C822FA
:0A199400EDF452E822EDF452F822BF
:101BA100EFB409005045901BAEF8282873021BC9F9
:101BB100021BCD021BD1021BD5021BD9021BDD0268
:101BC1001BE1021BE5021BE9AE80801FAE90801B6A
:101BD100AEA08017AEB08013AEC0800FAEC8800B30
:101BE100AEE88007AEF880037F0122EE5D60037FDF
:041BF10001227F004E
:011BF50022CD
:081E8B003031363716174344CD
:101D920075985053873F538EDEE4FD7F01121BF688
:101DA200900005120B1B000096007F01121D1A43C2
:101DB2008E4053890FC2ABC28FD28EC209D2AC22DF
:101BF600900004EDF0EF147044900004E0FF54C030
:101C0600FEE5A2543F4EF5A2EFC41313540325E09C
:101C1600248BF582E4341EF583E493FFE4FD12037E
:101C26008B900004E0C41313540325E0248CF58242
:0E1C3600E4341EF583E493FF7D0312038B223A
:051D1A00900004EFF051
:101D1F00E47B04FAF9F890017EE0FCA3E0FDA3E078
:101D2F00FEA3E0FF120A6C900005E0F8A3E0F9A310
:101D3F00E0FAA3E0FB120A6CC3E49FFFE49EFE905F
:0B1D4F000004E01470058F8BEEF58D92
:011D5A002266
:0E1E6900EF147009AF058F99D2092009FD22F0
:101E3B00EF147016EB6006D29BD29B8004C29BC240
:0B1E4B009BAF058F99D2092009FD22F2
:101D5B00900194EBF0A3EAF0A3E9F0AE07900194A5
:101D6B00E0FBA3E0FAA3E0F912093B6019AF069080
:101D7B000194A3E475F0011209CBA9F0FA12093B07
:071D8B00FD121E6980D72242
:0E1A2A00900115EFF0A3EBF0A3EAF0A3E9F0B2
:101A38009001617401F0A37401F0A37419F090018E
:101A480016E0F9A3E0FAA3E0900079C9F0A3EAF060
:101A5800A3E9F0900161E0F9A3E0FAA3E090007C2B
:101A6800C9F0A3EAF0A3E9F07B017A017941121CDD
:101A780044900161E4F0A3F0A3F0900115E0FF7B2E
:081A8800017A017941021D5BA6
:03002300021C8E2E
:101C8E00C0E0C0F0C083C082C0D075D000C000C01C
:101C9E0001C002C003C004C005C006C007309805CD
:101CAE00C298121DC2309904C299C209D007D0063B
:101CBE00D005D004D003D002D001D000D0D0D08235
:071CCE00D083D0F0D0E0321A
:1019AA00021E93E493A3F8E493A34003F68001F2A2
:1019BA0008DFF48029E493A3F85407240CC8C3333E
:1019CA00C4540F4420C8834004F456800146F6DF0D
:1019DA00E4800B0102040810204080901E83E47EFC
:1019EA00019360BCA3FF543F30E509541FFEE49302
:1019FA00A360010ECF54C025E060A840B8E493A3C9
:101A0A00FAE493A3F8E493A3C8C582C8CAC583CAF3
:101A1A00F0A3C8C582C8CAC583CADFE9DEE780BEAB
:011E8A000057
:10093B00BB010689828A83E0225002E722BBFE02BA
:09094B00E32289828A83E49322ED
:10095400BB010CE58229F582E5833AF583E0225058
:1009640006E92582F8E622BBFE06E92582F8E222A2
:0D097400E58229F582E5833AF583E49322BC
:10098100F8BB010DE58229F582E5833AF583E8F0AC
:10099100225006E92582C8F622BBFE05E92582C858
:0209A100F22240
:1009A300EF8DF0A4A8F0CF8CF0A428CE8DF0A42E68
:0209B300FE2222
:1009B500C5F0F8A3E028F0C5F0F8E58215827002CD
:0609C5001583E038F0226A
:1009CB00A3F8E0C5F025F0F0E582158270021583DF
:0609DB00E0C838F0E8223C
:1009E100E88FF0A4CC8BF0A42CFCE98EF0A42CFCB5
:1009F1008AF0EDA42CFCEA8EF0A4CDA8F08BF0A433
:100A01002DCC3825F0FDE98FF0A42CCD35F0FCEB91
:100A11008EF0A4FEA9F0EB8FF0A4CFC5F02ECD3956
:0F0A2100FEE43CFCEAA42DCE35F0FDE43CFC22C3
:100A300075F008758200EF2FFFEE33FECD33CDCC7D
:100A400033CCC58233C5829BED9AEC99E582984000
:100A50000CF582EE9BFEED9AFDEC99FC0FD5F0D6DD
:100A6000E4CEFBE4CDFAE4CCF9A88222B800C1B907
:100A70000059BA002DEC8BF084CFCECDFCE5F0CB45
:100A8000F97818EF2FFFEE33FEED33FDEC33FCEB7E
:100A900033FB10D703994004EB99FB0FD8E5E4F939
:100AA000FA227818EF2FFFEE33FEED33FDEC33FC26
:100AB000C933C910D7059BE99A4007EC9BFCE99A1A
:100AC000F90FD8E0E4C9FAE4CCFB2275F010EF2F5F
:100AD000FFEE33FEED33FDCC33CCC833C810D7075F
:100AE0009BEC9AE899400AED9BFDEC9AFCE899F89A
:0E0AF0000FD5F0DAE4CDFBE4CCFAE4C8F9222D
:100AFE00EB9FF5F0EA9E42F0E99D42F0E89C45F04E
:010B0E0022C4
:0C0B0F00ECF0A3EDF0A3EEF0A3EFF02259
:100B1B00A8828583F0D083D082120B32120B321253
:100B2B000B32120B32E473E493A3C583C5F0C58378
:100B3B00C8C582C8F0A3C583C5F0C583C8C582C824
:010B4B002287
:100B4C00EC8EF0A4CCC5F0CCCDF8EFA4CEC5F02D36
:100B5C00FDE43CFCE8A42EC8C5F03DFDE43CFCEFF4
:0D0B6C00A4FFE5F028FEE43DFDE43CFC2282
:101C4400900079E0FFA3E0FEA3E0CF900082F0A330
:101C5400EEF0A3EFF090007CE0CBF0A3E0CAF0A399
:101C6400E0C9F07F22900085AD82AC8312093B8DE0
:101C7400828C83F0A309E970010ADFEC90007CE018
:0A1C8400FBA3E0FAA3E0F902008BD5
:10002600E5082482F582E43400F583E00508229091
:10003600007F300703900082E475F001120B8B02FB
:10004600093B2000E97F2ED2008018EF540F249040
:10005600D43440D4FF30040BEF24BFB41A0050034D
:100066002461FFE50960021509050CE50C7002051F
:100076000B30070E90007FE475F001120B8BEF0238
:100086000B79021DEE7403D2078003E4C207F5085C
:1000960090007F120BA2E4F509F50BF50CE509605B
:1000A600077F2012006980F5750AFFC201C200C2EF
:1000B60002C203C205C206C208120035FF700D3027
:1000C60007057F0012007AAF0CAE0B22B4255FC283
:1000D600D5C204120035FF24D0B40A00501A75F0B8
:1000E6000A780930D50508B6FF0106C6A426F6200B
:1000F600D5047002D20380D924CFB41A00EF50047D
:10010600C2E5D20402027BD20180C6D20080C0D2F0
:100116000280BCD2D580BAD20580B47F2012006995
:100126002002077401B5090040F1120026FF1200F3
:10013600690200A3D208D2068095120026FB12009F
:1001460026FA120026F94A4B7006794C7A037BFF91
:1001560020022EE509602A7E008E82758300120930
:100166005460060EEE650A70F0C2D5EBC0E0EAC038
:10017600E0E9C0E0EE1202C2D0E0F9D0E0FAD0E049
:10018600FB12093BFF60AAEBC0E0EAC0E0E9C0E071
:10019600120069D0E02401F9D0E03400FAD0E0FB87
:1001A600E50A0460DCD50AD980877BFF7A0279BE2E
:1001B600D202809C791080027908C206C2088008A3
:1001C600D2D5790A8004790AC2D5E50A047002F507
:1001D6000AE4FAFDFEFF120026FC7B08200113123A
:1001E6000026FD7B1030000A120026FE120026FFB4
:1001F6007B20EC3382D592D55013C3E43000069FA2
:10020600FFE49EFEE42001039DFDE49CFCE4CBF8A4
:10021600C201EC700CCFCECDCCE824F8F870F38098
:1002260017C3EF33FFEE33FEED33FDEC33FCEB3358
:10023600FB994002FB0FD8E9EB300105F8D0E0C48A
:1002460048B201C0E00AEC4D4E4F78207B0070C2E8
:10025600EAB50A0040BCC0E01202C4D0F0D0E020EB
:100266000104C4C0E0C4B201C0F0120052D0F0D5FF
:10027600F0EB0200A3120BAB01405301BA58011177
:100286004C010D4201BE4F01C64401C64901264339
:0802960001CC5501B04601B096
:10029E004501B047036C5001152D01192E013C2B61
:1002AE00011D23013A2003552A00D54800000134D0
:1002BE003F3F3F00790AA2D5200314300509B9103B
:1002CE00020404B9080104A2D5200602500104203C
:1002DE0002689202B509005034C0E07F2030031945
:1002EE007F30A20272067205500F12031BC202C2A9
:1002FE0006C205C2087F30800F300503E9C0E01248
:10030E000069300503D0E0F9D0E0B509CC3005170F
:10031E007F30B9100C1200697F583004077F788047
:10032E0003B908031200693002057F2D0200697FB0
:10033E00202008F87F2B2006F322920280CF286E11
:10034E00756C6C2900D2011200263001F8C20178BA
:10035E000930D50108F60200D52D50434958120038
:10036E00262403B405004001E49003679312005A5B
:0D037E00743A12005AD2037509040201BA44
:100B7900BB010689828A83F0225002F722BBFE015B
:020B8900F32255
:100B8B00F8E0FBA3A3E0F925F0F0E58215827002F3
:070B9B001583E0FA38F02297
:090BA200EBF0A3EAF0A3E9F02254
:100BAB00D083D082F8E4937012740193700DA3A3D9
:100BBB0093F8740193F5828883E4737402936860ED
:060BCB00EFA3A3A380DFED
:101DEE00EFB40A07740D121DF9740A309811A899F0
:101DFE00B8130CC2983098FDA899C298B811F63055
:071E0E0099FDC299F599222C
:00000001FF
