:030000000211AB3F
:0C11AB00787FE4F6D8FD7581210211F276
:0516340025750D0A0000
:1014BE00120B56120026E4FFFE1215B37D16E4FF42
:1014CE00FE12158E7FE87E03120003E4FFFE121556
:1014DE0068900003E4F0A3EFF07BFF7A16793412E4
:0414EE00131580E072
:07162C0044019700000000DB
:10000300EF4E601A90018FE0FCA3E0FDED1D70013F
:0E0013001C144C70F7EF1F70011E144E70E6A7
:0100210022BC
:0815D40090010CE0FEA3E0FF12
:0A15DC00EF1FAC0670011E4C70F604
:0115E60022E2
:1015420090018FE0FCA3E0FD120AD1E47B83FAF95B
:10155200F8120966900193120A94900193E0C31362
:06156200FEA3E013FF22CE
:1014F200900192E06599600AE599F0E4900191F01B
:101502008006900191E004F0900191E0C394E940DB
:0915120007000075C7600000220B
:0B131500900000EBF0A3EAF0A3E9F069
:1013200090006B7401F0A37400F0A37403F09000BC
:1013300000E0F9A3E0FAA3E090006EC9F0A3EAF0A0
:10134000A3E9F090006BE0F9A3E0FAA3E09000714C
:10135000C9F0A3EAF0A3E9F07B017A00792B12131C
:0C1360006C7B017A00792B7F010214875E
:10123700EF14600D14602614603C1460542404708D
:101247006F90FE027480F090FE02E030E0F990FEAD
:1012570000E054FCF090FE03E4F0A3F02290FE04BB
:101267007480F090FE04E030E0F990FE00E0440363
:10127700F090FE03803490FE037480F090FE03E04C
:1012870030E0F990FE00E054FC4401F090FE048049
:101297001990FE0374C0F090FE03E030E0F990FE71
:1012A70000E054FC4402F090FE04E4F090FE02F0EB
:0112B7002214
:0C161500EF90FE01700304F022EFF022C1
:100B560043BA80AF9FE4FCFDFEC004A905AA06AB1C
:100B66000778FBE6FFD000C3EF9BFFEE9AFEED99F8
:100B7600FDEC98FCE47BF07AD2F9F8120966C3E43E
:100B86009FFF74369EFE746E9DFD74019CFC900062
:100B960000120A94900000E0FCA3E0FDA3E0FEA38F
:100BA600E0FFC00790FE01E0FBE4FAF9F8D0071277
:100BB60009F1900000120A947FC07EF67D577C00F2
:100BC600900000E0F8A3E0F9A3E0FAA3E0FBC3126B
:100BD6000A83500D900197120AA000546000020D7E
:100BE600857FC07E267D827C00900000E0F8A3E031
:100BF600F9A3E0FAA3E0FBC3120A83500D90019714
:100C0600120AA0005B8D80020D857F807EED7DAF90
:100C16007C00900000E0F8A3E0F9A3E0FAA3E0FB73
:100C2600C3120A83500D900197120AA000A8C000B3
:100C3600020D857F807E2D7DE87C00900000E0F827
:100C4600A3E0F9A3E0FAA3E0FBC3120A83500D90D8
:100C56000197120AA000B71B00020D857F807E3621
:100C66007D257C01900000E0F8A3E0F9A3E0FAA35B
:100C7600E0FBC3120A83500D900197120AA00119D6
:100C86004000020D857F807E567D417C01900000EC
:100C9600E0F8A3E0F9A3E0FAA3E0FBC3120A83504D
:100CA6000D900197120AA001312D00020D857F00DB
:100CB6007EDB7D5F7C01900000E0F8A3E0F9A3E015
:100CC600FAA3E0FBC3120A83500D900197120AA003
:100CD60001518000020D857F607E197D857C019023
:100CE6000000E0F8A3E0F9A3E0FAA3E0FBC3120AD0
:100CF60083500D900197120AA0016E3600020D85F1
:100D06007F207EE07DB27C01900000E0F8A3E0F950
:100D1600A3E0FAA3E0FBC3120A83500C90019712DA
:100D26000AA0019BFCC080577FE07EA67DE07C0187
:100D3600900000E0F8A3E0F9A3E0FAA3E0FBC312F9
:100D46000A83500C900197120AA001C9C380802F14
:100D56007F607E2B7DFF7C01900000E0F8A3E0F928
:100D6600A3E0FAA3E0FBC3120A839001975009128D
:100D76000AA001FA40008007120AA002160EC0E47B
:100D86007B107A27F9F8900197E0FCA3E0FDA3E039
:100D9600FEA3E0FF1209F190018FEEF0A3EFF0E45D
:100DA600900192F0900191F0C2091213B600D2AFF1
:010DB600003C
:010DB7002219
:0B10580090009CEBF0A3EAF0A3E9F08D
:101063007F647E0012154290010CEEF0A3EFF09026
:1010730001097401F0A37400F0A3749FF090009C25
:10108300E0F9A3E0FAA3E090006EC9F0A3EAF0A3AD
:10109300E9F0900109E0F9A3E0FAA3E0900071C937
:1010A300F0A3EAF0A3E9F07B017A0079C912136C8B
:1010B3009000C7EEF0A3EFF07FF47E01120003E48B
:1010C300FBFAD39000C8E09B9000C7E09A40E9D2B6
:1010D300B1C2B11215D474C92BF58274003AF583E9
:1010E300E0F9E4FDE930E004D2B18002C2B1E9C322
:1010F30013F91215D40DEDB408EAD2B11215D412B6
:0911030015D40BBB00010A80B9F0
:0B110C0090019BEBF0A3EAF0A3E9F0D8
:10111700E4FFFE9001A1F0A3F0A3F0A3F090019BE0
:10112700E0FBA3E0FAA3E0F91208C060729001A403
:10113700E004F070069001A3E004F090019EE0FB4C
:10114700A3E0FAA3E0F98F828E831208D9FD9001FC
:101157009BE0FBA3E0FAA3E0F91208C0B505070F6F
:10116700BF00010E8012E4FEFF9001A3E0FDA3E0A3
:101177009001A1CDF0A3EDF090019CE475F0011270
:10118700093A90019EE0FBA3E0FAA3E0F98F828E73
:10119700831208D970879001A1E0FEA3E0FF227EA9
:0311A700FF7FFFC8
:0111AA002222
:100FA100E49001AFF09001B1F09001B0F09001B088
:100FB100E0FFC3940A40030210527E00ED2FF58238
:100FC100EE3CF5831208D9FFC3648094B0404BD343
:100FD100EF648094B750439001B1E004F0E0B401B4
:100FE100179001B0E02DF582EE3CF5831208D9246B
:100FF100D0C454F09001AFF09001B1E0B4021B9065
:1010010001B0E07E002DF582EE3CF5831208D92473
:10101100D0FF9001AFE04FFFF0229001B0E07E00E1
:101021002DF582EE3CF5831208D9FFC3648094B894
:10103100400ED3EF648094B950069001B1E004F002
:10104100EF642C600CEF60099001B0E004F0020F36
:06105100AE9001AFE0FFCC
:011057002276
:080EE5009001A5ECF0A3EDF073
:100EED00E4A3F0A3F0A3F09001A9E0FFC394144094
:100EFD0003020F989001A6E02FFF9001A5E03400AA
:100F0D008F82F5831208D9FFC3648094B0404ED30D
:100F1D00EF648094B950469001A7E0FEA3E0FF7CFA
:100F2D00007D0A1209289001A7EEF0A3EFF0A3E0CF
:100F3D00FF9001A6E02FFF9001A5E034008F82F510
:100F4D00831208D9FF3395E0FEEF24D0FFEE34FF76
:100F5D00FE9001A8E02FF09001A7E03EF09001A9CE
:100F6D00E0FF9001A6E02FFF9001A5E034008F82F5
:100F7D00F5831208D9FF642C6011EF642E600CEF1D
:100F8D0060099001A9E004F0020EF49001A7E0FEC3
:030F9D00A3E0FFCF
:010FA000222E
:100DB80090017DEBF0A3EAF0A3E9F0A3ECF0A3ED3A
:010DC800F03A
:100DC900E4900189F0A3F0A3F0A3F0A3F0A3F090BD
:100DD9000187F0A3F0900180E0FEA3E0FF90018776
:100DE900E0FCA3E0FDC39FEC9E4003020E88900146
:100DF90082E0FBA3E0FAA3E0F9900189E0FEA3E019
:100E0900F5828E831208D9FF90017DE0FBA3E0FAF9
:100E1900A3E0F98D828C831208D9B5073390018A32
:100E2900E004F07006900189E004F0900185E0FE8D
:100E3900A3E0FF900189E0B50631A3E0B5072C9046
:100E49000187E0FFA3E090018DCFF0A3EFF0802FA1
:100E5900E4900189F0A3F0900188E02401FE90015B
:100E690087E0340090018BF0A3CEF0900188E00474
:100E7900F06003020DDE900187E004F0020DDE90C0
:100E8900018DE0FEA3E0FF90018BE0FCA3E0FDD320
:100E99009FEC9E5044900187ECF0A3EDF090018DFA
:100EA900E0FEA3E0FF900187E0FCA3E0FDC39FEC17
:100EB9009E502390017DE0FBA3E0FAA3E0F98D8227
:100EC9008C83E4120906900188E004F070CF900148
:0B0ED90087E004F080C77F01227F004B
:010EE40022EB
:10002600E47B07FAF9F8900197E0FCA3E0FDA3E072
:10003600FEA3E0FF1209F1900000120A94E47B8807
:100046007A13F9F8900197E0FCA3E0FDA3E0FEA384
:10005600E0FF1209F1900004120A947F0A7E8B7D5C
:10006600027C00900000E0F8A3E0F9A3E0FAA3E028
:10007600FBC3120A83504D7F1D7E637D017C009079
:100086000000E0F8A3A3A3E0120A834037E47F6FE1
:10009600FEFDFC900004E0F8A3E0F9A3E0FAA3E07B
:1000A600FBD3120A83401DE47FFAFEFDFC90000498
:1000B600E0F8A3A3A3E0120A8350099001B27407E3
:1000C600F0020546E47B0EFAF9F8900197E0FCA3EE
:1000D600E0FDA3E0FEA3E0FF1209F1900000120A82
:1000E60094E47B107A27F9F8900197E0FCA3E0FDF1
:1000F600A3E0FEA3E0FF1209F1900004120A947F28
:100106000A7E8B7D027C00900000E0F8A3E0F9A354
:10011600E0FAA3E0FBC3120A83504D7F1D7E637D88
:10012600017C00900000E0F8A3A3A3E0120A83403C
:1001360037E47F6FFEFDFC900004E0F8A3E0F9A32E
:10014600E0FAA3E0FBD3120A83401DE47FFAFEFD2A
:10015600FC900004E0F8A3A3A3E0120A83500990E0
:1001660001B27406F0020546E47B15FAF9F890012F
:1001760097E0FCA3E0FDA3E0FEA3E0FF1209F190E7
:100186000000120A94E47B987A3AF9F8900197E015
:10019600FCA3E0FDA3E0FEA3E0FF1209F19000043A
:1001A600120A947F0A7E8B7D027C00900000E0F8A4
:1001B600A3E0F9A3E0FAA3E0FBC3120A83504D7F44
:1001C6001D7E637D017C00900000E0F8A3A3A3E000
:1001D600120A834037E47F6FFEFDFC900004E0F8CE
:1001E600A3E0F9A3E0FAA3E0FBD3120A83401DE4DF
:1001F6007FFAFEFDFC900004E0F8A3A3A3E0120A38
:100206008350099001B27405F0020546E47B2AFA90
:10021600F9F8900197E0FCA3E0FDA3E0FEA3E0FF60
:100226001209F1900000120A94E47B307A75F9F80D
:10023600900197E0FCA3E0FDA3E0FEA3E0FF120916
:10024600F1900004120A947F0A7E8B7D027C009056
:100256000000E0F8A3E0F9A3E0FAA3E0FBC3120A6A
:1002660083504D7F1D7E637D017C00900000E0F889
:10027600A3A3A3E0120A834037E47F6FFEFDFC9040
:100286000004E0F8A3E0F9A3E0FAA3E0FBD3120A26
:1002960083401DE47FFAFEFDFC900004E0F8A3A372
:1002A600A3E0120A8350099001B27404F0020546D5
:1002B600E47B54FAF9F8900197E0FCA3E0FDA3E093
:1002C600FEA3E0FF1209F1900000120A94E47B609D
:1002D6007AEAF9F8900197E0FCA3E0FDA3E0FEA31B
:1002E600E0FF1209F1900004120A947F0A7E8B7DCA
:1002F600027C00900000E0F8A3E0F9A3E0FAA3E096
:10030600FBC3120A83504D7F1D7E637D017C0090E6
:100316000000E0F8A3A3A3E0120A834037E47F6F4E
:10032600FEFDFC900004E0F8A3E0F9A3E0FAA3E0E8
:10033600FBD3120A83401DE47FFAFEFDFC90000405
:10034600E0F8A3A3A3E0120A8350099001B2740354
:10035600F0020546E47B8CFAF9F8900197E0FCA3DD
:10036600E0FDA3E0FEA3E0FF1209F1900000120AEF
:10037600947BA07A8679017800900197E0FCA3E04F
:10038600FDA3E0FEA3E0FF1209F1900004120A9417
:100396007F0A7E8B7D027C00900000E0F8A3E0F9E6
:1003A600A3E0FAA3E0FBC3120A83504D7F1D7E63D0
:1003B6007D017C00900000E0F8A3A3A3E0120A836D
:1003C6004037E47F6FFEFDFC900004E0F8A3E0F9FF
:1003D600A3E0FAA3E0FBD3120A83401DE47FFAFEF2
:1003E600FDFC900004E0F8A3A3A3E0120A835009E1
:1003F6009001B27402F0020546E47BA8FAF9F8907F
:100406000197E0FCA3E0FDA3E0FEA3E0FF1209F1E3
:10041600900000120A947BC07AD47901780090018A
:1004260097E0FCA3E0FDA3E0FEA3E0FF1209F19034
:100436000004120A947F0A7E8B7D027C00900000E5
:10044600E0F8A3E0F9A3E0FAA3E0FBC3120A8350A5
:100456004D7F1D7E637D017C00900000E0F8A3A324
:10046600A3E0120A834037E47F6FFEFDFC90000490
:10047600E0F8A3E0F9A3E0FAA3E0FBD3120A834075
:100486001DE47FFAFEFDFC900004E0F8A3A3A3E0C0
:10049600120A8350099001B27401F0020546E47B0A
:1004A6002D7A01F9F8900197E0FCA3E0FDA3E0FEA8
:1004B600A3E0FF1209F1900000120A947BD87A4754
:1004C60079037800900197E0FCA3E0FDA3E0FEA38A
:1004D600E0FF1209F1900004120A947F0A7E8B7DD8
:1004E600027C00900000E0F8A3E0F9A3E0FAA3E0A4
:1004F600FBC3120A8350497F1D7E637D017C0090F9
:100506000000E0F8A3A3A3E0120A834033E47F6F60
:10051600FEFDFC900004E0F8A3E0F9A3E0FAA3E0F6
:10052600FBD3120A834019E47FFAFEFDFC90000417
:10053600E0F8A3A3A3E0120A835005E49001B2F009
:10054600900000120AA000000000900004120AA009
:0405560000000000A1
:01055A00227E
:0E15F900E4F5C7F5C5F5C675C3FF75C4FF223E
:1015B300C3EE9402501A9001B2E04480F5C775C59A
:1015C300038FC4EEF5C375C65A75C6A5001215F987
:0115D30022F5
:10158E00C3EE9402501E9001B2E04480F5C775C5BB
:10159E00028FC4EEF5C3AF058FC275C65A75C6A5C8
:0515AE00001215F922F6
:10156800C3EE940240037FFF229001B2E04480F56D
:10157800C775C5018FC4EEF5C375C65A75C6A500F3
:05158800AFC21215F9CD
:01158D00223B
:1013B60075985053873F538EDE53A23FE47B04FA61
:1013C600F9F8900197E0FCA3E0FDA3E0FEA3E0FF9F
:1013D6001209F17B007AC2790178001209F1C3E49F
:1013E6009FFFE49E438E4053890F8F8BF58DC2ABD2
:0813F600C28FD28EC20BD2ACF3
:0113FE0022CC
:0B162100EF14700653A23FED42A2221E
:051446009001AAEFF087
:10144B00E47B04FAF9F8900197E0FCA3E0FDA3E03C
:10145B00FEA3E0FF1209F19001ABE0F8A3E0F9A3C2
:10146B00E0FAA3E0FB1209F1C3E49FFFE49EFE90B8
:0B147B0001AAE01470058F8BEEF58DC8
:011486002243
:0E160700EF147009200BFDD20BAF058F992256
:1015E700EF14700DA20A929B200BFDD20BAF058F53
:0215F700992237
:1014870090006EEBF0A3EAF0A3E9F0AE0790006ED0
:10149700E0FBA3E0FAA3E0F91208C06019AF0690D9
:1014A700006EA3E475F001120950A9F0FA1208C002
:0714B700FD12160780D72289
:0E12B80090010EEFF0A3EBF0A3EAF0A3E9F033
:1012C60090017A7401F0A37401F0A37412F09001F6
:1012D6000FE0F9A3E0FAA3E090006EC9F0A3EAF0EC
:1012E600A3E9F090017AE0F9A3E0FAA3E090007197
:1012F600C9F0A3EAF0A3E9F07B017A01793A121367
:0F1306006C90010EE0FF7B017A01793A021487A7
:030023000213FFC6
:1013FF00C0E0C0F0C083C082C0D075D000C000C0B4
:10140F0001C002C003C004C005C006C00730980564
:10141F00C2981214F2309904C299C20BD007D006A9
:10142F00D005D004D003D002D001D000D0D0D082CC
:07143F00D083D0F0D0E032B1
:1011B7000214BEE493A3F8E493A34003F68001F27C
:1011C70008DFF48029E493A3F85407240CC8C33339
:1011D700C4540F4420C8834004F456800146F6DF08
:1011E700E4800B010204081020408090162CE47E56
:1011F700019360BCA3FF543F30E509541FFEE493FD
:10120700A360010ECF54C025E060A840B8E493A3C3
:10121700FAE493A3F8E493A3C8C582C8CAC583CAEE
:10122700F0A3C8C582C8CAC583CADFE9DEE780BEA6
:0116330000B6
:1008C000BB010689828A83E0225002E722BBFE0236
:0908D000E32289828A83E4932269
:1008D900BB010CE58229F582E5833AF583E02250D4
:1008E90006E92582F8E622BBFE06E92582F8E2221E
:0D08F900E58229F582E5833AF583E4932238
:10090600F8BB010DE58229F582E5833AF583E8F027
:10091600225006E92582C8F622BBFE05E92582C8D3
:02092600F222BB
:10092800EF8DF0A4A8F0CF8CF0A428CE8DF0A42EE3
:02093800FE229D
:10093A00C5F0F8A3E028F0C5F0F8E5821582700248
:06094A001583E038F022E5
:10095000A3F8E0C5F025F0F0E5821582700215835A
:06096000E0C838F0E822B7
:10096600E88FF0A4CC8BF0A42CFCE98EF0A42CFC30
:100976008AF0EDA42CFCEA8EF0A4CDA8F08BF0A4AE
:100986002DCC3825F0FDE98FF0A42CCD35F0FCEB0D
:100996008EF0A4FEA9F0EB8FF0A4CFC5F02ECD39D2
:0F09A600FEE43CFCEAA42DCE35F0FDE43CFC223F
:1009B50075F008758200EF2FFFEE33FECD33CDCCF9
:1009C50033CCC58233C5829BED9AEC99E58298407C
:1009D5000CF582EE9BFEED9AFDEC99FC0FD5F0D659
:1009E500E4CEFBE4CDFAE4CCF9A88222B800C1B983
:1009F5000059BA002DEC8BF084CFCECDFCE5F0CBC1
:100A0500F97818EF2FFFEE33FEED33FDEC33FCEBF9
:100A150033FB10D703994004EB99FB0FD8E5E4F9B4
:100A2500FA227818EF2FFFEE33FEED33FDEC33FCA1
:100A3500C933C910D7059BE99A4007EC9BFCE99A95
:100A4500F90FD8E0E4C9FAE4CCFB2275F010EF2FDA
:100A5500FFEE33FEED33FDCC33CCC833C810D707DA
:100A65009BEC9AE899400AED9BFDEC9AFCE899F815
:0E0A75000FD5F0DAE4CDFBE4CCFAE4C8F922A8
:100A8300EB9FF5F0EA9E42F0E99D42F0E89C45F0C9
:010A93002240
:0C0A9400ECF0A3EDF0A3EEF0A3EFF022D5
:100AA000A8828583F0D083D082120AB7120AB712C7
:100AB0000AB7120AB7E473E493A3C583C5F0C583EC
:100AC000C8C582C8F0A3C583C5F0C583C8C582C8A0
:010AD0002203
:100AD100EC8EF0A4CCC5F0CCCDF8EFA4CEC5F02DB2
:100AE100FDE43CFCE8A42EC8C5F03DFDE43CFCEF70
:0D0AF100A4FFE5F028FEE43DFDE43CFC22FE
:10136C0090006EE0FFA3E0FEA3E0CF900077F0A327
:10137C00EEF0A3EFF0900071E0CBF0A3E0CAF0A385
:10138C00E0C9F07F2290007AAD82AC831208C08D48
:10139C00828C83F0A309E970010ADFEC900071E004
:0A13AC00FBA3E0FAA3E0F90205C07C
:10055B00E5082477F582E43400F583E00508229062
:10056B000074300703900077E475F001120B100252
:10057B0008C02000E97F2ED2008018EF540F249082
:10058B00D43440D4FF30040BEF24BFB41A00500313
:10059B002461FFE50960021509050CE50C700205E5
:1005AB000B30070E900074E475F001120B10EF0284
:1005BB000AFE02151B7403D2078003E4C207F50879
:1005CB00900074120B27E4F509F50BF50CE50960A7
:1005DB00077F2012059E80F5750AFFC201C200C27B
:1005EB0002C203C205C206C20812056AFF700D30B3
:1005FB0007057F001205AFAF0CAE0B22B4255FC20F
:10060B00D5C20412056AFF24D0B40A00501A75F043
:10061B000A780930D50508B6FF0106C6A426F620D0
:10062B00D5047002D20380D924CFB41A00EF500442
:10063B00C2E5D2040207B0D20180C6D20080C0D27C
:10064B000280BCD2D580BAD20580B47F2012059E21
:10065B002002077401B5090040F112055BFF12057A
:10066B009E0205D8D208D206809512055BFB1205B7
:10067B005BFA12055BF94A4B700679817A087BFFAE
:10068B0020022EE509602A7E008E827583001208F7
:10069B00D960060EEE650A70F0C2D5EBC0E0EAC079
:1006AB00E0E9C0E0EE1207F7D0E0F9D0E0FAD0E0D5
:1006BB00FB1208C0FF60AAEBC0E0EAC0E0E9C0E0B3
:1006CB0012059ED0E02401F9D0E03400FAD0E0FB13
:1006DB00E50A0460DCD50AD980877BFF7A0779F3BA
:1006EB00D202809C791080027908C206C208800869
:1006FB00D2D5790A8004790AC2D5E50A047002F5CD
:10070B000AE4FAFDFEFF12055BFC7B0820011312C5
:10071B00055BFD7B1030000A12055BFE12055BFFCB
:10072B007B20EC3382D592D55013C3E43000069F67
:10073B00FFE49EFEE42001039DFDE49CFCE4CBF86A
:10074B00C201EC700CCFCECDCCE824F8F870F3805E
:10075B0017C3EF33FFEE33FEED33FDEC33FCEB331E
:10076B00FB994002FB0FD8E9EB300105F8D0E0C450
:10077B0048B201C0E00AEC4D4E4F78207B0070C2AE
:10078B00EAB50A0040BCC0E01207F9D0F0D0E02077
:10079B000104C4C0E0C4B201C0F0120587D0F0D58B
:1007AB00F0EB0205D8120B3006755306EF580646D0
:1007BB004C06424206F34F06FB4406FB49065B43DD
:0807CB0007015506E54606E5AD
:1007D3004506E54708A150064A2D064E2E06712B05
:1007E300065223066F20088A2A060A480000066973
:1007F3003F3F3F00790AA2D5200314300509B91001
:10080300020404B9080104A2D52006025001042001
:1008130002689202B509005034C0E07F203003190A
:100823007F30A20272067205500F120850C202C234
:1008330006C205C2087F30800F300503E9C0E0120D
:10084300059E300503D0E0F9D0E0B509CC3005179B
:100853007F30B9100C12059E7F583004077F7880D3
:1008630003B9080312059E3002057F2D02059E7F02
:10087300202008F87F2B2006F322920280CF286ED7
:10088300756C6C2900D20112055B3001F8C2017846
:100893000930D50108F602060A2D504349581205BE
:1008A3005B2403B405004001E490089C9312058F78
:0D08B300743A12058FD2037509040206EF96
:100AFE00BB010689828A83F0225002F722BBFE01D7
:020B0E00F322D0
:100B1000F8E0FBA3A3E0F925F0F0E582158270026E
:070B20001583E0FA38F02212
:090B2700EBF0A3EAF0A3E9F022CF
:100B3000D083D082F8E4937012740193700DA3A354
:100B400093F8740193F5828883E473740293686068
:060B5000EFA3A3A380DF68
:10151B00EFB40A07740D121526740A309811A899A6
:10152B00B8130CC2983098FDA899C298B811F63030
:07153B0099FDC299F5992208
:00000001FF
