:0300000002160BDA
:0C160B00787FE4F6D8FD758121021652AC
:0D1B380050332E373E50332E36560D0A0026
:101AE800120900121B45121B6950FB7BFF7A1B79F8
:0D1AF800381217CF7FF47E0112000380E941
:071B720044020D0000000019
:10000300EF4E601A900205E0FCA3E0FDED1D7001C8
:0E0013001C144C70F7EF1F70011E144E70E6A7
:0100210022BC
:081B0500900182E0FEA3E0FF65
:0A1B0D00EF1FAC0670011E4C70F6CD
:011B170022AB
:061A6C00A3F07F647E0080
:101A7200900205E0FCA3E0FD12087BE47B83FAF907
:101A8200F812071090020912083E900209E0C313EF
:061A9200FEA3E013FF2299
:101A9800900208E06599600AE599F0E4900207F081
:101AA8008006900207E004F0900207E0C394E94042
:091AB80007000075C76000002260
:0B17CF00900000EBF0A3EAF0A3E9F0AB
:1017DA0090006B7401F0A37400F0A37403F09000FE
:1017EA0000E0F9A3E0FAA3E090006EC9F0A3EAF0E2
:1017FA00A3E9F090006BE0F9A3E0FAA3E09000718E
:10180A00C9F0A3EAF0A3E9F07B017A00792B121957
:0C181A001E7B017A00792B7F01021A3539
:10169700EF14600D14602614603C14605424047029
:1016A7006F90FE027480F090FE02E030E0F990FE49
:1016B70000E054FCF090FE03E4F0A3F02290FE0457
:1016C7007480F090FE04E030E0F990FE00E04403FF
:1016D700F090FE03803490FE037480F090FE03E0E8
:1016E70030E0F990FE00E054FC4401F090FE0480E5
:1016F7001990FE0374C0F090FE03E030E0F990FE0D
:1017070000E054FC4402F090FE04E4F090FE02F086
:0117170022AF
:0C1B5200EF90FE01700304F022EFF0227F
:1009000043BA80AF9FE4FCFDFEC004A905AA06AB74
:100910000778FBE6FFD000C3EF9BFFEE9AFEED9950
:10092000FDEC98FCE47BF07AD2F9F8120710C3E4EE
:100930009FFF74369EFE746E9DFD74019CFC9000BA
:100940000012083E900000E0FCA3E0FDA3E0FEA33F
:10095000E0FFC00790FE01E0FBE4FAF9F8D00712CF
:10096000079B90000012083E7FC07EF67D577C00FA
:10097000900000E0F8A3E0F9A3E0FAA3E0FBC312C3
:10098000082D500D90020D12084A00546000020B11
:100990002F7FC07E267D827C00900000E0F8A3E0DF
:1009A000F9A3E0FAA3E0FBC312082D500D90020D4D
:1009B00012084A005B8D80020B2F7F807EED7DAF99
:1009C0007C00900000E0F8A3E0F9A3E0FAA3E0FBCC
:1009D000C312082D500D90020D12084A00A8C00045
:1009E000020B2F7F807E2D7DE87C00900000E0F8D8
:1009F000A3E0F9A3E0FAA3E0FBC312082D500D9089
:100A0000020D12084A00B71B00020B2F7F807E36B2
:100A10007D257C01900000E0F8A3E0F9A3E0FAA3B3
:100A2000E0FBC312082D500D90020D12084A011967
:100A30004000020B2F7F807E567D417C019000009C
:100A4000E0F8A3E0F9A3E0FAA3E0FBC312082D50FD
:100A50000D90020D12084A01312D00020B2F7F006C
:100A60007EDB7D5F7C01900000E0F8A3E0F9A3E06D
:100A7000FAA3E0FBC312082D500D90020D12084A94
:100A800001518000020B2F7F607E197D857C0190D3
:100A90000000E0F8A3E0F9A3E0FAA3E0FBC312082A
:100AA0002D500D90020D12084A016E3600020B2FD8
:100AB0007F207EE07DB27C01900000E0F8A3E0F9A9
:100AC000A3E0FAA3E0FBC312082D500C90020D1214
:100AD000084A019BFCC080577FE07EA67DE07C0138
:100AE000900000E0F8A3E0F9A3E0FAA3E0FBC31252
:100AF000082D500C90020D12084A01C9C380802FA6
:100B00007F607E2B7DFF7C01900000E0F8A3E0F980
:100B1000A3E0FAA3E0FBC312082D90020D500912C6
:100B2000084A01FA4000800712084A02160EC0E483
:100B30007B107A27F9F890020DE0FCA3E0FDA3E01A
:100B4000FEA3E0FF12079B900205EEF0A3EFF0E496
:100B5000900208F0900207F0C2091218CF90FE0030
:0C0B6000E05407F0E044E8F000D2AF00E1
:010B6C002266
:0912E700900112EBF0A3EAF0E91A
:1012F000121A6C900182EEF0A3EFF090017F74015E
:10130000F0A37401F0A37415F0900112E0F9A3E0CA
:10131000FAA3E090006EC9F0A3EAF0A3E9F090010F
:101320007FE0F9A3E0FAA3E0900071C9F0A3EAF02E
:10133000A3E9F07B017A01793F12191E90013DEE7D
:10134000F0A3EFF07FF47E01120003E4FBFAD390E8
:10135000013EE09B90013DE09A40E9D2B1C2B1125A
:101360001B05743F2BF58274013AF583E0F9E4FD27
:10137000E930E004D2B18002C2B1E9C313F9121B13
:10138000050DEDB408EAD2B1121B05121B050BBB0B
:0513900000010A80B914
:0E10630090009CEFF0A3EBF0A3EAF0A3E9F0FD
:1010710090010F7401F0A37400F0A374A0F090002C
:101081009DE0F9A3E0FAA3E090006EC9F0A3EAF0B5
:10109100A3E9F090010FE0F9A3E0FAA3E090007159
:1010A100C9F0A3EAF0A3E9F07B017A0079CF121924
:1010B1001E9000CBEEF0EF121A6C9000CDEEF0A373
:1010C100EFF0E49000C9F0A3F09000CBE0FEA3E0C4
:1010D100FFC39000CAE09F9000C9E09E4003021147
:1010E1007390009CE0FFD20B120F5190009CE0FF27
:1010F100C20B120F519000CD121B08E49000C8F0F2
:101101009000C9E0FEA3E024CFF58274003EF58390
:10111100E090009C30E006E0FFD20B8004E0FFC2CB
:101121000B120F519000C9E0FEA3E024CFF58274A9
:10113100003EF583E0A2E713F09000CD121B08906A
:1011410000C8E004F0E0C3940840B590009CE0FFC3
:10115100D20B120F519000CD121B089000CD121B23
:10116100089000CAE004F070069000C9E004F002A3
:0211710010CAA2
:011173002259
:0B143800900211EBF0A3EAF0A3E9F032
:10144300E4FFFE900217F0A3F0A3F0A3F0900211C3
:10145300E0FBA3E0FAA3E0F912066A607290021AB5
:10146300E004F07006900219E004F0900214E0FB2F
:10147300A3E0FAA3E0F98F828E83120683FD900224
:1014830011E0FBA3E0FAA3E0F912066AB505070F22
:10149300BF00010E8012E4FEFF900219E0FDA3E0FD
:1014A300900217CDF0A3EDF0900212E475F0011253
:1014B30006E4900214E0FBA3E0FAA3E0F98F828E26
:1014C300831206837087900217E0FEA3E0FF227E5B
:0314D300FF7FFF99
:0114D60022F3
:10123000E4900225F0900227F0900226F09002261A
:10124000E0FFC3940A40030212E17E00ED2FF58215
:10125000EE3CF583120683FFC3648094B0404BD309
:10126000EF648094B75043900227E004F0E0B401AB
:1012700017900226E02DF582EE3CF58312068324BA
:10128000D0C454F0900225F0900227E0B4021B90E5
:101290000226E07E002DF582EE3CF58312068324C3
:1012A000D0FF900225E04FFFF022900226E07E0062
:1012B0002DF582EE3CF583120683FFC3648094B85B
:1012C000400ED3EF648094B95006900227E004F0FA
:1012D000EF642C600CEF6009900226E004F002122B
:0612E0003D900225E0FF35
:0112E60022E5
:0811740090021BECF0A3EDF06A
:10117C00E4A3F0A3F0A3F090021FE0FFC39414408B
:10118C000302122790021CE02FFF90021BE0340098
:10119C008F82F583120683FFC3648094B0404ED3D4
:1011AC00EF648094B9504690021DE0FEA3E0FF7CF2
:1011BC00007D0A1206D290021DEEF0A3EFF0A3E020
:1011CC00FF90021CE02FFF90021BE034008F82F591
:1011DC0083120683FF3395E0FEEF24D0FFEE34FF3D
:1011EC00FE90021EE02FF090021DE03EF090021FD8
:1011FC00E0FF90021CE02FFF90021BE034008F8276
:10120C00F583120683FF642C6011EF642E600CEFE3
:10121C00600990021FE004F002118390021DE0FEB1
:03122C00A3E0FF3D
:01122F00229C
:100D0F009001F3EBF0A3EAF0A3E9F0A3ECF0A3ED6D
:010D1F00F0E3
:100D2000E49001FFF0A3F0A3F0A3F0A3F0A3F090F0
:100D300001FDF0A3F09001F6E0FEA3E0FF9001FDBD
:100D4000E0FCA3E0FDC39FEC9E4003020DDF900199
:100D5000F8E0FBA3E0FAA3E0F99001FFE0FEA3E0D6
:100D6000F5828E83120683FF9001F3E0FBA3E0FA85
:100D7000A3E0F98D828C83120683B50733900200BD
:100D8000E004F070069001FFE004F09001FBE0FE4B
:100D9000A3E0FF9001FFE0B50631A3E0B5072C907A
:100DA00001FDE0FFA3E0900203CFF0A3EFF0802F5E
:100DB000E49001FFF0A3F09001FEE02401FE900119
:100DC000FDE03400900201F0A3CEF09001FEE004BB
:100DD000F06003020D359001FDE004F0020D359046
:100DE0000203E0FEA3E0FF900201E0FCA3E0FDD3DC
:100DF0009FEC9E50449001FDECF0A3EDF0900203B7
:100E0000E0FEA3E0FF9001FDE0FCA3E0FDC39FEC4A
:100E10009E50239001F3E0FBA3E0FAA3E0F98D825A
:100E20008C83E41206B09001FEE004F070CF9001D4
:0B0E3000FDE004F080C77F01227F007E
:010E3B002294
:100B6D006770696F5F757070756C6C283C442530CB
:100B7D0032583E2C2564293BB2BBB4E6D4DAB8C357
:100B8D00494F0D0A006770696F5F757070756C6CF9
:100B9D00283C44253032583E2C31293BB2BBB4E6BB
:100BAD00D4DAB8C3494F0D0A006770696F5F75706D
:100BBD0070756C6C283C44253032583E2C30293BE6
:100BCD00B2BBB4E6D4DAB8C3494F0D0A00677069F9
:100BDD006F5F6D6F6465283C44253032583E2C257F
:100BED0064293BB2BBB4E6D4DAB8C3494F0D0A0051
:100BFD006770696F5F6D6F64652844253032582CBE
:100C0D003C25643E293BB2BBB4E6D4DAB8C3C4A3D9
:100C1D00CABD0D0A006770696F5F777269746528C8
:100C2D003C25643E2C2564293BB2BBB4E6D4DAB82E
:100C3D00C350BFDA0D0A006770696F5F726561643A
:100C4D00283C5025643E293BB2BBB4E6D4DAB8C388
:100C5D0050BFDA0D0A006770696F5F6F7574283CBD
:100C6D0044253032583E2C2564293BB2BBB4E6D422
:100C7D00DAB8C3494F0D0A006770696F5F6F7574FD
:100C8D00283C44253032583E2C31293BB2BBB4E6CA
:100C9D00D4DAB8C3494F0D0A006770696F5F6F757D
:100CAD0074283C44253032583E2C30293BB2BBB41D
:100CBD00E6D4DAB8C3494F0D0A006770696F5F69F2
:100CCD006E283C44253032583E293BB2BBB4E6D4A5
:100CDD00DAB8C3494F0D0A006770696F5F746F67AB
:100CED00676C65283C44253032583E293BB2BBB475
:100CFD00E6D4DAB8C3494F0D0A00010204081020EA
:020D0D00408024
:050E3C0090022AEFF016
:100E410064887003020F5090022AE0FF54F0F50D00
:100E5100EF540FFF900D0793F50EEFD39407402148
:100E61007BFF7A0B796D90022AE0FF900115E4F087
:100E7100A3EFF0A20AE4FF33A3CFF0A3EFF0121225
:100E8100E7300A63E50D24F0602124F0602224F0AC
:100E9100602324F0602424F0602524F0602624F0EF
:100EA10060272470702B90FE10802190FE11801C11
:100EB10090FE12801790FE13801290FE14800D9008
:100EC100FE15800890FE16800390FE17E0450EF097
:100ED100227BFF7A0B799290022AE0FF900115E4C0
:100EE100F0A3EFF00212E7E50D24F0602124F06099
:100EF1002224F0602324F0602424F0602524F06093
:100F01002624F060272470703090FE10802190FE1E
:100F110011801C90FE12801790FE13801290FE1417
:100F2100800D90FE15800890FE16800390FE17E05C
:100F3100FFE50EF4FEEF5EF0227BFF7A0B79B690AF
:0F0F4100022AE0FF900115E4F0A3EFF01212E78F
:010F5000227E
:0A038B00900229EDF0900228EFF037
:1003950064887003020669900228E0FF54F0F50DA9
:1003A500EF540FFF900D0793F50EEFD394074023FD
:1003B5007BFF7A0B79DA900228E0FF900115E4F0D3
:1003C500A3EFF0900229E0FF900117E4F0A3EFF00E
:1003D5001212E7E50D24F0602124F0602224F0607C
:1003E5002324F0602424F0602524F0602624F060A6
:1003F5002724707028E4F50D8046750D0180417540
:100405000D02803C750D038037750D048032750D26
:1004150005802D750D068028750D0780237BFF7AD5
:100425000B79DA900228E0FF900115E4F0A3EFF0D4
:10043500900229E0FF900117E4F0A3EFF01212E714
:10044500900229E0FFD39403401C7BFF7A0B79FDD2
:10045500900228E0FD900115E4F0A3EDF0A3E4F08F
:10046500A3EFF01212E7E50D703A900229E0FF7054
:1004750007E50EF452935294EFB40109E50E429349
:10048500E50EF45294900229E0B40208E50E429379
:10049500E50E4294900229E0B40309E50EF4529367
:1004A500E50E4294E50D6401703A900229E0FF7073
:1004B50007E50EF452915292EFB40109E50E42910F
:1004C500E50EF45292900229E0B40208E50E42913D
:1004D500E50E4292900229E0B40309E50EF452912B
:1004E500E50E4292E50D6402703A900229E0FF7034
:1004F50007E50EF452955296EFB40109E50E4295C3
:10050500E50EF45296900229E0B40208E50E4295F4
:10051500E50E4296900229E0B40309E50EF45295E2
:10052500E50E4296E50D6403703A900229E0FF70EE
:1005350007E50EF452B152B2EFB40109E50E42B12E
:10054500E50EF452B2900229E0B40208E50E42B17C
:10055500E50E42B2900229E0B40309E50EF452B16A
:10056500E50E42B2E50D6404703A900229E0FF7091
:1005750007E50EF452B352B4EFB40109E50E42B3E8
:10058500E50EF452B4900229E0B40208E50E42B338
:10059500E50E42B4900229E0B40309E50EF452B326
:1005A500E50E42B4E50D6405703A900229E0FF704E
:1005B50007E50EF452C952CAEFB40109E50E42C966
:1005C500E50EF452CA900229E0B40208E50E42C9CC
:1005D500E50E42CA900229E0B40309E50EF452C9BA
:1005E500E50E42CAE50D6406703A900229E0FF70F7
:1005F50007E50EF452CB52CCEFB40109E50E42CB20
:10060500E50EF452CC900229E0B40208E50E42CB87
:10061500E50E42CC900229E0B40309E50EF452CB75
:10062500E50E42CCE50D6407703A900229E0FF70B3
:1006350007E50EF452E152E2EFB40109E50E42E19D
:10064500E50EF452E2900229E0B40208E50E42E11B
:10065500E50E42E2900229E0B40309E50EF452E109
:04066500E50E42E27A
:01066900226E
:10177500EFB40900503A901782F828287302179D94
:101785000217A00217A30217A60217A90217AC0297
:1017950017AF0217B20217CE8D80228D90228DA031
:1017A500228DB0228DC0228DC8228DE8228DF8228F
:1017B5007BFF7A0C7922900115E4F0A3EFF0AF05D9
:0A17C500A3E4F0A3EFF01212E722F4
:10182600EFB40900503D901833F828287302184E7B
:1018360002185102185402185702185A02185D026B
:101846001860021863021866AF8022AF9022AFA01C
:1018560022AFB022AFC022AFC822AFE822AFF82233
:101866007FFF227BFF7A0C7944900115E4F0A3EF09
:07187600F01212E77FFF22D0
:050F510090022BEFF0FF
:100F56006488700302106290022BE0FF54F0F50DD6
:100F6600EF540FFF900D0793F50EEFD39407402132
:100F76007BFF7A0C796390022BE0FF900115E4F079
:100F8600A3EFF0A20BE4FF33A3CFF0A3EFF012120E
:100F9600E7300B60E50D24F0602124F0602224F098
:100FA600602324F0602424F0602524F0602624F0D9
:100FB600602724707028E50E428022E50E429022BA
:100FC600E50E42A022E50E42B022E50E42C022E521
:100FD6000E42C822E50E42E822E50E42F8227BFFC9
:100FE6007A0C798590022BE0FF900115E4F0A3EFCF
:100FF600F00212E7E50D24F0602224F0602424F0CC
:10100600602624F0602824F0602A24F0602C24F066
:10101600602E24707030E50EF4528022E50EF452F4
:101026009022E50EF452A022E50EF452B022E50E0F
:10103600F452C022E50EF452C822E50EF452E8221C
:10104600E50EF452F8227BFF7A0C79A690022BE08B
:0C105600FF900115E4F0A3EFF01212E788
:01106200226B
:0513950090022CEFF0B6
:10139A00BF8802C32290022CE0FF54F0F50DEF54EF
:1013AA000FFF900D0793F50EEFD3940740167BFFBE
:1013BA007A0C79C790022CE0FF900115E4F0A3EFB4
:1013CA00F01212E7E50D24F0602124F0602224F0E7
:1013DA00602324F0602424F0602524F0602624F0A1
:1013EA0060272470702885800F803985900F80349B
:1013FA0085A00F802F85B00F802A85C00F80258594
:10140A00C80F802085E80F801B85F80F80167BFFA8
:10141A007A0C79C790022CE0FF900115E4F0A3EF53
:0D142A00F01212E7E50F550E6002D322C349
:011437002292
:0514D70090022DEFF072
:1014DC006488700302157290022DE0FF54F0F50D34
:1014EC00EF540FFF900D0793F50EEFD394074016B2
:1014FC007BFF7A0C79E590022DE0FF900115E4F06A
:10150C00A3EFF01212E7E50D24F0602124F0602225
:10151C0024F0602324F0602424F0602524F060265D
:10152C0024F0602724707028E50E628022E50E629C
:10153C009022E50E62A022E50E62B022E50E62C09A
:10154C0022E50E62C822E50E62E822E50E62F82260
:10155C007BFF7A0C79E590022DE0FF900115E4F009
:06156C00A3EFF01212E7EC
:011572002256
:1019AF00EFB40800503E9019BCF82828730219D4E0
:1019BF000219D80219DC0219E00219E40219E8022F
:1019CF0019EC0219F0ED628022ED629022ED62A017
:1019DF0022ED62B022ED62C022ED62C822ED62E814
:0519EF0022ED62F82268
:10157300300C48EFB40800400302160A901586F8B1
:1015830028287302159E0215A20215A60215AA02A7
:1015930015AE0215B20215B60215BAED428022ED60
:1015A300429022ED42A022ED42B022ED42C022ED54
:1015B30042C822ED42E822ED42F822EFB40800507F
:1015C300469015CBF82828730215E30215E8021597
:1015D300ED0215F20215F70215FC021601021606BA
:1015E300EDF4528022EDF4529022EDF452A022ED5C
:1015F300F452B022EDF452C022EDF452C822EDF4BD
:0816030052E822EDF452F82236
:10187D00EFB40900504490188AF82828730218A56F
:10188D000218A90218AD0218B10218B50218B90252
:10189D0018BD0218C10218C5AE80801EAE90801A08
:1018AD00AEA08016AEB08012AEC0800EAEC8800A5B
:1018BD00AEE88006AEF88002D322EE5D6002D32240
:0118CD00C357
:0118CE0022F7
:1018CF0075985053873F538EDE53A23FE47B04FA43
:1018DF00F9F890020DE0FCA3E0FDA3E0FEA3E0FF0A
:1018EF0012079B7B007AC27901780012079BC3E431
:1018FF009FFFE49E438E4053890F8F8BF58DC2ABB4
:0E190F00C28FD28E53B7EF53B8EFC20ED2ACD8
:01191D0022A7
:0B1B5E00EF14700653A23FED42A222DC
:0519F400900220EFF05D
:1019F900E47B04FAF9F890020DE0FCA3E0FDA3E012
:101A0900FEA3E0FF12079B900221E0F8A3E0F9A3EF
:101A1900E0FAA3E0FB12079BC3E49FFFE49EFE905C
:0B1A29000220E01470058F8BEEF58D9D
:011A3400228F
:0E1B2A00EF147009200EFDD20EAF058F992228
:101B1800EF14700DA20D929B200EFDD20EAF058F13
:021B2800992200
:101A350090006EEBF0A3EAF0A3E9F0AE0790006E1C
:101A4500E0FBA3E0FAA3E0F912066A6019AF06907D
:101A5500006EA3E475F0011206FAA9F0FA12066AFF
:071A6500FD121B2A80D722AD
:0E171800900184EFF0A3EBF0A3EAF0A3E9F058
:101726009001F07401F0A37401F0A37488F09001A5
:1017360085E0F9A3E0FAA3E090006EC9F0A3EAF011
:10174600A3E9F09001F0E0F9A3E0FAA3E0900071BC
:10175600C9F0A3EAF0A3E9F07B017A0179B0121986
:0F1766001E900184E0FF7B017A0179B0021A35F1
:0300230002196857
:10196800C0E0C0F0C083C082C0D075D000C000C045
:1019780001C002C003C004C005C006C007309805F6
:10198800C298121A98309904C299C20ED007D0068C
:10199800D005D004D003D002D001D000D0D0D0825E
:0719A800D083D0F0D0E03243
:0D1B450075E7FF75E60653BAF743E6802208
:091B6900E5E630E002D322C322BC
:041B7A0043E680229C
:041B7E0053E67F2289
:10161700021AE8E493A3F8E493A34003F68001F2E7
:1016270008DFF48029E493A3F85407240CC8C333D4
:10163700C4540F4420C8834004F456800146F6DFA3
:10164700E4800B0102040810204080901B72E47EA6
:10165700019360BCA3FF543F30E509541FFEE49398
:10166700A360010ECF54C025E060A840B8E493A35F
:10167700FAE493A3F8E493A3C8C582C8CAC583CA8A
:10168700F0A3C8C582C8CAC583CADFE9DEE780BE42
:011B7900006B
:10066A00BB010689828A83E0225002E722BBFE028E
:09067A00E32289828A83E49322C1
:10068300BB010CE58229F582E5833AF583E022502C
:1006930006E92582F8E622BBFE06E92582F8E22276
:0D06A300E58229F582E5833AF583E4932290
:1006B000F8BB010DE58229F582E5833AF583E8F080
:1006C000225006E92582C8F622BBFE05E92582C82C
:0206D000F22214
:1006D200EF8DF0A4A8F0CF8CF0A428CE8DF0A42E3C
:0206E200FE22F6
:1006E400C5F0F8A3E028F0C5F0F8E58215827002A1
:0606F4001583E038F0223E
:1006FA00A3F8E0C5F025F0F0E582158270021583B3
:06070A00E0C838F0E8220F
:10071000E88FF0A4CC8BF0A42CFCE98EF0A42CFC88
:100720008AF0EDA42CFCEA8EF0A4CDA8F08BF0A406
:100730002DCC3825F0FDE98FF0A42CCD35F0FCEB65
:100740008EF0A4FEA9F0EB8FF0A4CFC5F02ECD392A
:0F075000FEE43CFCEAA42DCE35F0FDE43CFC2297
:10075F0075F008758200EF2FFFEE33FECD33CDCC51
:10076F0033CCC58233C5829BED9AEC99E5829840D4
:10077F000CF582EE9BFEED9AFDEC99FC0FD5F0D6B1
:10078F00E4CEFBE4CDFAE4CCF9A88222B800C1B9DB
:10079F000059BA002DEC8BF084CFCECDFCE5F0CB19
:1007AF00F97818EF2FFFEE33FEED33FDEC33FCEB52
:1007BF0033FB10D703994004EB99FB0FD8E5E4F90D
:1007CF00FA227818EF2FFFEE33FEED33FDEC33FCFA
:1007DF00C933C910D7059BE99A4007EC9BFCE99AEE
:1007EF00F90FD8E0E4C9FAE4CCFB2275F010EF2F33
:1007FF00FFEE33FEED33FDCC33CCC833C810D70733
:10080F009BEC9AE899400AED9BFDEC9AFCE899F86D
:0E081F000FD5F0DAE4CDFBE4CCFAE4C8F92200
:10082D00EB9FF5F0EA9E42F0E99D42F0E89C45F021
:01083D002298
:0C083E00ECF0A3EDF0A3EEF0A3EFF0222D
:10084A00A8828583F0D083D08212086112086112CF
:10085A000861120861E473E493A3C583C5F0C583F4
:10086A00C8C582C8F0A3C583C5F0C583C8C582C8F8
:01087A00225B
:10087B00EC8EF0A4CCC5F0CCCDF8EFA4CEC5F02D0A
:10088B00FDE43CFCE8A42EC8C5F03DFDE43CFCEFC8
:0D089B00A4FFE5F028FEE43DFDE43CFC2256
:10191E0090006EE0FFA3E0FEA3E0CF900077F0A36F
:10192E00EEF0A3EFF0900071E0CBF0A3E0CAF0A3CD
:10193E00E0C9F07F2290007AAD82AC8312066A8DE8
:10194E00828C83F0A309E970010ADFEC900071E04C
:0A195E00FBA3E0FAA3E0F902008BFE
:10002600E5082477F582E43400F583E0050822909C
:100036000074300703900077E475F0011208BA02E5
:10004600066A2000E97F2ED2008018EF540F249014
:10005600D43440D4FF30040BEF24BFB41A0050034D
:100066002461FFE50960021509050CE50C7002051F
:100076000B30070E900074E475F0011208BAEF0217
:1000860008A8021AC17403D2078003E4C207F50860
:100096009000741208D1E4F509F50BF50CE509603A
:1000A600077F2012006980F5750AFFC201C200C2EF
:1000B60002C203C205C206C208120035FF700D3027
:1000C60007057F0012007AAF0CAE0B22B4255FC283
:1000D600D5C204120035FF24D0B40A00501A75F0B8
:1000E6000A780930D50508B6FF0106C6A426F6200B
:1000F600D5047002D20380D924CFB41A00EF50047D
:10010600C2E5D20402027BD20180C6D20080C0D2F0
:100116000280BCD2D580BAD20580B47F2012006995
:100126002002077401B5090040F1120026FF1200F3
:10013600690200A3D208D2068095120026FB12009F
:1001460026FA120026F94A4B7006794C7A037BFF91
:1001560020022EE509602A7E008E82758300120633
:100166008360060EEE650A70F0C2D5EBC0E0EAC009
:10017600E0E9C0E0EE1202C2D0E0F9D0E0FAD0E049
:10018600FB12066AFF60AAEBC0E0EAC0E0E9C0E045
:10019600120069D0E02401F9D0E03400FAD0E0FB87
:1001A600E50A0460DCD50AD980877BFF7A0279BE2E
:1001B600D202809C791080027908C206C2088008A3
:1001C600D2D5790A8004790AC2D5E50A047002F507
:1001D6000AE4FAFDFEFF120026FC7B08200113123A
:1001E6000026FD7B1030000A120026FE120026FFB4
:1001F6007B20EC3382D592D55013C3E43000069FA2
:10020600FFE49EFEE42001039DFDE49CFCE4CBF8A4
:10021600C201EC700CCFCECDCCE824F8F870F38098
:1002260017C3EF33FFEE33FEED33FDEC33FCEB3358
:10023600FB994002FB0FD8E9EB300105F8D0E0C48A
:1002460048B201C0E00AEC4D4E4F78207B0070C2E8
:10025600EAB50A0040BCC0E01202C4D0F0D0E020EB
:100266000104C4C0E0C4B201C0F0120052D0F0D5FF
:10027600F0EB0200A31208DA01405301BA5801114B
:100286004C010D4201BE4F01C64401C64901264339
:0802960001CC5501B04601B096
:10029E004501B047036C5001152D01192E013C2B61
:1002AE00011D23013A2003552A00D54800000134D0
:1002BE003F3F3F00790AA2D5200314300509B9103B
:1002CE00020404B9080104A2D5200602500104203C
:1002DE0002689202B509005034C0E07F2030031945
:1002EE007F30A20272067205500F12031BC202C2A9
:1002FE0006C205C2087F30800F300503E9C0E01248
:10030E000069300503D0E0F9D0E0B509CC3005170F
:10031E007F30B9100C1200697F583004077F788047
:10032E0003B908031200693002057F2D0200697FB0
:10033E00202008F87F2B2006F322920280CF286E11
:10034E00756C6C2900D2011200263001F8C20178BA
:10035E000930D50108F60200D52D50434958120038
:10036E00262403B405004001E49003679312005A5B
:0D037E00743A12005AD2037509040201BA44
:1008A800BB010689828A83F0225002F722BBFE012F
:0208B800F32229
:1008BA00F8E0FBA3A3E0F925F0F0E58215827002C7
:0708CA001583E0FA38F0226B
:0908D100EBF0A3EAF0A3E9F02228
:1008DA00D083D082F8E4937012740193700DA3A3AD
:1008EA0093F8740193F5828883E4737402936860C1
:0608FA00EFA3A3A380DFC1
:101AC100EFB40A07740D121ACC740A309811A89950
:101AD100B8130CC2983098FDA899C298B811F63085
:071AE10099FDC299F599225D
:00000001FF
