:030000000224DAFD
:0C24DA00787FE4F6D8FD758121022521F1
:1000030012179E7FF47E0112301A7B017A00790069
:100013009000087420F07D21122ACB120F2F80FE4E
:073039004401C80000000083
:10301A00EF4E601A9001C0E0FCA3E0FDED1D7001C7
:0E302A001C144C70F7EF1F70011E144E70E660
:013038002275
:08304D0090007DE0FEA3E0FF0E
:0A305500EF1FAC0670011E4C70F670
:01305F00224E
:102FF4009001C0E0FCA3E0FD120EE2E47B83FAF949
:10300400F8120D3E9001C4120E7F9001C4E0C31368
:06301400FEA3E013FF2201
:102FA4009001C3E06599600AE599F0E49001C2F0EC
:102FB40080069001C2E004F09001C2E0C394E940AD
:092FC40007000075C7600000223F
:0B29C80090008CEBF0A3EAF0A3E9F014
:1029D3009000F77401F0A37400F0A3748FF09000DB
:1029E3008CE0F9A3E0FAA3E09000FAC9F0A3EAF0BF
:1029F300A3E9F09000F7E0F9A3E0FAA3E09000FD6B
:102A0300C9F0A3EAF0A3E9F07B017A0079B7122CAD
:0C2A1300B37B017A0079B77F01022EDD51
:10267700EF14600D14602614603C14605424047039
:102687006F90FE027480F090FE02E030E0F990FE59
:1026970000E054FCF090FE03E4F0A3F02290FE0467
:1026A7007480F090FE04E030E0F990FE00E044030F
:1026B700F090FE03803490FE037480F090FE03E0F8
:1026C70030E0F990FE00E054FC4401F090FE0480F5
:1026D7001990FE0374C0F090FE03E030E0F990FE1D
:1026E70000E054FC4402F090FE04E4F090FE02F097
:0126F70022C0
:0C308000EF90FE01700304F022EFF0223C
:10179E0043BA80AF9FE4FCFDFEC004A905AA06ABC8
:1017AE000778FBE6FFD000C3EF9BFFEE9AFEED99A4
:1017BE00FDEC98FCE47BF07AD2F9F8120D3EC3E40E
:1017CE009FFF74369EFE746E9DFD74019CFC90000E
:1017DE0004120E7F900004E0FCA3E0FDA3E0FEA344
:1017EE00E0FFC00790FE01E0FBE4FAF9F8D0071223
:1017FE000DC9900004120E7F7FC07EF67D577C00CF
:10180E00900004E0F8A3E0F9A3E0FAA3E0FBC31212
:10181E000E5B500D9001C8120E8B00546000021921
:10182E00CD7FC07E267D827C00900004E0F8A3E090
:10183E00F9A3E0FAA3E0FBC3120E5B500D9001C8B2
:10184E00120E8B005B8D800219CD7F807EED7DAFF9
:10185E007C00900004E0F8A3E0F9A3E0FAA3E0FB1B
:10186E00C3120E5B500D9001C8120E8B00A8C00063
:10187E000219CD7F807E2D7DE87C00900004E0F87B
:10188E00A3E0F9A3E0FAA3E0FBC3120E5B500D90A8
:10189E0001C8120E8B00B71B000219CD7F807E3659
:1018AE007D257C01900004E0F8A3E0F9A3E0FAA303
:1018BE00E0FBC3120E5B500D9001C8120E8B011986
:1018CE0040000219CD7F807E567D417C0190000440
:1018DE00E0F8A3E0F9A3E0FAA3E0FBC3120E5B501D
:1018EE000D9001C8120E8B01312D000219CD7F0013
:1018FE007EDB7D5F7C01900004E0F8A3E0F9A3E0BD
:10190E00FAA3E0FBC3120E5B500D9001C8120E8BB2
:10191E00015180000219CD7F607E197D857C01907A
:10192E000004E0F8A3E0F9A3E0FAA3E0FBC3120E73
:10193E005B500D9001C8120E8B016E36000219CD50
:10194E007F207EE07DB27C01900004E0F8A3E0F9F8
:10195E00A3E0FAA3E0FBC3120E5B500C9001C81279
:10196E000E8B019BFCC080577FE07EA67DE07C0144
:10197E00900004E0F8A3E0F9A3E0FAA3E0FBC312A1
:10198E000E5B500C9001C8120E8B01C9C380802FC4
:10199E007F607E2B7DFF7C01900004E0F8A3E0F9D0
:1019AE00A3E0FAA3E0FBC3120E5B9001C85009122C
:1019BE000E8B01FA40008007120E8B02160EC0E449
:1019CE007B107A27F9F89001C8E0FCA3E0FDA3E0B4
:1019DE00FEA3E0FF120DC99001C0EEF0A3EFF0E4FC
:1019EE009001C3F09001C2F0C20A122CFD00D2AFDA
:0119FE0000E8
:0119FF0022C5
:0B21B00090000DEBF0A3EAF0A3E9F0B3
:1021BB007F647E00122FF490007DEEF0A3EFF09081
:1021CB00007A7401F0A37400F0A37410F090000D6A
:1021DB00E0F9A3E0FAA3E09000FAC9F0A3EAF0A3B8
:1021EB00E9F090007AE0F9A3E0FAA3E09000FDC9D2
:1021FB00F0A3EAF0A3E9F07B017A00793A122CB351
:10220B00900038EEF0A3EFF07FF47E0112301AE469
:10221B00FBFAD3900039E09B900038E09A40E9D26A
:10222B00B1C2B112304D743A2BF58274003AF5837A
:10223B00E0F9E4FDE930E004D2B18002C2B1E9C3B8
:10224B0013F912304D0DEDB408EAD2B112304D1224
:09225B00304D0BBB00010A80B9F3
:0B2307009001CCEBF0A3EAF0A3E9F09A
:10231200E4FFFE9001D2F0A3F0A3F0A3F09001CC71
:10232200E0FBA3E0FAA3E0F9120C3160729001D550
:10233200E004F070069001D4E004F09001CFE0FBDD
:10234200A3E0FAA3E0F98F828E83120C4AFD90017A
:10235200CCE0FBA3E0FAA3E0F9120C31B505070FBC
:10236200BF00010E8012E4FEFF9001D4E0FDA3E065
:102372009001D2CDF0A3EDF09001CDE475F0011201
:102382000D129001CFE0FBA3E0FAA3E0F98F828E59
:1023920083120C4A70879001D2E0FEA3E0FF227EF6
:0323A200FF7FFFBB
:0123A5002215
:1020F900E49001F6F09001F8F09001F7F09001F703
:10210900E0FFC3940A40030221AA7E00ED2FF58265
:10211900EE3CF583120C4AFFC3648094B0404BD364
:10212900EF648094B750439001F8E004F0E0B40103
:10213900179001F7E02DF582EE3CF583120C4A2445
:10214900D0C454F09001F6F09001F8E0B4021B906D
:1021590001F7E07E002DF582EE3CF583120C4A244E
:10216900D0FF9001F6E04FFFF0229001F7E07E00EA
:102179002DF582EE3CF583120C4AFFC3648094B8B6
:10218900400ED3EF648094B950069001F8E004F052
:10219900EF642C600CEF60099001F7E004F0022174
:0621A900069001F6E0FFC4
:0121AF00220D
:08203D009001E2ECF0A3EDF0CC
:10204500E4A3F0A3F0A3F09001E6E0FFC3941440ED
:10205500030220F09001E3E02FFF9001E2E034005D
:102065008F82F583120C4AFFC3648094B0404ED32F
:10207500EF648094B950469001E4E0FEA3E0FF7C54
:10208500007D0A120CAB9001E4EEF0A3EFF0A3E0A3
:10209500FF9001E3E02FFF9001E2E034008F82F52D
:1020A50083120C4AFF3395E0FEEF24D0FFEE34FF98
:1020B500FE9001E5E02FF09001E4E03EF09001E6AE
:1020C500E0FF9001E3E02FFF9001E2E034008F8212
:1020D500F583120C4AFF642C6011EF642E600CEF3F
:1020E50060099001E6E004F002204C9001E4E0FE76
:0320F500A3E0FF66
:0120F80022C5
:101CE9009001AEEBF0A3EAF0A3E9F0A3ECF0A3EDC9
:011CF900F0FA
:101CFA00E49001BAF0A3F0A3F0A3F0A3F0A3F0904C
:101D0A0001B8F0A3F09001B1E0FEA3E0FF9001B8A2
:101D1A00E0FCA3E0FDC39FEC9E4003021DB99001C5
:101D2A00B3E0FBA3E0FAA3E0F99001BAE0FEA3E076
:101D3A00F5828E83120C4AFF9001AEE0FBA3E0FA13
:101D4A00A3E0F98D828C83120C4AB507339001BB4C
:101D5A00E004F070069001BAE004F09001B6E0FEEB
:101D6A00A3E0FF9001BAE0B50631A3E0B5072C90D5
:101D7A0001B8E0FFA3E09001BECFF0A3EFF0802FFF
:101D8A00E49001BAF0A3F09001B9E02401FE9001B9
:101D9A00B8E034009001BCF0A3CEF09001B9E004A1
:101DAA00F06003021D0F9001B8E004F0021D0F90CD
:101DBA0001BEE0FEA3E0FF9001BCE0FCA3E0FDD37E
:101DCA009FEC9E50449001B8ECF0A3EDF09001BE58
:101DDA00E0FEA3E0FF9001B8E0FCA3E0FDC39FECA6
:101DEA009E50239001AEE0FBA3E0FAA3E0F98D82B6
:101DFA008C83E4120C899001B9E004F070CF900151
:0B1E0A00B8E004F080C77F01227F00D9
:011E150022AA
:101A00006770696F5F757070756C6C283C44253029
:101A100032583E2C2564293BB2BBB4E6D4DAB8C3B5
:101A2000494F0D0A006770696F5F757070756C6C57
:101A3000283C44253032583E2C31293BB2BBB4E619
:101A4000D4DAB8C3494F0D0A006770696F5F7570CB
:101A500070756C6C283C44253032583E2C30293B44
:101A6000B2BBB4E6D4DAB8C3494F0D0A0067706957
:101A70006F5F6D6F6465283C44253032583E2C25DD
:101A800064293BB2BBB4E6D4DAB8C3494F0D0A00AF
:101A90006770696F5F6D6F64652844253032582C1C
:101AA0003C25643E293BB2BBB4E6D4DAB8C3C4A338
:101AB000CABD0D0A006770696F5F77726974652827
:101AC0003C25643E2C2564293BB2BBB4E6D4DAB88D
:101AD000C350BFDA0D0A006770696F5F7265616499
:101AE000283C5025643E293BB2BBB4E6D4DAB8C3E7
:101AF00050BFDA0D0A006770696F5F6F7574283C1C
:101B000044253032583E2C2564293BB2BBB4E6D480
:101B1000DAB8C3494F0D0A006770696F5F6F75745B
:101B2000283C44253032583E2C31293BB2BBB4E628
:101B3000D4DAB8C3494F0D0A006770696F5F6F75DB
:101B400074283C44253032583E2C30293BB2BBB47B
:101B5000E6D4DAB8C3494F0D0A006770696F5F6950
:101B60006E283C44253032583E293BB2BBB4E6D403
:101B7000DAB8C3494F0D0A006770696F5F746F6709
:101B8000676C65283C44253032583E293BB2BBB4D3
:101B9000E6D4DAB8C3494F0D0A0001020408102048
:021BA000408083
:051E160090000BEFF04D
:101E1B0064887003021F2A90000BE0FF54F0F50D4D
:101E2B00EF540FFF901B9A93F50EEFD394074021BD
:101E3B007BFF7A1A790090000BE0FF900010E4F022
:101E4B00A3EFF0A200E4FF33A3CFF0A3EFF0122136
:101E5B00B0300063E50D24F0602124F0602224F003
:101E6B00602324F0602424F0602524F0602624F005
:101E7B0060272470702B90FE10802190FE11801C27
:101E8B0090FE12801790FE13801290FE14800D901E
:101E9B00FE15800890FE16800390FE17E0450EF0AD
:101EAB00227BFF7A1A792590000BE0FF900010E45B
:101EBB00F0A3EFF00221B0E50D24F0602124F060D7
:101ECB002224F0602324F0602424F0602524F060A9
:101EDB002624F060272470703090FE10802190FE35
:101EEB0011801C90FE12801790FE13801290FE142E
:101EFB00800D90FE15800890FE16800390FE17E073
:101F0B00FFE50EF4FEEF5EF0227BFF7A1A79499023
:0F1F1B00000BE0FF900010E4F0A3EFF01221B0F4
:011F2A002294
:0A121E0090000CEDF090000BEFF0D3
:10122800648870030214FC90000BE0FF54F0F50D85
:10123800EF540FFF901B9A93F50EEFD394074023BA
:101248007BFF7A1A796D90000BE0FF900010E4F0B4
:10125800A3EFF090000CE0FF900012E4F0A3EFF091
:101268001221B0E50D24F0602124F0602224F06002
:101278002324F0602424F0602524F0602624F06004
:101288002724707028E4F50D8046750D018041759E
:101298000D02803C750D038037750D048032750D85
:1012A80005802D750D068028750D0780237BFF7A34
:1012B8001A796D90000BE0FF900010E4F0A3EFF0B6
:1012C80090000CE0FF900012E4F0A3EFF01221B0C0
:1012D80090000CE0FFD39403401C7BFF7A1A7990AE
:1012E80090000BE0FD900010E4F0A3EDF0A3E4F013
:1012F800A3EFF01221B0E50D703A90000CE0FF70FA
:1013080007E50EF452935294EFB40109E50E4293A7
:10131800E50EF4529490000CE0B40208E50E4293F6
:10132800E50E429490000CE0B40309E50EF45293E4
:10133800E50E4294E50D6401703A90000CE0FF70F0
:1013480007E50EF452915292EFB40109E50E42916D
:10135800E50EF4529290000CE0B40208E50E4291BA
:10136800E50E429290000CE0B40309E50EF45291A8
:10137800E50E4292E50D6402703A90000CE0FF70B1
:1013880007E50EF452955296EFB40109E50E429521
:10139800E50EF4529690000CE0B40208E50E429572
:1013A800E50E429690000CE0B40309E50EF4529560
:1013B800E50E4296E50D6403703A90000CE0FF706C
:1013C80007E50EF452B152B2EFB40109E50E42B18D
:1013D800E50EF452B290000CE0B40208E50E42B1FA
:1013E800E50E42B290000CE0B40309E50EF452B1E8
:1013F800E50E42B2E50D6404703A90000CE0FF700F
:1014080007E50EF452B352B4EFB40109E50E42B346
:10141800E50EF452B490000CE0B40208E50E42B3B5
:10142800E50E42B490000CE0B40309E50EF452B3A3
:10143800E50E42B4E50D6405703A90000CE0FF70CB
:1014480007E50EF452C952CAEFB40109E50E42C9C4
:10145800E50EF452CA90000CE0B40208E50E42C949
:10146800E50E42CA90000CE0B40309E50EF452C937
:10147800E50E42CAE50D6406703A90000CE0FF7074
:1014880007E50EF452CB52CCEFB40109E50E42CB7E
:10149800E50EF452CC90000CE0B40208E50E42CB05
:1014A800E50E42CC90000CE0B40309E50EF452CBF3
:1014B800E50E42CCE50D6407703A90000CE0FF7031
:1014C80007E50EF452E152E2EFB40109E50E42E1FC
:1014D800E50EF452E290000CE0B40208E50E42E199
:1014E800E50E42E290000CE0B40309E50EF452E187
:0414F800E50E42E2D9
:0114FC0022CD
:10296E00EFB40900503A90297BF828287302299673
:10297E0002299902299C02299F0229A20229A50255
:10298E0029A80229AB0229C78D80228D90228DA005
:10299E00228DB0228DC0228DC8228DE8228DF82284
:1029AE007BFF7A1A79B5900010E4F0A3EFF0AF0533
:0A29BE00A3E4F0A3EFF01221B02211
:102A1F00EFB40900503D902A2CF8282873022A475A
:102A2F00022A4A022A4D022A50022A53022A560229
:102A3F002A59022A5C022A5FAF8022AF9022AFA0F0
:102A4F0022AFB022AFC022AFC822AFE822AFF82228
:102A5F007FFF227BFF7A1A79D7900010E4F0A3EF63
:072A6F00F01221B07FFF22ED
:051F2B0090000BEFF037
:101F30006488700302203C90000BE0FF54F0F50D24
:101F4000EF540FFF901B9A93F50EEFD394074021A7
:101F50007BFF7A1A79F690000BE0FF900010E4F016
:101F6000A3EFF0A200E4FF33A3CFF0A3EFF0122120
:101F7000B0300060E50D24F0602124F0602224F0F0
:101F8000602324F0602424F0602524F0602624F0EF
:101F9000602724707028E50E428022E50E429022D0
:101FA000E50E42A022E50E42B022E50E42C022E537
:101FB0000E42C822E50E42E822E50E42F8227BFFDF
:101FC0007A1B791890000BE0FF900010E4F0A3EF6B
:101FD000F00221B0E50D24F0602224F0602424F00A
:101FE000602624F0602824F0602A24F0602C24F07D
:101FF000602E24707030E50EF4528022E50EF4520B
:102000009022E50EF452A022E50EF452B022E50E25
:10201000F452C022E50EF452C822E50EF452E82232
:10202000E50EF452F8227BFF7A1B793990000BE021
:0C203000FF900010E4F0A3EFF01221B0CC
:01203C002281
:052264009001F9EFF00C
:10226900BF8802C3229001F9E0FF54F0F50DEF5445
:102279000FFF901B9A93F50EEFD3940740167BFF3F
:102289007A1B795A9001F9E0FF900010E4F0A3EF6E
:10229900F01221B0E50D24F0602124F0602224F031
:1022A900602324F0602424F0602524F0602624F0C3
:1022B90060272470702885800F803985900F8034BD
:1022C90085A00F802F85B00F802A85C00F802585B6
:1022D900C80F802085E80F801B85F80F80167BFFCB
:1022E9007A1B795A9001F9E0FF900010E4F0A3EF0E
:0D22F900F01221B0E50F550E6002D322C394
:0123060022B4
:0523A6009001FAEFF0C8
:1023AB00648870030224419001FAE0FF54F0F50DAC
:1023BB00EF540FFF901B9A93F50EEFD39407401633
:1023CB007BFF7A1B79789001FAE0FF900010E4F024
:1023DB00A3EFF01221B0E50D24F0602124F0602270
:1023EB0024F0602324F0602424F0602524F0602680
:1023FB0024F0602724707028E50E628022E50E62BF
:10240B009022E50E62A022E50E62B022E50E62C0BC
:10241B0022E50E62C822E50E62E822E50E62F82282
:10242B007BFF7A1B79789001FAE0FF900010E4F0C3
:06243B00A3EFF01221B036
:012441002278
:102DD300EFB40800503E902DE0F8282873022DF838
:102DE300022DFC022E00022E04022E08022E0C02DB
:102DF3002E10022E14ED628022ED629022ED62A06D
:102E030022ED62B022ED62C022ED62C822ED62E8DB
:052E130022ED62F8222F
:10244200300048EFB4080040030224D9902455F824
:1024520028287302246D0224710224750224790251
:10246200247D022481022485022489ED428022ED0A
:10247200429022ED42A022ED42B022ED42C022ED76
:1024820042C822ED42E822ED42F822EFB4080050A1
:102492004690249AF82828730224B20224B7022410
:1024A200BC0224C10224C60224CB0224D00224D5B9
:1024B200EDF4528022EDF4529022EDF452A022ED7E
:1024C200F452B022EDF452C022EDF452C822EDF4DF
:0824D20052E822EDF452F82259
:102BC500EFB409005044902BD2F8282873022BED5E
:102BD500022BF1022BF5022BF9022BFD022C01022F
:102BE5002C05022C09022C0DAE80801EAE90801A99
:102BF500AEA08016AEB08012AEC0800EAEC8800A00
:102C0500AEE88006AEF88002D322EE5D6002D322E4
:012C1500C3FB
:012C1600229B
:083040004101DB004101DA004F
:102B1F00900002120C4AFF9001DAE06F6044120C31
:102B2F0031FEC4540F9001D8F0EE540FFE7401A87B
:102B3F0006088002C333D8FC9001D9F0900001122F
:102B4F000C4AFEC4540F9001D6F0EE540FFE7401E0
:102B5F00A806088002C333D8FC9001D7F09001DAA1
:032B6F00EFF02262
:102566009001E7EBF0A3EAF0A3E9F0A3EDF0900108
:10257600E7E0FBA3E0FAA3E0F9ED120C779001EB9C
:10258600E0FF9001E7E0FBA3E0FAA3E0F990000189
:10259600EF120C899001EAE0FF7D0212121E9001F3
:1025A600EBE0FF7D0212121E9001EAE0FFD200125C
:1025B6001E169001EBE0FFD200121E169001EAE013
:1025C600FFD200121F2B9001EBE0FFD200121F2B4F
:1025D6009001DBE004FFF09001E7E0FBA3E0FAA343
:0C25E600E0F9900002EF120C89022B1F9C
:102E18009001DAE06F603BEDC4540F9001D8F0EDFB
:102E2800540FFE7401A806088002C333D8FC900131
:102E3800D9F0EBC4540F9001D6F0EB540FFE740197
:102E4800A806088002C333D8FC9001D7F09001DAB5
:032E5800EFF02276
:0A2A760090000AEDF0900009EFF067
:102A80007D0212121E90000AE0FF7D0212121E90BB
:102A90000009E0FFD200121E1690000AE0FFD200EB
:102AA000121E16900009E0FFD200121F2B90000AA0
:102AB000E0FFD200121F2B9001DBE004F0FCFF903E
:0A2AC0000009E0FDA3E0FB122E1850
:012ACA0022E9
:102B72009001D6E0FFA3E0FDD2001224429001D8DA
:102B8200E0FFA3E0FDD2001224429001D6E0FFA3B1
:102B9200E0FD122BC540037FFF229001D6E0FFA388
:102BA200E0FD122DD39001D6E0FFA3E0FD122BC56C
:102BB20050037FFF229001D8E0FFA3E0FD122DD346
:032BC2007F00226F
:102F14009001D6E0FFA3E0FDC2001224429001D844
:102F2400E0FFA3E0FDC2001224429001D8E0FFA319
:102F3400E0FD122DD39001D6E0FFA3E0FD022DD3D6
:102F44009001D8E0FFA3E0FDC2001224429001D614
:102F5400E0FFA3E0FDC2001224429001D8E0FFA3E9
:102F6400E0FD122DD39001D8E0FFA3E0FD022DD3A4
:102F74009001D8E0FFA3E0FDC2001224429001D6E4
:102F8400E0FFA3E0FDD2001224429001D8E0FFA3A9
:102F9400E0FD122DD39001D8E0FFA3E0FD022DD374
:102D8D009001D8E0FFA3E0FDC2001224429001D6CD
:102D9D00E0FFA3E0FDD2001224429001D8E0FFA392
:102DAD00E0FD122DD39001D6E0FFA3E0FD122BC55F
:102DBD009001D8E0FFA3E0FD5006122DD37FFF2236
:062DCD00122DD37F00224D
:0526F8009000A0EFF0CE
:1026FD009000A2F09001D630E709E0FFA3E0FDD2F3
:10270D00008007E0FFA3E0FDC2001224429001D833
:10271D00E0FFA3E0FDC200122442E49000A1F0907E
:10272D0000A0E0FF9000A2E06F30E70B9001D6E033
:10273D00FFA3E0FD122DD39001D8E0FFA3E0FD1221
:10274D002DD39000A0E09000A2F025E09000A0F025
:10275D009001D8E0FFA3E0FD122DD39000A1E0047D
:07276D00F0E0C3940840B83E
:012774002242
:1028B300E49000A1F09001D6E0FFA3E0FDD2001266
:1028C3002442E49000A0F09000A1E025E0F0900104
:1028D300D8E0FFA3E0FDD2001224429001D6E0FF2E
:1028E300A3E0FD122BC550079000A1E04401F09036
:1028F30001D8E0FFA3E0FDC2001224429000A0E053
:0D29030004F0E0C3940840BF9000A1E0FF85
:0129100022A4
:0B2852009001ECEBF0A3EAF0A3E9F02A
:10285D00E49001F0F09001EFF0122B729001EFE097
:10286D0025E0FF1226F8122D8DEF70259001EFE077
:10287D0025E0FF9001ECE0FBA3E0FAA3E0F9900165
:10288D00F0E0F582758300EF120C899001F0E00401
:10289D00F0122F149001EFE004F0E0C3948040B9E2
:0528AD009001F0E0FFC6
:0128B2002203
:102CFD0075985053873F538EDE53A23FE47B04FA01
:102D0D00F9F89001C8E0FCA3E0FDA3E0FEA3E0FF0D
:102D1D00120DC97B007AC279017800120DC9C3E486
:102D2D009FFFE49E438E4053890F8F8BF58DC2AB71
:082D3D00C28FD28EC20CD2AC91
:012D4500226B
:0B308C00EF14700653A23FED42A22299
:052E5B009001F1EFF011
:102E6000E47B04FAF9F89001C8E0FCA3E0FDA3E0DC
:102E7000FEA3E0FF120DC99001F2E0F8A3E0F9A370
:102E8000E0FAA3E0FB120DC9C3E49FFFE49EFE90AD
:0B2E900001F1E01470058F8BEEF58D52
:012E9B002214
:0E307200EF147009AF058F99D20C200CFD22CF
:10306000EF14700DA20B929BAF058F99D20C200C20
:02307000FD223F
:102EDD009000FAEBF0A3EAF0A3E9F0AE079000FA48
:102EED00E0FBA3E0FAA3E0F9120C316019AF0690F4
:102EFD0000FAA3E475F001120D28A9F0FA120C31B5
:072F0D00FD12307280D72293
:0E291100900128EFF0A3EBF0A3EAF0A3E9F0A9
:10291F009001947401F0A37401F0A3742CF0900152
:10292F0029E0F9A3E0FAA3E09000FAC9F0A3EAF0D6
:10293F00A3E9F0900194E0F9A3E0FAA3E09000FD81
:10294F00C9F0A3EAF0A3E9F07B017A017954122CC4
:0F295F00B3900128E0FF7B017A017954022EDD4D
:03002300022D4665
:102D4600C0E0C0F0C083C082C0D075D000C000C053
:102D560001C002C003C004C005C006C00730980504
:102D6600C298122FA4309904C299C20CD007D0067B
:102D7600D005D004D003D002D001D000D0D0D0826C
:072D8600D083D0F0D0E03251
:101BA2006D6F64656C3D756E6B6F6E770D0A006DBF
:101BB2006F64656C3D415432344330310D0A006D1F
:101BC2006F64656C3D415432344330320D0A006D0E
:101BD2006F64656C3D415432344330340D0A006DFC
:101BE2006F64656C3D415432344330380D0A006DE8
:101BF2006F64656C3D415432344331360D0A006DD9
:101C02006F64656C3D415432344333320D0A006DCA
:101C12006F64656C3D415432344336340D0A006DB5
:101C22006F64656C3D41543234433132380D0A00E1
:101C32006D6F64656C3D41543234433235360D0A62
:101C4200006D6F64656C3D41543234433531320D61
:101C52000A00202020202020303020303120303255
:101C620020303320303420303520303620303720B9
:101C7200303820303920304120304220304320306B
:101C8200442030452030460D0A002D2D2D2D2D2DBE
:101C92002D2D2D2D2D2D2D2D2D2D2D2D2D2D2D2D72
:101CA2002D2D2D2D2D2D2D2D2D2D2D2D2D2D2D2D62
:101CB2002D2D2D2D2D2D2D2D2D2D2D2D2D2D2D2D52
:101CC2002D0D0A00253034583A2000253032582094
:101CD200007C0025630020000D0A00746F74616CA3
:071CE2003A256C750D0A00A4
:043048004101FB0047
:102E9C00900009EBF0A3EAF0A3E9F0900009E0FB45
:102EAC00A3E0FAA3E0F9900001120C4AFF90000293
:102EBC00120C4AFD900003120C4AFB122E189000C3
:102ECC0009E0FBA3E0FAA3E0F9120C319001FBF04E
:012EDC0022D3
:102C17009001DCEBF0A3EAF0A3E9F09001E0E0FF1C
:102C27009001DCE0FBA3E0FAA3E0F9900002EF12C9
:102C37000C899001E1E0900003120C89ED120C77EA
:102C47009001E0E0FFA3E0FD122A769001DCE0FBB3
:102C5700A3E0FAA3E0F9900001EF120C89022E9C81
:10002600900197EEF0A3EFF0A3EBF0A3EAF0A3E9BB
:01003600F0D9
:100037009001FBE0FB54F0120EBC00660000691053
:1000470000852000973000AE4000C85000E46000F3
:10005700F07000FC800108900114A0000001307FBF
:1000670001229001A2120E8B00000080EB5407249E
:10007700509001ADF09001AC7408F002013090018E
:10008700A2120E8B000001009001FBE05407803F95
:100097009001A2120E8B00000200900197E0FF90E2
:1000A70001FBE0540680159001A2120E8B0000049C
:1000B70000900197E0FF9001FBE0540424502F804B
:1000C700109001A2120E8B00000800900197E02407
:1000D700509001ADF09001AC7410F0804C9001A2EB
:1000E700120E8B00001000802E9001A2120E8B00C2
:1000F70000200080229001A2120E8B000040008099
:10010700169001A2120E8B00008000800A9001A2B7
:10011700120E8B000100009001FBE0540724509061
:1001270001ADF09001AC7420F0900197E0FEA3E0E0
:10013700FFE4FCFD9001A2E0F8A3E0F9A3E0FAA335
:10014700E0FBC3120E5B50037F042290019CE0FE8C
:10015700A3E0FBAA06900197E0FEA3E0FFEF2BFFC9
:10016700EE3AFEE433FDE433FC9001A2E0F8A3E0AD
:10017700F9A3E0FAA3E0FBC3120E5B5028900197A6
:10018700E0FEA3E0FBAA069001A2E0FCA3E0FDA32A
:10019700E0FEA3E0C39BFFEE9AFEED9400FDEC9416
:1001A70000FCA3800E90019CE0FEA3E0FFE4FCFDB1
:1001B7009001A6120E7F9001ACE0FD7C00900197A4
:1001C700E0FEA3E0FF120CBD9001AAEEF0A3EFF052
:1001D700122B729001ADE025E0FF1226F8122D8D4B
:1001E700EF60030204289001ACE0B420119001975E
:1001F700E0FF1226F8122D8DEF600302042890010C
:1002070098E0FF1226F8122D8DEF60030204289064
:10021700019E120E8B000000009001A6E0FCA3E0F7
:10022700FDA3E0FEA3E0FF90019EE0F8A3E0F9A3A1
:10023700E0FAA3E0FBC3120E5B400302047C9001CB
:1002470097E0FEA3E0FFE4FCFD90019EE0F8A3A386
:10025700A3E02FFFEA3EFEED39FDEC38FCC0079026
:1002670001ACE0FBE4FAF9F8D007120DC9A804A91C
:1002770005AA06AB079001AAE0FEA3E0FFE4FCFD98
:10028700C3120E5B700302042E900197E0FEA3E0F9
:10029700FFE4FCFD90019EE0F8A3E0F9A3E0FAA3D8
:1002A700E02FFFEA3EFEED39FDEC38FCC007900178
:1002B700ACE0FBE4FAF9F8D007120DC99001AAEEF9
:1002C700F0A3EFF0122F149001FBE0FF54F0120E91
:1002D700BC02FA1003942002FE30032E4003615043
:1002E7000394600394700394800394900394A00094
:1002F7000003A0EF02038E900197E0FEA3E0FFE466
:10030700FCFD90019EE0F8A3E0F9A3E0FAA3E02F3B
:10031700FFEA3EFEED39FDEC38FC7808120E6C90D2
:1003270001FBE05406802E900197E0FEA3E0FFE476
:10033700FCFD90019EE0F8A3E0F9A3E0FAA3E02F0B
:10034700FFEA3EFEED39FDEC38FC7808120E6C90A2
:1003570001FBE0540424502F803B900197E0FEA35B
:10036700E0FFE4FCFD90019EE0F8A3E0F9A3E0FACA
:10037700A3E02FFFEA3EFEED39FDEC38FC780812CA
:100387000E6CEF2450800E5407245080089001FB18
:10039700E0540724509001ADF07F0A7E0012301A16
:1003A700122B729001ADE025E0FF1226F8122D8D79
:1003B700EF6002806C9001ACE06420703790019789
:1003C700E0FEA3E0FFE4FCFD90019EE0F8A3E0F966
:1003D700A3E0FAA3E02FFFEA3EFEED39FDEC38FC7F
:1003E700E4FB7A01F9F8120DC91226F8122D8DEFE8
:1003F7006002802D900197E0FEA3E0FFE4FCFD90F2
:10040700019EE0F8A3E0F9A3E0FAA3E02FFFEA3E9C
:10041700FEED39FDEC38FCE41226F8122D8DEF6065
:1004270006122F147F022290019EA3A3E0FEA3E0F1
:10043700FF900199E0FBA3E0FAA3E0F98F828E8396
:10044700120C4AFF1226F8122D8DEF6006122F1498
:100457007F032290019EE0FCA3E0FDA3E0FEA3E062
:100467002401FFE43EFEE43DFDE43CFC90019E12C6
:100477000E7F020220122F147F0A7E0012301A907C
:10048700019CE0FEA3E0FBAA06900197E0FEA3E033
:10049700FFEF2BFFEE3AFEE433FDE433FC9001A2BD
:1004A700E0F8A3E0F9A3E0FAA3E0FBC3120E5B5068
:0604B700037F05227F0017
:0104BD00221C
:1014FD0090008CEEF0A3EFF0A3EBF0A3EAF0A3E9DC
:01150D00F0ED
:10150E009001FBE0FB54F0120EBC153D001540108F
:10151E00154D20155D30157440158E5015A06015B3
:10152E00B47015C88015DC9015F0A0000016067F6B
:10153E000122900097120E8B00000080EB806190CC
:10154E000097120E8B000001009001FBE08051907D
:10155E000097120E8B0000020090008CE0FF9001AD
:10156E00FBE054068015900097120E8B00000400CD
:10157E0090008CE0FF9001FBE0540424502F807407
:10158E00900097120E8B0000080090008CE0245003
:10159E008062900097120E8B000010009001FBE00D
:1015AE0054072450804E900097120E8B000020009E
:1015BE009001FBE054072450803A900097120E8B56
:1015CE00000040009001FBE054072450802690005C
:1015DE0097120E8B000080009001FBE05407245000
:1015EE008012900097120E8B000100009001FBE01C
:1015FE005407245090009FF090008CE0FEA3E0FF73
:10160E00E4FCFD900097E0F8A3E0F9A3E0FAA3E074
:10161E00FBC3120E5B50037F0422900091E0FEA3E9
:10162E00E0FBAA0690008CE0FEA3E0FFEF2BFFEE9E
:10163E003AFEE433FDE433FC900097E0F8A3E0F9C2
:10164E00A3E0FAA3E0FBC3120E5B502890008CE0DF
:10165E00FEA3E0FBAA06900097E0FCA3E0FDA3E04A
:10166E00FEA3E0C39BFFEE9AFEED9400FDEC94000A
:10167E00FCA3800E900091E0FEA3E0FFE4FCFD9041
:10168E00009B120E7F122B7290009FE025E0FF123E
:10169E0026F8122D8DEF60028038E4FF7E08FDFCE7
:1016AE00900097E0F8A3E0F9A3E0FAA3E0FBD312D1
:1016BE000E5B401090008CE0FF1226F8122D8DEF7D
:1016CE006002800E90008DE0FF1226F8122D8DEF35
:1016DE006006122F147F0222122B7290009FE025BB
:1016EE00E004FF1226F8900093120E8B000000000B
:1016FE0090009BE0FCA3E0FDA3E0FEA3E0FF9000C2
:10170E0093E0F8A3E0F9A3E0FAA3E0FBC3120E5BAB
:10171E005047122F441228B3C007900093A3A3E0A2
:10172E00FEA3E0FF90008EE0FBA3E0FAA3E0F98FAA
:10173E00828E83D0E0120C89900093E0FCA3E0FD32
:10174E00A3E0FEA3E02401FFE43EFEE43DFDE43C05
:10175E00FC900093120E7F8097122F74122F14900C
:10176E000091E0FEA3E0FF90008DE02FFF90008C33
:10177E00E03EFEE4FCFD900097E0F8A3E0F9A3E064
:0F178E00FAA3E0FBC3120E5B50037F05227F001E
:01179D002229
:100F2F009001FBE054F0120EBC0F6A100F7B200FE4
:100F3F008D300F9E400FAF500FC0600FD1700FE27A
:100F4F00800FF3901004A000000F5AE4900004F0FB
:100F5F00A3F07BFF7A1B79A2021013900004E4F038
:100F6F00A304F07BFF7A1B79B1021013900004E405
:100F7F00F0A37402F07BFF7A1B79C102101390006B
:100F8F0004E4F0A37404F07BFF7A1B79D180759091
:100F9F000004E4F0A37408F07BFF7A1B79E180640E
:100FAF00900004E4F0A37410F07BFF7A1B79F180BA
:100FBF0053900004E4F0A37420F07BFF7A1C7901B6
:100FCF008042900004E4F0A37440F07BFF7A1C7918
:100FDF00118031900004E4F0A37480F07BFF7A1C41
:100FEF00792180209000047401F0A3E4F07BFF7A54
:100FFF001C7932800F9000047402F0A3E4F07BFFA1
:10100F007A1C79431229C8900004E07002A3E070A3
:10101F000302121D7BFF7A1C79541229C87BFF7AB9
:10102F001C798C1229C8E490000AF0A3F0900004F8
:10103F00E0FEA3E0FFC390000BE09F90000AE09E4C
:10104F0040030211F6E4900006F0A3F0900006E0D2
:10105F00FEA3E0FFC39480EE9400501C740C2FF598
:10106F008274003EF583E4F0900007E004F070DC3A
:10107F00900006E004F080D490000AE0FEA3E07830
:10108F0007C333CE33CED8F9FF7B017A00790C90AA
:10109F000091E4F0A37480F01214FDE4900006F0C8
:1010AF00A3F0900006E0FEA3E0FFC39408EE9400C7
:1010BF0040030211E57BFF7A1C79C6EFC4F8540F89
:1010CF00C868FDEEC454F048FC90000AE0FEA3E0AF
:1010DF007807C333CE33CED8F92DFFEE3C90008F77
:1010EF00F0A3EFF01229C8E4900008F0A3F09000ED
:1010FF0008E0FCA3E0FDC39410EC940050477BFF85
:10110F007A1C79CD900007E0C4F8540FC868FF909F
:10111F000006E0C454F048FEED2FFFEC3EFE740CC9
:10112F002FF58274003EF583E0FF90008FE4F0A36B
:10113F00EFF01229C8900009E004F070B190000898
:10114F00E004F080A97BFF7A1C79D31229C8E490C0
:10115F000008F0A3F0900008E0FCA3E0FDC394109A
:10116F00EC94005057900007E0C4F8540FC868FF84
:10117F00900006E0C454F048FEED2FFFEC3EFE74E5
:10118F000C2FF58274003EF583E0FFC394204013CB
:10119F00EFD3947F500D7BFF7A1C79D590008FEFA2
:1011AF00F080067BFF7A1C79D81229C8900009E0DD
:1011BF0004F070A1900008E004F080997BFF7A1C86
:1011CF0079DA1229C8900007E004F0700690000643
:1011DF00E004F00210B190000BE004F070069000F4
:1011EF000AE004F002103C7BFF7A1C798C1229C8AC
:1011FF0090000AE0FEA3E0FF7C007D80120EE290DB
:0E120F00008F120E7F7BFF7A1C79DD1229C83A
:01121D0022AE
:102C6700900014EFF0A3EDF0A3EBF0122B7290009D
:102C770014E0FF1226F8122D8DEF6002800E9000EF
:102C870015E0FF1226F8122D8DEF6006122F147F24
:102C97000222900016E0FF1226F8122D8DEF600633
:0C2CA700122F147F0322122F147F002232
:0927750090000BE0FF7B017D7F69
:10277E00900014EFF0A3EDF0A3EBF0A3EAF0A3E9C1
:10278E00F0122B72900014E0FF1226F8122D8DEF2E
:10279E0060028022900015E0FF1226F8122D8DEFB8
:1027AE0060028012122B72900014E004FF1226F8C1
:1027BE00122D8DEF6006122F147F02221228B39075
:1027CE000016E0FBA3E0FAA3E0F9EF120C77122F4C
:0727DE0074122F147F00228A
:0E27E50090000BE0FF900009E0FB7DFF7C0FF1
:1027F300900014EFF0A3ECF0A3EDF0A3EBF0122B99
:1028030072900014E0FF1226F8122D8DEF60028003
:102813001E900015E0FF1226F8122D8DEF60028046
:102823000E900016E0FF1226F8122D8DEF600612AF
:102833002F147F0222900017E0FF1226F8122D8D2D
:0F284300EF6006122F147F0322122F147F002242
:0B25F20090000BE0FF7B017DFF7C0FE1
:1025FD00900014EFF0A3ECF0A3EDF0A3EBF0A3EA41
:10260D00F0A3E9F0122B72900014E0FF1226F812DD
:10261D002D8DEF60028032900015E0FF1226F8122A
:10262D002D8DEF60028022900016E0FF1226F81229
:10263D002D8DEF60028012122B72900014E004FFBA
:10264D001226F8122D8DEF6006122F147F02221222
:10265D0028B3900017E0FBA3E0FAA3E0F9EF120C0A
:0A266D0077122F74122F147F002241
:1004BE00E490000AF0900009F0122B72900009E00F
:1004CE0025E024A0FF1226F8122D8DEF7019900052
:1004DE000AE0700D900009E0FF25E024A090000BCB
:1004EE00F090000AE004F0122F14900009E004F0DE
:1004FE00E0C3940840C390000AE0FEB408037F50A6
:10050E0022EEB4040C90000BE0C31354042440FFFD
:10051E002290000AE0FEB4020AA3E0C3135406249C
:10052E0030FF22EE640160030208C97A00790C12D2
:10053E00277590000BE0FF7B017A00790D7DFF128D
:10054E00277E90000BE0FFA3E004FB7D7F122C675B
:10055E007F0A7E0012301A90000BE0FF90000DE033
:10056E002402FB7DFF122C677F0A7E0012301A7A5E
:10057E0000790E12277590000BE0FF7B017A00794F
:10058E000F7DFF12277E90000FE0FF90000EE06FB0
:10059E00702990000DE024026F702090000BE0FF98
:1005AE00A3E0FB7D7F122C677F0A7E0012301A902B
:1005BE00000BE0C31354072410FF2290000CE0FB45
:1005CE0004FF90000EE06F704190000DE02402FFDA
:1005DE0090000FE06F703390000BE0FF7D7F122CC8
:1005EE00677F0A7E0012301A90000BE0FF90000D1C
:1005FE00E0FB7DFF122C677F0A7E0012301A9000FE
:10060E000BE0C31354072420FF227A007909122528
:10061E00F290000BE0FF7B017A00790C7DFF7C1FCE
:10062E001225FD90000BE0FF7B017A00790D7DFF16
:10063E007C3F1225FD90000BE0FF7B017A00790EC6
:10064E007DFF7C7F1225FD90000BE0FF7B017A0081
:10065E00790F74FFFDFC1225FD90000BE0FFA3E067
:10066E0004FB7DFF7C1F1227F37F0A7E0012301AD7
:10067E0090000BE0FF90000DE02402FB7DFF7C3F1D
:10068E001227F37F0A7E0012301A90000BE0FF90C3
:10069E00000EE02403FB7DFF7C7F1227F37F0A7E92
:1006AE000012301A90000BE0FF90000FE02404FBC4
:1006BE0074FFFDFC1227F37F0A7E0012301A7A00B7
:1006CE00790A1225F290000BE0FF7B017A00791077
:1006DE007DFF7C1F1225FD90000BE0FF7B017A0051
:1006EE0079117DFF7C3F1225FD90000BE0FF7B0111
:1006FE007A0079127DFF7C7F1225FD90000BE0FFC2
:10070E007B017A00791374FFFDFC1225FD90001019
:10071E00E0FF90000AE0FE6F701F90000FE02404CF
:10072E006E70161227E57F0A7E0012301A90000BAB
:10073E00E0C31354072460FF22900011E0FF9000E5
:10074E0010E0FE6F703590000FE024046E702C12D6
:10075E0027E57F0A7E0012301A90000BE0FFA3E01F
:10076E00FB7DFF7C1F1227F37F0A7E0012301A904A
:10077E00000BE0C31354072470FF22900012E0FF19
:10078E00900011E0FE6F704D90000FE024046E702B
:10079E00441227E57F0A7E0012301A90000BE0FF0C
:1007AE00A3E0FB7DFF7C1F1227F37F0A7E00123031
:1007BE001A90000BE0FF90000DE0FB7DFF7C3F12D6
:1007CE0027F37F0A7E0012301A90000BE0C31354F9
:1007DE00072480FF22900013E0FF900012E0FE6FCE
:1007EE00706590000FE024046E705C1227E57F0A9E
:1007FE007E0012301A90000BE0FFA3E0FB7DFF7C21
:10080E001F1227F37F0A7E0012301A90000BE0FFB2
:10081E0090000DE0FB7DFF7C3F1227F37F0A7E00E8
:10082E0012301A90000BE0FF90000EE0FB7DFF7C73
:10083E007F1227F37F0A7E0012301A90000BE0C35E
:10084E001354072490FF221227E57F0A7E001230F0
:10085E001A90000BE0FFA3E0FB7DFF7C1F1227F335
:10086E007F0A7E0012301A90000BE0FF90000DE020
:10087E00FB7DFF7C3F1227F37F0A7E0012301A9019
:10088E00000BE0FF90000EE0FB7DFF7C7F1227F354
:10089E007F0A7E0012301A90000BE0FF90000FE0EE
:1008AE00FB74FFFDFC1227F37F0A7E0012301A90B4
:0D08BE00000BE0C313540724A0FF227F00AD
:0108CB00220A
:102ACB00AF05900004EBF0A3EAF0A3E9F09000024D
:102ADB00EF120C89900008E0FD900003120C891294
:102AEB002A76900004E0FBA3E0FAA3E0F990000142
:102AFB00EF120C891204BE900004E0FBA3E0FAA3D2
:102B0B00E0F9EF120C77900004E0FBA3E0FAA3E0EE
:042B1B00F9022E9CF1
:1024E600020003E493A3F8E493A34003F68001F209
:1024F60008DFF48029E493A3F85407240CC8C333F7
:10250600C4540F4420C8834004F456800146F6DFC5
:10251600E4800B0102040810204080903039E47EEC
:10252600019360BCA3FF543F30E509541FFEE493BA
:10253600A360010ECF54C025E060A840B8E493A381
:10254600FAE493A3F8E493A3C8C582C8CAC583CAAC
:10255600F0A3C8C582C8CAC583CADFE9DEE780BE64
:01304C000083
:100C3100BB010689828A83E0225002E722BBFE02C1
:090C4100E32289828A83E49322F4
:100C4A00BB010CE58229F582E5833AF583E022505F
:100C5A0006E92582F8E622BBFE06E92582F8E222A9
:0D0C6A00E58229F582E5833AF583E49322C3
:100C7700BB010689828A83F0225002F722BBFE015C
:020C8700F32256
:100C8900F8BB010DE58229F582E5833AF583E8F0A1
:100C9900225006E92582C8F622BBFE05E92582C84D
:020CA900F22235
:100CAB00EF8DF0A4A8F0CF8CF0A428CE8DF0A42E5D
:020CBB00FE2217
:100CBD00BC000BBE0029EF8DF084FFADF022E4CC1B
:100CCD00F875F008EF2FFFEE33FEEC33FCEE9DECE4
:100CDD00984005FCEE9DFE0FD5F0E9E4CEFD22ED2A
:100CED00F8F5F0EE8420D21CFEADF075F008EF2F74
:100CFD00FFED33FD4007985006D5F0F222C398FD65
:050D0D000FD5F0EA2201
:100D1200C5F0F8A3E028F0C5F0F8E582158270026C
:060D22001583E038F02209
:100D2800A3F8E0C5F025F0F0E5821582700215837E
:060D3800E0C838F0E822DB
:100D3E00E88FF0A4CC8BF0A42CFCE98EF0A42CFC54
:100D4E008AF0EDA42CFCEA8EF0A4CDA8F08BF0A4D2
:100D5E002DCC3825F0FDE98FF0A42CCD35F0FCEB31
:100D6E008EF0A4FEA9F0EB8FF0A4CFC5F02ECD39F6
:0F0D7E00FEE43CFCEAA42DCE35F0FDE43CFC2263
:100D8D0075F008758200EF2FFFEE33FECD33CDCC1D
:100D9D0033CCC58233C5829BED9AEC99E5829840A0
:100DAD000CF582EE9BFEED9AFDEC99FC0FD5F0D67D
:100DBD00E4CEFBE4CDFAE4CCF9A88222B800C1B9A7
:100DCD000059BA002DEC8BF084CFCECDFCE5F0CBE5
:100DDD00F97818EF2FFFEE33FEED33FDEC33FCEB1E
:100DED0033FB10D703994004EB99FB0FD8E5E4F9D9
:100DFD00FA227818EF2FFFEE33FEED33FDEC33FCC6
:100E0D00C933C910D7059BE99A4007EC9BFCE99AB9
:100E1D00F90FD8E0E4C9FAE4CCFB2275F010EF2FFE
:100E2D00FFEE33FEED33FDCC33CCC833C810D707FE
:100E3D009BEC9AE899400AED9BFDEC9AFCE899F839
:0E0E4D000FD5F0DAE4CDFBE4CCFAE4C8F922CC
:100E5B00EB9FF5F0EA9E42F0E99D42F0E89C45F0ED
:010E6B002264
:100E6C00E8600FECC313FCED13FDEE13FEEF13FF64
:030E7C00D8F12288
:0C0E7F00ECF0A3EDF0A3EEF0A3EFF022E6
:100E8B00A8828583F0D083D082120EA2120EA212FA
:100E9B000EA2120EA2E473E493A3C583C5F0C5831F
:100EAB00C8C582C8F0A3C583C5F0C583C8C582C8B1
:010EBB002214
:100EBC00D083D082F8E4937012740193700DA3A3C5
:100ECC0093F8740193F5828883E4737402936860D9
:060EDC00EFA3A3A380DFD9
:100EE200EC8EF0A4CCC5F0CCCDF8EFA4CEC5F02D9D
:100EF200FDE43CFCE8A42EC8C5F03DFDE43CFCEF5B
:0D0F0200A4FFE5F028FEE43DFDE43CFC22E8
:102CB3009000FAE0FFA3E0FEA3E0CF900103F0A3AE
:102CC300EEF0A3EFF09000FDE0CBF0A3E0CAF0A399
:102CD300E0C9F07F22900106AD82AC83120C318DE6
:102CE300828C83F0A309E970010ADFEC9000FDE018
:0A2CF300FBA3E0FAA3E0F9020931A7
:1008CC00E5082403F582E43401F583E00508229061
:1008DC000100300803900103E475F001120F0F02C0
:1008EC000C312001E97F2ED2018018EF540F249097
:1008FC00D43440D4FF30050BEF24BFB41A0050039E
:10090C002461FFE50960021509050CE50C70020570
:10091C000B30080E900100E475F001120F0FEF027E
:10092C000C77022FCD7403D2088003E4C208F508BB
:10093C00900100120F26E4F509F50BF50CE50960A2
:10094C00077F2012090F80F5750AFFC202C201C28F
:10095C0003C204C206C207C2091208DBFF700D30C5
:10096C0008057F00120920AF0CAE0B22B4255FC224
:10097C00D5C2051208DBFF24D0B40A00501A75F05A
:10098C000A780930D50508B6FF0106C6A426F6205C
:10099C00D5047002D20480D924CFB41A00EF5004CD
:1009AC00C2E5D205020B21D20280C6D20180C0D290
:1009BC000380BCD2D580BAD20680B47F2012090F36
:1009CC002003077401B5090040F11208CCFF12098D
:1009DC000F020949D209D20780951208CCFB1208E4
:1009EC00CCFA1208CCF94A4B700679F27A0B7BFFE1
:1009FC0020032EE509602A7E008E82758300120C7E
:100A0C004A60060EEE650A70F0C2D5EBC0E0EAC093
:100A1C00E0E9C0E0EE120B68D0E0F9D0E0FAD0E0EB
:100A2C00FB120C31FF60AAEBC0E0EAC0E0E9C0E0C9
:100A3C0012090FD0E02401F9D0E03400FAD0E0FB29
:100A4C00E50A0460DCD50AD980877BFF7A0B7964D0
:100A5C00D203809C791080027908C207C2098008F1
:100A6C00D2D5790A8004790AC2D5E50A047002F558
:100A7C000AE4FAFDFEFF1208CCFC7B0820021312DC
:100A8C0008CCFD7B1030010A1208CCFE1208CCFFFA
:100A9C007B20EC3382D592D55013C3E43001069FF2
:100AAC00FFE49EFEE42002039DFDE49CFCE4CBF8F5
:100ABC00C202EC700CCFCECDCCE824F8F870F380E9
:100ACC0017C3EF33FFEE33FEED33FDEC33FCEB33AA
:100ADC00FB994002FB0FD8E9EB300205F8D0E0C4DB
:100AEC0048B202C0E00AEC4D4E4F78207B0070C239
:100AFC00EAB50A0040BCC0E0120B6AD0F0D0E0208E
:100B0C000204C4C0E0C4B202C0F01208F8D0F0D5A0
:100B1C00F0EB020949120EBC09E6530A605809B7FA
:100B2C004C09B3420A644F0A6C440A6C4909CC4321
:080B3C000A72550A56460A56DA
:100B4400450A56470C125009BB2D09BF2E09E22B4A
:100B540009C32309E0200BFB2A097B48000009DABA
:100B64003F3F3F00790AA2D5200414300609B9108A
:100B7400020404B9080104A2D5200702500104208C
:100B840003689203B509005034C0E07F2030041993
:100B94007F30A20372077206500F120BC1C203C248
:100BA40007C206C2097F30800F300603E9C0E01295
:100BB400090F300603D0E0F9D0E0B509CC300617B0
:100BC4007F30B9100C12090F7F583005077F7880E9
:100BD40003B9080312090F3003057F2D02090F7FA3
:100BE400202009F87F2B2007F322920380CF286E60
:100BF400756C6C2900D2021208CC3002F8C202785B
:100C04000930D50108F602097B2D504349581208D2
:100C1400CC2403B405004001E4900C0D93120900A8
:0D0C2400743A120900D204750904020A6036
:100F0F00F8E0FBA3A3E0F925F0F0E582158270026B
:070F1F001583E0FA38F0220F
:090F2600EBF0A3EAF0A3E9F022CC
:102FCD00EFB40A07740D122FD8740A309811A8990E
:102FDD00B8130CC2983098FDA899C298B811F63064
:072FED0099FDC299F599223C
:00000001FF
