:030000000214F5F2
:0C14F500787FE4F6D8FD75812102153CDB
:1019DC00525311121314441516175455403031320A
:1019EC0033343550513637412042212223242526C9
:0B19FC0027000102430304050607104A
:10158100120900E4900000F0900000E0FFC3942BEA
:101591005013EF9019DC93FF7D0312038B90000031
:1015A100E004F080E3E4900000F0900000E0FFC36D
:1015B1009405500D7DFF1216E5900000E004F080C7
:1015C100E9E4900000F0900000E0FFC3942B501A72
:1015D100EF9019DC93FFC200120F467FF47E0112D7
:1015E1000003900000E004F080DCE4900000F09043
:1015F1000000E0FFC3940550C87DFF1216E590007E
:0616010000E004F080E9A6
:071AC70044019A0000000039
:10000300EF4E601A900192E0FCA3E0FDED1D70013C
:0E0013001C144C70F7EF1F70011E144E70E6A7
:0100210022BC
:081A7D00900073E0FEA3E0FFFE
:0A1A8500EF1FAC0670011E4C70F656
:011A8F002234
:101A5700900192E0FCA3E0FD12087BE47B83FAF996
:101A6700F812071090019612083E900196E0C313F2
:061A7700FEA3E013FF22B4
:101A0700900195E06599600AE599F0E4900194F0FA
:101A17008006900194E004F0900194E0C394E940BB
:091A270007000075C760000022F1
:0B173F00900112EBF0A3EAF0A3E9F028
:10174A0090017D7401F0A37401F0A37415F0900167
:10175A0012E0F9A3E0FAA3E0900075C9F0A3EAF059
:10176A00A3E9F090017DE0F9A3E0FAA3E090007804
:10177A00C9F0A3EAF0A3E9F07B017A01793D1218D6
:0C178A008E7B017A01793D7F010219A5D8
:10160700EF14600D14602614603C146054240470B9
:101617006F90FE027480F090FE02E030E0F990FED9
:1016270000E054FCF090FE03E4F0A3F02290FE04E7
:101637007480F090FE04E030E0F990FE00E044038F
:10164700F090FE03803490FE037480F090FE03E078
:1016570030E0F990FE00E054FC4401F090FE048075
:101667001990FE0374C0F090FE03E030E0F990FE9D
:1016770000E054FC4402F090FE04E4F090FE02F017
:011687002240
:0C1AB000EF90FE01700304F022EFF02222
:1009000043BA80AF9FE4FCFDFEC004A905AA06AB74
:100910000778FBE6FFD000C3EF9BFFEE9AFEED9950
:10092000FDEC98FCE47BF07AD2F9F8120710C3E4EE
:100930009FFF74369EFE746E9DFD74019CFC9000BA
:100940000112083E900001E0FCA3E0FDA3E0FEA33D
:10095000E0FFC00790FE01E0FBE4FAF9F8D00712CF
:10096000079B90000112083E7FC07EF67D577C00F9
:10097000900001E0F8A3E0F9A3E0FAA3E0FBC312C2
:10098000082D500D90019A12084A00546000020B85
:100990002F7FC07E267D827C00900001E0F8A3E0DE
:1009A000F9A3E0FAA3E0FBC312082D500D90019AC1
:1009B00012084A005B8D80020B2F7F807EED7DAF99
:1009C0007C00900001E0F8A3E0F9A3E0FAA3E0FBCB
:1009D000C312082D500D90019A12084A00A8C000B9
:1009E000020B2F7F807E2D7DE87C00900001E0F8D7
:1009F000A3E0F9A3E0FAA3E0FBC312082D500D9089
:100A0000019A12084A00B71B00020B2F7F807E3626
:100A10007D257C01900001E0F8A3E0F9A3E0FAA3B2
:100A2000E0FBC312082D500D90019A12084A0119DB
:100A30004000020B2F7F807E567D417C019000019B
:100A4000E0F8A3E0F9A3E0FAA3E0FBC312082D50FD
:100A50000D90019A12084A01312D00020B2F7F00E0
:100A60007EDB7D5F7C01900001E0F8A3E0F9A3E06C
:100A7000FAA3E0FBC312082D500D90019A12084A08
:100A800001518000020B2F7F607E197D857C0190D3
:100A90000001E0F8A3E0F9A3E0FAA3E0FBC3120829
:100AA0002D500D90019A12084A016E3600020B2F4C
:100AB0007F207EE07DB27C01900001E0F8A3E0F9A8
:100AC000A3E0FAA3E0FBC312082D500C90019A1288
:100AD000084A019BFCC080577FE07EA67DE07C0138
:100AE000900001E0F8A3E0F9A3E0FAA3E0FBC31251
:100AF000082D500C90019A12084A01C9C380802F1A
:100B00007F607E2B7DFF7C01900001E0F8A3E0F97F
:100B1000A3E0FAA3E0FBC312082D90019A5009123A
:100B2000084A01FA4000800712084A02160EC0E483
:100B30007B107A27F9F890019AE0FCA3E0FDA3E08E
:100B4000FEA3E0FF12079B900192EEF0A3EFF0E40A
:100B5000900195F0900194F0C20A12183F00D2AFB4
:010B60000094
:010B61002271
:0B11CB00900003EBF0A3EAF0A3E9F0B2
:1011D6007F647E00121A57900073EEF0A3EFF09032
:1011E60000707401F0A37400F0A37406F09000037D
:1011F600E0F9A3E0FAA3E0900075C9F0A3EAF0A332
:10120600E9F0900070E0F9A3E0FAA3E0900078C955
:10121600F0A3EAF0A3E9F07B017A00793012188E88
:1012260090002EEEF0A3EFF07FF47E01120003E4AF
:10123600FBFAD390002FE09B90002EE09A40E9D273
:10124600B1C2B1121A7D74302BF58274003AF5835F
:10125600E0F9E4FDE930E004D2B18002C2B1E9C3AD
:1012660013F9121A7D0DEDB408EAD2B1121A7D12E5
:091276001A7D0BBB00010A80B9CE
:0B13220090019EEBF0A3EAF0A3E9F0BD
:10132D00E4FFFE9001A4F0A3F0A3F0A3F090019EC2
:10133D00E0FBA3E0FAA3E0F912066A60729001A740
:10134D00E004F070069001A6E004F09001A1E0FB2E
:10135D00A3E0FAA3E0F98F828E83120683FD90013C
:10136D009EE0FBA3E0FAA3E0F912066AB505070FAC
:10137D00BF00010E8012E4FEFF9001A6E0FDA3E088
:10138D009001A4CDF0A3EDF090019FE475F0011252
:10139D0006E49001A1E0FBA3E0FAA3E0F98F828EB1
:1013AD008312068370879001A4E0FEA3E0FF227EE6
:0313BD00FF7FFFB0
:0113C000220A
:10111400E49001B2F09001B4F09001B3F09001B307
:10112400E0FFC3940A40030211C57E00ED2FF5824F
:10113400EE3CF583120683FFC3648094B0404BD326
:10114400EF648094B750439001B4E004F0E0B4013C
:10115400179001B3E02DF582EE3CF583120683244B
:10116400D0C454F09001B2F09001B4E0B4021B90EA
:1011740001B3E07E002DF582EE3CF5831206832454
:10118400D0FF9001B2E04FFFF0229001B3E07E0067
:101194002DF582EE3CF583120683FFC3648094B878
:1011A400400ED3EF648094B950069001B4E004F08B
:1011B400EF642C600CEF60099001B3E004F00211BD
:0611C400219001B2E0FFE2
:0111CA002202
:081058009001A8ECF0A3EDF0FB
:10106000E4A3F0A3F0A3F09001ACE0FFC39414401C
:101070000302110B9001A9E02FFF9001A8E03400BA
:101080008F82F583120683FFC3648094B0404ED3F1
:10109000EF648094B950469001AAE0FEA3E0FF7C83
:1010A000007D0A1206D29001AAEEF0A3EFF0A3E0B1
:1010B000FF9001A9E02FFF9001A8E034008F82F596
:1010C00083120683FF3395E0FEEF24D0FFEE34FF5A
:1010D000FE9001ABE02FF09001AAE03EF09001AC51
:1010E000E0FF9001A9E02FFF9001A8E034008F827B
:1010F000F583120683FF642C6011EF642E600CEF01
:1011000060099001ACE004F00210679001AAE0FED3
:03111000A3E0FF5A
:0111130022B9
:100D0400900180EBF0A3EAF0A3E9F0A3ECF0A3EDEB
:010D1400F0EE
:100D1500E490018CF0A3F0A3F0A3F0A3F0A3F0906E
:100D2500018AF0A3F0900183E0FEA3E0FF90018A21
:100D3500E0FCA3E0FDC39FEC9E4003020DD49001AF
:100D450085E0FBA3E0FAA3E0F990018CE0FEA3E0C7
:100D5500F5828E83120683FF900180E0FBA3E0FA03
:100D6500A3E0F98D828C83120683B5073390018D3C
:100D7500E004F0700690018CE004F0900188E0FE3C
:100D8500A3E0FF90018CE0B50631A3E0B5072C90F8
:100D9500018AE0FFA3E0900190CFF0A3EFF0802F50
:100DA500E490018CF0A3F090018BE02401FE90010A
:100DB5008AE0340090018EF0A3CEF090018BE00420
:100DC500F06003020D2A90018AE004F0020D2A90DA
:100DD5000190E0FEA3E0FF90018EE0FCA3E0FDD3CF
:100DE5009FEC9E504490018AECF0A3EDF0900190A9
:100DF500E0FEA3E0FF90018AE0FCA3E0FDC39FECC9
:100E05009E5023900180E0FBA3E0FAA3E0F98D82D8
:100E15008C83E41206B090018BE004F070CF900152
:0B0E25008AE004F080C77F01227F00FC
:010E3000229F
:100B62006770696F5F757070756C6C283C442530D6
:100B720032583E2C2564293BB2BBB4E6D4DAB8C362
:100B8200494F0D0A006770696F5F757070756C6C04
:100B9200283C44253032583E2C31293BB2BBB4E6C6
:100BA200D4DAB8C3494F0D0A006770696F5F757078
:100BB20070756C6C283C44253032583E2C30293BF1
:100BC200B2BBB4E6D4DAB8C3494F0D0A0067706904
:100BD2006F5F6D6F6465283C44253032583E2C258A
:100BE20064293BB2BBB4E6D4DAB8C3494F0D0A005C
:100BF2006770696F5F6D6F64652844253032582CC9
:100C02003C25643E293BB2BBB4E6D4DAB8C3C4A3E4
:100C1200CABD0D0A006770696F5F777269746528D3
:100C22003C25643E2C2564293BB2BBB4E6D4DAB839
:100C3200C350BFDA0D0A006770696F5F7265616445
:100C4200283C5025643E293BB2BBB4E6D4DAB8C393
:100C520050BFDA0D0A006770696F5F6F7574283CC8
:100C620044253032583E2C2564293BB2BBB4E6D42D
:100C7200DAB8C3494F0D0A006770696F5F6F757408
:100C8200283C44253032583E2C31293BB2BBB4E6D5
:100C9200D4DAB8C3494F0D0A006770696F5F6F7588
:100CA20074283C44253032583E2C30293BB2BBB428
:100CB200E6D4DAB8C3494F0D0A006770696F5F69FD
:100CC2006E283C44253032583E293BB2BBB4E6D4B0
:100CD200DAB8C3494F0D0A006770696F5F746F67B6
:100CE200676C65283C44253032583E293BB2BBB480
:100CF200E6D4DAB8C3494F0D0A00010204081020F5
:020D020040802F
:050E31009001B8EFF094
:100E360064887003020F459001B8E0FF54F0F50D89
:100E4600EF540FFF900CFC93F50EEFD3940740215F
:100E56007BFF7A0B79629001B8E0FF900006E4F020
:100E6600A3EFF0A20BE4FF33A3CFF0A3EFF0121130
:100E7600CB300B63E50D24F0602124F0602224F0D2
:100E8600602324F0602424F0602524F0602624F0FA
:100E960060272470702B90FE10802190FE11801C1C
:100EA60090FE12801790FE13801290FE14800D9013
:100EB600FE15800890FE16800390FE17E0450EF0A2
:100EC600227BFF7A0B79879001B8E0FF900006E459
:100ED600F0A3EFF00211CBE50D24F0602124F060C1
:100EE6002224F0602324F0602424F0602524F0609E
:100EF6002624F060272470703090FE10802190FE2A
:100F060011801C90FE12801790FE13801290FE1422
:100F1600800D90FE15800890FE16800390FE17E067
:100F2600FFE50EF4FEEF5EF0227BFF7A0B79AB90C5
:0F0F360001B8E0FF900006E4F0A3EFF01211CB3A
:010F45002289
:0A038B00900002EDF0900001EFF089
:1003950064887003020669900001E0FF54F0F50DD2
:1003A500EF540FFF900CFC93F50EEFD39407402309
:1003B5007BFF7A0B79CF900001E0FF900006E4F017
:1003C500A3EFF0900002E0FF900008E4F0A3EFF047
:1003D5001211CBE50D24F0602124F0602224F06099
:1003E5002324F0602424F0602524F0602624F060A6
:1003F5002724707028E4F50D8046750D0180417540
:100405000D02803C750D038037750D048032750D26
:1004150005802D750D068028750D0780237BFF7AD5
:100425000B79CF900001E0FF900006E4F0A3EFF018
:10043500900002E0FF900008E4F0A3EFF01211CB6A
:10044500900002E0FFD39403401C7BFF7A0B79F206
:10045500900001E0FD900006E4F0A3EDF0A3E4F0C8
:10046500A3EFF01211CBE50D703A900002E0FF709A
:1004750007E50EF452935294EFB40109E50E429349
:10048500E50EF45294900002E0B40208E50E4293A2
:10049500E50E4294900002E0B40309E50EF4529390
:1004A500E50E4294E50D6401703A900002E0FF709C
:1004B50007E50EF452915292EFB40109E50E42910F
:1004C500E50EF45292900002E0B40208E50E429166
:1004D500E50E4292900002E0B40309E50EF4529154
:1004E500E50E4292E50D6402703A900002E0FF705D
:1004F50007E50EF452955296EFB40109E50E4295C3
:10050500E50EF45296900002E0B40208E50E42951D
:10051500E50E4296900002E0B40309E50EF452950B
:10052500E50E4296E50D6403703A900002E0FF7017
:1005350007E50EF452B152B2EFB40109E50E42B12E
:10054500E50EF452B2900002E0B40208E50E42B1A5
:10055500E50E42B2900002E0B40309E50EF452B193
:10056500E50E42B2E50D6404703A900002E0FF70BA
:1005750007E50EF452B352B4EFB40109E50E42B3E8
:10058500E50EF452B4900002E0B40208E50E42B361
:10059500E50E42B4900002E0B40309E50EF452B34F
:1005A500E50E42B4E50D6405703A900002E0FF7077
:1005B50007E50EF452C952CAEFB40109E50E42C966
:1005C500E50EF452CA900002E0B40208E50E42C9F5
:1005D500E50E42CA900002E0B40309E50EF452C9E3
:1005E500E50E42CAE50D6406703A900002E0FF7020
:1005F50007E50EF452CB52CCEFB40109E50E42CB20
:10060500E50EF452CC900002E0B40208E50E42CBB0
:10061500E50E42CC900002E0B40309E50EF452CB9E
:10062500E50E42CCE50D6407703A900002E0FF70DC
:1006350007E50EF452E152E2EFB40109E50E42E19D
:10064500E50EF452E2900002E0B40208E50E42E144
:10065500E50E42E2900002E0B40309E50EF452E132
:04066500E50E42E27A
:01066900226E
:1016E500EFB40900503A9016F2F828287302170D46
:1016F50002171002171302171602171902171C02F8
:10170500171F02172202173E8D80228D90228DA071
:10171500228DB0228DC0228DC8228DE8228DF8221F
:101725007BFF7A0C7917900006E4F0A3EFF0AF0584
:0A173500A3E4F0A3EFF01211CB22A1
:10179600EFB40900503D9017A3F82828730217BE2E
:1017A6000217C10217C40217C70217CA0217CD02D1
:1017B60017D00217D30217D6AF8022AF9022AFA060
:1017C60022AFB022AFC022AFC822AFE822AFF822C4
:1017D6007FFF227BFF7A0C7939900006E4F0A3EFB5
:0717E600F01211CB7FFF227E
:050F4600900001EFF036
:100F4B0064887003021057900001E0FF54F0F50D18
:100F5B00EF540FFF900CFC93F50EEFD39407402149
:100F6B007BFF7A0C7958900001E0FF900006E4F0CB
:100F7B00A3EFF0A200E4FF33A3CFF0A3EFF0121125
:100F8B00CB300060E50D24F0602124F0602224F0CA
:100F9B00602324F0602424F0602524F0602624F0E4
:100FAB00602724707028E50E428022E50E429022C5
:100FBB00E50E42A022E50E42B022E50E42C022E52C
:100FCB000E42C822E50E42E822E50E42F8227BFFD4
:100FDB007A0C797A900001E0FF900006E4F0A3EF21
:100FEB00F00211CBE50D24F0602224F0602424F0F4
:100FFB00602624F0602824F0602A24F0602C24F072
:10100B00602E24707030E50EF4528022E50EF452FF
:10101B009022E50EF452A022E50EF452B022E50E1A
:10102B00F452C022E50EF452C822E50EF452E82227
:10103B00E50EF452F8227BFF7A0C799B900001E0CD
:0C104B00FF900006E4F0A3EFF01211CBC0
:011057002276
:05127F009001B9EFF041
:10128400BF8802C3229001B9E0FF54F0F50DEF547A
:101294000FFF900CFC93F50EEFD3940740167BFFE1
:1012A4007A0C79BC9001B9E0FF900006E4F0A3EF5A
:1012B400F01211CBE50D24F0602124F0602224F01B
:1012C400602324F0602424F0602524F0602624F0B8
:1012D40060272470702885800F803985900F8034B2
:1012E40085A00F802F85B00F802A85C00F802585AB
:1012F400C80F802085E80F801B85F80F80167BFFC0
:101304007A0C79BC9001B9E0FF900006E4F0A3EFF9
:0D131400F01211CBE50F550E6002D322C37D
:0113210022A9
:0513C1009001BAEFF0FD
:1013C6006488700302145C9001BAE0FF54F0F50DD6
:1013D600EF540FFF900CFC93F50EEFD394074016D5
:1013E6007BFF7A0C79DA9001BAE0FF900006E4F010
:1013F600A3EFF01211CBE50D24F0602124F060225A
:1014060024F0602324F0602424F0602524F0602674
:1014160024F0602724707028E50E628022E50E62B3
:101426009022E50E62A022E50E62B022E50E62C0B1
:1014360022E50E62C822E50E62E822E50E62F82277
:101446007BFF7A0C79DA9001BAE0FF900006E4F0AF
:06145600A3EFF01211CB20
:01145C00226D
:10191F00EFB40800503E90192CF828287302194490
:10192F0002194802194C021950021954021958028F
:10193F00195C021960ED628022ED629022ED62A0C7
:10194F0022ED62B022ED62C022ED62C822ED62E8A4
:05195F0022ED62F822F8
:10145D00300C48EFB4080040030214F4901470F8F7
:10146D0028287302148802148C021490021494021A
:10147D00149802149C0214A00214A4ED428022EDD3
:10148D00429022ED42A022ED42B022ED42C022ED6B
:10149D0042C822ED42E822ED42F822EFB408005096
:1014AD00469014B5F82828730214CD0214D20214F4
:1014BD00D70214DC0214E10214E60214EB0214F05C
:1014CD00EDF4528022EDF4529022EDF452A022ED73
:1014DD00F452B022EDF452C022EDF452C822EDF4D4
:0814ED0052E822EDF452F8224E
:1017ED00EFB4090050449017FAF828287302181521
:1017FD0002181902181D02182102182502182902B3
:10180D00182D021831021835AE80801EAE90801A48
:10181D00AEA08016AEB08012AEC0800EAEC8800AEB
:10182D00AEE88006AEF88002D322EE5D6002D322D0
:01183D00C3E7
:01183E002287
:10183F0075985053873F538EDE53A23FE47B04FAD3
:10184F00F9F890019AE0FCA3E0FDA3E0FEA3E0FF0E
:10185F0012079B7B007AC27901780012079BC3E4C1
:10186F009FFFE49E438E4053890F8F8BF58DC2AB44
:0E187F00C28FD28E53B7EF53B8EFC20ED2AC69
:01188D002238
:0B1ABC00EF14700653A23FED42A2227F
:051964009001ADEFF061
:10196900E47B04FAF9F890019AE0FCA3E0FDA3E016
:10197900FEA3E0FF12079B9001AEE0F8A3E0F9A3F4
:10198900E0FAA3E0FB12079BC3E49FFFE49EFE90ED
:0B19990001ADE01470058F8BEEF58DA2
:0119A4002220
:0E1AA200EF147009200EFDD20EAF058F9922B1
:101A9000EF14700DA20D929B200EFDD20EAF058F9C
:021AA000992289
:1019A5009001B5EBF0A3EAF0A3E9F0AE079001B51D
:1019B500E0FBA3E0FAA3E0F912066A6019AF06900E
:1019C50001B5A3E475F0011206FAA9F0FA12066A48
:0719D500FD121AA280D722C7
:0E1688009000A3EFF0A3EBF0A3EAF0A3E9F0CB
:1016960090010F7401F0A37400F0A374A7F09000FA
:1016A600A4E0F9A3E0FAA3E0900075C9F0A3EAF07C
:1016B600A3E9F090010FE0F9A3E0FAA3E090007827
:1016C600C9F0A3EAF0A3E9F07B017A0079CF1218FA
:0F16D6008E9000A3E0FF7B017A0079CF0219A567
:030023000218D8E8
:1018D800C0E0C0F0C083C082C0D075D000C000C0D6
:1018E80001C002C003C004C005C006C00730980587
:1018F800C298121A07309904C299C20ED007D006AE
:10190800D005D004D003D002D001D000D0D0D082EE
:07191800D083D0F0D0E032D3
:10150100021581E493A3F8E493A34003F68001F26A
:1015110008DFF48029E493A3F85407240CC8C333EB
:10152100C4540F4420C8834004F456800146F6DFBA
:10153100E4800B0102040810204080901AC7E47E69
:10154100019360BCA3FF543F30E509541FFEE493AF
:10155100A360010ECF54C025E060A840B8E493A376
:10156100FAE493A3F8E493A3C8C582C8CAC583CAA1
:10157100F0A3C8C582C8CAC583CADFE9DEE780BE59
:011ACE000017
:10066A00BB010689828A83E0225002E722BBFE028E
:09067A00E32289828A83E49322C1
:10068300BB010CE58229F582E5833AF583E022502C
:1006930006E92582F8E622BBFE06E92582F8E22276
:0D06A300E58229F582E5833AF583E4932290
:1006B000F8BB010DE58229F582E5833AF583E8F080
:1006C000225006E92582C8F622BBFE05E92582C82C
:0206D000F22214
:1006D200EF8DF0A4A8F0CF8CF0A428CE8DF0A42E3C
:0206E200FE22F6
:1006E400C5F0F8A3E028F0C5F0F8E58215827002A1
:0606F4001583E038F0223E
:1006FA00A3F8E0C5F025F0F0E582158270021583B3
:06070A00E0C838F0E8220F
:10071000E88FF0A4CC8BF0A42CFCE98EF0A42CFC88
:100720008AF0EDA42CFCEA8EF0A4CDA8F08BF0A406
:100730002DCC3825F0FDE98FF0A42CCD35F0FCEB65
:100740008EF0A4FEA9F0EB8FF0A4CFC5F02ECD392A
:0F075000FEE43CFCEAA42DCE35F0FDE43CFC2297
:10075F0075F008758200EF2FFFEE33FECD33CDCC51
:10076F0033CCC58233C5829BED9AEC99E5829840D4
:10077F000CF582EE9BFEED9AFDEC99FC0FD5F0D6B1
:10078F00E4CEFBE4CDFAE4CCF9A88222B800C1B9DB
:10079F000059BA002DEC8BF084CFCECDFCE5F0CB19
:1007AF00F97818EF2FFFEE33FEED33FDEC33FCEB52
:1007BF0033FB10D703994004EB99FB0FD8E5E4F90D
:1007CF00FA227818EF2FFFEE33FEED33FDEC33FCFA
:1007DF00C933C910D7059BE99A4007EC9BFCE99AEE
:1007EF00F90FD8E0E4C9FAE4CCFB2275F010EF2F33
:1007FF00FFEE33FEED33FDCC33CCC833C810D70733
:10080F009BEC9AE899400AED9BFDEC9AFCE899F86D
:0E081F000FD5F0DAE4CDFBE4CCFAE4C8F92200
:10082D00EB9FF5F0EA9E42F0E99D42F0E89C45F021
:01083D002298
:0C083E00ECF0A3EDF0A3EEF0A3EFF0222D
:10084A00A8828583F0D083D08212086112086112CF
:10085A000861120861E473E493A3C583C5F0C583F4
:10086A00C8C582C8F0A3C583C5F0C583C8C582C8F8
:01087A00225B
:10087B00EC8EF0A4CCC5F0CCCDF8EFA4CEC5F02D0A
:10088B00FDE43CFCE8A42EC8C5F03DFDE43CFCEFC8
:0D089B00A4FFE5F028FEE43DFDE43CFC2256
:10188E00900075E0FFA3E0FEA3E0CF90007EF0A3F2
:10189E00EEF0A3EFF0900078E0CBF0A3E0CAF0A357
:1018AE00E0C9F07F22900081AD82AC8312066A8D72
:1018BE00828C83F0A309E970010ADFEC900078E0D6
:0A18CE00FBA3E0FAA3E0F902008B8F
:10002600E508247EF582E43400F583E00508229095
:10003600007B30080390007EE475F0011208BA02D6
:10004600066A2001E97F2ED2018018EF540F249012
:10005600D43440D4FF30050BEF24BFB41A0050034C
:100066002461FFE50960021509050CE50C7002051F
:100076000B30080E90007BE475F0011208BAEF020F
:1000860008A8021A307403D2088003E4C208F508EF
:1000960090007B1208D1E4F509F50BF50CE5096033
:1000A600077F2012006980F5750AFFC202C201C2ED
:1000B60003C204C206C207C209120035FF700D3022
:1000C60008057F0012007AAF0CAE0B22B4255FC282
:1000D600D5C205120035FF24D0B40A00501A75F0B7
:1000E6000A780930D50508B6FF0106C6A426F6200B
:1000F600D5047002D20480D924CFB41A00EF50047C
:10010600C2E5D20502027BD20280C6D20180C0D2ED
:100116000380BCD2D580BAD20680B47F2012006993
:100126002003077401B5090040F1120026FF1200F2
:10013600690200A3D209D2078095120026FB12009D
:1001460026FA120026F94A4B7006794C7A037BFF91
:1001560020032EE509602A7E008E82758300120632
:100166008360060EEE650A70F0C2D5EBC0E0EAC009
:10017600E0E9C0E0EE1202C2D0E0F9D0E0FAD0E049
:10018600FB12066AFF60AAEBC0E0EAC0E0E9C0E045
:10019600120069D0E02401F9D0E03400FAD0E0FB87
:1001A600E50A0460DCD50AD980877BFF7A0279BE2E
:1001B600D203809C791080027908C207C2098008A0
:1001C600D2D5790A8004790AC2D5E50A047002F507
:1001D6000AE4FAFDFEFF120026FC7B082002131239
:1001E6000026FD7B1030010A120026FE120026FFB3
:1001F6007B20EC3382D592D55013C3E43001069FA1
:10020600FFE49EFEE42002039DFDE49CFCE4CBF8A3
:10021600C202EC700CCFCECDCCE824F8F870F38097
:1002260017C3EF33FFEE33FEED33FDEC33FCEB3358
:10023600FB994002FB0FD8E9EB300205F8D0E0C489
:1002460048B202C0E00AEC4D4E4F78207B0070C2E7
:10025600EAB50A0040BCC0E01202C4D0F0D0E020EB
:100266000204C4C0E0C4B202C0F0120052D0F0D5FD
:10027600F0EB0200A31208DA01405301BA5801114B
:100286004C010D4201BE4F01C64401C64901264339
:0802960001CC5501B04601B096
:10029E004501B047036C5001152D01192E013C2B61
:1002AE00011D23013A2003552A00D54800000134D0
:1002BE003F3F3F00790AA2D5200414300609B91039
:1002CE00020404B9080104A2D5200702500104203B
:1002DE0003689203B509005034C0E07F2030041942
:1002EE007F30A20372077206500F12031BC203C2A5
:1002FE0007C206C2097F30800F300603E9C0E01244
:10030E000069300603D0E0F9D0E0B509CC3006170D
:10031E007F30B9100C1200697F583005077F788046
:10032E0003B908031200693003057F2D0200697FAF
:10033E00202009F87F2B2007F322920380CF286E0E
:10034E00756C6C2900D2021200263002F8C20278B7
:10035E000930D50108F60200D52D50434958120038
:10036E00262403B405004001E49003679312005A5B
:0D037E00743A12005AD2047509040201BA43
:1008A800BB010689828A83F0225002F722BBFE012F
:0208B800F32229
:1008BA00F8E0FBA3A3E0F925F0F0E58215827002C7
:0708CA001583E0FA38F0226B
:0908D100EBF0A3EAF0A3E9F02228
:1008DA00D083D082F8E4937012740193700DA3A3AD
:1008EA0093F8740193F5828883E4737402936860C1
:0608FA00EFA3A3A380DFC1
:101A3000EFB40A07740D121A3B740A309811A89972
:101A4000B8130CC2983098FDA899C298B811F63016
:071A500099FDC299F59922EE
:00000001FF
