:030000000213FAEE
:0C13FA00787FE4F6D8FD758121021441D3
:05195A0025750D0A00D7
:10150700120B561200269002017416F07B017A0224
:101517007901900207E4F0A304F0E4FFFE120DB88E
:101527009002017452F07B017A027901900207E47C
:10153700F0A304F0E4FFFE120DB87FE87E0312006B
:1015470003E4900201F07B017A027901900207F02F
:10155700A304F0E4FFFE1215787BFF7A19795A90FD
:101567000201E0FF900205E4F0A3EFF012163B80C2
:01157700C9AA
:0719520044039900000000AE
:10000300EF4E601A900391E0FCA3E0FDED1D70013B
:0E0013001C144C70F7EF1F70011E144E70E6A7
:0100210022BC
:0818FA0090030EE0FEA3E0FFE5
:0A190200EF1FAC0670011E4C70F6DA
:01190C0022B8
:1018D400900391E0FCA3E0FD120AD1E47B83FAF9C2
:1018E400F8120966900395120A94900395E0C313C5
:0618F400FEA3E013FF2239
:10185B00900394E06599600AE599F0E4900393F0A6
:10186B008006900393E004F0900393E0C394E94067
:09187B0007000075C7600000229F
:0B163B00900202EBF0A3EAF0A3E9F03C
:1016460090026D7401F0A37402F0A37405F0900289
:1016560002E0F9A3E0FAA3E0900270C9F0A3EAF071
:10166600A3E9F090026DE0F9A3E0FAA3E09002731B
:10167600C9F0A3EAF0A3E9F07B017A02792D1216EC
:0C168600927B017A02792D7F010217F29D
:10148600EF14600D14602614603C1460542404703C
:101496006F90FE027480F090FE02E030E0F990FE5C
:1014A60000E054FCF090FE03E4F0A3F02290FE046A
:1014B6007480F090FE04E030E0F990FE00E0440312
:1014C600F090FE03803490FE037480F090FE03E0FB
:1014D60030E0F990FE00E054FC4401F090FE0480F8
:1014E6001990FE0374C0F090FE03E030E0F990FE20
:1014F60000E054FC4402F090FE04E4F090FE02F09A
:0115060022C2
:0C193B00EF90FE01700304F022EFF02298
:100B560043BA80AF9FE4FCFDFEC004A905AA06AB1C
:100B66000778FBE6FFD000C3EF9BFFEE9AFEED99F8
:100B7600FDEC98FCE47BF07AD2F9F8120966C3E43E
:100B86009FFF74369EFE746E9DFD74019CFC900260
:100B960002120A94900202E0FCA3E0FDA3E0FEA389
:100BA600E0FFC00790FE01E0FBE4FAF9F8D0071277
:100BB60009F1900202120A947FC07EF67D577C00EE
:100BC600900202E0F8A3E0F9A3E0FAA3E0FBC31267
:100BD6000A83500D900399120AA000546000020D7A
:100BE600857FC07E267D827C00900202E0F8A3E02D
:100BF600F9A3E0FAA3E0FBC3120A83500D90039910
:100C0600120AA0005B8D80020D857F807EED7DAF90
:100C16007C00900202E0F8A3E0F9A3E0FAA3E0FB6F
:100C2600C3120A83500D900399120AA000A8C000AF
:100C3600020D857F807E2D7DE87C00900202E0F823
:100C4600A3E0F9A3E0FAA3E0FBC3120A83500D90D8
:100C56000399120AA000B71B00020D857F807E361D
:100C66007D257C01900202E0F8A3E0F9A3E0FAA357
:100C7600E0FBC3120A83500D900399120AA00119D2
:100C86004000020D857F807E567D417C01900202E8
:100C9600E0F8A3E0F9A3E0FAA3E0FBC3120A83504D
:100CA6000D900399120AA001312D00020D857F00D7
:100CB6007EDB7D5F7C01900202E0F8A3E0F9A3E011
:100CC600FAA3E0FBC3120A83500D900399120AA0FF
:100CD60001518000020D857F607E197D857C019023
:100CE6000202E0F8A3E0F9A3E0FAA3E0FBC3120ACC
:100CF60083500D900399120AA0016E3600020D85ED
:100D06007F207EE07DB27C01900202E0F8A3E0F94C
:100D1600A3E0FAA3E0FBC3120A83500C90039912D6
:100D26000AA0019BFCC080577FE07EA67DE07C0187
:100D3600900202E0F8A3E0F9A3E0FAA3E0FBC312F5
:100D46000A83500C900399120AA001C9C380802F10
:100D56007F607E2B7DFF7C01900202E0F8A3E0F924
:100D6600A3E0FAA3E0FBC3120A8390039950091289
:100D76000AA001FA40008007120AA002160EC0E47B
:100D86007B107A27F9F8900399E0FCA3E0FDA3E035
:100D9600FEA3E0FF1209F1900391EEF0A3EFF0E459
:100DA600900394F0900393F0C2091216DC00D2AFC0
:010DB600003C
:010DB7002219
:0B12A70090029EEBF0A3EAF0A3E9F038
:1012B2007F647E001218D490030EEEF0A3EFF0903C
:1012C200030B7401F0A37402F0A374A1F090029EC8
:1012D200E0F9A3E0FAA3E0900270C9F0A3EAF0A358
:1012E200E9F090030BE0F9A3E0FAA3E0900273C9DE
:1012F200F0A3EAF0A3E9F07B017A0279CB1216920D
:101302009002C9EEF0A3EFF07FF47E01120003E435
:10131200FBFAD39002CAE09B9002C9E09A40E9D25C
:10132200B1C2B11218FA74CB2BF58274023AF5836A
:10133200E0F9E4FDE930E004D2B18002C2B1E9C3D0
:1013420013F91218FA0DEDB408EAD2B11218FA1212
:0913520018FA0BBB00010A80B976
:0B135B0090039DEBF0A3EAF0A3E9F083
:10136600E4FFFE9003A3F0A3F0A3F0A3F090039D87
:10137600E0FBA3E0FAA3E0F91208C060729003A6AE
:10138600E004F070069003A5E004F09003A0E0FBF3
:10139600A3E0FAA3E0F98F828E831208D9FD9003A9
:1013A6009DE0FBA3E0FAA3E0F91208C0B505070F1C
:1013B600BF00010E8012E4FEFF9003A5E0FDA3E04E
:1013C6009003A3CDF0A3EDF090039EE475F0011217
:1013D600093A9003A0E0FBA3E0FAA3E0F98F828E1E
:1013E600831208D970879003A3E0FEA3E0FF227E54
:0313F600FF7FFF77
:0113F90022D1
:1011F000E49003B1F09003B3F09003B2F09003B227
:10120000E0FFC3940A40030212A17E00ED2FF58295
:10121000EE3CF5831208D9FFC3648094B0404BD3F1
:10122000EF648094B750439003B3E004F0E0B4015E
:10123000179003B2E02DF582EE3CF5831208D92415
:10124000D0C454F09003B1F09003B3E0B4021B900B
:1012500003B2E07E002DF582EE3CF5831208D9241E
:10126000D0FF9003B1E04FFFF0229003B2E07E0088
:101270002DF582EE3CF5831208D9FFC3648094B843
:10128000400ED3EF648094B950069003B3E004F0AD
:10129000EF642C600CEF60099003B2E004F00211DF
:0612A000FD9003B1E0FF28
:0112A6002225
:081134009003A7ECF0A3EDF01D
:10113C00E4A3F0A3F0A3F09003ABE0FFC39414403E
:10114C00030211E79003A8E02FFF9003A7E03400FF
:10115C008F82F5831208D9FFC3648094B0404ED3BC
:10116C00EF648094B950469003A9E0FEA3E0FF7CA5
:10117C00007D0A1209289003A9EEF0A3EFF0A3E07A
:10118C00FF9003A8E02FFF9003A7E034008F82F5B7
:10119C00831208D9FF3395E0FEEF24D0FFEE34FF25
:1011AC00FE9003AAE02FF09003A9E03EF09003AB71
:1011BC00E0FF9003A8E02FFF9003A7E034008F829C
:1011CC00F5831208D9FF642C6011EF642E600CEFCC
:1011DC0060099003ABE004F00211439003A9E0FE18
:0311EC00A3E0FF7E
:0111EF0022DD
:1010070090037FEBF0A3EAF0A3E9F0A3ECF0A3EDE4
:01101700F0E8
:10101800E490038BF0A3F0A3F0A3F0A3F0A3F09067
:101028000389F0A3F0900382E0FEA3E0FF90038918
:10103800E0FCA3E0FDC39FEC9E40030210D79003A1
:1010480084E0FBA3E0FAA3E0F990038BE0FEA3E0C1
:10105800F5828E831208D9FF90037FE0FBA3E0FAA4
:10106800A3E0F98D828C831208D9B5073390038CDD
:10107800E004F0700690038BE004F0900387E0FE34
:10108800A3E0FF90038BE0B50631A3E0B5072C90F1
:101098000389E0FFA3E090038FCFF0A3EFF0802F48
:1010A800E490038BF0A3F090038AE02401FE900300
:1010B80089E0340090038DF0A3CEF090038AE00419
:1010C800F0600302102D900389E004F002102D90C7
:1010D800038FE0FEA3E0FF90038DE0FCA3E0FDD3C7
:1010E8009FEC9E5044900389ECF0A3EDF090038FA1
:1010F800E0FEA3E0FF900389E0FCA3E0FDC39FECC2
:101108009E502390037FE0FBA3E0FAA3E0F98D82D1
:101118008C83E412090690038AE004F070CF9003F0
:0B11280089E004F080C77F01227F00F7
:011133002299
:10002600E47B07FAF9F8900399E0FCA3E0FDA3E06E
:10003600FEA3E0FF1209F1900202120A94E47B8803
:100046007A13F9F8900399E0FCA3E0FDA3E0FEA380
:10005600E0FF1209F1900206120A947F0A7E8B7D58
:10006600027C00900202E0F8A3E0F9A3E0FAA3E024
:10007600FBC3120A83504D7F1D7E637D017C009079
:100086000202E0F8A3A3A3E0120A834037E47F6FDD
:10009600FEFDFC900206E0F8A3E0F9A3E0FAA3E077
:1000A600FBD3120A83401DE47FFAFEFDFC90020694
:1000B600E0F8A3A3A3E0120A835009900000740796
:1000C600F0020546E47B0EFAF9F8900399E0FCA3EA
:1000D600E0FDA3E0FEA3E0FF1209F1900202120A7E
:1000E60094E47B107A27F9F8900399E0FCA3E0FDED
:1000F600A3E0FEA3E0FF1209F1900206120A947F24
:100106000A7E8B7D027C00900202E0F8A3E0F9A350
:10011600E0FAA3E0FBC3120A83504D7F1D7E637D88
:10012600017C00900202E0F8A3A3A3E0120A834038
:1001360037E47F6FFEFDFC900206E0F8A3E0F9A32A
:10014600E0FAA3E0FBD3120A83401DE47FFAFEFD2A
:10015600FC900206E0F8A3A3A3E0120A83500990DC
:1001660000007406F0020546E47B15FAF9F89003E0
:1001760099E0FCA3E0FDA3E0FEA3E0FF1209F190E5
:100186000202120A94E47B987A3AF9F8900399E00D
:10019600FCA3E0FDA3E0FEA3E0FF1209F190020636
:1001A600120A947F0A7E8B7D027C00900202E0F8A0
:1001B600A3E0F9A3E0FAA3E0FBC3120A83504D7F44
:1001C6001D7E637D017C00900202E0F8A3A3A3E0FC
:1001D600120A834037E47F6FFEFDFC900206E0F8CA
:1001E600A3E0F9A3E0FAA3E0FBD3120A83401DE4DF
:1001F6007FFAFEFDFC900206E0F8A3A3A3E0120A34
:100206008350099000007405F0020546E47B2AFA43
:10021600F9F8900399E0FCA3E0FDA3E0FEA3E0FF5C
:100226001209F1900202120A94E47B307A75F9F809
:10023600900399E0FCA3E0FDA3E0FEA3E0FF120912
:10024600F1900206120A947F0A7E8B7D027C009052
:100256000202E0F8A3E0F9A3E0FAA3E0FBC3120A66
:1002660083504D7F1D7E637D017C00900202E0F885
:10027600A3A3A3E0120A834037E47F6FFEFDFC9040
:100286000206E0F8A3E0F9A3E0FAA3E0FBD3120A22
:1002960083401DE47FFAFEFDFC900206E0F8A3A36E
:1002A600A3E0120A8350099000007404F002054688
:1002B600E47B54FAF9F8900399E0FCA3E0FDA3E08F
:1002C600FEA3E0FF1209F1900202120A94E47B6099
:1002D6007AEAF9F8900399E0FCA3E0FDA3E0FEA317
:1002E600E0FF1209F1900206120A947F0A7E8B7DC6
:1002F600027C00900202E0F8A3E0F9A3E0FAA3E092
:10030600FBC3120A83504D7F1D7E637D017C0090E6
:100316000202E0F8A3A3A3E0120A834037E47F6F4A
:10032600FEFDFC900206E0F8A3E0F9A3E0FAA3E0E4
:10033600FBD3120A83401DE47FFAFEFDFC90020601
:10034600E0F8A3A3A3E0120A835009900000740307
:10035600F0020546E47B8CFAF9F8900399E0FCA3D9
:10036600E0FDA3E0FEA3E0FF1209F1900202120AEB
:10037600947BA07A8679017800900399E0FCA3E04B
:10038600FDA3E0FEA3E0FF1209F1900206120A9413
:100396007F0A7E8B7D027C00900202E0F8A3E0F9E2
:1003A600A3E0FAA3E0FBC3120A83504D7F1D7E63D0
:1003B6007D017C00900202E0F8A3A3A3E0120A8369
:1003C6004037E47F6FFEFDFC900206E0F8A3E0F9FB
:1003D600A3E0FAA3E0FBD3120A83401DE47FFAFEF2
:1003E600FDFC900206E0F8A3A3A3E0120A835009DD
:1003F6009000007402F0020546E47BA8FAF9F89032
:100406000399E0FCA3E0FDA3E0FEA3E0FF1209F1DF
:10041600900202120A947BC07AD479017800900384
:1004260099E0FCA3E0FDA3E0FEA3E0FF1209F19032
:100436000206120A947F0A7E8B7D027C00900202DD
:10044600E0F8A3E0F9A3E0FAA3E0FBC3120A8350A5
:100456004D7F1D7E637D017C00900202E0F8A3A320
:10046600A3E0120A834037E47F6FFEFDFC9002068C
:10047600E0F8A3E0F9A3E0FAA3E0FBD3120A834075
:100486001DE47FFAFEFDFC900206E0F8A3A3A3E0BC
:10049600120A8350099000007401F0020546E47BBD
:1004A6002D7A01F9F8900399E0FCA3E0FDA3E0FEA4
:1004B600A3E0FF1209F1900202120A947BD87A4750
:1004C60079037800900399E0FCA3E0FDA3E0FEA386
:1004D600E0FF1209F1900206120A947F0A7E8B7DD4
:1004E600027C00900202E0F8A3E0F9A3E0FAA3E0A0
:1004F600FBC3120A8350497F1D7E637D017C0090F9
:100506000202E0F8A3A3A3E0120A834033E47F6F5C
:10051600FEFDFC900206E0F8A3E0F9A3E0FAA3E0F2
:10052600FBD3120A834019E47FFAFEFDFC90020613
:10053600E0F8A3A3A3E0120A835005E4900000F0BC
:10054600900202120AA000000000900206120AA001
:0405560000000000A1
:01055A00227E
:0E191F00E4F5C7F5C5F5C675C3FF75C4FF2214
:0818840090020DE0FEA3E0FF5D
:10188C00C3EE9402501A900000E04480F5C775C571
:10189C00038FC4EEF5C375C65A75C6A50012191F81
:0118AC002219
:10176C00900215E0FCA3E0FD90020EE02DFF90022C
:10177C000DE03CFE74012DF58274003CF583E0FD18
:10178C00C3EE9402501E900000E04480F5C775C56E
:10179C00028FC4EEF5C3AF058FC275C65A75C6A5C8
:0517AC000012191F22CC
:0C18290090020EE02FFF90020DE03EFE4A
:10183500C3EE940240037FFF22900000E04480F550
:10184500C775C5018FC4EEF5C375C65A75C6A50023
:05185500AFC212191FD3
:01185A00226B
:10157800900202EEF0A3EFF0A3EBF0A3EAF0A3E9E8
:01158800F072
:10158900E4900209F0A3F0900207E0FEA3E0FFA3B4
:10159900E0FCA3E0FDC39FEC9E5039900203E02DCF
:1015A900FF900202E03CFE121835900204E0FBA312
:1015B900E0FAA3E0F9900209E0FCA3E0F5828C834C
:1015C900EF12090690020AE004F070BB900209E0EC
:0415D90004F080B3E7
:0115DD0022EB
:0B0DB800900204EBF0A3EAF0A3E9F0C6
:100DC300E4900211F0A3F0A3EEF0A3EFF09002077A
:100DD300E0FFA3E0A3CFF0A3EFF0900213E0FCA3A6
:100DE300E0FDECC313FB7A007F0025E0FE90020DCB
:100DF300F0A3EFF02400FFEE3402FEC3EF9DFFEEFD
:100E03009CFE90020BF0A3EFF0D390020AE09F90B8
:100E13000209E09E4003020EFAE4900215F0A3F0EB
:100E2300900215E0FEA3E0FFC3EE940250251218D2
:100E330029900215E0FCA3E02401F58274003CF53F
:100E430083EFF0900216E004F070D5900215E004F1
:100E5300F080CD12188490020DE0FEA3E0FFC39052
:100E63000214E09FFF900213E09E90020FF0A3EFA5
:100E7300F0E4900215F0A3F0900209E0FEA3E0FF76
:100E8300900215E0FCA3E0FDC39FEC9E5047900247
:100E930012E02DFF900211E03CFE900204E0FBA360
:100EA300E0FAA3E0F98F828E831208D9FF90021033
:100EB300E02DFD90020FE03CFC74012DF5827400DF
:100EC3003CF583EFF0900216E004F070AB9002154E
:100ED300E004F080A3E4900215F0A3F012176C90E5
:100EE3000216E004F07006900215E004F0C39002CD
:100EF30015E0940240E622E4900215F0A3F090027C
:100F030015E0FEA3E0FFC3EE9402502512182990CA
:100F13000215E0FCA3E02401F58274003CF583EFA5
:100F2300F0900216E004F070D5900215E004F08012
:100F3300CD12188490020DE0FEA3E0FFC3900214CB
:100F4300E09FFF900213E09E90020FF0A3EFF0E406
:100F5300900215F0A3F090020BE0FEA3E0FF9002D5
:100F630015E0FCA3E0FDC39FEC9E5047900212E006
:100F73002DFF900211E03CFE900204E0FBA3E0FA97
:100F8300A3E0F98F828E831208D9FF900210E02D1F
:100F9300FD90020FE03CFC74012DF58274003CF5DA
:100FA30083EFF0900216E004F070AB900215E004BA
:100FB300F080A3E4900215F0A3F012176C900216D0
:100FC300E004F07006900215E004F0C3900215E00F
:100FD300940240E690020BE0FEA3E0FF900214E0CF
:100FE3002FF0900213E03EF0C390020AE09FF090CE
:100FF3000209E09EF0900212E02FF0900211E03E11
:04100300F0020DDD0D
:1016DC0075985053873F538EDE53A23FE47B04FA38
:1016EC00F9F8900399E0FCA3E0FDA3E0FEA3E0FF72
:1016FC001209F17B007AC2790178001209F1C3E476
:10170C009FFFE49E438E4053890F8F8BF58DC2ABA8
:08171C00C28FD28EC20BD2ACC9
:0117240022A2
:0B194700EF14700653A23FED42A222F5
:0517B1009003ACEFF015
:1017B600E47B04FAF9F8900399E0FCA3E0FDA3E0CA
:1017C600FEA3E0FF1209F19003ADE0F8A3E0F9A350
:1017D600E0FAA3E0FB1209F1C3E49FFFE49EFE904A
:0B17E60003ACE01470058F8BEEF58D56
:0117F10022D5
:0E192D00EF147009200BFDD20BAF058F99222D
:10190D00EF14700DA20A929B200BFDD20BAF058F29
:02191D0099220D
:1017F200900270EBF0A3EAF0A3E9F0AE079002705A
:10180200E0FBA3E0FAA3E0F91208C06019AF06906A
:101812000270A3E475F001120950A9F0FA1208C08F
:07182200FD12192D80D722F1
:0E15DE00900310EFF0A3EBF0A3EAF0A3E9F006
:1015EC0090037C7401F0A37403F0A37414F09003C3
:1015FC0011E0F9A3E0FAA3E0900270C9F0A3EAF0BD
:10160C00A3E9F090037CE0F9A3E0FAA3E090027365
:10161C00C9F0A3EAF0A3E9F07B017A03793C121636
:0F162C0092900310E0FF7B017A03793C0217F2E2
:030023000217259C
:10172500C0E0C0F0C083C082C0D075D000C000C08A
:1017350001C002C003C004C005C006C0073098053B
:10174500C29812185B309904C299C20BD007D00613
:10175500D005D004D003D002D001D000D0D0D082A3
:07176500D083D0F0D0E03288
:10140600021507E493A3F8E493A34003F68001F2E0
:1014160008DFF48029E493A3F85407240CC8C333E7
:10142600C4540F4420C8834004F456800146F6DFB6
:10143600E4800B0102040810204080901952E47EDB
:10144600019360BCA3FF543F30E509541FFEE493AB
:10145600A360010ECF54C025E060A840B8E493A372
:10146600FAE493A3F8E493A3C8C582C8CAC583CA9D
:10147600F0A3C8C582C8CAC583CADFE9DEE780BE55
:01195900008D
:1008C000BB010689828A83E0225002E722BBFE0236
:0908D000E32289828A83E4932269
:1008D900BB010CE58229F582E5833AF583E02250D4
:1008E90006E92582F8E622BBFE06E92582F8E2221E
:0D08F900E58229F582E5833AF583E4932238
:10090600F8BB010DE58229F582E5833AF583E8F027
:10091600225006E92582C8F622BBFE05E92582C8D3
:02092600F222BB
:10092800EF8DF0A4A8F0CF8CF0A428CE8DF0A42EE3
:02093800FE229D
:10093A00C5F0F8A3E028F0C5F0F8E5821582700248
:06094A001583E038F022E5
:10095000A3F8E0C5F025F0F0E5821582700215835A
:06096000E0C838F0E822B7
:10096600E88FF0A4CC8BF0A42CFCE98EF0A42CFC30
:100976008AF0EDA42CFCEA8EF0A4CDA8F08BF0A4AE
:100986002DCC3825F0FDE98FF0A42CCD35F0FCEB0D
:100996008EF0A4FEA9F0EB8FF0A4CFC5F02ECD39D2
:0F09A600FEE43CFCEAA42DCE35F0FDE43CFC223F
:1009B50075F008758200EF2FFFEE33FECD33CDCCF9
:1009C50033CCC58233C5829BED9AEC99E58298407C
:1009D5000CF582EE9BFEED9AFDEC99FC0FD5F0D659
:1009E500E4CEFBE4CDFAE4CCF9A88222B800C1B983
:1009F5000059BA002DEC8BF084CFCECDFCE5F0CBC1
:100A0500F97818EF2FFFEE33FEED33FDEC33FCEBF9
:100A150033FB10D703994004EB99FB0FD8E5E4F9B4
:100A2500FA227818EF2FFFEE33FEED33FDEC33FCA1
:100A3500C933C910D7059BE99A4007EC9BFCE99A95
:100A4500F90FD8E0E4C9FAE4CCFB2275F010EF2FDA
:100A5500FFEE33FEED33FDCC33CCC833C810D707DA
:100A65009BEC9AE899400AED9BFDEC9AFCE899F815
:0E0A75000FD5F0DAE4CDFBE4CCFAE4C8F922A8
:100A8300EB9FF5F0EA9E42F0E99D42F0E89C45F0C9
:010A93002240
:0C0A9400ECF0A3EDF0A3EEF0A3EFF022D5
:100AA000A8828583F0D083D082120AB7120AB712C7
:100AB0000AB7120AB7E473E493A3C583C5F0C583EC
:100AC000C8C582C8F0A3C583C5F0C583C8C582C8A0
:010AD0002203
:100AD100EC8EF0A4CCC5F0CCCDF8EFA4CEC5F02DB2
:100AE100FDE43CFCE8A42EC8C5F03DFDE43CFCEF70
:0D0AF100A4FFE5F028FEE43DFDE43CFC22FE
:10169200900270E0FFA3E0FEA3E0CF900279F0A3F6
:1016A200EEF0A3EFF0900273E0CBF0A3E0CAF0A358
:1016B200E0C9F07F2290027CAD82AC831208C08D1B
:1016C200828C83F0A309E970010ADFEC900273E0D7
:0A16D200FBA3E0FAA3E0F90205C053
:10055B00E5082479F582E43402F583E0050822905E
:10056B000276300703900279E475F001120B10024A
:10057B0008C02000E97F2ED2008018EF540F249082
:10058B00D43440D4FF30040BEF24BFB41A00500313
:10059B002461FFE50960021509050CE50C700205E5
:1005AB000B30070E900276E475F001120B10EF0280
:1005BB000AFE0218AD7403D2078003E4C207F508E4
:1005CB00900276120B27E4F509F50BF50CE50960A3
:1005DB00077F2012059E80F5750AFFC201C200C27B
:1005EB0002C203C205C206C20812056AFF700D30B3
:1005FB0007057F001205AFAF0CAE0B22B4255FC20F
:10060B00D5C20412056AFF24D0B40A00501A75F043
:10061B000A780930D50508B6FF0106C6A426F620D0
:10062B00D5047002D20380D924CFB41A00EF500442
:10063B00C2E5D2040207B0D20180C6D20080C0D27C
:10064B000280BCD2D580BAD20580B47F2012059E21
:10065B002002077401B5090040F112055BFF12057A
:10066B009E0205D8D208D206809512055BFB1205B7
:10067B005BFA12055BF94A4B700679817A087BFFAE
:10068B0020022EE509602A7E008E827583001208F7
:10069B00D960060EEE650A70F0C2D5EBC0E0EAC079
:1006AB00E0E9C0E0EE1207F7D0E0F9D0E0FAD0E0D5
:1006BB00FB1208C0FF60AAEBC0E0EAC0E0E9C0E0B3
:1006CB0012059ED0E02401F9D0E03400FAD0E0FB13
:1006DB00E50A0460DCD50AD980877BFF7A0779F3BA
:1006EB00D202809C791080027908C206C208800869
:1006FB00D2D5790A8004790AC2D5E50A047002F5CD
:10070B000AE4FAFDFEFF12055BFC7B0820011312C5
:10071B00055BFD7B1030000A12055BFE12055BFFCB
:10072B007B20EC3382D592D55013C3E43000069F67
:10073B00FFE49EFEE42001039DFDE49CFCE4CBF86A
:10074B00C201EC700CCFCECDCCE824F8F870F3805E
:10075B0017C3EF33FFEE33FEED33FDEC33FCEB331E
:10076B00FB994002FB0FD8E9EB300105F8D0E0C450
:10077B0048B201C0E00AEC4D4E4F78207B0070C2AE
:10078B00EAB50A0040BCC0E01207F9D0F0D0E02077
:10079B000104C4C0E0C4B201C0F0120587D0F0D58B
:1007AB00F0EB0205D8120B3006755306EF580646D0
:1007BB004C06424206F34F06FB4406FB49065B43DD
:0807CB0007015506E54606E5AD
:1007D3004506E54708A150064A2D064E2E06712B05
:1007E300065223066F20088A2A060A480000066973
:1007F3003F3F3F00790AA2D5200314300509B91001
:10080300020404B9080104A2D52006025001042001
:1008130002689202B509005034C0E07F203003190A
:100823007F30A20272067205500F120850C202C234
:1008330006C205C2087F30800F300503E9C0E0120D
:10084300059E300503D0E0F9D0E0B509CC3005179B
:100853007F30B9100C12059E7F583004077F7880D3
:1008630003B9080312059E3002057F2D02059E7F02
:10087300202008F87F2B2006F322920280CF286ED7
:10088300756C6C2900D20112055B3001F8C2017846
:100893000930D50108F602060A2D504349581205BE
:1008A3005B2403B405004001E490089C9312058F78
:0D08B300743A12058FD2037509040206EF96
:100AFE00BB010689828A83F0225002F722BBFE01D7
:020B0E00F322D0
:100B1000F8E0FBA3A3E0F925F0F0E582158270026E
:070B20001583E0FA38F02212
:090B2700EBF0A3EAF0A3E9F022CF
:100B3000D083D082F8E4937012740193700DA3A354
:100B400093F8740193F5828883E473740293686068
:060B5000EFA3A3A380DF68
:1018AD00EFB40A07740D1218B8740A309811A8997C
:1018BD00B8130CC2983098FDA899C298B811F6309B
:0718CD0099FDC299F5992273
:00000001FF
