:030000000214F5F2
:0C14F500787FE4F6D8FD75812102153CDB
:1019CC001209007D037F5512038B7F551213C17FC3
:0819DC00F47E0112000380F209
:071A2E0044019900000000D3
:10000300EF4E601A900191E0FCA3E0FDED1D70013D
:0E0013001C144C70F7EF1F70011E144E70E6A7
:0100210022BC
:0819E400900072E0FEA3E0FF99
:0A19EC00EF1FAC0670011E4C70F6F0
:0119F60022CE
:1019A600900191E0FCA3E0FD12087BE47B83FAF949
:1019B600F812071090019512083E900195E0C313A6
:0619C600FEA3E013FF2266
:10195600900194E06599600AE599F0E4900193F0AE
:101966008006900193E004F0900193E0C394E9406F
:0919760007000075C760000022A3
:0B16B900900111EBF0A3EAF0A3E9F0B0
:1016C40090017C7401F0A37401F0A37414F09001F0
:1016D40011E0F9A3E0FAA3E0900074C9F0A3EAF0E2
:1016E400A3E9F090017CE0F9A3E0FAA3E09000778D
:1016F400C9F0A3EAF0A3E9F07B017A01793C12185E
:0C170400087B017A01793C7F0102191F6B
:10158100EF14600D14602614603C14605424047040
:101591006F90FE027480F090FE02E030E0F990FE60
:1015A10000E054FCF090FE03E4F0A3F02290FE046E
:1015B1007480F090FE04E030E0F990FE00E0440316
:1015C100F090FE03803490FE037480F090FE03E0FF
:1015D10030E0F990FE00E054FC4401F090FE0480FC
:1015E1001990FE0374C0F090FE03E030E0F990FE24
:1015F10000E054FC4402F090FE04E4F090FE02F09E
:0116010022C6
:0C1A1700EF90FE01700304F022EFF022BB
:1009000043BA80AF9FE4FCFDFEC004A905AA06AB74
:100910000778FBE6FFD000C3EF9BFFEE9AFEED9950
:10092000FDEC98FCE47BF07AD2F9F8120710C3E4EE
:100930009FFF74369EFE746E9DFD74019CFC9000BA
:100940000012083E900000E0FCA3E0FDA3E0FEA33F
:10095000E0FFC00790FE01E0FBE4FAF9F8D00712CF
:10096000079B90000012083E7FC07EF67D577C00FA
:10097000900000E0F8A3E0F9A3E0FAA3E0FBC312C3
:10098000082D500D90019912084A00546000020B86
:100990002F7FC07E267D827C00900000E0F8A3E0DF
:1009A000F9A3E0FAA3E0FBC312082D500D900199C2
:1009B00012084A005B8D80020B2F7F807EED7DAF99
:1009C0007C00900000E0F8A3E0F9A3E0FAA3E0FBCC
:1009D000C312082D500D90019912084A00A8C000BA
:1009E000020B2F7F807E2D7DE87C00900000E0F8D8
:1009F000A3E0F9A3E0FAA3E0FBC312082D500D9089
:100A0000019912084A00B71B00020B2F7F807E3627
:100A10007D257C01900000E0F8A3E0F9A3E0FAA3B3
:100A2000E0FBC312082D500D90019912084A0119DC
:100A30004000020B2F7F807E567D417C019000009C
:100A4000E0F8A3E0F9A3E0FAA3E0FBC312082D50FD
:100A50000D90019912084A01312D00020B2F7F00E1
:100A60007EDB7D5F7C01900000E0F8A3E0F9A3E06D
:100A7000FAA3E0FBC312082D500D90019912084A09
:100A800001518000020B2F7F607E197D857C0190D3
:100A90000000E0F8A3E0F9A3E0FAA3E0FBC312082A
:100AA0002D500D90019912084A016E3600020B2F4D
:100AB0007F207EE07DB27C01900000E0F8A3E0F9A9
:100AC000A3E0FAA3E0FBC312082D500C9001991289
:100AD000084A019BFCC080577FE07EA67DE07C0138
:100AE000900000E0F8A3E0F9A3E0FAA3E0FBC31252
:100AF000082D500C90019912084A01C9C380802F1B
:100B00007F607E2B7DFF7C01900000E0F8A3E0F980
:100B1000A3E0FAA3E0FBC312082D9001995009123B
:100B2000084A01FA4000800712084A02160EC0E483
:100B30007B107A27F9F8900199E0FCA3E0FDA3E08F
:100B4000FEA3E0FF12079B900191EEF0A3EFF0E40B
:100B5000900194F0900193F0C2091217B900D2AF3E
:010B60000094
:010B61002271
:0B11CB00900002EBF0A3EAF0A3E9F0B3
:1011D6007F647E001219A6900072EEF0A3EFF090E5
:1011E600006F7401F0A37400F0A37405F090000280
:1011F600E0F9A3E0FAA3E0900074C9F0A3EAF0A333
:10120600E9F090006FE0F9A3E0FAA3E0900077C957
:10121600F0A3EAF0A3E9F07B017A00792F1218080F
:1012260090002DEEF0A3EFF07FF47E01120003E4B0
:10123600FBFAD390002EE09B90002DE09A40E9D275
:10124600B1C2B11219E4742F2BF58274003AF583FA
:10125600E0F9E4FDE930E004D2B18002C2B1E9C3AD
:1012660013F91219E40DEDB408EAD2B11219E41219
:0912760019E40BBB00010A80B968
:0B13220090019DEBF0A3EAF0A3E9F0BE
:10132D00E4FFFE9001A3F0A3F0A3F0A3F090019DC4
:10133D00E0FBA3E0FAA3E0F912066A60729001A641
:10134D00E004F070069001A5E004F09001A0E0FB30
:10135D00A3E0FAA3E0F98F828E83120683FD90013C
:10136D009DE0FBA3E0FAA3E0F912066AB505070FAD
:10137D00BF00010E8012E4FEFF9001A5E0FDA3E089
:10138D009001A3CDF0A3EDF090019EE475F0011254
:10139D0006E49001A0E0FBA3E0FAA3E0F98F828EB2
:1013AD008312068370879001A3E0FEA3E0FF227EE7
:0313BD00FF7FFFB0
:0113C000220A
:10111400E49001B1F09001B3F09001B2F09001B20B
:10112400E0FFC3940A40030211C57E00ED2FF5824F
:10113400EE3CF583120683FFC3648094B0404BD326
:10114400EF648094B750439001B3E004F0E0B4013D
:10115400179001B2E02DF582EE3CF583120683244C
:10116400D0C454F09001B1F09001B3E0B4021B90EC
:1011740001B2E07E002DF582EE3CF5831206832455
:10118400D0FF9001B1E04FFFF0229001B2E07E0069
:101194002DF582EE3CF583120683FFC3648094B878
:1011A400400ED3EF648094B950069001B3E004F08C
:1011B400EF642C600CEF60099001B2E004F00211BE
:0611C400219001B1E0FFE3
:0111CA002202
:081058009001A7ECF0A3EDF0FC
:10106000E4A3F0A3F0A3F09001ABE0FFC39414401D
:101070000302110B9001A8E02FFF9001A7E03400BC
:101080008F82F583120683FFC3648094B0404ED3F1
:10109000EF648094B950469001A9E0FEA3E0FF7C84
:1010A000007D0A1206D29001A9EEF0A3EFF0A3E0B2
:1010B000FF9001A8E02FFF9001A7E034008F82F598
:1010C00083120683FF3395E0FEEF24D0FFEE34FF5A
:1010D000FE9001AAE02FF09001A9E03EF09001AB54
:1010E000E0FF9001A8E02FFF9001A7E034008F827D
:1010F000F583120683FF642C6011EF642E600CEF01
:1011000060099001ABE004F00210679001A9E0FED5
:03111000A3E0FF5A
:0111130022B9
:100D040090017FEBF0A3EAF0A3E9F0A3ECF0A3EDEC
:010D1400F0EE
:100D1500E490018BF0A3F0A3F0A3F0A3F0A3F0906F
:100D25000189F0A3F0900182E0FEA3E0FF90018924
:100D3500E0FCA3E0FDC39FEC9E4003020DD49001AF
:100D450084E0FBA3E0FAA3E0F990018BE0FEA3E0C9
:100D5500F5828E83120683FF90017FE0FBA3E0FA04
:100D6500A3E0F98D828C83120683B5073390018C3D
:100D7500E004F0700690018BE004F0900187E0FE3E
:100D8500A3E0FF90018BE0B50631A3E0B5072C90F9
:100D95000189E0FFA3E090018FCFF0A3EFF0802F52
:100DA500E490018BF0A3F090018AE02401FE90010C
:100DB50089E0340090018DF0A3CEF090018AE00423
:100DC500F06003020D2A900189E004F0020D2A90DB
:100DD500018FE0FEA3E0FF90018DE0FCA3E0FDD3D1
:100DE5009FEC9E5044900189ECF0A3EDF090018FAB
:100DF500E0FEA3E0FF900189E0FCA3E0FDC39FECCA
:100E05009E502390017FE0FBA3E0FAA3E0F98D82D9
:100E15008C83E41206B090018AE004F070CF900153
:0B0E250089E004F080C77F01227F00FD
:010E3000229F
:100B62006770696F5F757070756C6C283C442530D6
:100B720032583E2C2564293BB2BBB4E6D4DAB8C362
:100B8200494F0D0A006770696F5F757070756C6C04
:100B9200283C44253032583E2C31293BB2BBB4E6C6
:100BA200D4DAB8C3494F0D0A006770696F5F757078
:100BB20070756C6C283C44253032583E2C30293BF1
:100BC200B2BBB4E6D4DAB8C3494F0D0A0067706904
:100BD2006F5F6D6F6465283C44253032583E2C258A
:100BE20064293BB2BBB4E6D4DAB8C3494F0D0A005C
:100BF2006770696F5F6D6F64652844253032582CC9
:100C02003C25643E293BB2BBB4E6D4DAB8C3C4A3E4
:100C1200CABD0D0A006770696F5F777269746528D3
:100C22003C25643E2C2564293BB2BBB4E6D4DAB839
:100C3200C350BFDA0D0A006770696F5F7265616445
:100C4200283C5025643E293BB2BBB4E6D4DAB8C393
:100C520050BFDA0D0A006770696F5F6F7574283CC8
:100C620044253032583E2C2564293BB2BBB4E6D42D
:100C7200DAB8C3494F0D0A006770696F5F6F757408
:100C8200283C44253032583E2C31293BB2BBB4E6D5
:100C9200D4DAB8C3494F0D0A006770696F5F6F7588
:100CA20074283C44253032583E2C30293BB2BBB428
:100CB200E6D4DAB8C3494F0D0A006770696F5F69FD
:100CC2006E283C44253032583E293BB2BBB4E6D4B0
:100CD200DAB8C3494F0D0A006770696F5F746F67B6
:100CE200676C65283C44253032583E293BB2BBB480
:100CF200E6D4DAB8C3494F0D0A00010204081020F5
:020D020040802F
:050E31009001B7EFF095
:100E360064887003020F459001B7E0FF54F0F50D8A
:100E4600EF540FFF900CFC93F50EEFD3940740215F
:100E56007BFF7A0B79629001B7E0FF900005E4F022
:100E6600A3EFF0A20AE4FF33A3CFF0A3EFF0121131
:100E7600CB300A63E50D24F0602124F0602224F0D3
:100E8600602324F0602424F0602524F0602624F0FA
:100E960060272470702B90FE10802190FE11801C1C
:100EA60090FE12801790FE13801290FE14800D9013
:100EB600FE15800890FE16800390FE17E0450EF0A2
:100EC600227BFF7A0B79879001B7E0FF900005E45B
:100ED600F0A3EFF00211CBE50D24F0602124F060C1
:100EE6002224F0602324F0602424F0602524F0609E
:100EF6002624F060272470703090FE10802190FE2A
:100F060011801C90FE12801790FE13801290FE1422
:100F1600800D90FE15800890FE16800390FE17E067
:100F2600FFE50EF4FEEF5EF0227BFF7A0B79AB90C5
:0F0F360001B7E0FF900005E4F0A3EFF01211CB3C
:010F45002289
:0A038B00900001EDF0900000EFF08B
:1003950064887003020669900000E0FF54F0F50DD3
:1003A500EF540FFF900CFC93F50EEFD39407402309
:1003B5007BFF7A0B79CF900000E0FF900005E4F019
:1003C500A3EFF0900001E0FF900007E4F0A3EFF049
:1003D5001211CBE50D24F0602124F0602224F06099
:1003E5002324F0602424F0602524F0602624F060A6
:1003F5002724707028E4F50D8046750D0180417540
:100405000D02803C750D038037750D048032750D26
:1004150005802D750D068028750D0780237BFF7AD5
:100425000B79CF900000E0FF900005E4F0A3EFF01A
:10043500900001E0FF900007E4F0A3EFF01211CB6C
:10044500900001E0FFD39403401C7BFF7A0B79F207
:10045500900000E0FD900005E4F0A3EDF0A3E4F0CA
:10046500A3EFF01211CBE50D703A900001E0FF709B
:1004750007E50EF452935294EFB40109E50E429349
:10048500E50EF45294900001E0B40208E50E4293A3
:10049500E50E4294900001E0B40309E50EF4529391
:1004A500E50E4294E50D6401703A900001E0FF709D
:1004B50007E50EF452915292EFB40109E50E42910F
:1004C500E50EF45292900001E0B40208E50E429167
:1004D500E50E4292900001E0B40309E50EF4529155
:1004E500E50E4292E50D6402703A900001E0FF705E
:1004F50007E50EF452955296EFB40109E50E4295C3
:10050500E50EF45296900001E0B40208E50E42951E
:10051500E50E4296900001E0B40309E50EF452950C
:10052500E50E4296E50D6403703A900001E0FF7018
:1005350007E50EF452B152B2EFB40109E50E42B12E
:10054500E50EF452B2900001E0B40208E50E42B1A6
:10055500E50E42B2900001E0B40309E50EF452B194
:10056500E50E42B2E50D6404703A900001E0FF70BB
:1005750007E50EF452B352B4EFB40109E50E42B3E8
:10058500E50EF452B4900001E0B40208E50E42B362
:10059500E50E42B4900001E0B40309E50EF452B350
:1005A500E50E42B4E50D6405703A900001E0FF7078
:1005B50007E50EF452C952CAEFB40109E50E42C966
:1005C500E50EF452CA900001E0B40208E50E42C9F6
:1005D500E50E42CA900001E0B40309E50EF452C9E4
:1005E500E50E42CAE50D6406703A900001E0FF7021
:1005F50007E50EF452CB52CCEFB40109E50E42CB20
:10060500E50EF452CC900001E0B40208E50E42CBB1
:10061500E50E42CC900001E0B40309E50EF452CB9F
:10062500E50E42CCE50D6407703A900001E0FF70DD
:1006350007E50EF452E152E2EFB40109E50E42E19D
:10064500E50EF452E2900001E0B40208E50E42E145
:10065500E50E42E2900001E0B40309E50EF452E133
:04066500E50E42E27A
:01066900226E
:10165F00EFB40900503A90166CF8282873021687D9
:10166F0002168A02168D0216900216930216960221
:10167F00169902169C0216B88D80228D90228DA08D
:10168F00228DB0228DC0228DC8228DE8228DF822A6
:10169F007BFF7A0C7917900005E4F0A3EFF0AF050C
:0A16AF00A3E4F0A3EFF01211CB2228
:10171000EFB40900503D90171DF8282873021738C0
:1017200002173B02173E02174102174402174702F5
:10173000174A02174D021750AF8022AF9022AFA078
:1017400022AFB022AFC022AFC822AFE822AFF8224A
:101750007FFF227BFF7A0C7939900005E4F0A3EF3C
:07176000F01211CB7FFF2204
:050F46009001B8EFF07E
:100F4B00648870030210579001B8E0FF54F0F50D60
:100F5B00EF540FFF900CFC93F50EEFD39407402149
:100F6B007BFF7A0C79589001B8E0FF900005E4F014
:100F7B00A3EFF0A20BE4FF33A3CFF0A3EFF012111A
:100F8B00CB300B60E50D24F0602124F0602224F0BF
:100F9B00602324F0602424F0602524F0602624F0E4
:100FAB00602724707028E50E428022E50E429022C5
:100FBB00E50E42A022E50E42B022E50E42C022E52C
:100FCB000E42C822E50E42E822E50E42F8227BFFD4
:100FDB007A0C797A9001B8E0FF900005E4F0A3EF6A
:100FEB00F00211CBE50D24F0602224F0602424F0F4
:100FFB00602624F0602824F0602A24F0602C24F072
:10100B00602E24707030E50EF4528022E50EF452FF
:10101B009022E50EF452A022E50EF452B022E50E1A
:10102B00F452C022E50EF452C822E50EF452E82227
:10103B00E50EF452F8227BFF7A0C799B9001B8E015
:0C104B00FF900005E4F0A3EFF01211CBC1
:011057002276
:05127F009001B9EFF041
:10128400BF8802C3229001B9E0FF54F0F50DEF547A
:101294000FFF900CFC93F50EEFD3940740167BFFE1
:1012A4007A0C79BC9001B9E0FF900005E4F0A3EF5B
:1012B400F01211CBE50D24F0602124F0602224F01B
:1012C400602324F0602424F0602524F0602624F0B8
:1012D40060272470702885800F803985900F8034B2
:1012E40085A00F802F85B00F802A85C00F802585AB
:1012F400C80F802085E80F801B85F80F80167BFFC0
:101304007A0C79BC9001B9E0FF900005E4F0A3EFFA
:0D131400F01211CBE50F550E6002D322C37D
:0113210022A9
:0513C100900000EFF0B8
:1013C6006488700302145C900000E0FF54F0F50D91
:1013D600EF540FFF900CFC93F50EEFD394074016D5
:1013E6007BFF7A0C79DA900000E0FF900005E4F0CC
:1013F600A3EFF01211CBE50D24F0602124F060225A
:1014060024F0602324F0602424F0602524F0602674
:1014160024F0602724707028E50E628022E50E62B3
:101426009022E50E62A022E50E62B022E50E62C0B1
:1014360022E50E62C822E50E62E822E50E62F82277
:101446007BFF7A0C79DA900000E0FF900005E4F06B
:06145600A3EFF01211CB20
:01145C00226D
:10189900EFB40800503E9018A6F82828730218BE25
:1018A9000218C20218C60218CA0218CE0218D202B9
:1018B90018D60218DAED628022ED629022ED62A05C
:1018C90022ED62B022ED62C022ED62C822ED62E82B
:0518D90022ED62F8227F
:10145D00300C48EFB4080040030214F4901470F8F7
:10146D0028287302148802148C021490021494021A
:10147D00149802149C0214A00214A4ED428022EDD3
:10148D00429022ED42A022ED42B022ED42C022ED6B
:10149D0042C822ED42E822ED42F822EFB408005096
:1014AD00469014B5F82828730214CD0214D20214F4
:1014BD00D70214DC0214E10214E60214EB0214F05C
:1014CD00EDF4528022EDF4529022EDF452A022ED73
:1014DD00F452B022EDF452C022EDF452C822EDF4D4
:0814ED0052E822EDF452F8224E
:10176700EFB409005044901774F828287302178FB4
:1017770002179302179702179B02179F0217A302DC
:1017870017A70217AB0217AFAE80801EAE90801A64
:10179700AEA08016AEB08012AEC0800EAEC8800A72
:1017A700AEE88006AEF88002D322EE5D6002D32257
:0117B700C36E
:0117B800220E
:1017B90075985053873F538EDE53A23FE47B04FA5A
:1017C900F9F8900199E0FCA3E0FDA3E0FEA3E0FF96
:1017D90012079B7B007AC27901780012079BC3E448
:1017E9009FFFE49E438E4053890F8F8BF58DC2ABCB
:0E17F900C28FD28E53B7EF53B8EFC20ED2ACF0
:0118070022BE
:0B1A2300EF14700653A23FED42A22218
:0518DE009001ACEFF0E9
:1018E300E47B04FAF9F8900199E0FCA3E0FDA3E09E
:1018F300FEA3E0FF12079B9001ADE0F8A3E0F9A37C
:10190300E0FAA3E0FB12079BC3E49FFFE49EFE9073
:0B19130001ACE01470058F8BEEF58D29
:01191E0022A6
:0E1A0900EF147009200EFDD20EAF058F99224A
:1019F700EF14700DA20D929B200EFDD20EAF058F36
:021A0700992222
:10191F009001B4EBF0A3EAF0A3E9F0AE079001B4A5
:10192F00E0FBA3E0FAA3E0F912066A6019AF069094
:10193F0001B4A3E475F0011206FAA9F0FA12066ACF
:07194F00FD121A0980D722E6
:0E1602009000A2EFF0A3EBF0A3EAF0A3E9F052
:1016100090010E7401F0A37400F0A374A6F0900082
:10162000A3E0F9A3E0FAA3E0900074C9F0A3EAF004
:10163000A3E9F090010EE0F9A3E0FAA3E0900077AF
:10164000C9F0A3EAF0A3E9F07B017A0079CE121881
:0F165000089000A2E0FF7B017A0079CE02191FFB
:030023000218526E
:10185200C0E0C0F0C083C082C0D075D000C000C05C
:1018620001C002C003C004C005C006C0073098050D
:10187200C298121956309904C299C20ED007D006E6
:10188200D005D004D003D002D001D000D0D0D08275
:07189200D083D0F0D0E0325A
:101501000219CCE493A3F8E493A34003F68001F21B
:1015110008DFF48029E493A3F85407240CC8C333EB
:10152100C4540F4420C8834004F456800146F6DFBA
:10153100E4800B0102040810204080901A2EE47E02
:10154100019360BCA3FF543F30E509541FFEE493AF
:10155100A360010ECF54C025E060A840B8E493A376
:10156100FAE493A3F8E493A3C8C582C8CAC583CAA1
:10157100F0A3C8C582C8CAC583CADFE9DEE780BE59
:011A350000B0
:10066A00BB010689828A83E0225002E722BBFE028E
:09067A00E32289828A83E49322C1
:10068300BB010CE58229F582E5833AF583E022502C
:1006930006E92582F8E622BBFE06E92582F8E22276
:0D06A300E58229F582E5833AF583E4932290
:1006B000F8BB010DE58229F582E5833AF583E8F080
:1006C000225006E92582C8F622BBFE05E92582C82C
:0206D000F22214
:1006D200EF8DF0A4A8F0CF8CF0A428CE8DF0A42E3C
:0206E200FE22F6
:1006E400C5F0F8A3E028F0C5F0F8E58215827002A1
:0606F4001583E038F0223E
:1006FA00A3F8E0C5F025F0F0E582158270021583B3
:06070A00E0C838F0E8220F
:10071000E88FF0A4CC8BF0A42CFCE98EF0A42CFC88
:100720008AF0EDA42CFCEA8EF0A4CDA8F08BF0A406
:100730002DCC3825F0FDE98FF0A42CCD35F0FCEB65
:100740008EF0A4FEA9F0EB8FF0A4CFC5F02ECD392A
:0F075000FEE43CFCEAA42DCE35F0FDE43CFC2297
:10075F0075F008758200EF2FFFEE33FECD33CDCC51
:10076F0033CCC58233C5829BED9AEC99E5829840D4
:10077F000CF582EE9BFEED9AFDEC99FC0FD5F0D6B1
:10078F00E4CEFBE4CDFAE4CCF9A88222B800C1B9DB
:10079F000059BA002DEC8BF084CFCECDFCE5F0CB19
:1007AF00F97818EF2FFFEE33FEED33FDEC33FCEB52
:1007BF0033FB10D703994004EB99FB0FD8E5E4F90D
:1007CF00FA227818EF2FFFEE33FEED33FDEC33FCFA
:1007DF00C933C910D7059BE99A4007EC9BFCE99AEE
:1007EF00F90FD8E0E4C9FAE4CCFB2275F010EF2F33
:1007FF00FFEE33FEED33FDCC33CCC833C810D70733
:10080F009BEC9AE899400AED9BFDEC9AFCE899F86D
:0E081F000FD5F0DAE4CDFBE4CCFAE4C8F92200
:10082D00EB9FF5F0EA9E42F0E99D42F0E89C45F021
:01083D002298
:0C083E00ECF0A3EDF0A3EEF0A3EFF0222D
:10084A00A8828583F0D083D08212086112086112CF
:10085A000861120861E473E493A3C583C5F0C583F4
:10086A00C8C582C8F0A3C583C5F0C583C8C582C8F8
:01087A00225B
:10087B00EC8EF0A4CCC5F0CCCDF8EFA4CEC5F02D0A
:10088B00FDE43CFCE8A42EC8C5F03DFDE43CFCEFC8
:0D089B00A4FFE5F028FEE43DFDE43CFC2256
:10180800900074E0FFA3E0FEA3E0CF90007DF0A37A
:10181800EEF0A3EFF0900077E0CBF0A3E0CAF0A3DE
:10182800E0C9F07F22900080AD82AC8312066A8DF9
:10183800828C83F0A309E970010ADFEC900077E05D
:0A184800FBA3E0FAA3E0F902008B15
:10002600E508247DF582E43400F583E00508229096
:10003600007A30070390007DE475F0011208BA02D9
:10004600066A2000E97F2ED2008018EF540F249014
:10005600D43440D4FF30040BEF24BFB41A0050034D
:100066002461FFE50960021509050CE50C7002051F
:100076000B30070E90007AE475F0011208BAEF0211
:1000860008A802197F7403D2078003E4C207F508A3
:1000960090007A1208D1E4F509F50BF50CE5096034
:1000A600077F2012006980F5750AFFC201C200C2EF
:1000B60002C203C205C206C208120035FF700D3027
:1000C60007057F0012007AAF0CAE0B22B4255FC283
:1000D600D5C204120035FF24D0B40A00501A75F0B8
:1000E6000A780930D50508B6FF0106C6A426F6200B
:1000F600D5047002D20380D924CFB41A00EF50047D
:10010600C2E5D20402027BD20180C6D20080C0D2F0
:100116000280BCD2D580BAD20580B47F2012006995
:100126002002077401B5090040F1120026FF1200F3
:10013600690200A3D208D2068095120026FB12009F
:1001460026FA120026F94A4B7006794C7A037BFF91
:1001560020022EE509602A7E008E82758300120633
:100166008360060EEE650A70F0C2D5EBC0E0EAC009
:10017600E0E9C0E0EE1202C2D0E0F9D0E0FAD0E049
:10018600FB12066AFF60AAEBC0E0EAC0E0E9C0E045
:10019600120069D0E02401F9D0E03400FAD0E0FB87
:1001A600E50A0460DCD50AD980877BFF7A0279BE2E
:1001B600D202809C791080027908C206C2088008A3
:1001C600D2D5790A8004790AC2D5E50A047002F507
:1001D6000AE4FAFDFEFF120026FC7B08200113123A
:1001E6000026FD7B1030000A120026FE120026FFB4
:1001F6007B20EC3382D592D55013C3E43000069FA2
:10020600FFE49EFEE42001039DFDE49CFCE4CBF8A4
:10021600C201EC700CCFCECDCCE824F8F870F38098
:1002260017C3EF33FFEE33FEED33FDEC33FCEB3358
:10023600FB994002FB0FD8E9EB300105F8D0E0C48A
:1002460048B201C0E00AEC4D4E4F78207B0070C2E8
:10025600EAB50A0040BCC0E01202C4D0F0D0E020EB
:100266000104C4C0E0C4B201C0F0120052D0F0D5FF
:10027600F0EB0200A31208DA01405301BA5801114B
:100286004C010D4201BE4F01C64401C64901264339
:0802960001CC5501B04601B096
:10029E004501B047036C5001152D01192E013C2B61
:1002AE00011D23013A2003552A00D54800000134D0
:1002BE003F3F3F00790AA2D5200314300509B9103B
:1002CE00020404B9080104A2D5200602500104203C
:1002DE0002689202B509005034C0E07F2030031945
:1002EE007F30A20272067205500F12031BC202C2A9
:1002FE0006C205C2087F30800F300503E9C0E01248
:10030E000069300503D0E0F9D0E0B509CC3005170F
:10031E007F30B9100C1200697F583004077F788047
:10032E0003B908031200693002057F2D0200697FB0
:10033E00202008F87F2B2006F322920280CF286E11
:10034E00756C6C2900D2011200263001F8C20178BA
:10035E000930D50108F60200D52D50434958120038
:10036E00262403B405004001E49003679312005A5B
:0D037E00743A12005AD2037509040201BA44
:1008A800BB010689828A83F0225002F722BBFE012F
:0208B800F32229
:1008BA00F8E0FBA3A3E0F925F0F0E58215827002C7
:0708CA001583E0FA38F0226B
:0908D100EBF0A3EAF0A3E9F02228
:1008DA00D083D082F8E4937012740193700DA3A3AD
:1008EA0093F8740193F5828883E4737402936860C1
:0608FA00EFA3A3A380DFC1
:10197F00EFB40A07740D12198A740A309811A899D6
:10198F00B8130CC2983098FDA899C298B811F630C8
:07199F0099FDC299F59922A0
:00000001FF
