:0300000002169352
:0C169300787FE4F6D8FD7581210216DA9C
:081B5C00120988121B2F80FE04
:0300AB00021B2213
:0D1B220053E6BFD2900000000000C29032D8
:071B6400440207000000002D
:10000300EF4E601A9001FFE0FCA3E0FDED1D7001CF
:0E0013001C144C70F7EF1F70011E144E70E6A7
:0100210022BC
:081AEF009000E6E0FEA3E0FF19
:0A1AF700EF1FAC0670011E4C70F6E4
:011B010022C1
:061A7300A3F07F647E0079
:101A79009001FFE0FCA3E0FD120903E47B83FAF97E
:101A8900F81207989002031208C6900203E0C313E4
:061A9900FEA3E013FF2292
:101A9F00900202E06599600AE599F0E4900201F086
:101AAF008006900201E004F0900201E0C394E94047
:091ABF0007000075C76000002259
:0B17D600900157EBF0A3EAF0A3E9F04C
:1017E1009001C27401F0A37401F0A3745AF0900146
:1017F10057E0F9A3E0FAA3E0900215C9F0A3EAF0DB
:10180100A3E9F09001C2E0F9A3E0FAA3E090021885
:10181100C9F0A3EAF0A3E9F07B017A0179821219F8
:0C182100257B017A0179827F01021A3CCC
:10002600EF14600D14602614603C146054240470B0
:100036006F90FE027480F090FE02E030E0F990FED0
:1000460000E054FCF090FE03E4F0A3F02290FE04DE
:100056007480F090FE04E030E0F990FE00E0440386
:10006600F090FE03803490FE037480F090FE03E06F
:1000760030E0F990FE00E054FC4401F090FE04806C
:100086001990FE0374C0F090FE03E030E0F990FE94
:1000960000E054FC4402F090FE04E4F090FE02F00E
:0100A6002237
:0C1B3C00EF90FE01700304F022EFF02295
:1009880043BA80AF9FE4FCFDFEC004A905AA06ABEC
:100998000778FBE6FFD000C3EF9BFFEE9AFEED99C8
:1009A800FDEC98FCE47BF07AD2F9F8120798C3E4DE
:1009B8009FFF74369EFE746E9DFD74019CFC900230
:1009C800251208C6900225E0FCA3E0FDA3E0FEA3E3
:1009D800E0FFC00790FE01E0FBE4FAF9F8D0071247
:1009E80008239002251208C67FC07EF67D577C003A
:1009F800900225E0F8A3E0F9A3E0FAA3E0FBC31214
:100A080008B5500D9002071208D200546000020B7E
:100A1800B77FC07E267D827C00900225E0F8A3E0A7
:100A2800F9A3E0FAA3E0FBC31208B5500D90020742
:100A38001208D2005B8D80020BB77F807EED7DAF00
:100A48007C00900225E0F8A3E0F9A3E0FAA3E0FB1C
:100A5800C31208B5500D9002071208D200A8C000B2
:100A6800020BB77F807E2D7DE87C00900225E0F8A0
:100A7800A3E0F9A3E0FAA3E0FBC31208B5500D9078
:100A880002071208D200B71B00020BB77F807E3620
:100A98007D257C01900225E0F8A3E0F9A3E0FAA304
:100AA800E0FBC31208B5500D9002071208D20119D5
:100AB8004000020BB77F807E567D417C0190022565
:100AC800E0F8A3E0F9A3E0FAA3E0FBC31208B550ED
:100AD8000D9002071208D201312D00020BB77F00DA
:100AE8007EDB7D5F7C01900225E0F8A3E0F9A3E0BE
:100AF800FAA3E0FBC31208B5500D9002071208D202
:100B080001518000020BB77F607E197D857C0190C2
:100B18000225E0F8A3E0F9A3E0FAA3E0FBC312087A
:100B2800B5500D9002071208D2016E3600020BB7BD
:100B38007F207EE07DB27C01900225E0F8A3E0F9F9
:100B4800A3E0FAA3E0FBC31208B5500C9002071209
:100B580008D2019BFCC080577FE07EA67DE07C0127
:100B6800900225E0F8A3E0F9A3E0FAA3E0FBC312A2
:100B780008B5500C9002071208D201C9C380802F13
:100B88007F607E2B7DFF7C01900225E0F8A3E0F9D1
:100B9800A3E0FAA3E0FBC31208B5900207500912BC
:100BA80008D201FA400080071208D202160EC0E4EB
:100BB8007B107A27F9F8900207E0FCA3E0FDA3E098
:100BC800FEA3E0FF1208239001FFEEF0A3EFF0E48C
:100BD800900202F0900201F0C2091218D690FE00AD
:0C0BE800E05407F0E044E8F000D2AF0059
:010BF40022DE
:09136F00900076EBF0A3EAF0E92E
:10137800121A739000E6EEF0A3EFF09000E3740108
:10138800F0A37400F0A37479F0900076E0F9A3E07C
:10139800FAA3E0900215C9F0A3EAF0A3E9F09000DF
:1013A800E3E0F9A3E0FAA3E0900218C9F0A3EAF099
:1013B800A3E9F07B017A0079A31219259000A1EE28
:1013C800F0A3EFF07FF47E01120003E4FBFAD39060
:1013D80000A2E09B9000A1E09A40E9D2B1C2B1120C
:1013E8001AEF74A32BF58274003AF583E0F9E4FD53
:1013F800E930E004D2B18002C2B1E9C313F9121A8C
:10140800EF0DEDB408EAD2B1121AEF121AEF0BBBC6
:0514180000010A80B98B
:0E10EB00900000EFF0A3EBF0A3EAF0A3E9F011
:1010F9009000737401F0A37400F0A37404F09000DD
:1011090001E0F9A3E0FAA3E0900215C9F0A3EAF01F
:10111900A3E9F0900073E0F9A3E0FAA3E0900218C4
:10112900C9F0A3EAF0A3E9F07B017A007933121937
:101139002590002FEEF0EF121A73900031EEF0A314
:10114900EFF0E490002DF0A3F090002FE0FEA3E073
:10115900FFC390002EE09F90002DE09E40030211F6
:10116900FB900000E0FFD20B120FD9900000E0FFC6
:10117900C20B120FD9900031121AF2E490002CF030
:1011890090002DE0FEA3E02433F58274003EF58340
:10119900E090000030E006E0FFD20B8004E0FFC2DF
:1011A9000B120FD990002DE0FEA3E02433F58274D1
:1011B900003EF583E0A2E713F0900031121AF29095
:1011C900002CE004F0E0C3940840B5900000E0FF73
:1011D900D20B120FD9900031121AF2900031121A63
:1011E900F290002EE004F0700690002DE004F00269
:0211F900115291
:0111FB0022D1
:0B14C00090020BEBF0A3EAF0A3E9F0B0
:1014CB00E4FFFE900211F0A3F0A3F0A3F090020B47
:1014DB00E0FBA3E0FAA3E0F91206F26072900214AB
:1014EB00E004F07006900213E004F090020EE0FBB3
:1014FB00A3E0FAA3E0F98F828E8312070BFD900213
:10150B000BE0FBA3E0FAA3E0F91206F2B505070F17
:10151B00BF00010E8012E4FEFF900213E0FDA3E07A
:10152B00900211CDF0A3EDF090020CE475F00112D6
:10153B00076C90020EE0FBA3E0FAA3E0F98F828E1A
:10154B008312070B7087900211E0FEA3E0FF227E4F
:03155B00FF7FFF10
:01155E00226A
:1012B800E4900229F090022BF090022AF090022A82
:1012C800E0FFC3940A40030213697E00ED2FF58204
:1012D800EE3CF58312070BFFC3648094B0404BD3F8
:1012E800EF648094B7504390022BE004F0E0B4011F
:1012F8001790022AE02DF582EE3CF58312070B24A5
:10130800D0C454F0900229F090022BE0B4021B9054
:10131800022AE07E002DF582EE3CF58312070B24AD
:10132800D0FF900229E04FFFF02290022AE07E00D1
:101338002DF582EE3CF58312070BFFC3648094B849
:10134800400ED3EF648094B9500690022BE004F06D
:10135800EF642C600CEF600990022AE004F002129E
:06136800C5900229E0FF20
:01136E00225C
:0811FC0090021BECF0A3EDF0E2
:10120400E4A3F0A3F0A3F090021FE0FFC394144002
:10121400030212AF90021CE02FFF90021BE0340087
:101224008F82F58312070BFFC3648094B0404ED3C2
:10123400EF648094B9504690021DE0FEA3E0FF7C69
:10124400007D0A12075A90021DEEF0A3EFF0A3E00E
:10125400FF90021CE02FFF90021BE034008F82F508
:101264008312070BFF3395E0FEEF24D0FFEE34FF2B
:10127400FE90021EE02FF090021DE03EF090021F4F
:10128400E0FF90021CE02FFF90021BE034008F82ED
:10129400F58312070BFF642C6011EF642E600CEFD2
:1012A400600990021FE004F002120B90021DE0FEA0
:0312B400A3E0FFB5
:0112B7002214
:100D97009001EDEBF0A3EAF0A3E9F0A3ECF0A3EDEB
:010DA700F05B
:100DA800E49001F9F0A3F0A3F0A3F0A3F0A3F0906E
:100DB80001F7F0A3F09001F0E0FEA3E0FF9001F747
:100DC800E0FCA3E0FDC39FEC9E4003020E67900188
:100DD800F2E0FBA3E0FAA3E0F99001F9E0FEA3E05A
:100DE800F5828E8312070BFF9001EDE0FBA3E0FA7A
:100DF800A3E0F98D828C8312070BB507339001FAB3
:100E0800E004F070069001F9E004F09001F5E0FECE
:100E1800A3E0FF9001F9E0B50631A3E0B5072C90F7
:100E280001F7E0FFA3E09001FDCFF0A3EFF0802FE2
:100E3800E49001F9F0A3F09001F8E02401FE90019C
:100E4800F7E034009001FBF0A3CEF09001F8E00445
:100E5800F06003020DBD9001F7E004F0020DBD90B3
:100E680001FDE0FEA3E0FF9001FBE0FCA3E0FDD361
:100E78009FEC9E50449001F7ECF0A3EDF09001FD3B
:100E8800E0FEA3E0FF9001F7E0FCA3E0FDC39FECC8
:100E98009E50239001EDE0FBA3E0FAA3E0F98D82D8
:100EA8008C83E41207389001F8E004F070CF9001C9
:0B0EB800F7E004F080C77F01227F00FC
:010EC300220C
:100BF5006770696F5F757070756C6C283C44253043
:100C050032583E2C2564293BB2BBB4E6D4DAB8C3CE
:100C1500494F0D0A006770696F5F757070756C6C70
:100C2500283C44253032583E2C31293BB2BBB4E632
:100C3500D4DAB8C3494F0D0A006770696F5F7570E4
:100C450070756C6C283C44253032583E2C30293B5D
:100C5500B2BBB4E6D4DAB8C3494F0D0A0067706970
:100C65006F5F6D6F6465283C44253032583E2C25F6
:100C750064293BB2BBB4E6D4DAB8C3494F0D0A00C8
:100C85006770696F5F6D6F64652844253032582C35
:100C95003C25643E293BB2BBB4E6D4DAB8C3C4A351
:100CA500CABD0D0A006770696F5F77726974652840
:100CB5003C25643E2C2564293BB2BBB4E6D4DAB8A6
:100CC500C350BFDA0D0A006770696F5F72656164B2
:100CD500283C5025643E293BB2BBB4E6D4DAB8C300
:100CE50050BFDA0D0A006770696F5F6F7574283C35
:100CF50044253032583E2C2564293BB2BBB4E6D49A
:100D0500DAB8C3494F0D0A006770696F5F6F757474
:100D1500283C44253032583E2C31293BB2BBB4E641
:100D2500D4DAB8C3494F0D0A006770696F5F6F75F4
:100D350074283C44253032583E2C30293BB2BBB494
:100D4500E6D4DAB8C3494F0D0A006770696F5F6969
:100D55006E283C44253032583E293BB2BBB4E6D41C
:100D6500DAB8C3494F0D0A006770696F5F746F6722
:100D7500676C65283C44253032583E293BB2BBB4EC
:100D8500E6D4DAB8C3494F0D0A0001020408102061
:020D950040809C
:050EC400900231EFF087
:100EC90064887003020FD8900231E0FF54F0F50DE9
:100ED900EF540FFF900D8F93F50EEFD39407402138
:100EE9007BFF7A0B79F5900231E0FF900079E4F00D
:100EF900A3EFF0A20AE4FF33A3CFF0A3EFF012139C
:100F09006F300A63E50D24F0602124F0602224F09B
:100F1900602324F0602424F0602524F0602624F066
:100F290060272470702B90FE10802190FE11801C88
:100F390090FE12801790FE13801290FE14800D907F
:100F4900FE15800890FE16800390FE17E0450EF00E
:100F5900227BFF7A0C791A900231E0FF900079E444
:100F6900F0A3EFF002136FE50D24F0602124F06087
:100F79002224F0602324F0602424F0602524F0600A
:100F89002624F060272470703090FE10802190FE96
:100F990011801C90FE12801790FE13801290FE148F
:100FA900800D90FE15800890FE16800390FE17E0D4
:100FB900FFE50EF4FEEF5EF0227BFF7A0C793E909E
:0F0FC9000231E0FF900079E4F0A3EFF012136F14
:010FD80022F6
:0A041300900230EDF090022FEFF0A0
:10041D00648870030206F190022FE0FF54F0F50D91
:10042D00EF540FFF900D8F93F50EEFD394074023EC
:10043D007BFF7A0C796290022FE0FF900079E4F057
:10044D00A3EFF0900230E0FF90007BE4F0A3EFF01B
:10045D0012136FE50D24F0602124F0602224F0606A
:10046D002324F0602424F0602524F0602624F0601D
:10047D002724707028E4F50D8046750D01804175B7
:10048D000D02803C750D038037750D048032750D9E
:10049D0005802D750D068028750D0780237BFF7A4D
:1004AD000C796290022FE0FF900079E4F0A3EFF059
:1004BD00900230E0FF90007BE4F0A3EFF012136F99
:1004CD00900230E0FFD39403401C7BFF7A0C7985BA
:1004DD0090022FE0FD900079E4F0A3EDF0A3E4F09D
:1004ED00A3EFF012136FE50D703A900230E0FF703C
:1004FD0007E50EF452935294EFB40109E50E4293C1
:10050D00E50EF45294900230E0B40208E50E4293E9
:10051D00E50E4294900230E0B40309E50EF45293D7
:10052D00E50E4294E50D6401703A900230E0FF70E3
:10053D0007E50EF452915292EFB40109E50E429186
:10054D00E50EF45292900230E0B40208E50E4291AD
:10055D00E50E4292900230E0B40309E50EF452919B
:10056D00E50E4292E50D6402703A900230E0FF70A4
:10057D0007E50EF452955296EFB40109E50E42953A
:10058D00E50EF45296900230E0B40208E50E429565
:10059D00E50E4296900230E0B40309E50EF4529553
:1005AD00E50E4296E50D6403703A900230E0FF705F
:1005BD0007E50EF452B152B2EFB40109E50E42B1A6
:1005CD00E50EF452B2900230E0B40208E50E42B1ED
:1005DD00E50E42B2900230E0B40309E50EF452B1DB
:1005ED00E50E42B2E50D6404703A900230E0FF7002
:1005FD0007E50EF452B352B4EFB40109E50E42B360
:10060D00E50EF452B4900230E0B40208E50E42B3A8
:10061D00E50E42B4900230E0B40309E50EF452B396
:10062D00E50E42B4E50D6405703A900230E0FF70BE
:10063D0007E50EF452C952CAEFB40109E50E42C9DD
:10064D00E50EF452CA900230E0B40208E50E42C93C
:10065D00E50E42CA900230E0B40309E50EF452C92A
:10066D00E50E42CAE50D6406703A900230E0FF7067
:10067D0007E50EF452CB52CCEFB40109E50E42CB97
:10068D00E50EF452CC900230E0B40208E50E42CBF8
:10069D00E50E42CC900230E0B40309E50EF452CBE6
:1006AD00E50E42CCE50D6407703A900230E0FF7024
:1006BD0007E50EF452E152E2EFB40109E50E42E115
:1006CD00E50EF452E2900230E0B40208E50E42E18C
:1006DD00E50E42E2900230E0B40309E50EF452E17A
:0406ED00E50E42E2F2
:0106F10022E6
:10177C00EFB40900503A901789F82828730217A47F
:10178C000217A70217AA0217AD0217B00217B3026D
:10179C0017B60217B90217D58D80228D90228DA015
:1017AC00228DB0228DC0228DC8228DE8228DF82288
:1017BC007BFF7A0C79AA900079E4F0A3EFF0AF05E7
:0A17CC00A3E4F0A3EFF012136F2264
:10182D00EFB40900503D90183AF828287302185566
:10183D0002185802185B02185E0218610218640241
:10184D00186702186A02186DAF8022AF9022AFA000
:10185D0022AFB022AFC022AFC822AFE822AFF8222C
:10186D007FFF227BFF7A0C79CC900079E4F0A3EF17
:07187D00F012136F7FFF2240
:050FD900900232EFF070
:100FDE00648870030210EA900232E0FF54F0F50DBF
:100FEE00EF540FFF900D8F93F50EEFD39407402122
:100FFE007BFF7A0C79EB900232E0FF900079E4F0FF
:10100E00A3EFF0A20BE4FF33A3CFF0A3EFF0121384
:10101E006F300B60E50D24F0602124F0602224F087
:10102E00602324F0602424F0602524F0602624F050
:10103E00602724707028E50E428022E50E42902231
:10104E00E50E42A022E50E42B022E50E42C022E598
:10105E000E42C822E50E42E822E50E42F8227BFF40
:10106E007A0D790D900232E0FF900079E4F0A3EF53
:10107E00F002136FE50D24F0602224F0602424F0BA
:10108E00602624F0602824F0602A24F0602C24F0DE
:10109E00602E24707030E50EF4528022E50EF4526C
:1010AE009022E50EF452A022E50EF452B022E50E87
:1010BE00F452C022E50EF452C822E50EF452E82294
:1010CE00E50EF452F8227BFF7A0D792E900232E073
:0C10DE00FF900079E4F0A3EFF012136F14
:0110EA0022E3
:05141D00900233EFF026
:10142200BF8802C322900233E0FF54F0F50DEF545F
:101432000FFF900D8F93F50EEFD3940740167BFFAD
:101442007A0D794F900233E0FF900079E4F0A3EF38
:10145200F012136FE50D24F0602124F0602224F0D5
:10146200602324F0602424F0602524F0602624F018
:1014720060272470702885800F803985900F803412
:1014820085A00F802F85B00F802A85C00F8025850B
:10149200C80F802085E80F801B85F80F80167BFF20
:1014A2007A0D794F900233E0FF900079E4F0A3EFD8
:0D14B200F012136FE50F550E6002D322C338
:0114BF00220A
:05155F00900234EFF0E2
:10156400648870030215FA900234E0FF54F0F50D1C
:10157400EF540FFF900D8F93F50EEFD394074016A1
:101584007BFF7A0D796D900234E0FF900079E4F0EE
:10159400A3EFF012136FE50D24F0602124F0602214
:1015A40024F0602324F0602424F0602524F06026D5
:1015B40024F0602724707028E50E628022E50E6214
:1015C4009022E50E62A022E50E62B022E50E62C012
:1015D40022E50E62C822E50E62E822E50E62F822D8
:1015E4007BFF7A0D796D900234E0FF900079E4F08E
:0615F400A3EFF012136FDB
:0115FA0022CE
:1019B600EFB40800503E9019C3F82828730219DBCB
:1019C6000219DF0219E30219E70219EB0219EF0205
:1019D60019F30219F7ED628022ED629022ED62A002
:1019E60022ED62B022ED62C022ED62C822ED62E80D
:0519F60022ED62F82261
:1015FB00300C48EFB40800400302169290160EF818
:10160B0028287302162602162A02162E02163202FA
:10161B00163602163A02163E021642ED428022EDB3
:10162B00429022ED42A022ED42B022ED42C022EDCB
:10163B0042C822ED42E822ED42F822EFB4080050F6
:10164B0046901653F828287302166B021670021672
:10165B007502167A02167F02168402168902168EFE
:10166B00EDF4528022EDF4529022EDF452A022EDD3
:10167B00F452B022EDF452C022EDF452C822EDF434
:08168B0052E822EDF452F822AE
:10188400EFB409005044901891F82828730218AC5A
:101894000218B00218B40218B80218BC0218C00228
:1018A40018C40218C80218CCAE80801EAE90801AEC
:1018B400AEA08016AEB08012AEC0800EAEC8800A54
:1018C400AEE88006AEF88002D322EE5D6002D32239
:0118D400C350
:0118D50022F0
:1018D60075985053873F538EDE53A23FE47B04FA3C
:1018E600F9F8900207E0FCA3E0FDA3E0FEA3E0FF09
:1018F6001208237B007AC279017800120823C3E418
:101906009FFFE49E438E4053890F8F8BF58DC2ABAC
:0E191600C28FD28E53B7EF53B8EFC20ED2ACD1
:0119240022A0
:0B1B4800EF14700653A23FED42A222F2
:0519FB00900220EFF056
:101A0000E47B04FAF9F8900207E0FCA3E0FDA3E010
:101A1000FEA3E0FF120823900221E0F8A3E0F9A35F
:101A2000E0FAA3E0FB120823C3E49FFFE49EFE90CC
:0B1A30000220E01470058F8BEEF58D96
:011A3B002288
:0E1B1400EF147009200EFDD20EAF058F99223E
:101B0200EF14700DA20D929B200EFDD20EAF058F29
:021B1200992216
:101A3C0090022CEBF0A3EAF0A3E9F0AE0790022C95
:101A4C00E0FBA3E0FAA3E0F91206F26019AF0690EE
:101A5C00022CA3E475F001120782A9F0FA1206F227
:071A6C00FD121B1480D722BC
:0E171F009000E8EFF0A3EBF0A3EAF0A3E9F0EE
:10172D009001547401F0A37400F0A374ECF09000D8
:10173D00E9E0F9A3E0FAA3E0900215C9F0A3EAF0FD
:10174D00A3E9F0900154E0F9A3E0FAA3E0900218A8
:10175D00C9F0A3EAF0A3E9F07B017A01791412191B
:0F176D00259000E8E0FF7B017A017914021A3C15
:0300230002196F50
:10196F00C0E0C0F0C083C082C0D075D000C000C03E
:10197F0001C002C003C004C005C006C007309805EF
:10198F00C298121A9F309904C299C20ED007D0067E
:10199F00D005D004D003D002D001D000D0D0D08257
:0719AF00D083D0F0D0E0323C
:0D1B2F0075E7FF75E62653BAF743E68022FE
:091B5300E5E630E002D322C322D2
:0400A70043E680228A
:041B6C0053E67F229B
:10169F00021B5CE493A3F8E493A34003F68001F2EA
:1016AF0008DFF48029E493A3F85407240CC8C3334C
:1016BF00C4540F4420C8834004F456800146F6DF1B
:1016CF00E4800B0102040810204080901B64E47E2C
:1016DF00019360BCA3FF543F30E509541FFEE49310
:1016EF00A360010ECF54C025E060A840B8E493A3D7
:1016FF00FAE493A3F8E493A3C8C582C8CAC583CA02
:10170F00F0A3C8C582C8CAC583CADFE9DEE780BEB9
:011B6B000079
:1006F200BB010689828A83E0225002E722BBFE0206
:09070200E32289828A83E4932238
:10070B00BB010CE58229F582E5833AF583E02250A3
:10071B0006E92582F8E622BBFE06E92582F8E222ED
:0D072B00E58229F582E5833AF583E4932207
:10073800F8BB010DE58229F582E5833AF583E8F0F7
:10074800225006E92582C8F622BBFE05E92582C8A3
:02075800F2228B
:10075A00EF8DF0A4A8F0CF8CF0A428CE8DF0A42EB3
:02076A00FE226D
:10076C00C5F0F8A3E028F0C5F0F8E5821582700218
:06077C001583E038F022B5
:10078200A3F8E0C5F025F0F0E5821582700215832A
:06079200E0C838F0E82287
:10079800E88FF0A4CC8BF0A42CFCE98EF0A42CFC00
:1007A8008AF0EDA42CFCEA8EF0A4CDA8F08BF0A47E
:1007B8002DCC3825F0FDE98FF0A42CCD35F0FCEBDD
:1007C8008EF0A4FEA9F0EB8FF0A4CFC5F02ECD39A2
:0F07D800FEE43CFCEAA42DCE35F0FDE43CFC220F
:1007E70075F008758200EF2FFFEE33FECD33CDCCC9
:1007F70033CCC58233C5829BED9AEC99E58298404C
:100807000CF582EE9BFEED9AFDEC99FC0FD5F0D628
:10081700E4CEFBE4CDFAE4CCF9A88222B800C1B952
:100827000059BA002DEC8BF084CFCECDFCE5F0CB90
:10083700F97818EF2FFFEE33FEED33FDEC33FCEBC9
:1008470033FB10D703994004EB99FB0FD8E5E4F984
:10085700FA227818EF2FFFEE33FEED33FDEC33FC71
:10086700C933C910D7059BE99A4007EC9BFCE99A65
:10087700F90FD8E0E4C9FAE4CCFB2275F010EF2FAA
:10088700FFEE33FEED33FDCC33CCC833C810D707AA
:100897009BEC9AE899400AED9BFDEC9AFCE899F8E5
:0E08A7000FD5F0DAE4CDFBE4CCFAE4C8F92278
:1008B500EB9FF5F0EA9E42F0E99D42F0E89C45F099
:0108C5002210
:0C08C600ECF0A3EDF0A3EEF0A3EFF022A5
:1008D200A8828583F0D083D0821208E91208E91237
:1008E20008E91208E9E473E493A3C583C5F0C5835C
:1008F200C8C582C8F0A3C583C5F0C583C8C582C870
:0109020022D2
:10090300EC8EF0A4CCC5F0CCCDF8EFA4CEC5F02D81
:10091300FDE43CFCE8A42EC8C5F03DFDE43CFCEF3F
:0D092300A4FFE5F028FEE43DFDE43CFC22CD
:10192500900215E0FFA3E0FEA3E0CF9001C8F0A36D
:10193500EEF0A3EFF0900218E0CBF0A3E0CAF0A31D
:10194500E0C9F07F229001CBAD82AC831206F28D07
:10195500828C83F0A309E970010ADFEC900218E09C
:0A196500FBA3E0FAA3E0F90201136E
:1000AE00E50824C8F582E43401F583E005082290C2
:1000BE0001C53007039001C8E475F0011209420230
:1000CE0006F22000E97F2ED2008018EF540F249004
:1000DE00D43440D4FF30040BEF24BFB41A005003C5
:1000EE002461FFE50960021509050CE50C70020597
:1000FE000B30070E9001C5E475F001120942EF02B4
:10010E000930021AC87403D2078003E4C207F50847
:10011E009001C5120959E4F509F50BF50CE50960D6
:10012E00077F201200F180F5750AFFC201C200C2DE
:10013E0002C203C205C206C2081200BDFF700D3016
:10014E0007057F00120102AF0CAE0B22B4255FC271
:10015E00D5C2041200BDFF24D0B40A00501A75F0A7
:10016E000A780930D50508B6FF0106C6A426F62082
:10017E00D5047002D20380D924CFB41A00EF5004F4
:10018E00C2E5D204020303D20180C6D20080C0D2DF
:10019E000280BCD2D580BAD20580B47F201200F185
:1001AE002002077401B5090040F11200AEFF1200E3
:1001BE00F102012BD208D20680951200AEFB12007E
:1001CE00AEFA1200AEF94A4B700679D47A037BFF71
:1001DE0020022EE509602A7E008E827583001207AA
:1001EE000B60060EEE650A70F0C2D5EBC0E0EAC0F9
:1001FE00E0E9C0E0EE12034AD0E0F9D0E0FAD0E038
:10020E00FB1206F2FF60AAEBC0E0EAC0E0E9C0E034
:10021E001200F1D0E02401F9D0E03400FAD0E0FB76
:10022E00E50A0460DCD50AD980877BFF7A0379461C
:10023E00D202809C791080027908C206C20880081A
:10024E00D2D5790A8004790AC2D5E50A047002F57E
:10025E000AE4FAFDFEFF1200AEFC7B082001131229
:10026E0000AEFD7B1030000A1200AEFE1200AEFF93
:10027E007B20EC3382D592D55013C3E43000069F19
:10028E00FFE49EFEE42001039DFDE49CFCE4CBF81C
:10029E00C201EC700CCFCECDCCE824F8F870F38010
:1002AE0017C3EF33FFEE33FEED33FDEC33FCEB33D0
:1002BE00FB994002FB0FD8E9EB300105F8D0E0C402
:1002CE0048B201C0E00AEC4D4E4F78207B0070C260
:1002DE00EAB50A0040BCC0E012034CD0F0D0E020DA
:1002EE000104C4C0E0C4B201C0F01200DAD0F0D5EF
:1002FE00F0EB02012B12096201C853024258019918
:10030E004C01954202464F024E44024E4901AE4305
:08031E00025455023846023872
:100326004502384703F450019D2D01A12E01C42B2F
:1003360001A52301C22003DD2A015D48000001BC9E
:100346003F3F3F00790AA2D5200314300509B910B2
:10035600020404B9080104A2D520060250010420B3
:1003660002689202B509005034C0E07F20300319BC
:100376007F30A20272067205500F1203A3C202C298
:1003860006C205C2087F30800F300503E9C0E012BF
:1003960000F1300503D0E0F9D0E0B509CC300517FF
:1003A6007F30B9100C1200F17F583004077F788037
:1003B60003B908031200F13002057F2D0200F17F18
:1003C600202008F87F2B2006F322920280CF286E89
:1003D600756C6C2900D2011200AE3001F8C20178AA
:1003E6000930D50108F602015D2D50434958120027
:1003F600AE2403B405004001E49003EF931200E23B
:0D040600743A1200E2D203750904020242AA
:10093000BB010689828A83F0225002F722BBFE01A6
:02094000F322A0
:10094200F8E0FBA3A3E0F925F0F0E582158270023E
:070952001583E0FA38F022E2
:09095900EBF0A3EAF0A3E9F0229F
:10096200D083D082F8E4937012740193700DA3A324
:1009720093F8740193F5828883E473740293686038
:06098200EFA3A3A380DF38
:101AC800EFB40A07740D121AD3740A309811A89942
:101AD800B8130CC2983098FDA899C298B811F6307E
:071AE80099FDC299F5992256
:00000001FF
