:03000000023AA918
:0C3AA900787FE4F6D8FD758121023AF028
:104AB400736F66746969632C73636C3D5032352C73
:104AC4007364613D503234004144433D25302E33FC
:064AD400660025357500A7
:10362A00122051124D497FF47E01120003900004CA
:10363A0074FFF0A3744AF0A374B4F07B017A0279A0
:10364A00221208797D037F41121A6B7D037F421291
:10365A001A6B7D037F43121A6B7D037F44121A6B28
:10366A00C2C1D2C2D2C3D2C49000021207D540202E
:10367A0020C57F07124B007B987A6E79B278401288
:10368A0000C69000091207C9E4900005F0A374FF70
:10369A00F0A3744AF0A374CCF07B017A027922E495
:1036AA00FD1229F99000057401F0A374FFF0A374C8
:1036BA004AF0A374D6F0900000E0FF04F0900009ED
:1036CA00E4F0A3EFF07B017A027922E4FD1229F9F2
:0936DA007FF47E01120003808FD1
:074BA500440248000000007B
:10000300EF4E601A900240E0FCA3E0FDED1D70018D
:0E0013001C144C70F7EF1F70011E144E70E6A7
:0100210022BC
:084CB4009000FBE0FEA3E0FF0D
:0A4CBC00EF1FAC0670011E4C70F6ED
:014CC60022CB
:104ADA00900240E0FCA3E0FD12084CE47B83FAF963
:104AEA00F812068D9002441207C9900244E0C313DB
:064AFA00FEA3E013FF2201
:104A6000900243E06599600AE599F0E4900242F013
:104A70008006900242E004F0900242E0C394E974A0
:0D4A80008094804007000075C76000002290
:0B4038009001A2EBF0A3EAF0A3E9F076
:1040430090020D7401F0A37401F0A374A5F0900124
:10405300A2E0F9A3E0FAA3E09000FDC9F0A3EAF01F
:10406300A3E9F090020DE0F9A3E0FAA3E0900100C8
:10407300C9F0A3EAF0A3E9F07B017A0179CD1244F8
:104083003890020DE4F0A3F0A3F07B017A0179CD1F
:054093007F010247DE81
:103CCF00EF14600D14602614603C146054240470CB
:103CDF006F90FE027480F090FE02E030E0F990FEEB
:103CEF0000E054FCF090FE03E4F0A3F02290FE04F9
:103CFF007480F090FE04E030E0F990FE00E04403A1
:103D0F00F090FE03803490FE037480F090FE03E089
:103D1F0030E0F990FE00E054FC4401F090FE048086
:103D2F001990FE0374C0F090FE03E030E0F990FEAE
:103D3F0000E054FC4402F090FE04E4F090FE02F028
:013D4F002251
:0C4D0400EF90FE01700304F022EFF0229B
:1020510043BA80E59DAF9F603AE4FCFDFEC004A950
:1020610005AA06AB0778FAE6FFD000C3EF9BFFEEA7
:102071009AFEED99FDEC98FC7BE07A2879017800D5
:1020810012068DC3E49FFF74519EFE74259DFD745D
:10209100028037E4FCFDFEC004A905AA06AB07785F
:1020A100FBE6FFD000C3EF9BFFEE9AFEED99FDEC3E
:1020B10098FCE47B807ABBF9F812068DC3E49FFF9C
:1020C10074369EFE746E9DFD74019CFC900001129D
:1020D10007C9900001E0FCA3E0FDA3E0FEA3E0FF3F
:1020E100C00790FE01E0FBE4FAF9F8D007120718E7
:1020F1009000011207C97FC07EF67D577C009000D9
:1021010001E0F8A3E0F9A3E0FAA3E0FBC31207B8EA
:10211100500D9002481207D5005460000222BE7F84
:10212100C07E267D827C00900001E0F8A3E0F9A347
:10213100E0FAA3E0FBC31207B8500D900248120762
:10214100D5005B8D800222BE7F807EED7DAF7C005D
:10215100900001E0F8A3E0F9A3E0FAA3E0FBC312C9
:1021610007B8500D9002481207D500A8C0000222FE
:10217100BE7F807E2D7DE87C00900001E0F8A3E029
:10218100F9A3E0FAA3E0FBC31207B8500D9002488F
:102191001207D500B71B000222BE7F807E367D2547
:1021A1007C01900001E0F8A3E0F9A3E0FAA3E0FBD1
:1021B100C31207B8500D9002481207D5011940000B
:1021C1000222BE7F807E567D417C01900001E0F8B5
:1021D100A3E0F9A3E0FAA3E0FBC31207B8500D9006
:1021E10002481207D501312D000222BE7F007EDB9D
:1021F1007D5F7C01900001E0F8A3E0F9A3E0FAA380
:10220100E0FBC31207B8500D9002481207D50151E7
:1022110080000222BE7F607E197D857C01900001D5
:10222100E0F8A3E0F9A3E0FAA3E0FBC31207B8507A
:102231000D9002481207D5016E36000222BE7F20A2
:102241007EE07DB27C01900001E0F8A3E0F9A3E01B
:10225100FAA3E0FBC31207B8500C9002481207D54D
:10226100019BFCC080577FE07EA67DE07C01900051
:1022710001E0F8A3E0F9A3E0FAA3E0FBC31207B879
:10228100500C9002481207D501C9C380802F7F608E
:102291007E2B7DFF7C01900001E0F8A3E0F9A3E033
:1022A100FAA3E0FBC31207B890024850091207D500
:1022B10001FA400080071207D502160EC0E47B1018
:1022C1007A27F9F8900248E0FCA3E0FDA3E0FEA321
:1022D100E0FF120718900240EEF0A3EFF0E4900245
:0F22E10043F0900242F0C20A12451200D2AF0041
:0122F00022CB
:0B34AA0090008BEBF0A3EAF0A3E9F028
:1034B5007F647E00124ADA9000FBEEF0A3EFF090F5
:1034C50000F87401F0A37400F0A3748EF090008BE3
:1034D500E0F9A3E0FAA3E09000FDC9F0A3EAF0A3A8
:1034E500E9F09000F8E0F9A3E0FAA3E0900100C943
:1034F500F0A3EAF0A3E9F07B017A0079B812443829
:103505009000B6EEF0A3EFF09000F8E4F0A3F0A37E
:10351500F07FF47E01120003E4FBFAD39000B7E0DC
:103525009B9000B6E09A40E9D2B1C2B1124CB47496
:10353500B82BF58274003AF583E0F9E4FDEDC39408
:1035450008748094805014E930E004D2B18002C23E
:10355500B1E9C313F9124CB40D80E2D2B1124CB4E7
:0A356500124CB40BBB00010A80B148
:0B383800900015EBF0A3EAF0A3E9F00C
:10384300E4FFFE90001BF0A3F0A3F0A3F09000159B
:10385300E0FBA3E0FAA3E0F91205D5607790001E20
:10386300E004F0700690001DE004F0900018E0FB07
:10387300A3E0FAA3E0F98F828E831205EEFD900098
:1038830015E0FBA3E0FAA3E0F91205D5B505070F90
:10389300BF00010E8012E4FEFF90001DE0FDA3E0D7
:1038A30090001BCDF0A3EDF0900016E475F001122B
:1038B3000661900018E0FBA3E0FAA3E0F98F828E83
:1038C300831205EEFD3395E04D708290001BE0FE00
:0838D300A3E0FF227EFF7FFF4E
:0138DB0022CA
:10314600E4900015F0900017F0900016F09000162D
:10315600E0C3940A748094804003023228E07E0023
:103166002DF582EE3CF5831205EEFF3395E0FEC3A6
:10317600EF9430EE648094804052D3EF9437EE643F
:103186008094805047900017E004F0E064017019C5
:10319600900016E07E002DF582EE3CF5831205EEDA
:1031A60024D0C454F0900015F0900017E06402702B
:1031B6001B900016E07E002DF582EE3CF58312058D
:1031C600EE24D0FF900015E04FFFF022900016E0AD
:1031D6007E002DF582EE3CF5831205EEFF3395E079
:1031E600FEC3EF9438EE648094804011D3EF943997
:1031F600EE648094805006900017E004F09000166C
:10320600E07E002DF582EE3CF5831205EEFF642C80
:103216006010EF3395E04F6009900016E004F0026D
:073226003153900015E0FF99
:01322D00227E
:08331500900015ECF0A3EDF0AF
:10331D00E4A3F0A3F0A3F0900019E0FFC39414749C
:10332D0080948040030233DB900016E02FFF900065
:10333D0015E034008F82F5831205EEFF3395E0FE24
:10334D00C3EF9430EE648094804051D3EF9439EE06
:10335D00648094805046900017E0FEA3E0FF7C004F
:10336D007D0A12064F900017EEF0A3EFF0A3E0FFD9
:10337D00900016E02FFF900015E034008F82F5834A
:10338D001205EEFF3395E0FEEF24D0FFEE34FFFE85
:10339D00900018E02FF0900017E03EF0900019E03B
:1033AD00FF900016E02FFF900015E034008F82F59E
:1033BD00831205EEFF642C6015EF642E6010EF3361
:1033CD0095E04F6009900019E004F002332490005D
:0633DD0017E0FEA3E0FF73
:0133E30022C7
:102B2E00900210EBF0A3EAF0A3E9F0A3ECF0A3ED12
:012B3E00F0A6
:102B3F00E490021CF0A3F0A3F0A3F0A3F0A3F09095
:102B4F00021AF0A3F0900213E0FEA3E0FF90021A26
:102B5F00E0FCA3E0FDC39FEC9E4003022BFE90021E
:102B6F0015E0FBA3E0FAA3E0F990021CE0FEA3E05E
:102B7F00F5828E831205EEFF900210E0FBA3E0FAC0
:102B8F00A3E0F98D828C831205EEB5073390021DF9
:102B9F00E004F0700690021CE004F0900218E0FED2
:102BAF00A3E0FF90021CE0B50631A3E0B5072C901F
:102BBF00021AE0FFA3E0900220CFF0A3EFF0802FE6
:102BCF00E490021CF0A3F090021BE02401FE90029F
:102BDF001AE0340090021EF0A3CEF090021BE00426
:102BEF00F06003022B5490021AE004F0022B549071
:102BFF000220E0FEA3E0FF90021EE0FCA3E0FDD365
:102C0F009FEC9E504490021AECF0A3EDF09002203E
:102C1F00E0FEA3E0FF90021AE0FCA3E0FDC39FECEF
:102C2F009E5023900210E0FBA3E0FAA3E0F98D82FF
:102C3F008C83E412062D90021BE004F070CF9002FB
:0B2C4F001AE004F080C77F01227F0024
:012C5A002257
:102857006770696F5F757070756C6C283C442530C4
:1028670032583E2C2564293BB2BBB4E6D4DAB8C350
:10287700494F0D0A006770696F5F757070756C6CF2
:10288700283C44253032583E2C31293BB2BBB4E6B4
:10289700D4DAB8C3494F0D0A006770696F5F757066
:1028A70070756C6C283C44253032583E2C30293BDF
:1028B700B2BBB4E6D4DAB8C3494F0D0A00677069F2
:1028C7006F5F6D6F6465283C44253032583E2C2578
:1028D70064293BB2BBB4E6D4DAB8C3494F0D0A004A
:1028E7006770696F5F6D6F64652844253032582CB7
:1028F7003C25643E293BB2BBB4E6D4DAB8C3C4A3D3
:10290700CABD0D0A006770696F5F777269746528C1
:102917003C25643E2C2564293BB2BBB4E6D4DAB827
:10292700C350BFDA0D0A006770696F5F7265616433
:10293700283C5025643E293BB2BBB4E6D4DAB8C381
:1029470050BFDA0D0A006770696F5F6F7574283CB6
:1029570044253032583E2C2564293BB2BBB4E6D41B
:10296700DAB8C3494F0D0A006770696F5F6F7574F6
:10297700283C44253032583E2C31293BB2BBB4E6C3
:10298700D4DAB8C3494F0D0A006770696F5F6F7576
:1029970074283C44253032583E2C30293BB2BBB416
:1029A700E6D4DAB8C3494F0D0A006770696F5F69EB
:1029B7006E283C44253032583E293BB2BBB4E6D49E
:1029C700DAB8C3494F0D0A006770696F5F746F67A4
:1029D700676C65283C44253032583E293BB2BBB46E
:1029E700E6D4DAB8C3494F0D0A00010204081020E3
:0229F70040801E
:052C5B00900022EFF0E3
:102C600064887003022D62E0FF54F0F50DEF540FFD
:102C7000FF9029F193F50ED3EF9407748094804070
:102C8000217BFF7A287957900022E0FF90008EE4A4
:102C9000F0A3EFF0A200E4FF33A3CFF0A3EFF01214
:102CA00034AA300055E50D24F0602124F060222480
:102CB000F0602324F0602424F0602524F0602624B2
:102CC000F060272470702B90FE10802190FE118000
:102CD0001C90FE12801790FE13801290FE14800D3F
:102CE00090FE15800890FE16800390FE17E0450EBA
:102CF000F0227BFF7A28797C8058E50D24F0602152
:102D000024F0602224F0602324F0602424F0602565
:102D100024F0602624F060272470703090FE10802C
:102D20002190FE11801C90FE12801790FE138012DD
:102D300090FE14800D90FE15800890FE1680039082
:102D4000FE17E0FFE50EF4FEEF5EF0227BFF7A282F
:102D500079A0900022E0FF90008EE4F0A3EFF01243
:022D600034AA93
:012D6200224E
:0A1A6B00900023EDF0900022EFF050
:101A750064887003021D7EE0FF54F0F50DEF540FEE
:101A8500FF9029F193F50ED3EF940774809480406D
:101A9500237BFF7A2879C4900022E0FF90008EE432
:101AA500F0A3EFF0900023E0FF900090E4F0A3EFA7
:101AB500F01234AAE50D24F0602124F0602224F010
:101AC500602324F0602424F0602524F0602624F0AF
:101AD500602724707028E4F50D8046750D0180415E
:101AE500750D02803C750D038037750D04803275C8
:101AF5000D05802D750D068028750D0780237BFF4C
:101B05007A2879C4900022E0FF90008EE4F0A3EFDC
:101B1500F0900023E0FF900090E4F0A3EFF0123482
:101B2500AA900023E0FFD3940374809480401C7B2B
:101B3500FF7A2879E7900022E0FD90008EE4F0A37B
:101B4500EDF0A3E4F0A3EFF01234AAE50D70409098
:101B55000023E0FF7E007007E50EF452935294EFE8
:101B650064014E7009E50E4293E50EF4529490001F
:101B750023E064027008E50E4293E50E429490005E
:101B850023E064037009E50EF45293E50E4294E5F3
:101B95000D64017040900023E0FF7E007007E50EA4
:101BA500F452915292EF64014E7009E50E4291E5AF
:101BB5000EF45292900023E064027008E50E429103
:101BC500E50E4292900023E064037009E50EF4529D
:101BD50091E50E4292E50D64027040900023E0FF0E
:101BE5007E007007E50EF452955296EF64014E7033
:101BF50009E50E4295E50EF45296900023E0640245
:101C05007008E50E4295E50E4296900023E06403C8
:101C15007009E50EF45295E50E4296E50D640370E4
:101C250040900023E0FF7E007007E50EF452B152AC
:101C3500B2EF64014E7009E50E42B1E50EF452B201
:101C4500900023E064027008E50E42B1E50E42B251
:101C5500900023E064037009E50EF452B1E50E42ED
:101C6500B2E50D64047040900023E0FF7E0070072C
:101C7500E50EF452B352B4EF64014E7009E50E421D
:101C8500B3E50EF452B4900023E064027008E50E4B
:101C950042B3E50E42B4900023E064037009E50EFB
:101CA500F452B3E50E42B4E50D640570409000238F
:101CB500E0FF7E007007E50EF452C952CAEF6401D9
:101CC5004E7009E50E42C9E50EF452CA900023E0B4
:101CD50064027008E50E42C9E50E42CA900023E091
:101CE50064037009E50EF452C9E50E42CAE50D64B8
:101CF500067040900023E0FF7E007007E50EF45269
:101D0500CB52CCEF64014E7009E50E42CBE50EF4E3
:101D150052CC900023E064027008E50E42CBE50E3C
:101D250042CC900023E064037009E50EF452CBE544
:101D35000E42CCE50D64077040900023E0FF7E0065
:101D45007007E50EF452E152E2EF64014E7009E5C9
:101D55000E42E1E50EF452E2900023E064027008C1
:101D6500E50E42E1E50E42E2900023E064037009CE
:091D7500E50EF452E1E50E42E234
:011D7E002242
:1040F500EFB40900503A904102F828287302411D97
:1041050002412002412302412602412902412C029B
:10411500412F02413202414E8D80228D90228DA089
:10412500228DB0228DC0228DC8228DE8228DF822E5
:104135007BFF7A29790C90008EE4F0A3EFF0AF05B0
:0A414500A3E4F0A3EFF01234AA2265
:1041A700EFB40900503D9041B4F82828730241CF7D
:1041B7000241D20241D50241D80241DB0241DE026F
:1041C70041E10241E40241E7AF8022AF9022AFA074
:1041D70022AFB022AFC022AFC822AFE822AFF82289
:1041E7007FFF227BFF7A29792E90008EE4F0A3EFE0
:0741F700F01234AA7FFF2241
:052E6A0090008AEFF06A
:102E6F0064887003022F6EE0FF54F0F50DEF540FDE
:102E7F00FF9029F193F50ED3EF940774809480405F
:102E8F00217BFF7A29794D90008AE0FF90008EE434
:102E9F00F0A3EFF0A200E4FF33A3CFF0A3EFF01203
:102EAF0034AA300052E50D24F0602124F060222472
:102EBF00F0602324F0602424F0602524F0602624A1
:102ECF00F0602724707028E50E428022E50E4290B4
:102EDF0022E50E42A022E50E42B022E50E42C022AC
:102EEF00E50E42C822E50E42E822E50E42F8227BAB
:102EFF00FF7A29796F8058E50D24F0602224F06065
:102F0F002424F0602624F0602824F0602A24F06046
:102F1F002C24F0602E24707030E50EF4528022E5E0
:102F2F000EF4529022E50EF452A022E50EF452B0A8
:102F3F0022E50EF452C022E50EF452C822E50EF43B
:102F4F0052E822E50EF452F8227BFF7A297990900D
:0F2F5F00008AE0FF90008EE4F0A3EFF01234AA96
:012F6E002240
:05379000900296EFF02D
:1037950064887002C322900296E0FF54F0F50DEFA5
:1037A500540FFF9029F193F50ED3EF94077480948D
:1037B5008040167BFF7A2979B1900296E0FF900050
:1037C5008EE4F0A3EFF01234AAE50D24F060212475
:1037D500F0602224F0602324F0602424F060252486
:1037E500F0602624F060272470702885800F8039CA
:1037F50085900F803485A00F802F85B00F802A8596
:10380500C00F802585C80F802085E80F801B85F8AF
:103815000F80167BFF7A2979B1900296E0FF900020
:103825008EE4F0A3EFF01234AAE50F550E6002D333
:0238350022C3AC
:01383700226E
:05002600900297EFF0CD
:10002B00648870030200C2E0FF54F0F50DEF540F2B
:10003B00FF9029F193F50ED3EF94077480948040D1
:10004B00167BFF7A2979CF900297E0FF90008EE420
:10005B00F0A3EFF01234AAE50D24F0602124F06038
:10006B002224F0602324F0602424F0602524F06027
:10007B002624F0602724707028E50E628022E50E9E
:10008B00629022E50E62A022E50E62B022E50E62BE
:10009B00C022E50E62C822E50E62E822E50E62F888
:1000AB00227BFF7A2979CF900297E0FF90008EE4B4
:0700BB00F0A3EFF01234AADC
:0100C200221B
:1045E700EFB40800503E9045F4F828287302460CB3
:1045F70002461002461402461802461C02462002D2
:104607004624024628ED628022ED629022ED62A0E8
:1046170022ED62B022ED62C022ED62C822ED62E8AF
:0546270022ED62F82203
:10397A00300048EFB408004003023A1190398DF83C
:10398A002828730239A50239A90239AD0239B102D0
:10399A0039B50239B90239BD0239C1ED428022ED89
:1039AA00429022ED42A022ED42B022ED42C022ED29
:1039BA0042C822ED42E822ED42F822EFB408005054
:1039CA00469039D2F82828730239EA0239EF0239C7
:1039DA00F40239F90239FE023A03023A08023A0DB0
:1039EA00EDF4528022EDF4529022EDF452A022ED31
:1039FA00F452B022EDF452C022EDF452C822EDF492
:083A0A0052E822EDF452F8220B
:1042A500EFB4090050449042B2F82828730242CD79
:1042B5000242D10242D50242D90242DD0242E10266
:1042C50042E50242E90242EDAE80801EAE90801AC0
:1042D500AEA08016AEB08012AEC0800EAEC8800A09
:1042E500AEE88006AEF88002D322EE5D6002D322EE
:0142F500C305
:0142F60022A5
:084BAC0041026D0041026C00A2
:1042F7009000021205EEFF90026CE06F604212051B
:10430700D5FEC4540F90026AF0EE540FFEF8740104
:10431700088002C333D8FC90026BF09000011205AD
:10432700EEFEC4540F900268F0EE540FFEF87401CD
:10433700088002C333D8FC900269F090026CEFF05A
:014347002253
:103B350090027AEBF0A3EAF0A3E9F0A3EDF090028E
:103B45007AE0FBA3E0FAA3E0F9ED12061B90027EF2
:103B5500E0FF90027AE0FBA3E0FAA3E0F990000110
:103B6500EF12062D90027DE0FF7D02121A6B900286
:103B75007EE0FF7D02121A6B90027DE0FFD20012FB
:103B85002C5B90027EE0FFD200122C5B90027DE060
:103B9500FFD200122E6A90027EE0FFD200122E6A3A
:103BA50090026DE004FFF090027AE0FBA3E0FAA337
:0C3BB500E0F9900002EF12062D0242F72A
:1046700090026CE06F6039EDC4540F90026AF0ED67
:10468000540FFEF87401088002C333D8FC90026B0B
:10469000F0EBC4540F900268F0EB540FFEF8740175
:1046A000088002C333D8FC900269F090026CEFF0EE
:0146B00022E7
:0A41FE0090001BEDF090001AEFF0A6
:104208007D02121A6B90001BE0FF7D02121A6B9060
:10421800001AE0FFD200122C5B90001BE0FFD200D6
:10422800122C5B90001AE0FFD200122E6A90001B3D
:10423800E0FFD200122E6A90026DE004F0FCFF90BD
:0A424800001AE0FDA3E0FB0246703F
:10425200900268E0FFA3E0FDD20012397A90026A70
:10426200E0FFA3E0FDD20012397A900268E0FFA3DA
:10427200E0FD1242A540037FFF22900268E0FFA307
:10428200E0FD1245E7900268E0FFA3E0FD1242A5BF
:1042920050037FFF2290026AE0FFA3E0FD1245E790
:0342A2007F002278
:1049A200900268E0FFA3E0FDC20012397A90026A29
:1049B200E0FFA3E0FDC20012397A90026AE0FFA391
:1049C200E0FD1245E7900268E0FFA3E0FD0245E743
:1049D20090026AE0FFA3E0FDC20012397A900268F9
:1049E200E0FFA3E0FDC20012397A90026AE0FFA361
:1049F200E0FD1245E790026AE0FFA3E0FD0245E711
:104A020090026AE0FFA3E0FDC20012397A900268C8
:104A1200E0FFA3E0FDD20012397A90026AE0FFA320
:104A2200E0FD1245E790026AE0FFA3E0FD0245E7E0
:1045A10090026AE0FFA3E0FDC20012397A9002682E
:1045B100E0FFA3E0FDD20012397A90026AE0FFA386
:1045C100E0FD1245E7900268E0FFA3E0FD1242A57D
:1045D10090026AE0FFA3E0FD50061245E77FFF224B
:0645E1001245E77F0022F5
:053C490090008FEFF078
:103C4E00900091F090026830E709E0FFA3E0FDD20A
:103C5E00008007E0FFA3E0FDC20012397A90026AED
:103C6E00E0FFA3E0FDC20012397AE4900090F090DC
:103C7E000090E0C3940874809480504490008FE0CC
:103C8E00FF900091E06F30E70B900268E0FFA3E039
:103C9E00FD1245E790026AE0FFA3E0FD1245E790B2
:103CAE00008FE0900091F025E090008FF090026A76
:103CBE00E0FFA3E0FD1245E7900090E004F080AF36
:013CCE0022D3
:103F0A00E4900295F0900268E0FFA3E0FDD200126F
:103F1A00397AE4900294F0900294E0C39408748091
:103F2A009480503BA3E025E0F090026AE0FFA3E012
:103F3A00FDD20012397A900268E0FFA3E0FD124236
:103F4A00A55007900295E04401F090026AE0FFA3B1
:103F5A00E0FDC20012397A900294E004F080B89031
:043F6A000295E0FFDD
:013F6E002230
:0B3E3A0090027FEBF0A3EAF0A3E9F098
:103E4500E4900283F0900282F0900282E0C39480B5
:103E5500748094805043124252900282E025E0FF24
:103E6500123C491245A1EF7025900282E025E0FF42
:103E750090027FE0FBA3E0FAA3E0F9900283E0F56E
:103E850082758300EF12062D900283E004F012493B
:0E3E9500A2900282E004F080B0900283E0FF71
:013EA30022FC
:1046F2006969635F7365745F70696E283C25643E07
:10470200293BB2BBB4E6D4DAB8C3D7E90D0A0069D3
:1047120069635F72657365745F70696E283C2564B6
:104722003E293BB2BBB4E6D4DAB8C3D7E90D0A00DE
:0B3D500090FE80F090FE82E4F07F10F7
:103D5B0090001AEFF024F0601724F0602224F0603A
:103D6B002D2430703843913043923090FE118009EE
:103D7B0043953043963090FE12E04430F08034434C
:103D8B00E1C043E2C090FE17E044C0F0802543B190
:103D9B000C43B20C90FE13E0440CF080167BFF7AC0
:103DAB004679F290001AE0FF90008EE4F0A3EFF05A
:103DBB001234AAE5BA54CFFF90001AE04FF5BA229D
:104BC100900298E06F6014EFF090FE80E0547FF067
:0C4BD100E5BA54CF4FF5BAE04480F02262
:10414F00EF24F0601724F0602124F0602B243070EE
:10415F00355391CF5392CF90FE1180095395CF5382
:10416F0096CF90FE12E054CFF02253E13F53E23F3F
:10417F0090FE17E0543FF02253B1F353B2F390FE89
:10418F0013E054F3F0227BFF7A47791190008EE40D
:08419F00F0A3EFF01234AA2294
:10448200E47B02FAF9F8900248E0FCA3E0FDA3E025
:10449200FEA3E0FF1207187BA07A8679017800124A
:1044A2000718EF24FCFFEE34FFFEED34FFFDEC3481
:1044B200FFFCE47B02FAF9F8120718EF44C0123D40
:0844C200509002987410F022E2
:1044CA00E47B02FAF9F8900248E0FCA3E0FDA3E0DD
:1044DA00FEA3E0FF1207187BA07A86790178001202
:1044EA000718EF24FCFFEE34FFFEED34FFFDEC3439
:1044FA00FFFCE47B02FAF9F8120718EF4480123D38
:08450A00509002987410F02299
:0300C300024BF8F5
:104BF800C0E0C083C08290FE82E030E606E054BF89
:0A4C0800F0C20BD082D083D0E0325E
:104C8C007FC8D20B90FE817481F0300B06AE071FEB
:034C9C00EE70F7C0
:014C9F0022F2
:104CA0007FC8D20B90FE817486F0300B06AE071FD2
:034CB000EE70F7AC
:014CB30022DE
:104C2C007EC890FE86EFF0D20B90FE817482F0303D
:084C3C000B06AF061EEF70F736
:014C4400224D
:104C45007FC890FE82E4F0D20B90FE817485F0302F
:084C55000B06AE071FEE70F71D
:014C5D002234
:104C12007FC890FE827401F0D20B90FE817485F001
:094C2200300B06AE071FEE70F71F
:014C2B002266
:104C5E007FC8D20B90FE817484F0300B06AE071F16
:084C6E00EE70F790FE87E0FFF5
:014C7600221B
:104B69007FC8D20B90FE817483F0300B06AE071F0D
:0D4B7900EE70F790FE82E05402C31324FF9B
:014B8600220C
:0C4BB400410256004102550041024C0035
:1038DC009000051205EEFF900255E06F700302395F
:1038EC00791205D5FEC4540F900251F0EE540FFE20
:1038FC00F87401088002C333D8FC900252F0900097
:10390C00011205EEFEC4540F90024EF0EE540FFE61
:10391C00F87401088002C333D8FC900250F0900078
:10392C00021205EEFEC4540F90024DF0EE540FFE41
:10393C00F87401088002C333D8FC90024FF0900059
:10394C00031205EEFEC4540F900253F0EE540FFE1A
:10395C00F87401088002C333D8FC900254F0900034
:0E396C00041205EE900256F0900255EFF02284
:10305C00900260EBF0A3EAF0A3E9F0A3EDF090028C
:10306C0060E0FBA3E0FAA3E0F9ED12061B9002640A
:10307C00E0FF900260E0FBA3E0FAA3E0F99000010E
:10308C00EF12062D900265E090000212062D9002C0
:10309C0066E090000312062D900267E09000041287
:1030AC00062D900263E0FF7D03121A6B900267E01D
:1030BC0090026330E106E0FFD2008004E0FFC20022
:1030CC00122E6A900267E030E714900264E0FF7DF4
:1030DC0003121A6B900264E0FFD200122E6A900267
:1030EC0067E030E61E900265E0FF7D02121A6B90DD
:1030FC000265E0FFD200122C5B900265E0FFD2006B
:10310C00122E6A900267E030E514900266E0FF7DB3
:10311C0003121A6B900266E0FFD200122E6A900224
:10312C004CE004FFF0900260E0FBA3E0FAA3E0F9AE
:0A313C00900005EF12062D0238DCAA
:103BC100900255E06F7003023C48EDC4540F90021F
:103BD10051F0ED540FFEF87401088002C333D8FC94
:103BE100900252F0EBC4540F90024EF0EB540FFED2
:103BF100F87401088002C333D8FC900250F09000A1
:103C010026E0FEC4540F90024DF0EE540FFEF874FE
:103C110001088002C333D8FC90024FF0900027E0E6
:103C2100FEC4540F900253F0EE540FFEF8740108D5
:103C31008002C333D8FC900254F0900028E0900237
:083C410056F0900255EFF0224D
:0D36E30090001EEDF0A3EBF090001DEFF045
:1036F0007D03121A6B900021E090001D30E106E07E
:10370000FFD2008004E0FFC200122E6A900021E088
:1037100030E71490001EE0FF7D03121A6B90001E2C
:10372000E0FFD200122E6A900021E030E61E9000E9
:103730001FE0FF7D02121A6B90001FE0FFD2001203
:103740002C5B90001FE0FFD200122E6A900021E057
:1037500030E514900020E0FF7D03121A6B900020EA
:10376000E0FFD200122E6A90024CE004F0FCFF90C1
:10377000001DE0FDA3E0FBA3E0900026F0900020F8
:10378000E0900027F0900021E0900028F0023BC17B
:0522F10090008FEFF0EA
:1022F600E4900092F0900256E090025130E109E03D
:10230600FFA3E0FDD2008007E0FFA3E0FDC20012BC
:10231600397A900256E054306430700D900253E0E2
:10232600FFA3E0FDC20012397A900256E020E203D4
:102336000223F29000907480F0E4A3F0900091E004
:10234600C394087480948040030224AB900090E00C
:10235600FF90008FE05F90024E600BE0FF9002500E
:10236600E0FDD2008009E0FF900250E0FDC20012BD
:10237600397A900251E0FFA3E0FD1245E79002563C
:10238600E030E6235401701F90024DE0FF90024FAB
:10239600E0FD1242A55010900092E0FF900090E000
:1023A600FEEF4E900092F0900251E0FFA3E0FD1286
:1023B60045E7900256E030E62554016401701F900F
:1023C600024DE0FF90024FE0FD1242A55010900032
:1023D60092E0FF900090E0FEEF4E900092F09000A9
:1023E60090E0C313F0A3E004F0022342900090743F
:1023F60001F0E4A3F0900091E0C394087480948007
:1024060040030224AB900090E0FF90008FE05F90C5
:10241600024E600BE0FF900250E0FDD2008009E022
:10242600FF900250E0FDC20012397A900251E0FF9F
:10243600A3E0FD1245E7900256E030E62354017012
:102446001F90024DE0FF90024FE0FD1242A5501092
:10245600900092E0FF900090E0FEEF4E900092F028
:10246600900251E0FFA3E0FD1245E7900256E030EE
:10247600E62554016401701F90024DE0FF90024F63
:10248600E0FD1242A55010900092E0FF900090E00F
:10249600FEEF4E900092F0900090E025E0F0A3E071
:1024A60004F00223FB900256E054306430700D9025
:1024B6000253E0FFA3E0FDD20012397A900092E0C9
:0124C600FF16
:0124C70022F2
:10481500EF24FC601424FC601824FC601C240C703C
:104825001E5391C35392C380165395C35396C380A9
:104835000E53E1C353E2C3800653B1C353B2C3530E
:06484500A2F3EF42A222E3
:0C4D1000E4FF12481575CE5075CDC0228E
:0D4CF7008FCFE5CD30E7FB75CDC0AFCF22EC
:0A4D490075DE207D017F17021A6B52
:104BDD00EF540F44C0F5BC0000E5BC542060FA53FF
:0B4BED00BCDFAFBDEFFEADBEEDFF2250
:104B0000124BDDAD07AC06E4120271900002E0F832
:104B1000A3E0F9A3E0FAA3E0FB1200C6E4FBFA79F4
:064B20008078450201CF80
:034D5300D2AD22BC
:034D5600C2AD22C9
:1045120075985053873F538EDE53A23FE47B04FAD3
:10452200F9F8900248E0FCA3E0FDA3E0FEA3E0FF5F
:10453200120718E47B807A25F9F8120718C3E49F62
:10454200FFE49E438E4053890F8F8BF58DC2ABC221
:074552008FD28EC20DD2AC26
:01455900223F
:0B4D2800EF14700653A23FED42A222E0
:0546B100900284EFF00F
:1046B600E47B04FAF9F8900248E0FCA3E0FDA3E0ED
:1046C600FEA3E0FF120718900285E0F8A3E0F9A325
:1046D600E0FAA3E0FB120718C3E49FFFE49EFE90F6
:0B46E6000284E01470058F8BEEF58D50
:0146F10022A6
:0E4CE900EF147009200DFDD20DAF058F99223A
:104CC700EF14700DA20C929B200DFDD20DAF058F36
:024CD700992220
:1047DE0090028EEBF0A3EAF0A3E9F0AE0790028E02
:1047EE00E0FBA3E0FAA3E0F91205D56019AF06903D
:1047FE00028EA3E475F001120677A9F0FA1205D520
:07480E00FD124CE980D722E6
:0E3EA400900133EFF0A3EBF0A3EAF0A3E9F0F6
:103EB20090019F7401F0A37401F0A37437F0900194
:103EC20034E0F9A3E0FAA3E09000FDC9F0A3EAF020
:103ED200A3E9F090019FE0F9A3E0FAA3E0900100CA
:103EE200C9F0A3EAF0A3E9F07B017A01795F1244F9
:103EF2003890019FE4F0A3F0A3F0900133E0FF7B40
:083F0200017A01795F0247DE3C
:0300230002455A39
:10455A00C0E0C0F0C083C082C0D075D000C000C027
:10456A0001C002C003C004C005C006C007309805D8
:10457A00C298124A60309904C299C20DD007D00677
:10458A00D005D004D003D002D001D000D0D0D08240
:07459A00D083D0F0D0E03225
:1033E40074696D65725F7374617274283C25643E00
:1033F400293BB4EDCEF3B5C449440D0A0074696D9C
:1034040065725F73746F70283C25643E293BB4ED8C
:10341400CEF3B5C449440D0A00C7EBCAE4C8EBB403
:10342400F3D3DA3075732CD0A1D3DA25757573B55F
:10343400C4CAB1BCE40D0A0074696D65725F73653A
:10344400745F74696D65725F6D6F6465283C256493
:103454003E2C2575293BB4EDCEF3B5C449440D0A81
:103464000074696D65725F7365745F76616C756510
:10347400283C25643E2C2575293BB4EDCEF3B5C418
:1034840049440D0A0074696D65725F7365745F76F3
:10349400616C7565283C25643E293BB4EDCEF3B5DB
:0634A400C449440D0A00BA
:104B4800EF24FC700A53D1EF43D11043D180227B6C
:104B5800FF7A3379E490008EE4F0A3EFF01234AAE0
:014B6800222A
:104B8700EF24FC700753D1EF53D17F227BFF7A3498
:0E4B9700790190008EE4F0A3EFF01234AA2210
:0F4CD90053D10F43D1107FF07ED88FD3EEF5D299
:014CE80022A9
:0B24C800900257EFF0A3ECF0A3EDF042
:1024D300900248E0FCA3E0FDA3E0FEA3E0FFE412CA
:1024E300026C7B007A24797478491201CFA804A97D
:1024F30005AA06AB077F007EFF7D7F7C471201CFD5
:102503001202AA90025CEEF0A3EFF07F007E1B7D27
:10251300B77C00900248E0F8A3E0F9A3E0FAA3E057
:10252300FBD31207B8500A74FF90025EF0A3F08049
:102533003B900248E0FCA3E0FDA3E0FEA3E0FFE440
:1025430012026C7B007A1B7937784B1201CFA804F7
:10255300A905AA06AB077F007EFF7D7F7C4712019A
:10256300CF1202AA90025EEEF0A3EFF090025CE0BD
:10257300FEA3E0FF900258E0FCA3E0FDD39FEC9E96
:102583005010ED9400EC94004008A3E4F0A304F091
:10259300804090025EE0FEA3E0FFD3ED9FEC9E50EF
:1025A30019900259E09400900258E09400400B9077
:1025B300025AE4F0A3740CF080187BFF7A34791D7F
:1025C30090025EE0FFA3E090008ECFF0A3EFF01245
:1025D30034AA900257E024FC600302267890025A42
:1025E300E07004A3E06401701743D120900248E037
:1025F300FCA3E0FDA3E0FEA3E0FFE412026C802B4A
:1026030090025AE07004A3E0640C705953D1DF9038
:102613000248E0FCA3E0FDA3E0FEA3E0FFE4120216
:102623006CE4FBFA794078411201CF7B007A24797C
:102633007478491201CFC004C005C006C0079002D8
:1026430058E0FCA3E0FDE4120271D003D002D001F4
:10265300D0001200C61202AAC3E49FFFE49E9002B8
:102663005AF0A3EFF090025AE0FEA3E0F5D3EEF5A3
:10267300D253D1BF227BFF7A34793C900257E0FFDB
:1026830090008EE4F0A3EFF0900258E0FFA3E090F7
:0A2693000090CFF0A3EFF01234AA7C
:01269D00221A
:104A320090029AEFF024FC70068DD3ECF5D2227B23
:104A4200FF7A34796590029AE0FF90008EE4F0A339
:0E4A5200EFF0AF05A3ECF0A3EFF01234AA22B0
:05462C00900291EFF087
:10463100E4A3F0A3F0EF24FC7016AFD4EFFEADD5E8
:104641007C00E42DFFEC3E900292F0A3EFF0801687
:104651007BFF7A347989900291E0FF90008EE4F03B
:0E466100A3EFF01234AA900292E0FEA3E0FF55
:01466F002228
:10137D007663633D007664643D00676E643D00777F
:10138D003D00683D00783D00793D006D6F64653D21
:10139D000073636C3D0064303D007364613D006417
:1013AD00313D0064633D007273743D007265733DA1
:1013BD000063733D00736F66740069696300737039
:1013CD006900003E4141413E0000FFFEFCF8F0E0A7
:1013DD00C0800000027F00000000FFFEFCF8F0E07E
:1013ED00C0800062514946000000FFFEFCF8F0E0AD
:1013FD00C0800000414949360000FFFEFCF8F0E0D6
:10140D00C08000302C227F200000FFFEFCF8F0E0B1
:10141D00C08000004F4949310000FFFEFCF8F0E0AC
:10142D00C080003C464545390000FFFEFCF8F0E069
:10143D00C0800001611D03000000FFFEFCF8F0E01C
:10144D00C0800036494949360000FFFEFCF8F0E047
:10145D00C080004E5151711E0000FFFEFCF8F0E0FF
:10146D00C08000601C1317384000FFFEFCF8F0E050
:10147D00C08000007F4949370000FFFEFCF8F0E016
:10148D00C080003C624141410000FFFEFCF8F0E0ED
:10149D00C08000007F4141631E00FFFEFCF8F0E0BC
:1014AD00C08000007F4949490000FFFEFCF8F0E0D4
:1014BD00C08000007F0909000000FFFEFCF8F0E08D
:1014CD00C080FF2442810000000000000000002FBA
:1014DD00000000000700070000147F147F14002493
:1014ED002A7F2A12002313086462003649552250C0
:1014FD0000000503000000001C22410000004122F5
:10150D001C000014083E08140008083E08080000DE
:10151D0000A06000000808080808000060600000D6
:10152D00002010080402003E5149453E0000427F54
:10153D004000004261514946002141454B310018A0
:10154D0014127F10002745454539003C4A49493062
:10155D00000171090503003649494936000649491C
:10156D00291E000036360000000056360000000827
:10157D001422410000141414141400004122140804
:10158D0000020151090600324959513E007C1211E9
:10159D00127C007F49494936003E41414122007F7E
:1015AD004141221C007F49494941007F0909090138
:1015BD00003E4149497A007F0808087F0000417FBD
:1015CD004100002040413F01007F08142241007F6F
:1015DD0040404040007F020C027F007F0408107FD6
:1015ED00003E4141413E007F09090906003E41513F
:1015FD00215E007F091929460046494949310001FC
:10160D00017F0101003F4040403F001F2040201F4F
:10161D00003F4038403F0063140814630007087012
:10162D00080700615149454300007F4141000055C5
:10163D002A552A55000041417F0000040201020491
:10164D00004040404040000001020400002054547E
:10165D005478007F484444380038444444200038CE
:10166D004444487F00385454541800087E09010240
:10167D000018A4A4A47C007F080404780000447D15
:10168D004000004080847D00007F10284400000051
:10169D00417F4000007C04180478007C0804047825
:1016AD0000384444443800FC242424180018242411
:1016BD0018FC007C0804040800485454542000040D
:1016CD003F444020003C4040207C001C2040201C1A
:1016DD00003C4030403C004428102844001CA0A091
:0E16ED00A07C004464544C44141414141414CF
:10434800900015EBF0A3EAF0A3E9F0A3EDF0FF90DD
:104358000015E0FBA3E0FAA3E0F990000474A012B2
:10436800062D900019E0FD1241FE900015E0FBA318
:10437800E0FAA3E0F990000FEF12062D900018E084
:1043880090000912062D900019E090000A02062DEF
:104B2600900001E0FBA3E0FAA3E0F9900019EFF092
:104B360090000474E012062D90000FE412062D0278
:024B46004482A7
:10322E00900015EBF0A3EAF0A3E9F0A3EDF0900007
:10323E001CE06488900015600FE0FBA3E0FAA3E0A9
:10324E00F99000047490800DE0FBA3E0FAA3E0F97E
:10325E00900004748012062D900018E0FFA3E0FD8C
:10326E009000207488F0A37495F07B881236E3905A
:10327E000015E0FBA3E0FAA3E0F990000FEF1206B1
:10328E002D900018E090000912062D900019E09084
:10329E00000A12062D90001BE090000D12062D90D4
:1032AE00001CE090000E12062D90001AE0FFC45490
:1032BE000F90000B12062DEF540FFFF874010880CB
:1032CE0002C333D8FC90000C12062D90001AE0FFBA
:1032DE007D03121A6B90001AE0FFD200122E6A9034
:1032EE00001BE0FF7D03121A6B90001BE0FFD20063
:1032FE00122E6A90001CE0FF7D03121A6B90001CC8
:07330E00E0FFD200022E6A6D
:10356F00900001E0FBA3E0FAA3E0F9900019EFF05F
:10357F0090000BE090001AF090000CE090001BF010
:08358F0090000DE090001CF01B
:1035970090001CE0FF6488900004600474D08002EF
:1035A70074C012062D900019E0F090000FE4120687
:1035B7002D90001BE090000D12062D90000EEF12CB
:1035C700062D90001AE0FFC4540F90000B12062D31
:1035D700EF540FFFF87401088002C333D8FC900042
:1035E7000C12062D90001AE0FF7D03121A6B900053
:1035F7001AE0FFD200122E6A90001BE0FF7D031233
:103607001A6B90001BE0FFD200122E6A90001CE09C
:10361700FF7D03121A6B90001CE0FFD200122E6A86
:03362700024D1041
:1043980090008AEBF0A3EAF0A3E9F0ED6440900006
:1043A8008A701AE0FBA3E0FAA3E0F990000B12056B
:1043B800EEFF90000C1205EEFDD2008018E0FBA382
:1043C800E0FAA3E0F990000B1205EEFF90000C1242
:1043D80005EEFDC20012397A90008EE0FF024CF71C
:1043E80090008AEBF0A3EAF0A3E9F0ED64409000B6
:1043F8008A701AE0FBA3E0FAA3E0F990000B12051B
:10440800EEFF90000C1205EEFDD2008018E0FBA331
:10441800E0FAA3E0F990000B1205EEFF90000C12F1
:1044280005EEFDC20012397A90008EE0FF0222F1FB
:10473200E0FBA3E0FAA3E0F9EF24B090008EF0E4EE
:01474200FD79
:1047430090008DEDF0124C8C7F78124C2C124B693B
:1047530090008DE0FF124C2C124B6990008EE0FF0D
:09476300124C2C124B69024CA00F
:10476C00E0FBA3E0FAA3E0F9EF24B090008EF0E4B4
:01477C00FD3F
:10477D0090008DEDF01242527F78123C491245A106
:10478D0090008DE0FF123C491245A190008EE0FF94
:09479D00123C491245A10249A297
:102F6F00FFE075F010A42FF582E435F0F583E582CC
:102F7F0024CFF582E5833413F583E493900089F031
:022F8F007D4083
:102F9100900088EDF0900085EBF0A3EAF0A3E9F052
:102FA1009000041205EEFF54207076EF30E4179084
:102FB1000085E0FBA3E0FAA3E0F990000E1205EE14
:102FC100FFC200122E6A900085E0FBA3E0FAA3E0A5
:102FD100F99000041205EE30E610900088E0FDA3A0
:102FE100E090008EF01243988017900085E0FBA3DB
:102FF100E0FAA3E0F9A3E0FDA3E090008EF0124314
:10300100E8900085E0FBA3E0FAA3E0F99000041248
:1030110005EE30E44590000E1205EEFFD200022EBF
:103021006A900085E0FBA3E0FAA3E0F990000412A6
:1030310005EE30E60E900088E0FDA3E090008EF0F2
:10304100024743900085E0FBA3E0FAA3E0F9A3E087
:0B305100FDA3E090008EF012477D22EE
:0B4D330090008974AFF0E4FD022F91A6
:0B4D3E0090008974AEF0E4FD022F919C
:10484B00900020EDF090001DEBF0A3EAF0A3E9F04F
:10485B0090008974A8F0E4FD122F9190001DE0FBED
:10486B00A3E0FAA3E0F9A3E0900089F0E4FD022FA6
:01487B0091AB
:10487C00900020EDF090001DEBF0A3EAF0A3E9F01E
:10488C009000897481F0E4FD122F9190001DE0FBE3
:10489C00A3E0FAA3E0F9A3E0900089F0E4FD022F75
:0148AC00917A
:103F6F00E0FBA3E0FAA3E0A3F9E0FD900084EFF0FB
:103F7F00900083EDF0900080EBF0A3EAF0A3E9F05E
:103F8F00900084E024B0900089F0E4FD122F91900E
:103F9F000080E0FBA3E0FAA3E0F9A3E054F0FFC434
:103FAF00540F4410900089F0E4FD122F919000807F
:103FBF00E0FBA3E0FAA3E0F9A3E0540F900089F02F
:053FCF00E4FD022F914A
:1048AD00900020EDF090001DEBF0A3EAF0A3E9F0ED
:1048BD0090008974D3F0E4FD122F9190001DE0FB60
:1048CD00A3E0FAA3E0F9A3E0900089F0E4FD022F44
:0148DD009149
:0C4D1C00ED4440900089F0E4FD022F916E
:101D7F00900020EDF090001DEBF0A3EAF0A3E9F046
:101D8F009000041205EEFF54206003021F3EEF3057
:101D9F00E41790001DE0FBA3E0FAA3E0F990000E1A
:101DAF001205EEFFC200122E6A90001DE0FBA3E0A9
:101DBF00FAA3E0F99000041205EE20E603021E5F7D
:101DCF00E4900021F0900021E0C394087480948087
:101DDF004003021F1B90001DE0FBA3E0FAA3E0F9F4
:101DEF0090000B1205EEFF90000C1205EEFDC200E5
:101DFF0012397A900021E024B0FF124CF7E4FF1261
:101E0F004CF77F10124CF790001DE0FBA3E0FAA3F4
:101E1F00E0F990000B1205EEFF90000C1205EEFD9D
:101E2F00D20012397AE4900022F0900022E0C3949D
:101E3F0080748094805010900020E0FF124CF79037
:101E4F000022E004F080E3900021E004F0021DD4B2
:101E5F0090001DE0FBA3E0FAA3E0F990000F12053C
:101E6F00EEFF9000091205EEFD90000A1205EEFB41
:101E7F009000267488F0A3F0A37495F0123BC1E490
:101E8F00900021F0900021E0C3940874809480505A
:101E9F007B90001DE0FBA3E0FAA3E0F990000B128A
:101EAF0005EEFF90000C1205EEFDC20012397A907C
:101EBF000021E024B0FF1222F1E4FF1222F17F1083
:101ECF001222F190001DE0FBA3E0FAA3E0F99000CD
:101EDF000B1205EEFF90000C1205EEFDD200123929
:101EEF007AE4900022F0900022E0C39480748094F2
:101EFF00805010900020E0FF1222F1900022E004A9
:101F0F00F080E3900021E004F0021E9390001DE0AA
:101F1F00FBA3E0FAA3E0F99000041205EE20E4031E
:101F2F0002205090000E1205EEFFD200022E6A9092
:101F3F00001DE0FBA3E0FAA3E0F99000041205EE08
:101F4F0020E603021FD4E4900021F0900021E0FF6F
:101F5F00C3940874809480400302205090001D1297
:101F6F00473290001DE0FBA3E0FAA3E0F9E49000F4
:101F7F008EF0FD12474390001DE0FBA3E0FAA3E0B3
:101F8F00F990008E7410F0E4FD124743E4900022A4
:101F9F00F0900022E0C3948074809480501E9000D3
:101FAF001DE0FBA3E0FAA3E0F9A3E090008EF07D23
:101FBF0040124743900022E004F080D5900021E0CA
:101FCF0004F0021F5AE4900021F0900021E0FFC3BB
:101FDF00940874809480506990001D12476C900093
:101FEF001DE0FBA3E0FAA3E0F9E490008EF0FD12F0
:101FFF00477D90001DE0FBA3E0FAA3E0F990008E6F
:10200F007410F0E4FD12477DE4900022F09000225E
:10201F00E0C3948074809480501E90001DE0FBA359
:10202F00E0FAA3E0F9A3E090008EF07D4012477D27
:10203F00900022E004F080D5900021E004F0021F10
:01204F00D9B7
:01205000226D
:0B16FB00900232EBF0A3EAF0A3E9F04C
:10170600E490023EF0A3F0900232E0FBA3E0FAA3DD
:10171600E0F99000011205EE131313541F90023BDB
:10172600F01205D590023AF09000021205EEFF5431
:10173600F0FEC4540F441090023CF0EF540FA3F097
:101746009000041205EEFF5420600302192BEF30BF
:10175600E40C90000E1205EEFFC200122E6A9002F3
:1017660032E0FBA3E0FAA3E0F99000041205EE20B4
:10177600E60302182AE4900239F0900239E0C39495
:1017860008748094804003021908900232E0FBA39B
:10179600E0FAA3E0F990000B1205EEFF90000C12A0
:1017A60005EEFDC20012397A900239E024B0FF122C
:1017B6004CF790023CE0FF124CF790023DE0FF121E
:1017C6004CF7900232E0FBA3E0FAA3E0F990000B9D
:1017D6001205EEFF90000C1205EEFDD20012397ACA
:1017E600E4900238F0900238E0C3948074809480CC
:1017F6005029900235E0FBA3E0FAA3E0F990023EFF
:10180600E475F00112067785F082F5831205EEFF86
:10181600124CF7900238E004F080CA900239E004D6
:10182600F0021780900232E0FBA3E0FAA3E0F99001
:10183600000F1205EEFF9000091205EEFD90000A5A
:101846001205EEFB9000267488F0A3F0A37495F0C1
:10185600123BC1E4900239F0900239E0C394087457
:101866008094804003021908900232E0FBA3E0FA5C
:10187600A3E0F990000B1205EEFF90000C1205EEA6
:10188600FDC20012397A900239E024B0FF1222F12B
:1018960090023CE0FF1222F190023DE0FF1222F19D
:1018A600900232E0FBA3E0FAA3E0F990000B1205E8
:1018B600EEFF90000C1205EEFDD20012397AE4908C
:1018C6000238F0900238E0C39480748094805029E6
:1018D600900235E0FBA3E0FAA3E0F990023EE4753E
:1018E600F00112067785F082F5831205EEFF1222CB
:1018F600F1900238E004F080CA900239E004F00268
:10190600185E900232E0FBA3E0FAA3E0F99000042F
:101916001205EE20E403021A6A90000E1205EEFF8D
:10192600D200022E6A900232E0FBA3E0FAA3E0F9AD
:101936009000041205EE20E6030219D6E49002395F
:10194600F0900239E0FFC39408748094804003024B
:101956001A6A900232124732900232E0FBA3E0FA92
:10196600A3E0F990023CE012473D900232E0FBA36F
:10197600E0FAA3E0F990023DE012473DE490023818
:10198600F0900238E0C394807480948050399002BD
:1019960035E0FBA3E0FAA3E0F990023EE475F0011E
:1019A60012067785F082F5831205EE90008EF09090
:1019B6000232E0FBA3E0FAA3E0F97D401247439030
:1019C6000238E004F080BA900239E004F0021947C8
:1019D600E4900239F0900239E0FFC39408748094D1
:1019E600804003021A6A90023212476C900232E07B
:1019F600FBA3E0FAA3E0F990023CE01247779002DD
:101A060032E0FBA3E0FAA3E0F990023DE01247774B
:101A1600E4900238F0900238E0C394807480948099
:101A26005039900235E0FBA3E0FAA3E0F990023EBC
:101A3600E475F00112067785F082F5831205EE90C3
:101A4600008EF0900232E0FBA3E0FAA3E0F97D40BD
:101A560012477D900238E004F080BA900239E00423
:041A6600F00219DB96
:011A6A002259
:103A120090001DEBF0A3EAF0A3E9F0A3EDF0900013
:103A22001D30E00FE0FBA3E0FAA3E0F990008974F7
:103A3200A0800DE0FBA3E0FAA3E0F990008974A155
:103A4200F0E4FD122F91900020E090001D30E10F74
:103A5200E0FBA3E0FAA3E0F990008974C0800DE0D6
:103A6200FBA3E0FAA3E0F990008974C8F0E4FD1228
:103A72002F9190001DE0FBA3E0FAA3E0F9900089EA
:103A820074DAF0E4FD122F9190001DE0FBA3E0FA3E
:103A9200A3E0F9A3E0540CFF25E025E044029000E6
:073AA20089F0E4FD022F9101
:0B4C7700900015E0FBA3E0FAA3E0F9B9
:0A4C8200900089EDF0E4FD022F918F
:1048DE00900020EDF090001DEBF0A3EAF0A3E9F0BC
:1048EE0090008974DBF0E4FD122F9190001DE0FB27
:1048FE00A3E0FAA3E0F9A3E0900089F0E4FD022F13
:01490E009117
:1047A600900020EDF090001DEBF0A3EAF0A3E9F0F5
:1047B600900089748DF0E4FD122F9190001DE0FBAE
:1047C600A3E0FAA3E0F9A3E0FF25E025E04410907A
:0847D6000089F0E4FD022F91BF
:10490F00900020EDF090001DEBF0A3EAF0A3E9F08A
:10491F0090008974D9F0E4FD122F9190001DE0FBF7
:10492F00A3E0FAA3E0F9A3E0900089F0E4FD022FE1
:01493F0091E6
:10494000900020EDF090001DEBF0A3EAF0A3E9F059
:104950009000897420F0E4FD122F9190001DE0FB7F
:10496000A3E0FAA3E0F9A3E0900089F0E4FD022FB0
:0149700091B5
:10497100900020EDF090001DEBF0A3EAF0A3E9F028
:1049810090008974D5F0E4FD122F9190001DE0FB99
:10499100A3E0FAA3E0F9A3E0900089F0E4FD022F7F
:0149A1009184
:10269E00900015EBF0A3EAF0A3E9F0900015E0FB33
:1026AE00A3E0FAA3E0F9ED12061B900019E0FF90EB
:1026BE000015E0FBA3E0FAA3E0F9900001EF12068B
:1026CE002D90001AE090000212062D90001BE09053
:1026DE00000312062D9000041205EE30E417900050
:1026EE0015E0FBA3E0FAA3E0F990000E1205EEFF51
:1026FE00C200122E6A900015E0FBA3E0FAA3E0F9E7
:10270E009000041205EE5420702A90000D1205EE72
:10271E00FFC200122E6A7F327E0012000390001557
:10272E00E0FBA3E0FAA3E0F990000D1205EEFFD254
:10273E0000122E6A900015E0FBA3E0FAA3E0F91256
:10274E004D3E900015E0FBA3E0FAA3E0F9900019CE
:10275E00E014FD12484B900015E0FBA3E0FAA3E055
:10276E00F97DFF12487C900015E0FBA3E0FAA3E090
:10277E00F990001BE0FD1248AD900015E0FBA3E0C0
:10278E00FAA3E0F9E4FD124D1C900015E0FBA3E066
:10279E00FAA3E0F990001CE0FD123A127DA4124C4F
:1027AE00777DA6124C77900015E0FBA3E0FAA3E02C
:1027BE00F97DC0124971900015E0FBA3E0FAA3E089
:1027CE00F97DF112490F900015E0FBA3E0FAA3E0AA
:1027DE00F97D201248DE900015E0FBA3E0FAA3E09D
:1027EE00F9E4FD124940900015E0FBA3E0FAA3E0E6
:1027FE00F97D011247A6900015E0FBA3E0FAA3E0D5
:10280E00F9E4FD121D7F900015E0FBA3E0FAA3E0B2
:10281E00F9124D33900015E0FBA3E0FAA3E0F9E4C2
:10282E00900084F0FD123F7F900015E0FBA3E0FACC
:10283E00A3E0F99000041205EE30E40C90000E12A5
:09284E0005EEFFD200122E6A22F1
:0B087900900001EBF0A3EAF0A3E9F00F
:100884009000097488F0A3F0A3F0A3F0A3F0A3F000
:10089400A3F090001874FFF0A37413F0A3747DF018
:1008A400900004E0FBA3E0FAA3E0F91238389000CA
:1008B40007EEF0A3EFF0F47002EEF4602890000469
:1008C400E0FBA3E0FAA3E0F9A3E0FCA3E0FD12310E
:1008D4004690000EEFF07D03121A6B90000EE0FFBD
:1008E400D200122E6A90001874FFF0A37413F0A3C0
:1008F4007482F0900004E0FBA3E0FAA3E0F912385C
:1009040038900007EEF0A3EFF0F47002EEF46028E4
:10091400900004E0FBA3E0FAA3E0F9A3E0FCA3E069
:10092400FD12314690000EEFF07D03121A6B900019
:100934000EE0FFD200122E6A90001874FFF0A37428
:1009440013F0A37487F0900004E0FBA3E0FAA3E0A3
:10095400F9123838900007EEF0A3EFF0F47002EECD
:10096400F46028900004E0FBA3E0FAA3E0F9A3E01C
:10097400FCA3E0FD12314690000FEFF07D03121A44
:100984006B90000FE0FFC200122E6A90001874FFF3
:10099400F0A37413F0A3748CF0900004E0FBA3E0C4
:1009A400FAA3E0F9123838900007EEF0A3EFF0F460
:1009B4007002EEF4601B900004E0FBA3E0FAA3E0F5
:1009C400F9A3E0FCA3E0FD123315900010EFF080D2
:1009D400069000107480F090001874FFF0A3741354
:1009E400F0A3748FF0900004E0FBA3E0FAA3E0F915
:1009F400123838900007EEF0A3EFF0F47002EEF432
:100A0400601B900004E0FBA3E0FAA3E0F9A3E0FC80
:100A1400A3E0FD123315900011EFF0800690001151
:100A24007420F090001874FFF0A37413F0A3749270
:100A3400F0900004E0FBA3E0FAA3E0F91238389048
:100A44000007EEF0A3EFF0F47002EEF4601B9000E8
:100A540004E0FBA3E0FAA3E0F9A3E0FCA3E0FD12A9
:100A64003315900012EFF08005E4900012F090002E
:100A74001874FFF0A37413F0A37495F0900004E0CD
:100A8400FBA3E0FAA3E0F9123838900007EEF0A3D4
:100A9400EFF0F47002EEF4601B900004E0FBA3E0BE
:100AA400FAA3E0F9A3E0FCA3E0FD123315900013D0
:100AB400EFF08005E4900013F090001874FFF0A3A9
:100AC4007413F0A37498F0900004E0FBA3E0FAA37D
:100AD400E0F9123838900007EEF0A3EFF0F470025A
:100AE400EEF4601B900004E0FBA3E0FAA3E0F9A39A
:100AF400E0FCA3E0FD123315900014EFF0800690A3
:100B040000147403F090001874FFF0A37413F0A39E
:100B1400749EF0900004E0FBA3E0FAA3E0F912381D
:100B240038900007EEF0A3EFF0F47002EEF46019D1
:100B3400900004E0FBA3E0FAA3E0F9A3E0FCA3E047
:100B4400FD123146900009EFF090001874FFF0A3F5
:100B54007413F0A374A3F0900004E0FBA3E0FAA3E1
:100B6400E0F9123838900007EEF0A3EFF0F47002C9
:100B7400EEF46021900004E0FBA3E0FAA3E0F99016
:100B84000008E02402FD900007E03400FC12314626
:100B9400900009EFF090001874FFF0A37413F0A311
:100BA40074A7F0900004E0FBA3E0FAA3E0F9123884
:100BB40038900007EEF0A3EFF0F47002EEF4601941
:100BC400900004E0FBA3E0FAA3E0F9A3E0FCA3E0B7
:100BD400FD12314690000AEFF090001874FFF0A364
:100BE4007413F0A374ACF0900004E0FBA3E0FAA348
:100BF400E0F9123838900007EEF0A3EFF0F4700239
:100C0400EEF46021900004E0FBA3E0FAA3E0F99085
:100C14000008E02402FD900007E03400FC12314695
:100C240090000AEFF090001874FFF0A37413F0A37F
:100C340074B0F0900004E0FBA3E0FAA3E0F91238EA
:100C440038900007EEF0A3EFF0F47002EEF46019B0
:100C5400900004E0FBA3E0FAA3E0F9A3E0FCA3E026
:100C6400FD12314690000BEFF090001874FFF0A3D2
:100C74007413F0A374B4F0900004E0FBA3E0FAA3AF
:100C8400E0F9123838900007EEF0A3EFF0F47002A8
:100C9400EEF46019900004E0FBA3E0FAA3E0F9A3EA
:100CA400E0FCA3E0FD12314690000CEFF090001838
:100CB40074FFF0A37413F0A374B9F0900004E0FB84
:100CC400A3E0FAA3E0F9123838900007EEF0A3EF9E
:100CD400F0F47002EEF46019900004E0FBA3E0FA73
:100CE400A3E0F9A3E0FCA3E0FD12314690000CEF71
:100CF400F090001874FFF0A37413F0A374BEF09086
:100D04000004E0FBA3E0FAA3E0F9123838900007EE
:100D1400EEF0A3EFF0F47002EEF46019900004E03A
:100D2400FBA3E0FAA3E0F9A3E0FCA3E0FD12314643
:100D340090000DEFF090001874FFF0A37413F0A36B
:100D440074C2F0900004E0FBA3E0FAA3E0F91238C7
:100D540038EFF47002EEF4604E90001874FFF0A3C4
:100D64007413F0A374C7F0900004E0FBA3E0FAA3AB
:100D7400E0F9123838EFF47002EEF46003020E1C4E
:100D840090001874FFF0A37413F0A374CBF09000D8
:100D940004E0FBA3E0FAA3E0F9123838EFF47002A0
:100DA400EEF46003020E9890000BE0648860030286
:100DB4000E38A3E06488707C900009E0FD6415702F
:100DC4000EA3E0FF64147007124B26E4FF804390E7
:100DD4000009E0FD6425700EA3E0FF64247007128F
:100DE4004B267F10802C900009E0FD6477700EA3E1
:100DF400E0FF64767007124B267F2080159000096F
:100E0400E0FD64327012A3E0FF6433700B124B26D2
:100E14007F30123D5B020EC9900001E0FBA3E0FAB3
:100E2400A3E0F9900009E0FDA3E0900019F012435B
:100E340048020EC9900009E0FD6415700FA3E0FF9D
:100E44006413700812356FE4FF020E93900009E0FA
:100E5400FD6425700EA3E0FF6423700712356F7FD5
:100E640004802C900009E0FD6477700EA3E0FF6419
:100E740075700712356F7F088015900009E0FD64D6
:100E8400327011A3E0FF6434700A12356F7F0C12C4
:100E940048158031900001E0FBA3E0FAA3E0F9904B
:100EA4000009E0FDA3E0900019F090000BE0900031
:100EB4001AF090000CE090001BF090000DE0900000
:100EC4001CF012322E900001E0FBA3E0FAA3E0F93B
:100ED400900010E0FDA3E0900019F0900012E09063
:100EE400001AF0900013E090001BF0900014E090C2
:060EF400001CF002269E26
:0E3DCB0090026EEBF0A3EAF0A3E9F0A3EDF096
:103DD900E4A3F0A3F0123A12E4900273F090027394
:103DE900E0FFC3940874809480504590026EE0FB14
:103DF900A3E0FAA3E0900272123F77E4900272F016
:103E0900900272E0FFC3948074809480501A9002EB
:103E19006EE0FBA3E0FAA3E0F9EF540FA3122F6FB2
:103E2900900272E004F080D8900273E004F080AD53
:013E39002266
:0B409800900289EBF0A3EAF0A3E9F02E
:1040A300E4A3F0A3F0F090028DE0FFC394087480C2
:1040B3009480503D900289123F6FE490028CF090FF
:1040C300028CE0FFC3948074809480501C9002891A
:1040D300E0FBA3E0FAA3E0F9EF540790028D122F5F
:1040E3006F90028CE004F080D690028DE004F080A3
:0140F300B517
:0140F40022A9
:102D6300900277EDF0900274EBF0A3EAF0A3E9F0A0
:102D7300E4900278F0A3F0FD121D7FE4900279F055
:102D8300900279E0FFC39408748094804003022E7C
:102D930069900274123F6FE4900278F0900278E039
:102DA300FFC3940474809480501A900274E0FBA3D0
:102DB300E0FAA3E0F9EF9014CF122F8A900278E0A3
:102DC30004F080D8E4900278F0900278E0FFC39496
:102DD3000674809480501C900274E0FBA3E0FAA375
:102DE300E0F9A3E075F06484122F71900278E00497
:102DF300F080D6E4900278F0900278E0FFC3940666
:102E0300748094805022900274E0FBA3E0FAA3E064
:102E1300F9A3E075F06484E5F075F00A84122F716C
:102E2300900278E004F080D0E4900278F090027889
:102E3300E0FFC39406748094805022900274E0FBF8
:102E4300A3E0FAA3E0F9A3E075F00A84AEF075F00D
:102E530010EE122F74900278E004F080D090027983
:062E6300E004F0022D83E3
:012E69002246
:0B3FD400900078EBF0A3EAF0A3E9F006
:103FDF0090007DE024E090007FF090007CE0900066
:103FEF0084F0123F7FE490007EF090007EE0FFC3EC
:103FFF009406748094805030900078E0FBA3E0FA30
:10400F00A3E0F990007FE075F006A42FF582E43568
:10401F00F0F583E58224D3F582E5833414122F87DC
:08402F0090007EE004F080C265
:014037002266
:0E29F900900001EBF0A3EAF0A3E9F0A3EDF0EB
:102A07009000757401F0A37400F0A37409F09000AE
:102A170006E0F9A3E0FAA3E09000FDC9F0A3EAF00D
:102A2700A3E9F0900075E0F9A3E0FAA3E0900100B4
:102A3700C9F0A3EAF0A3E9F07B017A0079311244E7
:102A470038900071EFF0900075E4F0A3F0A3F090D8
:102A57000001E0FBA3E0FAA3E0F99000021205EE03
:102A6700FF900004E02F900073F0900005E09000C5
:102A770074F0E4900072F0900071E0FFA3E0FEC3F1
:102A87009F4003022B2D74312EF582E43400F58329
:102A9700E0FFB40D17900001E0FBA3E0FAA3E0F913
:102AA7009000021205EE900073F08071EFB40A08EF
:102AB700900074E004F08065900073E0D3947A741A
:102AC7008094804019900001E0FBA3E0FAA3E0F9AD
:102AD7009000021205EE900073F0A3E004F090005E
:102AE70074E0FFC3940474809480503A900001E02E
:102AF700FBA3E0FAA3E0F9900073E0FD90007CEF00
:102B0700F0900072E02431F582E43400F583E09020
:102B1700007DF0123FD4900073E02406F09000721D
:062B2700E004F0022A7E2A
:012B2D002285
:1000C600EC4D6011E8497017ED33EC3304600DE434
:1000D600FCFFFEFD22E933E8330470F80203161232
:1000E60002E158046009E4CC248150062850090234
:1000F600032028400302031DC0E0EB4A7044B98088
:1001060006D0E0FB02030CEF4E701CBD8008EBFF2F
:10011600EAFEE9FD80EBE98DF0A4FEE5F00201AF11
:10012600E9CDF9EAFEEBFFEF89F0A4FCE5F0CE8914
:10013600F0A42EFFE435F0CD89F0A42DFEE435F0D1
:100146008067EF4E7005BD80D780C3EF8BF0A4ACFF
:10015600F0EE8BF0A42CFCE435F0F8EF8AF0A42C3A
:10016600E5F038FCE433CB8DF0A42CFCE5F03BF84D
:10017600EE8AF0A42CFCE5F038F8E433CF89F0A43D
:100186002CFCE5F038CF3400CE89F0A42FFFE5F043
:100196003EFEE433C98DF0A42EFEE5F039CD8AF09B
:1001A600A42FFFE5F03EFEE43DFD33D0E0FB500713
:1001B6000BBB000F020320EC2CFCEF33FFEE33FEEB
:0601C600ED33FD0202F81A
:1001CC00020320EC5D046005E85904700302031679
:1001DC001202E1580460F6EC4860F2EC7004FDFE8B
:1001EC00FF22C860DB2481C85009C3986002500606
:1001FC0002031D9850CAF582E9294B4A7005AB825F
:10020C0002030C75F0007C1A7880C3EF9BEE9AED1C
:10021C0099400DC3EF9BFFEE9AFEED99FDE842F07D
:10022C00DC23ACF0D0E0FFD0E0FED0E0FDAB8220D0
:10023C00E7101BEB60BAEC2CFCEF33FFEE33FEED5A
:10024C0033FD0202F8E803F830E705C0F075F00062
:10025C00EF2FFFEE33FEED33FD40B830E7C280AA3E
:10026C0075F020800E75F010800575F0087D007E0D
:10027C00007F003392D530D5031207AAEC3340101F
:10028C00EF33FFEE33FEED33FDEC33FCD5F0ED2216
:0E029C00E5F0247EA2D513CC92E7CDCEFF2252
:1002AA00EDD2E7CD33EC3392D524814006E4FFFE4C
:1002BA00FDFC22FCE4CFCECDCC24E0501174FF80AB
:1002CA00EDC3CC13CCCD13CDCE13CECF13CF047048
:0702DA00F030D5DE0207AA97
:104438009000FDE0FFA3E0FEA3E0CF900106F0A30B
:10444800EEF0A3EFF0900100E0CBF0A3E0CAF0A3F8
:10445800E0C9F07F22900109AD82AC831205D58DA9
:10446800828C83F0A309E970010ADFEC900100E077
:0A447800FBA3E0FAA3E0F9020F5FD6
:1002E100E9D2E7C933E833F892D5EDD2E7CD33EC63
:0702F10033FC5002B2D522DC
:1002F800EC30E7100FBF000C0EBE00080DBD000467
:100308000BEB6014A2D5EB13FCED92E7FD2274FF12
:10031800FCFDFEFF22E480F8A2D574FF13FC7D806B
:03032800E480EF7F
:100EFA00E5082406F582E43401F583E0050822902A
:100F0A000103300803900106E475F0011208060295
:100F1A0005D52001E97F2ED2018018EF540F2490C5
:100F2A00D43440D4FF30050BEF24BFB41A00500369
:100F3A002461FFE50960021509050CE50C7002053C
:100F4A000B30080E900103E475F001120806EF0257
:100F5A00061B024A8D7403D2088003E4C208F5080E
:100F6A0090010312081DE4F509F50BF50CE509607B
:100F7A00077F20120F3D80F5750AFFC202C201C227
:100F8A0003C204C206C207C209120F09FF700D305C
:100F9A0008057F00120F4EAF0CAE0B22B4255FC2BC
:100FAA00D5C205120F09FF24D0B40A00501A75F0F1
:100FBA000A780930D50508B6FF0106C6A426F62028
:100FCA00D5047002D20480D924CFB41A00EF500499
:100FDA00C2E5D205021240D20280C6D20180C0D236
:100FEA000380BCD2D580BAD20680B47F20120F3DCE
:100FFA002003077401B5090040F1120EFAFF120F1F
:10100A003D020F77D209D2078095120EFAFB120E13
:10101A00FAFA120EFAF94A4B7006793E7A137BFFF6
:10102A0020032EE509602A7E008E82758300120550
:10103A00EE60060EEE650A70F0C2D5EBC0E0EAC0BB
:10104A00E0E9C0E0EE1212A1D0E0F9D0E0FAD0E077
:10105A00FB1205D5FF60AAEBC0E0EAC0E0E9C0E0F8
:10106A00120F3DD0E02401F9D0E03400FAD0E0FBC1
:10107A00E50A0460DCD50AD98087D20380A212125D
:10108A008360F7E50A70010412032BA90A600DE5D3
:10109A000A600914F50A12132BEF60F3EA30E7022B
:1010AA00F404C3995079EAF4250A0430E701E40408
:1010BA00F50A800D12128360C1EA050A250A120395
:1010CA002BEA900132F030E701E4250A04D50A043C
:1010DA00200601141212A1E4C0E012132B9001326F
:1010EA00E0601320E70714F0120F25802204F0D0E5
:1010FA00E014C0E07F00120F25E50A6007120F1CFA
:10110A00150A800B300603120F1CD0E0020F77D0AD
:10111A00E00480C4121283609EE50A0412032B9035
:10112A000132EAF0E50A20060260010424041212E0
:01113A00A113
:10113B0074FF04C0E012132B120F25E50A200602E0
:10114B006003120F1CD0E0B50AE87F45120F2F90F9
:10115B000132E07F2B30E7047F2DF404C0E0120F47
:10116B003DD0E075F00A84C0F0120F26D0E0120FCC
:10117B0026020F77791080027908C207C20980080E
:10118B00D2D5790A8004790AC2D5E50A047002F532
:10119B000AE4FAFDFEFF120EFAFC7B082002131282
:1011AB000EFAFD7B1030010A120EFAFE120EFAFF38
:1011BB007B20EC3382D592D55013C3E43001069FCC
:1011CB00FFE49EFEE42002039DFDE49CFCE4CBF8CF
:1011DB00C202EC700CCFCECDCCE824F8F870F380C3
:1011EB0017C3EF33FFEE33FEED33FDEC33FCEB3384
:1011FB00FB994002FB0FD8E9EB300205F8D0E0C4B5
:10120B0048B202C0E00AEC4D4E4F78207B0070C212
:10121B00EAB50A0040BCC0E01212A3D0F0D0E02027
:10122B000204C4C0E0C4B202C0F0120F26D0F0D545
:10123B00F0EB020F77120826101453117F580FE5AD
:10124B004C0FE14211834F118B44118B490FFA4321
:10125B0011915510BE46111E45108847135E500F55
:10126B00E92D0FED2E10102B0FF123100E2013472D
:10127B002A0FA94800001008E50AB4FF03750A06F7
:10128B00120EFAFC120EFAFD120EFAFE120EFAFFF5
:10129B0090012B020368790AA2D5200414300609A9
:1012AB00B910020404B9080104A2D52007025001A9
:1012BB00042003689203B509005034C0E07F20304E
:1012CB0004197F30A20372077206500F1212FAC272
:1012DB0003C207C206C2097F30800F300603E9C084
:1012EB00E0120F3D300603D0E0F9D0E0B509CC3069
:1012FB0006177F30B9100C120F3D7F583005077F52
:10130B00788003B90803120F3D3003057F2D020FC0
:10131B003D7F202009F87F2B2007F322920380CFFB
:10132B007F00B40700500B242BF582E43401F583C6
:10133B00E0FF22286E756C6C2900D202120EFA3077
:10134B0002F8C202780930D50108F6020FA92D5018
:10135B00434958120EFA2403B405004001E49013DC
:10136B005993120F2E743A120F2ED20475090402E0
:02137B00117FE0
:10032B00F920E73624F950037907E4F42402FBE5BE
:10033B0082158270021583DBF6E024FB501BE9600B
:10034B0014E4F0E582158270021583E004F0B40A20
:0D035B0008E4F0D9EE7401F00A22C2D522A8
:10036800ED33EC3392D5FA602AB4FF33EDC2E77B64
:10037800FF60067A03798DE4227A03799620D50402
:100388007A037991224E614E002B494E46002D4941
:100398004E4600E47A08F0A3DAFC7B00740722C01A
:1003A80083C082ECC0E0EDC0E0EEC0E0EFC0E0EA60
:1003B80075F010A4CAABF075F04DA42BFBE435F032
:1003C800FCEA2410FAEB34C5FBEC34D9FCEDC2E7A7
:1003D800FF75F056A4F42411C5F0F434C58FF0A4C9
:1003E8002AE5F03BE43CF020E714120595D0E0FF45
:1003F800D0E0FED0E0FDD0E0FC1201CF8014F40480
:10040800120595D0E0FFD0E0FED0E0FDD0E0FC1270
:1004180000C6D082D083E0FAEDD2E7CD33EC3324A6
:1004280082FBE4C3CF33CFCE33CECD33CD33DBF332
:100438007B0775F00A846004F0A31B0AE5F0F0A3BB
:100448008FF0740AA4FFACF08EF0740AA42CFEACF2
:10045800F050010C8DF0740AA42CFDE435F0F0A3E3
:05046800DBDE74072239
:10046D00020316E86480F8E933E83360110460F0A4
:10047D00ED33EC337009E8FCE9FDEAFEEBFF2204F5
:10048D0060DED3EB9FEA9EE99DE8C2E78CF0C2F7F0
:10049D0095F0400CE8CCF8E9CDF9EACEFAEBCFFBBC
:1004AD001202E185D0F05804700320D5B3E8047032
:1004BD00075002B2D502032092D5EC0460F7E4CCCC
:1004CD00C0E0C398F8603B94186008400DD0E0FB85
:1004DD000202F8E4FBFAC9FC8028E830E406E4C91E
:1004ED00FBE4CAFCE830E305E4C9CACBFCE85407D9
:1004FD006010F8C3E913F9EA13FAEB13FBEC13FCE4
:10050D00D8F130F52FC3E49CFCEF9BFFEE9AFEED86
:10051D0099FDD0E0FBEF4E4D4C701222DB03020330
:10052D001DEC2CFCEF33FFEE33FEED33FDED30E72C
:10053D00EB0202F8EF2BFFEE3AFEED39FDD0E0FBBA
:10054D0050130BBB0003020320ED13FDEE13FEEF62
:08055D0013FFEC13FC0202F88D
:100565003F8000004120000042C80000447A00009E
:10057500461C400047C35000497424004B18968020
:100585004CBEBC205A0E1BCA6753C21C749DC5AE17
:10059500FB60065407601C23231205C3EB54386027
:1005A500091205AF1205BE1200C6ECF8EDF9EEFA18
:1005B500EFCB22EB1205BE80F1543803241C9005C5
:1005C50065FE93FC0EEE93FD0EEE930ECE93FF2289
:103AB50002362AE493A3F8E493A34003F68001F2C7
:103AC50008DFF48029E493A3F85407240CC8C33312
:103AD500C4540F4420C8834004F456800146F6DFE1
:103AE500E4800B0102040810204080904BA5E47E81
:103AF500019360BCA3FF543F30E509541FFEE493D6
:103B0500A360010ECF54C025E060A840B8E493A39C
:103B1500FAE493A3F8E493A3C8C582C8CAC583CAC7
:103B2500F0A3C8C582C8CAC583CADFE9DEE780BE7F
:014BC00000F4
:1005D500BB010689828A83E0225002E722BBFE0224
:0905E500E32289828A83E4932257
:1005EE00BB010CE58229F582E5833AF583E02250C2
:1005FE0006E92582F8E622BBFE06E92582F8E2220C
:0D060E00E58229F582E5833AF583E4932225
:10061B00BB010689828A83F0225002F722BBFE01BE
:02062B00F322B8
:10062D00F8BB010DE58229F582E5833AF583E8F003
:10063D00225006E92582C8F622BBFE05E92582C8AF
:02064D00F22297
:10064F00EF8DF0A4A8F0CF8CF0A428CE8DF0A42EBF
:02065F00FE2279
:10066100C5F0F8A3E028F0C5F0F8E5821582700224
:060671001583E038F022C1
:10067700A3F8E0C5F025F0F0E58215827002158336
:06068700E0C838F0E82293
:10068D00E88FF0A4CC8BF0A42CFCE98EF0A42CFC0C
:10069D008AF0EDA42CFCEA8EF0A4CDA8F08BF0A48A
:1006AD002DCC3825F0FDE98FF0A42CCD35F0FCEBE9
:1006BD008EF0A4FEA9F0EB8FF0A4CFC5F02ECD39AE
:0F06CD00FEE43CFCEAA42DCE35F0FDE43CFC221B
:1006DC0075F008758200EF2FFFEE33FECD33CDCCD5
:1006EC0033CCC58233C5829BED9AEC99E582984058
:1006FC000CF582EE9BFEED9AFDEC99FC0FD5F0D635
:10070C00E4CEFBE4CDFAE4CCF9A88222B800C1B95E
:10071C000059BA002DEC8BF084CFCECDFCE5F0CB9C
:10072C00F97818EF2FFFEE33FEED33FDEC33FCEBD5
:10073C0033FB10D703994004EB99FB0FD8E5E4F990
:10074C00FA227818EF2FFFEE33FEED33FDEC33FC7D
:10075C00C933C910D7059BE99A4007EC9BFCE99A71
:10076C00F90FD8E0E4C9FAE4CCFB2275F010EF2FB6
:10077C00FFEE33FEED33FDCC33CCC833C810D707B6
:10078C009BEC9AE899400AED9BFDEC9AFCE899F8F1
:0E079C000FD5F0DAE4CDFBE4CCFAE4C8F92284
:0E07AA00C3E49FFFE49EFEE49DFDE49CFC2260
:1007B800EB9FF5F0EA9E42F0E99D42F0E89C45F097
:0107C800220E
:0C07C900ECF0A3EDF0A3EEF0A3EFF022A3
:1007D500A8828583F0D083D0821207EC1207EC1231
:1007E50007EC1207ECE473E493A3C583C5F0C58356
:1007F500C8C582C8F0A3C583C5F0C583C8C582C86E
:0108050022D0
:10080600F8E0FBA3A3E0F925F0F0E582158270027B
:070816001583E0FA38F0221F
:09081D00EBF0A3EAF0A3E9F022DC
:10082600D083D082F8E4937012740193700DA3A361
:1008360093F8740193F5828883E473740293686075
:06084600EFA3A3A380DF75
:10084C00EC8EF0A4CCC5F0CCCDF8EFA4CEC5F02D39
:10085C00FDE43CFCE8A42EC8C5F03DFDE43CFCEFF7
:0D086C00A4FFE5F028FEE43DFDE43CFC2285
:104A8D00EFB40A07740D124A98740A309811A89958
:104A9D00B8130CC2983098FDA899C298B811F63089
:074AAD0099FDC299F5992261
:00000001FF
