:03000000021C9649
:0C1C9600787FE4F6D8FD758121021CDD8A
:0A2694006F75743D2562750D0A0094
:101EAC001210A17FF47E011200037B017A007900ED
:101EBC0090000A7421F0A314F0FD12227F9000040C
:101ECC00744DF07B017A00790490000BE4F0A304CC
:101EDC00F0E4FFFE120026E4900005F07B017A008E
:101EEC00790590000BF0A304F0E4FFFE120E007BCA
:101EFC00FF7A267994900005E0900009F012208476
:021F0C0080FE55
:07263600440139000000001F
:10000300EF4E601A900131E0FCA3E0FDED1D70019D
:0E0013001C144C70F7EF1F70011E144E70E6A7
:0100210022BC
:08264A00900080E0FEA3E0FF18
:0A265200EF1FAC0670011E4C70F67D
:01265C00225B
:10261000900131E0FCA3E0FD120AD4E47B83FAF9D7
:10262000F8120930900135120A71900135E0C31398
:06263000FEA3E013FF22EF
:1025C000900134E06599600AE599F0E4900133F0F8
:1025D0008006900133E004F0900133E0C394E940B9
:0925E00007000075C7600000222D
:0B208400900006EBF0A3EAF0A3E9F0E7
:10208F009000717401F0A37400F0A37409F0900034
:10209F0006E0F9A3E0FAA3E0900082C9F0A3EAF00A
:1020AF00A3E9F0900071E0F9A3E0FAA3E0900085B6
:1020BF00C9F0A3EAF0A3E9F07B017A00793112228B
:0C20CF00CF7B017A0079317F010224F9F7
:101DAE00EF14600D14602614603C1460542404700B
:101DBE006F90FE027480F090FE02E030E0F990FE2B
:101DCE0000E054FCF090FE03E4F0A3F02290FE0439
:101DDE007480F090FE04E030E0F990FE00E04403E1
:101DEE00F090FE03803490FE037480F090FE03E0CA
:101DFE0030E0F990FE00E054FC4401F090FE0480C7
:101E0E001990FE0374C0F090FE03E030E0F990FEEE
:101E1E0000E054FC4402F090FE04E4F090FE02F068
:011E2E002291
:0C267D00EF90FE01700304F022EFF02249
:1010A10043BA80AF9FE4FCFDFEC004A905AA06ABCC
:1010B1000778FBE6FFD000C3EF9BFFEE9AFEED99A8
:1010C100FDEC98FCE47BF07AD2F9F8120930C3E424
:1010D1009FFF74369EFE746E9DFD74019CFC900012
:1010E10006120A71900006E0FCA3E0FDA3E0FEA356
:1010F100E0FFC00790FE01E0FBE4FAF9F8D0071227
:1011010009BB900006120A717FC07EF67D577C00F4
:10111100900006E0F8A3E0F9A3E0FAA3E0FBC31214
:101121000A4D500D900139120A7D005460000212DF
:10113100D07FC07E267D827C00900006E0F8A3E08F
:10114100F9A3E0FAA3E0FBC3120A4D500D90013957
:10115100120A7D005B8D800212D07F807EED7DAF13
:101161007C00900006E0F8A3E0F9A3E0FAA3E0FB1D
:10117100C3120A4D500D900139120A7D00A8C0001A
:101181000212D07F807E2D7DE87C00900006E0F881
:10119100A3E0F9A3E0FAA3E0FBC3120A4D500D90BE
:1011A1000139120A7D00B71B000212D07F807E3602
:1011B1007D257C01900006E0F8A3E0F9A3E0FAA305
:1011C100E0FBC3120A4D500D900139120A7D01193D
:1011D10040000212D07F807E567D417C0190000646
:1011E100E0F8A3E0F9A3E0FAA3E0FBC3120A4D5033
:1011F1000D900139120A7D01312D000212D07F00BC
:101201007EDB7D5F7C01900006E0F8A3E0F9A3E0BE
:10121100FAA3E0FBC3120A4D500D900139120A7D69
:10122100015180000212D07F607E197D857C019082
:101231000006E0F8A3E0F9A3E0FAA3E0FBC3120A79
:101241004D500D900139120A7D016E36000212D007
:101251007F207EE07DB27C01900006E0F8A3E0F9FA
:10126100A3E0FAA3E0FBC3120A4D500C900139121E
:101271000A7D019BFCC080577FE07EA67DE07C015A
:10128100900006E0F8A3E0F9A3E0FAA3E0FBC312A3
:101291000A4D500C900139120A7D01C9C380802F7B
:1012A1007F607E2B7DFF7C01900006E0F8A3E0F9D2
:1012B100A3E0FAA3E0FBC3120A4D900139500912D1
:1012C1000A7D01FA40008007120A7D02160EC0E471
:1012D1007B107A27F9F8900139E0FCA3E0FDA3E047
:1012E100FEA3E0FF1209BB900131EEF0A3EFF0E4A1
:1012F100900134F0900133F0C20A12231900D2AFE9
:0113010000EB
:0113020022C8
:0B196C00900010EBF0A3EAF0A3E9F0FC
:101977007F647E00122610900080EEF0A3EFF090B7
:10198700007D7401F0A37400F0A37413F0900010AD
:10199700E0F9A3E0FAA3E0900082C9F0A3EAF0A37C
:1019A700E9F090007DE0F9A3E0FAA3E0900085C993
:1019B700F0A3EAF0A3E9F07B017A00793D1222CF88
:1019C70090003BEEF0A3EFF07FF47E01120003E4FA
:1019D700FBFAD390003CE09B90003BE09A40E9D2B1
:1019E700B1C2B112264A743D2BF58274003AF583D1
:1019F700E0F9E4FDE930E004D2B18002C2B1E9C305
:101A070013F912264A0DEDB408EAD2B112264A128A
:091A1700264A0BBB00010A80B94C
:0B1AC30090013DEBF0A3EAF0A3E9F076
:101ACE00E4FFFE900143F0A3F0A3F0A3F090013DDC
:101ADE00E0FBA3E0FAA3E0F912082360729001463E
:101AEE00E004F07006900145E004F0900140E0FB48
:101AFE00A3E0FAA3E0F98F828E8312083CFD9001D9
:101B0E003DE0FBA3E0FAA3E0F9120823B505070FA9
:101B1E00BF00010E8012E4FEFF900145E0FDA3E040
:101B2E00900143CDF0A3EDF090013EE475F001126B
:101B3E000904900140E0FBA3E0FAA3E0F98F828E46
:101B4E008312083C7087900143E0FEA3E0FF227EE3
:031B5E00FF7FFF07
:011B61002261
:1018B500E4900161F0900163F0900162F0900162A3
:1018C500E0FFC3940A40030219667E00ED2FF582FE
:1018D500EE3CF58312083CFFC3648094B0404BD3C3
:1018E500EF648094B75043900163E004F0E0B401E5
:1018F50017900162E02DF582EE3CF58312083C2439
:10190500D0C454F0900161F0900163E0B4021B90E3
:101915000162E07E002DF582EE3CF58312083C2441
:10192500D0FF900161E04FFFF022900162E07E0060
:101935002DF582EE3CF58312083CFFC3648094B814
:10194500400ED3EF648094B95006900163E004F033
:10195500EF642C600CEF6009900162E004F002185E
:06196500C2900161E0FFE9
:01196B002259
:0817F90090014DECF0A3EDF0AE
:10180100E4A3F0A3F0A3F0900151E0FFC3941440CE
:10181100030218AC90014EE02FFF90014DE034001F
:101821008F82F58312083CFFC3648094B0404ED38D
:10183100EF648094B9504690014FE0FEA3E0FF7C35
:10184100007D0A12089D90014FEEF0A3EFF0A3E096
:10185100FF90014EE02FFF90014DE034008F82F5A3
:101861008312083CFF3395E0FEEF24D0FFEE34FFF6
:10187100FE900150E02FF090014FE03EF0900151B9
:10188100E0FF90014EE02FFF90014DE034008F8288
:10189100F58312083CFF642C6011EF642E600CEF9D
:1018A1006009900151E004F002180890014FE0FE38
:0318B100A3E0FFB2
:0118B4002211
:1014A50090011FEBF0A3EAF0A3E9F0A3ECF0A3EDA4
:0114B500F046
:1014B600E490012BF0A3F0A3F0A3F0A3F0A3F09027
:1014C6000129F0A3F0900122E0FEA3E0FF9001299C
:1014D600E0FCA3E0FDC39FEC9E400302157590015E
:1014E60024E0FBA3E0FAA3E0F990012BE0FEA3E0E1
:1014F600F5828E8312083CFF90011FE0FBA3E0FA01
:10150600A3E0F98D828C8312083CB5073390012C39
:10151600E004F0700690012BE004F0900127E0FE55
:10152600A3E0FF90012BE0B50631A3E0B5072C90B0
:101536000129E0FFA3E090012FCFF0A3EFF0802F69
:10154600E490012BF0A3F090012AE02401FE900123
:1015560029E0340090012DF0A3CEF090012AE0049A
:10156600F060030214CB900129E004F00214CB9042
:10157600012FE0FEA3E0FF90012DE0FCA3E0FDD3E8
:101586009FEC9E5044900129ECF0A3EDF090012FC2
:10159600E0FEA3E0FF900129E0FCA3E0FDC39FEC81
:1015A6009E502390011FE0FBA3E0FAA3E0F98D8291
:1015B6008C83E412087B90012AE004F070CF90013E
:0B15C60029E004F080C77F01227F00B5
:0115D10022F7
:101303006770696F5F757070756C6C283C4425302D
:1013130032583E2C2564293BB2BBB4E6D4DAB8C3B9
:10132300494F0D0A006770696F5F757070756C6C5B
:10133300283C44253032583E2C31293BB2BBB4E61D
:10134300D4DAB8C3494F0D0A006770696F5F7570CF
:1013530070756C6C283C44253032583E2C30293B48
:10136300B2BBB4E6D4DAB8C3494F0D0A006770695B
:101373006F5F6D6F6465283C44253032583E2C25E1
:1013830064293BB2BBB4E6D4DAB8C3494F0D0A00B3
:101393006770696F5F6D6F64652844253032582C20
:1013A3003C25643E293BB2BBB4E6D4DAB8C3C4A33C
:1013B300CABD0D0A006770696F5F7772697465282B
:1013C3003C25643E2C2564293BB2BBB4E6D4DAB891
:1013D300C350BFDA0D0A006770696F5F726561649D
:1013E300283C5025643E293BB2BBB4E6D4DAB8C3EB
:1013F30050BFDA0D0A006770696F5F6F7574283C20
:1014030044253032583E2C2564293BB2BBB4E6D484
:10141300DAB8C3494F0D0A006770696F5F6F75745F
:10142300283C44253032583E2C31293BB2BBB4E62C
:10143300D4DAB8C3494F0D0A006770696F5F6F75DF
:1014430074283C44253032583E2C30293BB2BBB47F
:10145300E6D4DAB8C3494F0D0A006770696F5F6954
:101463006E283C44253032583E293BB2BBB4E6D407
:10147300DAB8C3494F0D0A006770696F5F746F670D
:10148300676C65283C44253032583E293BB2BBB4D7
:10149300E6D4DAB8C3494F0D0A000102040810204C
:0214A300408087
:0515D20090000EEFF097
:1015D700648870030216E690000EE0FF54F0F50DE4
:1015E700EF540FFF90149D93F50EEFD3940740210E
:1015F7007BFF7A13790390000EE0FF900013E4F06D
:10160700A3EFF0A200E4FF33A3CFF0A3EFF012198A
:101617006C300063E50D24F0602124F0602224F093
:10162700602324F0602424F0602524F0602624F051
:1016370060272470702B90FE10802190FE11801C73
:1016470090FE12801790FE13801290FE14800D906A
:10165700FE15800890FE16800390FE17E0450EF0F9
:10166700227BFF7A13792890000EE0FF900013E4A5
:10167700F0A3EFF002196CE50D24F0602124F0606F
:101687002224F0602324F0602424F0602524F060F5
:101697002624F060272470703090FE10802190FE81
:1016A70011801C90FE12801790FE13801290FE147A
:1016B700800D90FE15800890FE16800390FE17E0BF
:1016C700FFE50EF4FEEF5EF0227BFF7A13794C9074
:0F16D700000EE0FF900013E4F0A3EFF012196C87
:0116E60022E1
:0A0B210090000FEDF090000EEFF0D1
:100B2B0064887003020DFF90000EE0FF54F0F50D8A
:100B3B00EF540FFF90149D93F50EEFD394074023C2
:100B4B007BFF7A13797090000EE0FF900013E4F0B6
:100B5B00A3EFF090000FE0FF900015E4F0A3EFF08F
:100B6B0012196CE50D24F0602124F0602224F06052
:100B7B002324F0602424F0602524F0602624F06008
:100B8B002724707028E4F50D8046750D01804175A2
:100B9B000D02803C750D038037750D048032750D89
:100BAB0005802D750D068028750D0780237BFF7A38
:100BBB0013797090000EE0FF900013E4F0A3EFF0B8
:100BCB0090000FE0FF900015E4F0A3EFF012196C0A
:100BDB0090000FE0FFD39403401C7BFF7A137993B3
:100BEB0090000EE0FD900013E4F0A3EDF0A3E4F011
:100BFB00A3EFF012196CE50D703A90000FE0FF7047
:100C0B0007E50EF452935294EFB40109E50E4293AB
:100C1B00E50EF4529490000FE0B40208E50E4293F7
:100C2B00E50E429490000FE0B40309E50EF45293E5
:100C3B00E50E4294E50D6401703A90000FE0FF70F1
:100C4B0007E50EF452915292EFB40109E50E429171
:100C5B00E50EF4529290000FE0B40208E50E4291BB
:100C6B00E50E429290000FE0B40309E50EF45291A9
:100C7B00E50E4292E50D6402703A90000FE0FF70B2
:100C8B0007E50EF452955296EFB40109E50E429525
:100C9B00E50EF4529690000FE0B40208E50E429573
:100CAB00E50E429690000FE0B40309E50EF4529561
:100CBB00E50E4296E50D6403703A90000FE0FF706D
:100CCB0007E50EF452B152B2EFB40109E50E42B191
:100CDB00E50EF452B290000FE0B40208E50E42B1FB
:100CEB00E50E42B290000FE0B40309E50EF452B1E9
:100CFB00E50E42B2E50D6404703A90000FE0FF7010
:100D0B0007E50EF452B352B4EFB40109E50E42B34A
:100D1B00E50EF452B490000FE0B40208E50E42B3B6
:100D2B00E50E42B490000FE0B40309E50EF452B3A4
:100D3B00E50E42B4E50D6405703A90000FE0FF70CC
:100D4B0007E50EF452C952CAEFB40109E50E42C9C8
:100D5B00E50EF452CA90000FE0B40208E50E42C94A
:100D6B00E50E42CA90000FE0B40309E50EF452C938
:100D7B00E50E42CAE50D6406703A90000FE0FF7075
:100D8B0007E50EF452CB52CCEFB40109E50E42CB82
:100D9B00E50EF452CC90000FE0B40208E50E42CB06
:100DAB00E50E42CC90000FE0B40309E50EF452CBF4
:100DBB00E50E42CCE50D6407703A90000FE0FF7032
:100DCB0007E50EF452E152E2EFB40109E50E42E100
:100DDB00E50EF452E290000FE0B40208E50E42E19A
:100DEB00E50E42E290000FE0B40309E50EF452E188
:040DFB00E50E42E2DD
:010DFF0022D1
:10202A00EFB40900503A902037F82828730220525A
:10203A0002205502205802205B02205E0220610223
:10204A0020640220670220838D80228D90228DA039
:10205A00228DB0228DC0228DC8228DE8228DF822D1
:10206A007BFF7A1379B8900013E4F0A3EFF0AF0581
:0A207A00A3E4F0A3EFF012196C22AA
:1020DB00EFB40900503D9020E8F828287302210343
:1020EB0002210602210902210C02210F02211202F8
:1020FB00211502211802211BAF8022AF9022AFA025
:10210B0022AFB022AFC022AFC822AFE822AFF82275
:10211B007FFF227BFF7A1379DA900013E4F0A3EFB1
:07212B00F012196C7FFF2286
:0516E70090000EEFF081
:1016EC00648870030217F890000EE0FF54F0F50DBB
:1016FC00EF540FFF90149D93F50EEFD394074021F8
:10170C007BFF7A1379F990000EE0FF900013E4F060
:10171C00A3EFF0A200E4FF33A3CFF0A3EFF0121974
:10172C006C300060E50D24F0602124F0602224F080
:10173C00602324F0602424F0602524F0602624F03B
:10174C00602724707028E50E428022E50E4290221C
:10175C00E50E42A022E50E42B022E50E42C022E583
:10176C000E42C822E50E42E822E50E42F8227BFF2B
:10177C007A14791B90000EE0FF900013E4F0A3EFB5
:10178C00F002196CE50D24F0602224F0602424F0A2
:10179C00602624F0602824F0602A24F0602C24F0C9
:1017AC00602E24707030E50EF4528022E50EF45257
:1017BC009022E50EF452A022E50EF452B022E50E72
:1017CC00F452C022E50EF452C822E50EF452E8227F
:1017DC00E50EF452F8227BFF7A14793C90000EE06F
:0C17EC00FF900013E4F0A3EFF012196C62
:0117F80022CE
:051A2000900164EFF0ED
:101A2500BF8802C322900164E0FF54F0F50DEF5426
:101A35000FFF90149D93F50EEFD3940740167BFF8F
:101A45007A14795D900164E0FF900013E4F0A3EF50
:101A5500F012196CE50D24F0602124F0602224F0C9
:101A6500602324F0602424F0602524F0602624F00F
:101A750060272470702885800F803985900F803409
:101A850085A00F802F85B00F802A85C00F80258502
:101A9500C80F802085E80F801B85F80F80167BFF17
:101AA5007A14795D900164E0FF900013E4F0A3EFF0
:0D1AB500F012196CE50F550E6002D322C32C
:011AC2002201
:051B6200900165EFF0A9
:101B670064887003021BFD900165E0FF54F0F50DDA
:101B7700EF540FFF90149D93F50EEFD39407401683
:101B87007BFF7A14797B900165E0FF900013E4F006
:101B9700A3EFF012196CE50D24F0602124F0602208
:101BA70024F0602324F0602424F0602524F06026CC
:101BB70024F0602724707028E50E628022E50E620B
:101BC7009022E50E62A022E50E62B022E50E62C009
:101BD70022E50E62C822E50E62E822E50E62F822CF
:101BE7007BFF7A14797B900165E0FF900013E4F0A6
:061BF700A3EFF012196CCF
:011BFD0022C5
:1023EF00EFB40800503E9023FCF828287302241401
:1023FF0002241802241C022420022424022428026E
:10240F00242C022430ED628022ED629022ED62A036
:10241F0022ED62B022ED62C022ED62C822ED62E8C9
:05242F0022ED62F8221D
:101BFE00300048EFB408004003021C95901C11F809
:101C0E00282873021C29021C2D021C31021C3502CD
:101C1E001C39021C3D021C41021C45ED428022ED86
:101C2E00429022ED42A022ED42B022ED42C022EDC2
:101C3E0042C822ED42E822ED42F822EFB4080050ED
:101C4E0046901C56F8282873021C6E021C73021C48
:101C5E0078021C7D021C82021C87021C8C021C91C5
:101C6E00EDF4528022EDF4529022EDF452A022EDCA
:101C7E00F452B022EDF452C022EDF452C822EDF42B
:081C8E0052E822EDF452F822A5
:10222D00EFB40900504490223AF828287302225541
:10223D0002225902225D02226102226502226902F6
:10224D00226D022271022275AE80801EAE90801A20
:10225D00AEA08016AEB08012AEC0800EAEC8800AA1
:10226D00AEE88006AEF88002D322EE5D6002D32286
:01227D00C39D
:01227E00223D
:08263D0041014C0041014B007A
:1021870090000212083CFF90014BE06F6044120878
:1021970023FEC4540F900149F0EE540FFE7401A8BA
:1021A70006088002C333D8FC90014AF09000011260
:1021B700083CFEC4540F900147F0EE540FFE740123
:1021C700A806088002C333D8FC900148F090014B61
:0321D700EFF02204
:101D2200900152EBF0A3EAF0A3E9F0A3EDF09001E9
:101D320052E0FBA3E0FAA3E0F9ED12086990015624
:101D4200E0FF900152E0FBA3E0FAA3E0F99000016A
:101D5200EF12087B900155E0FF7D02120B219001EA
:101D620056E0FF7D02120B21900155E0FFD20012D6
:101D720015D2900156E0FFD2001215D2900155E023
:101D8200FFD2001216E7900156E0FFD2001216E7CA
:101D920090014CE004FFF0900152E0FBA3E0FAA3B3
:0C1DA200E0F9900002EF12087B0221879C
:1024340090014BE06F603BEDC4540F900149F0ED07
:10244400540FFE7401A806088002C333D8FC90011F
:102454004AF0EBC4540F900147F0EB540FFE7401A3
:10246400A806088002C333D8FC900148F090014BC1
:03247400EFF02264
:0A21320090000DEDF090000CEFF0AE
:10213C007D02120B2190000DE0FF7D02120B21900D
:10214C00000CE0FFD2001215D290000DE0FFD2007F
:10215C001215D290000CE0FFD2001216E790000D81
:10216C00E0FFD2001216E790014CE004F0FCFF9067
:0A217C00000CE0FDA3E0FB12243488
:012186002236
:1021DA00900147E0FFA3E0FDD200121BFE900149E7
:1021EA00E0FFA3E0FDD200121BFE900147E0FFA32F
:1021FA00E0FD12222D40037FFF22900147E0FFA35A
:10220A00E0FD1223EF900147E0FFA3E0FD12222D2B
:10221A0050037FFF22900149E0FFA3E0FD1223EF64
:03222A007F002210
:10253000900147E0FFA3E0FDC200121BFE9001499D
:10254000E0FFA3E0FDC200121BFE900149E0FFA3E3
:10255000E0FD1223EF900147E0FFA3E0FD0223EF2F
:10256000900149E0FFA3E0FDC200121BFE9001476D
:10257000E0FFA3E0FDC200121BFE900149E0FFA3B3
:10258000E0FD1223EF900149E0FFA3E0FD0223EFFD
:10259000900149E0FFA3E0FDC200121BFE9001473D
:1025A000E0FFA3E0FDD200121BFE900149E0FFA373
:1025B000E0FD1223EF900149E0FFA3E0FD0223EFCD
:1023A900900149E0FFA3E0FDC200121BFE90014726
:1023B900E0FFA3E0FDD200121BFE900149E0FFA35C
:1023C900E0FD1223EF900147E0FFA3E0FD12222D6B
:1023D900900149E0FFA3E0FD50061223EF7FFF22A1
:0623E9001223EF7F002229
:051E2F0090001DEFF022
:101E340090001FF090014730E709E0FFA3E0FDD2D6
:101E4400008007E0FFA3E0FDC200121BFE900149E1
:101E5400E0FFA3E0FDC200121BFEE490001EF09020
:101E6400001DE0FF90001FE06F30E70B900147E09A
:101E7400FFA3E0FD1223EF900149E0FFA3E0FD1270
:101E840023EF90001DE090001FF025E090001DF06E
:101E9400900149E0FFA3E0FD1223EF90001EE0044F
:071EA400F0E0C3940840B810
:011EAB002214
:101F6F00E490001BF0900147E0FFA3E0FDD20012C8
:101F7F001BFEE490001AF090001BE025E0F09001AA
:101F8F0049E0FFA3E0FDD200121BFE900147E0FFE6
:101F9F00A3E0FD12222D500790001BE04401F090AA
:101FAF000149E0FFA3E0FDC200121BFE90001AE002
:0D1FBF0004F0E0C3940840BF90001BE0FF59
:011FCC0022F2
:0B1F0E00900157EBF0A3EAF0A3E9F00C
:101F1900E490015BF090015AF01221DA90015AE045
:101F290025E0FF121E2F1223A9EF702590015AE018
:101F390025E0FF900157E0FBA3E0FAA3E0F9900147
:101F49005BE0F582758300EF12087B90015BE0048A
:101F5900F012253090015AE004F0E0C3948040B9B2
:051F690090015BE0FFA8
:011F6E002250
:1023190075985053873F538EDE53A23FE47B04FAEE
:10232900F9F8900139E0FCA3E0FDA3E0FEA3E0FF8A
:102339001209BB7B007AC2790178001209BBC3E498
:102349009FFFE49E438E4053890F8F8BF58DC2AB5F
:08235900C28FD28EC20CD2AC7F
:012361002259
:0B268900EF14700653A23FED42A222A6
:0524770090015CEFF094
:10247C00E47B04FAF9F8900139E0FCA3E0FDA3E059
:10248C00FEA3E0FF1209BB90015DE0F8A3E0F9A305
:10249C00E0FAA3E0FB1209BBC3E49FFFE49EFE90AD
:0B24AC00015CE01470058F8BEEF58DD5
:0124B7002202
:0E266F00EF147009AF058F99D20C200CFD22DC
:10265D00EF14700DA20B929BAF058F99D20C200C2D
:02266D00FD224C
:1024F900900074EBF0A3EAF0A3E9F0AE0790007442
:10250900E0FBA3E0FAA3E0F91208236019AF0690F3
:102519000074A3E475F00112091AA9F0FA1208234C
:07252900FD12266F80D7228E
:0E1FCD009000B0EFF0A3EBF0A3EAF0A3E9F070
:101FDB0090011C7401F0A37400F0A374B4F0900092
:101FEB00B1E0F9A3E0FAA3E0900082C9F0A3EAF014
:101FFB00A3E9F090011CE0F9A3E0FAA3E0900085BF
:10200B00C9F0A3EAF0A3E9F07B017A0079DC122294
:0F201B00CF9000B0E0FF7B017A0079DC0224F95E
:0300230002236253
:10236200C0E0C0F0C083C082C0D075D000C000C041
:1023720001C002C003C004C005C006C007309805F2
:10238200C2981225C0309904C299C20CD007D00657
:10239200D005D004D003D002D001D000D0D0D0825A
:0723A200D083D0F0D0E0323F
:0426450041016600E9
:1024B80090000CEBF0A3EAF0A3E9F090000CE0FB2D
:1024C800A3E0FAA3E0F990000112083CFF90000293
:1024D80012083CFD90000312083CFB1224349000C3
:1024E8000CE0FBA3E0FAA3E0F9120823900166F0E0
:0124F80022C1
:10227F00900006EBF0A3EAF0A3E9F090000AE0FF6C
:10228F00900006E0FBA3E0FAA3E0F9900002EF1242
:10229F00087B90000BE090000312087BED12086999
:1022AF0090000AE0FFA3E0FD122132900006E0FB50
:1022BF00A3E0FAA3E0F9900001EF12087B0224B823
:10002600900006EEF0A3EFF0A3EBF0A3EAF0A3E94D
:01003600F0D9
:10003700900166E0FB54F0120AAE006600006910FA
:1000470000852000973000AE4000C85000E46000F3
:10005700F07000FC800108900114A0000001307FBF
:100067000122900011120A7D00000080EB54072442
:100077005090001CF090001B7408F00201309000B3
:1000870011120A7D00000100900166E05407803FCD
:10009700900011120A7D00000200900006E0FF9018
:1000A7000166E054068015900011120A7D000004D5
:1000B70000900006E0FF900166E0540424502F8072
:1000C70010900011120A7D00000800900006E0243D
:1000D7005090001CF090001B7410F0804C900011A1
:1000E700120A7D00001000802E900011120A7D0078
:1000F7000020008022900011120A7D00004000803D
:1001070016900011120A7D00008000800A900011ED
:10011700120A7D00010000900166E0540724509008
:10012700001CF090001B7420F0900006E0FEA3E096
:10013700FFE4FCFD900011E0F8A3E0F9A3E0FAA3C7
:10014700E0FBC3120A4D50037F042290000BE0FE30
:10015700A3E0FBAA06900006E0FEA3E0FFEF2BFF5B
:10016700EE3AFEE433FDE433FC900011E0F8A3E03F
:10017700F9A3E0FAA3E0FBC3120A4D50289000064A
:10018700E0FEA3E0FBAA06900011E0FCA3E0FDA3BC
:10019700E0FEA3E0C39BFFEE9AFEED9400FDEC9416
:1001A70000FCA3800E90000BE0FEA3E0FFE4FCFD43
:1001B700900015120A7190001BE0FD7C009000066C
:1001C700E0FEA3E0FF1208AF900019EEF0A3EFF0F6
:1001D7001221DA90001CE025E0FF121E2F1223A93E
:1001E700EF600302042890001BE0B4201190000682
:1001F700E0FF121E2F1223A9EF60030204289000CC
:1002070007E0FF121E2F1223A9EF600302042890B4
:10021700000D120A7D00000000900015E0FCA3E02D
:10022700FDA3E0FEA3E0FF90000DE0F8A3E0F9A333
:10023700E0FAA3E0FBC3120A4D400302047C9000DE
:1002470006E0FEA3E0FFE4FCFD90000DE0F8A3A3A9
:10025700A3E02FFFEA3EFEED39FDEC38FCC0079026
:10026700001BE0FBE4FAF9F8D0071209BBA804A9C0
:1002770005AA06AB07900019E0FEA3E0FFE4FCFD2A
:10028700C3120A4D700302042E900006E0FEA3E09D
:10029700FFE4FCFD90000DE0F8A3E0F9A3E0FAA36A
:1002A700E02FFFEA3EFEED39FDEC38FCC007900079
:1002B7001BE0FBE4FAF9F8D0071209BB900019EE2E
:1002C700F0A3EFF0122530900166E0FF54F0120A18
:1002D700AE02FA1003942002FE30032E4003615051
:1002E7000394600394700394800394900394A00094
:1002F7000003A0EF02038E900006E0FEA3E0FFE4F8
:10030700FCFD90000DE0F8A3E0F9A3E0FAA3E02FCD
:10031700FFEA3EFEED39FDEC38FC7808120A5E90E4
:100327000166E05406802E900006E0FEA3E0FFE49D
:10033700FCFD90000DE0F8A3E0F9A3E0FAA3E02F9D
:10034700FFEA3EFEED39FDEC38FC7808120A5E90B4
:100357000166E0540424502F803B900006E0FEA382
:10036700E0FFE4FCFD90000DE0F8A3E0F9A3E0FA5C
:10037700A3E02FFFEA3EFEED39FDEC38FC780812CA
:100387000A5EEF2450800E540724508008900166BF
:10039700E05407245090001CF07F0A7E00120003EF
:1003A7001221DA90001CE025E0FF121E2F1223A96C
:1003B700EF6002806C90001BE064207037900006AD
:1003C700E0FEA3E0FFE4FCFD90000DE0F8A3E0F9F8
:1003D700A3E0FAA3E02FFFEA3EFEED39FDEC38FC7F
:1003E700E4FB7A01F9F81209BB121E2F1223A9EFB9
:1003F7006002802D900006E0FEA3E0FFE4FCFD9084
:10040700000DE0F8A3E0F9A3E0FAA3E02FFFEA3E2E
:10041700FEED39FDEC38FCE4121E2F1223A9EF6024
:10042700061225307F022290000DA3A3E0FEA3E071
:10043700FF900008E0FBA3E0FAA3E0F98F828E8328
:1004470012083CFF121E2F1223A9EF600612253057
:100457007F032290000DE0FCA3E0FDA3E0FEA3E0F4
:100467002401FFE43EFEE43DFDE43CFC90000D1258
:100477000A710202201225307F0A7E0012000390C3
:10048700000BE0FEA3E0FBAA06900006E0FEA3E057
:10049700FFEF2BFFEE3AFEE433FDE433FC9000114F
:1004A700E0F8A3E0F9A3E0FAA3E0FBC3120A4D507A
:0604B700037F05227F0017
:0104BD00221C
:100E0000900006EEF0A3EFF0A3EBF0A3EAF0A3E965
:010E1000F0F1
:100E1100900166E0FB54F0120AAE0E40000E431042
:100E21000E50200E60300E77400E91500EA3600ED2
:100E3100B7700ECB800EDF900EF3A000000F097F7C
:100E41000122900011120A7D00000080EB80619068
:100E51000011120A7D00000100900166E0805190AE
:100E61000011120A7D00000200900006E0FF9001CF
:100E710066E054068015900011120A7D00000400FE
:100E8100900006E0FF900166E0540424502F807426
:100E9100900011120A7D00000800900006E0245025
:100EA1008062900011120A7D00001000900166E03E
:100EB10054072450804E900011120A7D000020003A
:100EC100900166E054072450803A900011120A7D87
:100ED10000004000900166E05407245080269000F5
:100EE10011120A7D00008000900166E05407245031
:100EF1008012900011120A7D00010000900166E04D
:100F010054072450900019F0900006E0FEA3E0FF82
:100F1100E4FCFD900011E0F8A3E0F9A3E0FAA3E0FE
:100F2100FBC3120A4D50037F042290000BE0FEA385
:100F3100E0FBAA06900006E0FEA3E0FFEF2BFFEE28
:100F41003AFEE433FDE433FC900011E0F8A3E0F94C
:100F5100A3E0FAA3E0FBC3120A4D5028900006E07B
:100F6100FEA3E0FBAA06900011E0FCA3E0FDA3E0D4
:100F7100FEA3E0C39BFFEE9AFEED9400FDEC94000E
:100F8100FCA3800E90000BE0FEA3E0FFE4FCFD90CB
:100F91000015120A711221DA900019E025E0FF1202
:100FA1001E2F1223A9EF60028038E4FF7E08FDFCAA
:100FB100900011E0F8A3E0F9A3E0FAA3E0FBD3125B
:100FC1000A4D4010900006E0FF121E2F1223A9EFD8
:100FD1006002800E900007E0FF121E2F1223A9EF7E
:100FE10060061225307F02221221DA900019E025D5
:100FF100E004FF121E2F90000D120A7D0000000078
:10100100900015E0FCA3E0FDA3E0FEA3E0FF90004B
:101011000DE0F8A3E0F9A3E0FAA3E0FBC3120A4D47
:101021005047122560121F6FC00790000DA3A3E067
:10103100FEA3E0FF900008E0FBA3E0FAA3E0F98F34
:10104100828E83D0E012087B90000DE0FCA3E0FDCE
:10105100A3E0FEA3E02401FFE43EFEE43DFDE43C09
:10106100FC90000D120A7180971225901225309084
:10107100000BE0FEA3E0FF900007E02FFF900006C9
:10108100E03EFEE4FCFD900011E0F8A3E0F9A3E0EE
:0F109100FAA3E0FBC3120A4D50037F05227F0034
:0110A000222D
:101CA200021EACE493A3F8E493A34003F68001F28E
:101CB20008DFF48029E493A3F85407240CC8C33343
:101CC200C4540F4420C8834004F456800146F6DF12
:101CD200E4800B0102040810204080902636E47E46
:101CE200019360BCA3FF543F30E509541FFEE49307
:101CF200A360010ECF54C025E060A840B8E493A3CE
:101D0200FAE493A3F8E493A3C8C582C8CAC583CAF8
:101D1200F0A3C8C582C8CAC583CADFE9DEE780BEB0
:012649000090
:10082300BB010689828A83E0225002E722BBFE02D3
:09083300E32289828A83E4932206
:10083C00BB010CE58229F582E5833AF583E0225071
:10084C0006E92582F8E622BBFE06E92582F8E222BB
:0D085C00E58229F582E5833AF583E49322D5
:10086900BB010689828A83F0225002F722BBFE016E
:02087900F32268
:10087B00F8BB010DE58229F582E5833AF583E8F0B3
:10088B00225006E92582C8F622BBFE05E92582C85F
:02089B00F22247
:10089D00EF8DF0A4A8F0CF8CF0A428CE8DF0A42E6F
:0208AD00FE2229
:1008AF00BC000BBE0029EF8DF084FFADF022E4CC2D
:1008BF00F875F008EF2FFFEE33FEEC33FCEE9DECF6
:1008CF00984005FCEE9DFE0FD5F0E9E4CEFD22ED3C
:1008DF00F8F5F0EE8420D21CFEADF075F008EF2F86
:1008EF00FFED33FD4007985006D5F0F222C398FD77
:0508FF000FD5F0EA2214
:10090400C5F0F8A3E028F0C5F0F8E582158270027E
:060914001583E038F0221B
:10091A00A3F8E0C5F025F0F0E58215827002158390
:06092A00E0C838F0E822ED
:10093000E88FF0A4CC8BF0A42CFCE98EF0A42CFC66
:100940008AF0EDA42CFCEA8EF0A4CDA8F08BF0A4E4
:100950002DCC3825F0FDE98FF0A42CCD35F0FCEB43
:100960008EF0A4FEA9F0EB8FF0A4CFC5F02ECD3908
:0F097000FEE43CFCEAA42DCE35F0FDE43CFC2275
:10097F0075F008758200EF2FFFEE33FECD33CDCC2F
:10098F0033CCC58233C5829BED9AEC99E5829840B2
:10099F000CF582EE9BFEED9AFDEC99FC0FD5F0D68F
:1009AF00E4CEFBE4CDFAE4CCF9A88222B800C1B9B9
:1009BF000059BA002DEC8BF084CFCECDFCE5F0CBF7
:1009CF00F97818EF2FFFEE33FEED33FDEC33FCEB30
:1009DF0033FB10D703994004EB99FB0FD8E5E4F9EB
:1009EF00FA227818EF2FFFEE33FEED33FDEC33FCD8
:1009FF00C933C910D7059BE99A4007EC9BFCE99ACC
:100A0F00F90FD8E0E4C9FAE4CCFB2275F010EF2F10
:100A1F00FFEE33FEED33FDCC33CCC833C810D70710
:100A2F009BEC9AE899400AED9BFDEC9AFCE899F84B
:0E0A3F000FD5F0DAE4CDFBE4CCFAE4C8F922DE
:100A4D00EB9FF5F0EA9E42F0E99D42F0E89C45F0FF
:010A5D002276
:100A5E00E8600FECC313FCED13FDEE13FEEF13FF76
:030A6E00D8F1229A
:0C0A7100ECF0A3EDF0A3EEF0A3EFF022F8
:100A7D00A8828583F0D083D082120A94120A941230
:100A8D000A94120A94E473E493A3C583C5F0C58355
:100A9D00C8C582C8F0A3C583C5F0C583C8C582C8C3
:010AAD002226
:100AAE00D083D082F8E4937012740193700DA3A3D7
:100ABE0093F8740193F5828883E4737402936860EB
:060ACE00EFA3A3A380DFEB
:100AD400EC8EF0A4CCC5F0CCCDF8EFA4CEC5F02DAF
:100AE400FDE43CFCE8A42EC8C5F03DFDE43CFCEF6D
:0D0AF400A4FFE5F028FEE43DFDE43CFC22FB
:1022CF00900082E0FFA3E0FEA3E0CF90008BF0A38D
:1022DF00EEF0A3EFF0900085E0CBF0A3E0CAF0A3FF
:1022EF00E0C9F07F2290008EAD82AC831208238D5F
:1022FF00828C83F0A309E970010ADFEC900085E07E
:0A230F00FBA3E0FAA3E0F9020523A6
:1004BE00E508248BF582E43400F583E005082290EC
:1004CE00008830080390008BE475F001120B0102D6
:1004DE0008232001E97F2ED2018018EF540F2490BB
:1004EE00D43440D4FF30050BEF24BFB41A005003B0
:1004FE002461FFE50960021509050CE50C70020583
:10050E000B30080E900088E475F001120B01EF021B
:10051E0008690225E97403D2088003E4C208F508CD
:10052E00900088120B18E4F509F50BF50CE509603F
:10053E00077F2012050180F5750AFFC202C201C2B3
:10054E0003C204C206C207C2091204CDFF700D30E9
:10055E0008057F00120512AF0CAE0B22B4255FC248
:10056E00D5C2051204CDFF24D0B40A00501A75F07E
:10057E000A780930D50508B6FF0106C6A426F6206E
:10058E00D5047002D20480D924CFB41A00EF5004DF
:10059E00C2E5D205020713D20280C6D20180C0D2B4
:1005AE000380BCD2D580BAD20680B47F201205015A
:1005BE002003077401B5090040F11204BEFF1205B5
:1005CE000102053BD209D20780951204BEFB12042C
:1005DE00BEFA1204BEF94A4B700679E47A077BFF25
:1005EE0020032EE509602A7E008E82758300120894
:1005FE003C60060EEE650A70F0C2D5EBC0E0EAC0B4
:10060E00E0E9C0E0EE12075AD0E0F9D0E0FAD0E00F
:10061E00FB120823FF60AAEBC0E0EAC0E0E9C0E0ED
:10062E00120501D0E02401F9D0E03400FAD0E0FB4D
:10063E00E50A0460DCD50AD980877BFF7A077956F4
:10064E00D203809C791080027908C207C209800803
:10065E00D2D5790A8004790AC2D5E50A047002F56A
:10066E000AE4FAFDFEFF1204BEFC7B082002131200
:10067E0004BEFD7B1030010A1204BEFE1204BEFF42
:10068E007B20EC3382D592D55013C3E43001069F04
:10069E00FFE49EFEE42002039DFDE49CFCE4CBF807
:1006AE00C202EC700CCFCECDCCE824F8F870F380FB
:1006BE0017C3EF33FFEE33FEED33FDEC33FCEB33BC
:1006CE00FB994002FB0FD8E9EB300205F8D0E0C4ED
:1006DE0048B202C0E00AEC4D4E4F78207B0070C24B
:1006EE00EAB50A0040BCC0E012075CD0F0D0E020B2
:1006FE000204C4C0E0C4B202C0F01204EAD0F0D5C5
:10070E00F0EB02053B120AAE05D85306525805A966
:10071E004C05A54206564F065E44065E4905BE438D
:08072E00066455064846064822
:100736004506484708045005AD2D05B12E05D42BB6
:1007460005B52305D22007ED2A056D48000005CC26
:100756003F3F3F00790AA2D5200414300609B9109C
:10076600020404B9080104A2D5200702500104209E
:1007760003689203B509005034C0E07F20300419A5
:100786007F30A20372077206500F1207B3C203C26C
:1007960007C206C2097F30800F300603E9C0E012A7
:1007A6000501300603D0E0F9D0E0B509CC300617D4
:1007B6007F30B9100C1205017F583005077F78800D
:1007C60003B908031205013003057F2D0205017FD9
:1007D600202009F87F2B2007F322920380CF286E72
:1007E600756C6C2900D2021204BE3002F8C202787F
:1007F6000930D50108F602056D2D504349581204FB
:10080600BE2403B405004001E49007FF931204F2EE
:0D081600743A1204F2D2047509040206526D
:100B0100F8E0FBA3A3E0F925F0F0E582158270027D
:070B11001583E0FA38F02221
:090B1800EBF0A3EAF0A3E9F022DE
:1025E900EFB40A07740D1225F4740A309811A899EA
:1025F900B8130CC2983098FDA899C298B811F63052
:0726090099FDC299F5992229
:00000001FF
