:030000000217558F
:0C175500787FE4F6D8FD75812102179C16
:101C94000D0A0D0A4572726F72204D43552C7374F0
:0D1CA4006F702072756E6E696E670D0A001C
:1018C20012090090000174F6F0A37428F0A3744486
:1018D200F0A37442F0E4A3F0A374D5F0A3746FF004
:1018E200E4900000F0900000E0FF90FDF993FE7498
:1018F200012FF582E43400F583E0FFEE6F600B7B8D
:10190200FF7A1C799412186B80FE900000E004F0BC
:0F191200E0C3940740CF7FE87E0312000380C13B
:1011B6004543424D205625752E25752E2575206FE3
:1011C6006E202573005354433841384B00363400A3
:1011D60053253175000D0A436865636B696E672098
:1011E6004D4355002E004572726F720D0A506C65A4
:1011F60061736520636865636B2074686520736539
:101206007474696E67206F6620746865204D435557
:10121600206D6F64656C0D0A004F4B0D0A49442022
:101226002020203A0025303258000D0A004441544F
:101236004120203A31323809427974650D0A004955
:1012460044415441203A31323809427974650D0AD5
:10125600005844415441203A257509427974650D78
:101266000A00464C415348203A257509427974656F
:101276000D0A00454550524F4D3A2575094279747D
:10128600650D0A004853492020203A256C75094807
:101296007A0D0A004C53492020203A257509487AD0
:1012A6000D0A004247562020203A2575096D560D35
:0212B6000A002C
:071CFB004401A500000000F8
:10000300EF4E601A90019DE0FCA3E0FDED1D700131
:0E0013001C144C70F7EF1F70011E144E70E6A7
:0100210022BC
:081CB10090011AE0FEA3E0FF20
:0A1CB900EF1FAC0670011E4C70F620
:011CC30022FE
:101C6E0090019DE0FCA3E0FD12087BE47B83FAF972
:101C7E00F81207109001A112083E9001A1E0C313C3
:061C8E00FEA3E013FF229B
:101C1E009001A0E06599600AE599F0E490019FF0CB
:101C2E00800690019FE004F090019FE0C394E9408C
:091C3E0007000075C760000022D8
:091862007BFF900011F0A3E4F0FB
:0B186B0090000EEBF0A3EAF0A3E9F000
:101876009000797401F0A37400F0A37411F0900045
:101886000EE0F9A3E0FAA3E090007CC9F0A3EAF029
:10189600A3E9F0900079E0F9A3E0FAA3E090007FD5
:1018A600C9F0A3EAF0A3E9F07B017A007939121AAC
:0C18B600D07B017A0079397F01021BE72A
:100D0D00900011E4F0A37402F0A3E4F0A304F0A3A7
:100D1D00E4F0A37405F0A374FFF0A37411F0A374B1
:100D2D00CBF07BFF7A1179B612186B7BFF7A1179B4
:100D3D00D312186B7BFF7A1179D6900011E4F0A3D2
:100D4D007404F012186BE490000DF07BFF7A1179AA
:100D5D00DB12186BE490000CF07BFF7A1179EA122C
:100D6D00186B90000CE0FF90FDF993FE74F12FF8D5
:100D7D00E6B5060690000DE004F090000CE004F0DE
:100D8D00E0C3940740D390000DE0640760097BFF3A
:100D9D007A1179EC020E5E7BFF7A12791F12186BB5
:100DAD00E490000CF090000CE0FFC39407501F7B03
:100DBD00FF7A12792BEF90FDF993FF900011E4F07B
:100DCD00A3EFF012186B90000CE004F080D77BFFBE
:100DDD007A12793012186B7BFF7A12793312186BF5
:100DED007BFF7A12794512186B7A1279577420129B
:100DFD0018627A12796874FE1218627BFF7A127982
:100E0D007990001174021218677BFF7A12798A901B
:100E1D0001A5E0FCA3E0FDA3E0FEA3E0FF9000111F
:100E2D0012083E12186B7BFF7A12799A78F8E6FF5A
:100E3D0008E6900011CFF0A3EFF012186B7BFF7A4C
:100E4D001279A978EFE6FF08E6900011CFF0A3EF35
:040E5D00F012186B0C
:010E6100226E
:1017E100EF14600D14602614603C146054240470DE
:1017F1006F90FE027480F090FE02E030E0F990FEFE
:1018010000E054FCF090FE03E4F0A3F02290FE040B
:101811007480F090FE04E030E0F990FE00E04403B3
:10182100F090FE03803490FE037480F090FE03E09C
:1018310030E0F990FE00E054FC4401F090FE048099
:101841001990FE0374C0F090FE03E030E0F990FEC1
:1018510000E054FC4402F090FE04E4F090FE02F03B
:011861002264
:0C1CE400EF90FE01700304F022EFF022EC
:1009000043BA80AF9FE4FCFDFEC004A905AA06AB74
:100910000778FBE6FFD000C3EF9BFFEE9AFEED9950
:10092000FDEC98FCE47BF07AD2F9F8120710C3E4EE
:100930009FFF74369EFE746E9DFD74019CFC9000BA
:100940000812083E900008E0FCA3E0FDA3E0FEA32F
:10095000E0FFC00790FE01E0FBE4FAF9F8D00712CF
:10096000079B90000812083E7FC07EF67D577C00F2
:10097000900008E0F8A3E0F9A3E0FAA3E0FBC312BB
:10098000082D500D9001A512084A00546000020B7A
:100990002F7FC07E267D827C00900008E0F8A3E0D7
:1009A000F9A3E0FAA3E0FBC312082D500D9001A5B6
:1009B00012084A005B8D80020B2F7F807EED7DAF99
:1009C0007C00900008E0F8A3E0F9A3E0FAA3E0FBC4
:1009D000C312082D500D9001A512084A00A8C000AE
:1009E000020B2F7F807E2D7DE87C00900008E0F8D0
:1009F000A3E0F9A3E0FAA3E0FBC312082D500D9089
:100A000001A512084A00B71B00020B2F7F807E361B
:100A10007D257C01900008E0F8A3E0F9A3E0FAA3AB
:100A2000E0FBC312082D500D9001A512084A0119D0
:100A30004000020B2F7F807E567D417C0190000894
:100A4000E0F8A3E0F9A3E0FAA3E0FBC312082D50FD
:100A50000D9001A512084A01312D00020B2F7F00D5
:100A60007EDB7D5F7C01900008E0F8A3E0F9A3E065
:100A7000FAA3E0FBC312082D500D9001A512084AFD
:100A800001518000020B2F7F607E197D857C0190D3
:100A90000008E0F8A3E0F9A3E0FAA3E0FBC3120822
:100AA0002D500D9001A512084A016E3600020B2F41
:100AB0007F207EE07DB27C01900008E0F8A3E0F9A1
:100AC000A3E0FAA3E0FBC312082D500C9001A5127D
:100AD000084A019BFCC080577FE07EA67DE07C0138
:100AE000900008E0F8A3E0F9A3E0FAA3E0FBC3124A
:100AF000082D500C9001A512084A01C9C380802F0F
:100B00007F607E2B7DFF7C01900008E0F8A3E0F978
:100B1000A3E0FAA3E0FBC312082D9001A55009122F
:100B2000084A01FA4000800712084A02160EC0E483
:100B30007B107A27F9F89001A5E0FCA3E0FDA3E083
:100B4000FEA3E0FF12079B90019DEEF0A3EFF0E4FF
:100B50009001A0F090019FF0C209121A8100D2AF5B
:0B0B6000007FC87E00120003020D0D94
:0B142B009000AAEBF0A3EAF0A3E9F0A8
:101436007F647E00121C6E90011AEEF0A3EFF0900E
:1014460001177401F0A37400F0A374ADF09000AA24
:10145600E0F9A3E0FAA3E090007CC9F0A3EAF0A3C8
:10146600E9F0900117E0F9A3E0FAA3E090007FC944
:10147600F0A3EAF0A3E9F07B017A0079D7121AD03B
:101486009000D5EEF0A3EFF07FF47E01120003E4A6
:10149600FBFAD39000D6E09B9000D5E09A40E9D2C3
:1014A600B1C2B1121CB174D72BF58274003AF58320
:1014B600E0F9E4FDE930E004D2B18002C2B1E9C34B
:1014C60013F9121CB10DEDB408EAD2B1121CB11217
:0914D6001CB10BBB00010A80B936
:0B1582009001A9EBF0A3EAF0A3E9F050
:10158D00E4FFFE9001AFF0A3F0A3F0A3F09001A94A
:10159D00E0FBA3E0FAA3E0F912066A60729001B2D3
:1015AD00E004F070069001B1E004F09001ACE0FBB6
:1015BD00A3E0FAA3E0F98F828E83120683FD9001DA
:1015CD00A9E0FBA3E0FAA3E0F912066AB505070F3F
:1015DD00BF00010E8012E4FEFF9001B1E0FDA3E01B
:1015ED009001AFCDF0A3EDF09001AAE475F00112DA
:1015FD0006E49001ACE0FBA3E0FAA3E0F98F828E44
:10160D008312068370879001AFE0FEA3E0FF227E78
:03161D00FF7FFF4D
:0116200022A7
:10137400E49001BDF09001BFF09001BEF09001BE79
:10138400E0FFC3940A40030214257E00ED2FF5828A
:10139400EE3CF583120683FFC3648094B0404BD3C4
:1013A400EF648094B750439001BFE004F0E0B401CF
:1013B400179001BEE02DF582EE3CF58312068324DE
:1013C400D0C454F09001BDF09001BFE0B4021B9072
:1013D40001BEE07E002DF582EE3CF58312068324E7
:1013E400D0FF9001BDE04FFFF0229001BEE07E00EF
:1013F4002DF582EE3CF583120683FFC3648094B816
:10140400400ED3EF648094B950069001BFE004F01D
:10141400EF642C600CEF60099001BEE004F002134D
:06142400819001BDE0FF14
:01142A00229F
:0812B8009001B3ECF0A3EDF08E
:1012C000E4A3F0A3F0A3F09001B7E0FFC3941440AF
:1012D0000302136B9001B4E02FFF9001B3E03400E0
:1012E0008F82F583120683FFC3648094B0404ED38F
:1012F000EF648094B950469001B5E0FEA3E0FF7C16
:10130000007D0A1206D29001B5EEF0A3EFF0A3E043
:10131000FF9001B4E02FFF9001B3E034008F82F51D
:1013200083120683FF3395E0FEEF24D0FFEE34FFF7
:10133000FE9001B6E02FF09001B5E03EF09001B7CD
:10134000E0FF9001B4E02FFF9001B3E034008F8202
:10135000F583120683FF642C6011EF642E600CEF9E
:1013600060099001B7E004F00212C79001B5E0FEF9
:03137000A3E0FFF8
:011373002257
:100E620090018BEBF0A3EAF0A3E9F0A3ECF0A3ED81
:010E7200F08F
:100E7300E4900197F0A3F0A3F0A3F0A3F0A3F09004
:100E83000195F0A3F090018EE0FEA3E0FF900195A1
:100E9300E0FCA3E0FDC39FEC9E4003020F329001F0
:100EA30090E0FBA3E0FAA3E0F9900197E0FEA3E052
:100EB300F5828E83120683FF90018BE0FBA3E0FA99
:100EC300A3E0F98D828C83120683B50733900198D2
:100ED300E004F07006900197E004F0900193E0FEC7
:100EE300A3E0FF900197E0B50631A3E0B5072C908E
:100EF3000195E0FFA3E090019BCFF0A3EFF0802FDB
:100F0300E4900197F0A3F0900196E02401FE900194
:100F130095E03400900199F0A3CEF0900196E0049F
:100F2300F06003020E88900195E004F0020E8890B1
:100F3300019BE0FEA3E0FF900199E0FCA3E0FDD359
:100F43009FEC9E5044900195ECF0A3EDF090019B33
:100F5300E0FEA3E0FF900195E0FCA3E0FDC39FEC5E
:100F63009E502390018BE0FBA3E0FAA3E0F98D826E
:100F73008C83E41206B0900196E004F070CF9001E8
:0B0F830095E004F080C77F01227F0092
:010F8E002240
:100B6B006770696F5F757070756C6C283C442530CD
:100B7B0032583E2C2564293BB2BBB4E6D4DAB8C359
:100B8B00494F0D0A006770696F5F757070756C6CFB
:100B9B00283C44253032583E2C31293BB2BBB4E6BD
:100BAB00D4DAB8C3494F0D0A006770696F5F75706F
:100BBB0070756C6C283C44253032583E2C30293BE8
:100BCB00B2BBB4E6D4DAB8C3494F0D0A00677069FB
:100BDB006F5F6D6F6465283C44253032583E2C2581
:100BEB0064293BB2BBB4E6D4DAB8C3494F0D0A0053
:100BFB006770696F5F6D6F64652844253032582CC0
:100C0B003C25643E293BB2BBB4E6D4DAB8C3C4A3DB
:100C1B00CABD0D0A006770696F5F777269746528CA
:100C2B003C25643E2C2564293BB2BBB4E6D4DAB830
:100C3B00C350BFDA0D0A006770696F5F726561643C
:100C4B00283C5025643E293BB2BBB4E6D4DAB8C38A
:100C5B0050BFDA0D0A006770696F5F6F7574283CBF
:100C6B0044253032583E2C2564293BB2BBB4E6D424
:100C7B00DAB8C3494F0D0A006770696F5F6F7574FF
:100C8B00283C44253032583E2C31293BB2BBB4E6CC
:100C9B00D4DAB8C3494F0D0A006770696F5F6F757F
:100CAB0074283C44253032583E2C30293BB2BBB41F
:100CBB00E6D4DAB8C3494F0D0A006770696F5F69F4
:100CCB006E283C44253032583E293BB2BBB4E6D4A7
:100CDB00DAB8C3494F0D0A006770696F5F746F67AD
:100CEB00676C65283C44253032583E293BB2BBB477
:100CFB00E6D4DAB8C3494F0D0A00010204081020EC
:020D0B00408026
:050F8F009001C2EFF02B
:100F9400648870030210A39001C2E0FF54F0F50DC1
:100FA400EF540FFF900D0593F50EEFD394074021F6
:100FB4007BFF7A0B796B9001C2E0FF9000ADE4F007
:100FC400A3EFF0A20AE4FF33A3CFF0A3EFF01214CF
:100FD4002B300A63E50D24F0602124F0602224F014
:100FE400602324F0602424F0602524F0602624F09B
:100FF40060272470702B90FE10802190FE11801CBD
:1010040090FE12801790FE13801290FE14800D90B3
:10101400FE15800890FE16800390FE17E0450EF042
:10102400227BFF7A0B79909001C2E0FF9000ADE43F
:10103400F0A3EFF002142BE50D24F0602124F060FE
:101044002224F0602324F0602424F0602524F0603E
:101054002624F060272470703090FE10802190FECA
:1010640011801C90FE12801790FE13801290FE14C3
:10107400800D90FE15800890FE16800390FE17E008
:10108400FFE50EF4FEEF5EF0227BFF7A0B79B4905D
:0F10940001C2E0FF9000ADE4F0A3EFF012142BC7
:0110A300222A
:0A038B009001C1EDF09001C0EFF009
:10039500648870030206699001C0E0FF54F0F50D12
:1003A500EF540FFF900D0593F50EEFD394074023FF
:1003B5007BFF7A0B79D89001C0E0FF9000ADE4F0A7
:1003C500A3EFF09001C1E0FF9000AFE4F0A3EFF0E0
:1003D50012142BE50D24F0602124F0602224F06036
:1003E5002324F0602424F0602524F0602624F060A6
:1003F5002724707028E4F50D8046750D0180417540
:100405000D02803C750D038037750D048032750D26
:1004150005802D750D068028750D0780237BFF7AD5
:100425000B79D89001C0E0FF9000ADE4F0A3EFF0A8
:100435009001C1E0FF9000AFE4F0A3EFF012142BA0
:100445009001C1E0FFD39403401C7BFF7A0B79FB3D
:100455009001C0E0FD9000ADE4F0A3EDF0A3E4F061
:10046500A3EFF012142BE50D703A9001C1E0FF7077
:1004750007E50EF452935294EFB40109E50E429349
:10048500E50EF452949001C1E0B40208E50E4293E2
:10049500E50E42949001C1E0B40309E50EF45293D0
:1004A500E50E4294E50D6401703A9001C1E0FF70DC
:1004B50007E50EF452915292EFB40109E50E42910F
:1004C500E50EF452929001C1E0B40208E50E4291A6
:1004D500E50E42929001C1E0B40309E50EF4529194
:1004E500E50E4292E50D6402703A9001C1E0FF709D
:1004F50007E50EF452955296EFB40109E50E4295C3
:10050500E50EF452969001C1E0B40208E50E42955D
:10051500E50E42969001C1E0B40309E50EF452954B
:10052500E50E4296E50D6403703A9001C1E0FF7057
:1005350007E50EF452B152B2EFB40109E50E42B12E
:10054500E50EF452B29001C1E0B40208E50E42B1E5
:10055500E50E42B29001C1E0B40309E50EF452B1D3
:10056500E50E42B2E50D6404703A9001C1E0FF70FA
:1005750007E50EF452B352B4EFB40109E50E42B3E8
:10058500E50EF452B49001C1E0B40208E50E42B3A1
:10059500E50E42B49001C1E0B40309E50EF452B38F
:1005A500E50E42B4E50D6405703A9001C1E0FF70B7
:1005B50007E50EF452C952CAEFB40109E50E42C966
:1005C500E50EF452CA9001C1E0B40208E50E42C935
:1005D500E50E42CA9001C1E0B40309E50EF452C923
:1005E500E50E42CAE50D6406703A9001C1E0FF7060
:1005F50007E50EF452CB52CCEFB40109E50E42CB20
:10060500E50EF452CC9001C1E0B40208E50E42CBF0
:10061500E50E42CC9001C1E0B40309E50EF452CBDE
:10062500E50E42CCE50D6407703A9001C1E0FF701C
:1006350007E50EF452E152E2EFB40109E50E42E19D
:10064500E50EF452E29001C1E0B40208E50E42E184
:10065500E50E42E29001C1E0B40309E50EF452E172
:04066500E50E42E27A
:01066900226E
:10197E00EFB40900503A90198BF82828730219A673
:10198E000219A90219AC0219AF0219B20219B50255
:10199E0019B80219BB0219D78D80228D90228DA005
:1019AE00228DB0228DC0228DC8228DE8228DF82284
:1019BE007BFF7A0C79209000ADE4F0A3EFF0AF0539
:0A19CE00A3E4F0A3EFF012142B22A3
:1019D800EFB40900503D9019E5F8282873021A0061
:1019E800021A03021A06021A09021A0C021A0F0234
:1019F8001A12021A15021A18AF8022AF9022AFA04D
:101A080022AFB022AFC022AFC822AFE822AFF8227F
:101A18007FFF227BFF7A0C79429000ADE4F0A3EFC0
:071A2800F012142B7FFF22D6
:0510A4009001C3EFF014
:1010A900648870030211B59001C3E0FF54F0F50D97
:1010B900EF540FFF900D0593F50EEFD394074021E0
:1010C9007BFF7A0C79619001C3E0FF9000ADE4F0F9
:1010D900A3EFF0A20BE4FF33A3CFF0A3EFF01214B8
:1010E9002B300B60E50D24F0602124F0602224F000
:1010F900602324F0602424F0602524F0602624F085
:10110900602724707028E50E428022E50E42902265
:10111900E50E42A022E50E42B022E50E42C022E5CC
:101129000E42C822E50E42E822E50E42F8227BFF74
:101139007A0C79839001C3E0FF9000ADE4F0A3EF4E
:10114900F002142BE50D24F0602224F0602424F031
:10115900602624F0602824F0602A24F0602C24F012
:10116900602E24707030E50EF4528022E50EF452A0
:101179009022E50EF452A022E50EF452B022E50EBB
:10118900F452C022E50EF452C822E50EF452E822C8
:10119900E50EF452F8227BFF7A0C79A49001C3E0A2
:0C11A900FF9000ADE4F0A3EFF012142B57
:0111B5002217
:0514DF009001C4EFF0D4
:1014E400BF8802C3229001C4E0FF54F0F50DEF540D
:1014F4000FFF900D0593F50EEFD3940740167BFF75
:101504007A0C79C59001C4E0FF9000ADE4F0A3EF3C
:10151400F012142BE50D24F0602124F0602224F055
:10152400602324F0602424F0602524F0602624F055
:1015340060272470702885800F803985900F80344F
:1015440085A00F802F85B00F802A85C00F80258548
:10155400C80F802085E80F801B85F80F80167BFF5D
:101564007A0C79C59001C4E0FF9000ADE4F0A3EFDC
:0D157400F012142BE50F550E6002D322C3B8
:011581002247
:051621009001C5EFF08F
:10162600648870030216BC9001C5E0FF54F0F50D06
:10163600EF540FFF900D0593F50EEFD39407401668
:101646007BFF7A0C79E39001C5E0FF9000ADE4F0F2
:10165600A3EFF012142BE50D24F0602124F0602294
:1016660024F0602324F0602424F0602524F0602612
:1016760024F0602724707028E50E628022E50E6251
:101686009022E50E62A022E50E62B022E50E62C04F
:1016960022E50E62C822E50E62E822E50E62F82215
:1016A6007BFF7A0C79E39001C5E0FF9000ADE4F092
:0616B600A3EFF012142B5B
:0116BC00220B
:101B6100EFB40800503E901B6EF8282873021B86C4
:101B7100021B8A021B8E021B92021B96021B9A02F7
:101B81001B9E021BA2ED628022ED629022ED62A0FB
:101B910022ED62B022ED62C022ED62C822ED62E860
:051BA10022ED62F822B4
:1016BD00300C48EFB4080040030217549016D0F8D0
:1016CD002828730216E80216EC0216F00216F40230
:1016DD0016F80216FC021700021704ED428022EDE7
:1016ED00429022ED42A022ED42B022ED42C022ED09
:1016FD0042C822ED42E822ED42F822EFB408005034
:10170D0046901715F828287302172D021732021765
:10171D003702173C02174102174602174B021750AA
:10172D00EDF4528022EDF4529022EDF452A022ED10
:10173D00F452B022EDF452C022EDF452C822EDF471
:08174D0052E822EDF452F822EB
:101A2F00EFB409005044901A3CF8282873021A5753
:101A3F00021A5B021A5F021A63021A67021A6B021A
:101A4F001A6F021A73021A77AE80801EAE90801A38
:101A5F00AEA08016AEB08012AEC0800EAEC8800AA7
:101A6F00AEE88006AEF88002D322EE5D6002D3228C
:011A7F00C3A3
:011A80002243
:101A810075985053873F538EDE53A23FE47B04FA8F
:101A9100F9F89001A5E0FCA3E0FDA3E0FEA3E0FFBF
:101AA10012079B7B007AC27901780012079BC3E47D
:101AB1009FFFE49E438E4053890F8F8BF58DC2AB00
:0E1AC100C28FD28E53B7EF53B8EFC20ED2AC25
:011ACF0022F4
:0B1CF000EF14700653A23FED42A22249
:051BA6009001B8EFF012
:101BAB00E47B04FAF9F89001A5E0FCA3E0FDA3E0C7
:101BBB00FEA3E0FF12079B9001B9E0F8A3E0F9A3A5
:101BCB00E0FAA3E0FB12079BC3E49FFFE49EFE90A9
:0B1BDB0001B8E01470058F8BEEF58D53
:011BE60022DC
:0E1CD600EF147009200EFDD20EAF058F99227B
:101CC400EF14700DA20D929B200EFDD20EAF058F66
:021CD400992253
:101BE70090007CEBF0A3EAF0A3E9F0AE0790007C4D
:101BF700E0FBA3E0FAA3E0F912066A6019AF0690CA
:101C0700007CA3E475F0011206FAA9F0FA12066A3D
:071C1700FD121CD680D7224C
:0E19210090011CEFF0A3EBF0A3EAF0A3E9F0B5
:10192F009001887401F0A37401F0A37420F090016A
:10193F001DE0F9A3E0FAA3E090007CC9F0A3EAF060
:10194F00A3E9F0900188E0F9A3E0FAA3E090007F0B
:10195F00C9F0A3EAF0A3E9F07B017A017948121AE2
:0F196F00D090011CE0FF7B017A017948021BE751
:03002300021B1AA3
:101B1A00C0E0C0F0C083C082C0D075D000C000C091
:101B2A0001C002C003C004C005C006C00730980542
:101B3A00C298121C1E309904C299C20ED007D00650
:101B4A00D005D004D003D002D001D000D0D0D082AA
:071B5A00D083D0F0D0E0328F
:101761000218C2E493A3F8E493A34003F68001F2C4
:1017710008DFF48029E493A3F85407240CC8C33389
:10178100C4540F4420C8834004F456800146F6DF58
:10179100E4800B0102040810204080901CFBE47ED1
:1017A100019360BCA3FF543F30E509541FFEE4934D
:1017B100A360010ECF54C025E060A840B8E493A314
:1017C100FAE493A3F8E493A3C8C582C8CAC583CA3F
:1017D100F0A3C8C582C8CAC583CADFE9DEE780BEF7
:011D020000E0
:10066A00BB010689828A83E0225002E722BBFE028E
:09067A00E32289828A83E49322C1
:10068300BB010CE58229F582E5833AF583E022502C
:1006930006E92582F8E622BBFE06E92582F8E22276
:0D06A300E58229F582E5833AF583E4932290
:1006B000F8BB010DE58229F582E5833AF583E8F080
:1006C000225006E92582C8F622BBFE05E92582C82C
:0206D000F22214
:1006D200EF8DF0A4A8F0CF8CF0A428CE8DF0A42E3C
:0206E200FE22F6
:1006E400C5F0F8A3E028F0C5F0F8E58215827002A1
:0606F4001583E038F0223E
:1006FA00A3F8E0C5F025F0F0E582158270021583B3
:06070A00E0C838F0E8220F
:10071000E88FF0A4CC8BF0A42CFCE98EF0A42CFC88
:100720008AF0EDA42CFCEA8EF0A4CDA8F08BF0A406
:100730002DCC3825F0FDE98FF0A42CCD35F0FCEB65
:100740008EF0A4FEA9F0EB8FF0A4CFC5F02ECD392A
:0F075000FEE43CFCEAA42DCE35F0FDE43CFC2297
:10075F0075F008758200EF2FFFEE33FECD33CDCC51
:10076F0033CCC58233C5829BED9AEC99E5829840D4
:10077F000CF582EE9BFEED9AFDEC99FC0FD5F0D6B1
:10078F00E4CEFBE4CDFAE4CCF9A88222B800C1B9DB
:10079F000059BA002DEC8BF084CFCECDFCE5F0CB19
:1007AF00F97818EF2FFFEE33FEED33FDEC33FCEB52
:1007BF0033FB10D703994004EB99FB0FD8E5E4F90D
:1007CF00FA227818EF2FFFEE33FEED33FDEC33FCFA
:1007DF00C933C910D7059BE99A4007EC9BFCE99AEE
:1007EF00F90FD8E0E4C9FAE4CCFB2275F010EF2F33
:1007FF00FFEE33FEED33FDCC33CCC833C810D70733
:10080F009BEC9AE899400AED9BFDEC9AFCE899F86D
:0E081F000FD5F0DAE4CDFBE4CCFAE4C8F92200
:10082D00EB9FF5F0EA9E42F0E99D42F0E89C45F021
:01083D002298
:0C083E00ECF0A3EDF0A3EEF0A3EFF0222D
:10084A00A8828583F0D083D08212086112086112CF
:10085A000861120861E473E493A3C583C5F0C583F4
:10086A00C8C582C8F0A3C583C5F0C583C8C582C8F8
:01087A00225B
:10087B00EC8EF0A4CCC5F0CCCDF8EFA4CEC5F02D0A
:10088B00FDE43CFCE8A42EC8C5F03DFDE43CFCEFC8
:0D089B00A4FFE5F028FEE43DFDE43CFC2256
:101AD00090007CE0FFA3E0FEA3E0CF900085F0A3A0
:101AE000EEF0A3EFF090007FE0CBF0A3E0CAF0A30C
:101AF000E0C9F07F22900088AD82AC8312066A8D27
:101B0000828C83F0A309E970010ADFEC90007FE08A
:0A1B1000FBA3E0FAA3E0F902008B4A
:10002600E5082485F582E43400F583E0050822908E
:100036000082300703900085E475F0011208BA02C9
:10004600066A2000E97F2ED2008018EF540F249014
:10005600D43440D4FF30040BEF24BFB41A0050034D
:100066002461FFE50960021509050CE50C7002051F
:100076000B30070E900082E475F0011208BAEF0209
:1000860008A8021C477403D2078003E4C207F508D8
:100096009000821208D1E4F509F50BF50CE509602C
:1000A600077F2012006980F5750AFFC201C200C2EF
:1000B60002C203C205C206C208120035FF700D3027
:1000C60007057F0012007AAF0CAE0B22B4255FC283
:1000D600D5C204120035FF24D0B40A00501A75F0B8
:1000E6000A780930D50508B6FF0106C6A426F6200B
:1000F600D5047002D20380D924CFB41A00EF50047D
:10010600C2E5D20402027BD20180C6D20080C0D2F0
:100116000280BCD2D580BAD20580B47F2012006995
:100126002002077401B5090040F1120026FF1200F3
:10013600690200A3D208D2068095120026FB12009F
:1001460026FA120026F94A4B7006794C7A037BFF91
:1001560020022EE509602A7E008E82758300120633
:100166008360060EEE650A70F0C2D5EBC0E0EAC009
:10017600E0E9C0E0EE1202C2D0E0F9D0E0FAD0E049
:10018600FB12066AFF60AAEBC0E0EAC0E0E9C0E045
:10019600120069D0E02401F9D0E03400FAD0E0FB87
:1001A600E50A0460DCD50AD980877BFF7A0279BE2E
:1001B600D202809C791080027908C206C2088008A3
:1001C600D2D5790A8004790AC2D5E50A047002F507
:1001D6000AE4FAFDFEFF120026FC7B08200113123A
:1001E6000026FD7B1030000A120026FE120026FFB4
:1001F6007B20EC3382D592D55013C3E43000069FA2
:10020600FFE49EFEE42001039DFDE49CFCE4CBF8A4
:10021600C201EC700CCFCECDCCE824F8F870F38098
:1002260017C3EF33FFEE33FEED33FDEC33FCEB3358
:10023600FB994002FB0FD8E9EB300105F8D0E0C48A
:1002460048B201C0E00AEC4D4E4F78207B0070C2E8
:10025600EAB50A0040BCC0E01202C4D0F0D0E020EB
:100266000104C4C0E0C4B201C0F0120052D0F0D5FF
:10027600F0EB0200A31208DA01405301BA5801114B
:100286004C010D4201BE4F01C64401C64901264339
:0802960001CC5501B04601B096
:10029E004501B047036C5001152D01192E013C2B61
:1002AE00011D23013A2003552A00D54800000134D0
:1002BE003F3F3F00790AA2D5200314300509B9103B
:1002CE00020404B9080104A2D5200602500104203C
:1002DE0002689202B509005034C0E07F2030031945
:1002EE007F30A20272067205500F12031BC202C2A9
:1002FE0006C205C2087F30800F300503E9C0E01248
:10030E000069300503D0E0F9D0E0B509CC3005170F
:10031E007F30B9100C1200697F583004077F788047
:10032E0003B908031200693002057F2D0200697FB0
:10033E00202008F87F2B2006F322920280CF286E11
:10034E00756C6C2900D2011200263001F8C20178BA
:10035E000930D50108F60200D52D50434958120038
:10036E00262403B405004001E49003679312005A5B
:0D037E00743A12005AD2037509040201BA44
:1008A800BB010689828A83F0225002F722BBFE012F
:0208B800F32229
:1008BA00F8E0FBA3A3E0F925F0F0E58215827002C7
:0708CA001583E0FA38F0226B
:0908D100EBF0A3EAF0A3E9F02228
:1008DA00D083D082F8E4937012740193700DA3A3AD
:1008EA0093F8740193F5828883E4737402936860C1
:0608FA00EFA3A3A380DFC1
:101C4700EFB40A07740D121C52740A309811A89940
:101C5700B8130CC2983098FDA899C298B811F630FD
:071C670099FDC299F59922D5
:00000001FF
