:03000000021D5886
:0C1D5800787FE4F6D8FD758121021D9F04
:0F26CF006F75745B2562755D3D2562750D0A00A0
:1017F9001210A17FF47E01120003E4900024F090FE
:101809000024E0FF241AFE74042FF582E43400F565
:1018190083EEF0900024E004F0E0B410E2E49000DC
:1018290024F0900024E0FFC39410501474142FF591
:1018390082E43400F583E4F0900024E004F080E2CF
:101849007B017A0079009000297421F0A314F0FD3E
:101859001222DF7B017A00790490002AE4F0A37454
:1018690010F0E4FFFE1200267B017A007914900043
:101879002AE4F0A37410F0E4FFFE120E00E49000D5
:1018890024F0900024E0FFC3941050247BFF7A26B3
:1018990079CF900028EFF02414F582E43400F58321
:1018A900E0900029F01220E4900024E004F080D2B6
:0218B90080FEAF
:0726960044015800000000A0
:10000300EF4E601A900150E0FCA3E0FDED1D70017E
:0E0013001C144C70F7EF1F70011E144E70E6A7
:0100210022BC
:0826AA0090009FE0FEA3E0FF99
:0A26B200EF1FAC0670011E4C70F61D
:0126BC0022FB
:10267000900150E0FCA3E0FD120AD4E47B83FAF958
:10268000F8120930900154120A71900154E0C313FA
:06269000FEA3E013FF228F
:10262000900153E06599600AE599F0E4900152F059
:102630008006900152E004F0900152E0C394E9401A
:0926400007000075C760000022CC
:0B20E400900025EBF0A3EAF0A3E9F068
:1020EF009000907401F0A37400F0A37428F0900096
:1020FF0025E0F9A3E0FAA3E09000A1C9F0A3EAF06C
:10210F00A3E9F0900090E0F9A3E0FAA3E09000A417
:10211F00C9F0A3EAF0A3E9F07B017A00795012230A
:0C212F002F7B017A0079507F01022559B6
:101E7000EF14600D14602614603C14605424047048
:101E80006F90FE027480F090FE02E030E0F990FE68
:101E900000E054FCF090FE03E4F0A3F02290FE0476
:101EA0007480F090FE04E030E0F990FE00E044031E
:101EB000F090FE03803490FE037480F090FE03E007
:101EC00030E0F990FE00E054FC4401F090FE048004
:101ED0001990FE0374C0F090FE03E030E0F990FE2C
:101EE00000E054FC4402F090FE04E4F090FE02F0A6
:011EF00022CF
:0C26EC00EF90FE01700304F022EFF022DA
:1010A10043BA80AF9FE4FCFDFEC004A905AA06ABCC
:1010B1000778FBE6FFD000C3EF9BFFEE9AFEED99A8
:1010C100FDEC98FCE47BF07AD2F9F8120930C3E424
:1010D1009FFF74369EFE746E9DFD74019CFC900012
:1010E10025120A71900025E0FCA3E0FDA3E0FEA318
:1010F100E0FFC00790FE01E0FBE4FAF9F8D0071227
:1011010009BB900025120A717FC07EF67D577C00D5
:10111100900025E0F8A3E0F9A3E0FAA3E0FBC312F5
:101121000A4D500D900158120A7D005460000212C0
:10113100D07FC07E267D827C00900025E0F8A3E070
:10114100F9A3E0FAA3E0FBC3120A4D500D90015838
:10115100120A7D005B8D800212D07F807EED7DAF13
:101161007C00900025E0F8A3E0F9A3E0FAA3E0FBFE
:10117100C3120A4D500D900158120A7D00A8C000FB
:101181000212D07F807E2D7DE87C00900025E0F862
:10119100A3E0F9A3E0FAA3E0FBC3120A4D500D90BE
:1011A1000158120A7D00B71B000212D07F807E36E3
:1011B1007D257C01900025E0F8A3E0F9A3E0FAA3E6
:1011C100E0FBC3120A4D500D900158120A7D01191E
:1011D10040000212D07F807E567D417C0190002527
:1011E100E0F8A3E0F9A3E0FAA3E0FBC3120A4D5033
:1011F1000D900158120A7D01312D000212D07F009D
:101201007EDB7D5F7C01900025E0F8A3E0F9A3E09F
:10121100FAA3E0FBC3120A4D500D900158120A7D4A
:10122100015180000212D07F607E197D857C019082
:101231000025E0F8A3E0F9A3E0FAA3E0FBC3120A5A
:101241004D500D900158120A7D016E36000212D0E8
:101251007F207EE07DB27C01900025E0F8A3E0F9DB
:10126100A3E0FAA3E0FBC3120A4D500C90015812FF
:101271000A7D019BFCC080577FE07EA67DE07C015A
:10128100900025E0F8A3E0F9A3E0FAA3E0FBC31284
:101291000A4D500C900158120A7D01C9C380802F5C
:1012A1007F607E2B7DFF7C01900025E0F8A3E0F9B3
:1012B100A3E0FAA3E0FBC3120A4D900158500912B2
:1012C1000A7D01FA40008007120A7D02160EC0E471
:1012D1007B107A27F9F8900158E0FCA3E0FDA3E028
:1012E100FEA3E0FF1209BB900150EEF0A3EFF0E482
:1012F100900153F0900152F0C20A12237900D2AF4B
:0113010000EB
:0113020022C8
:0B1A2E0090002FEBF0A3EAF0A3E9F01A
:101A39007F647E0012267090009FEEF0A3EFF09075
:101A4900009C7401F0A37400F0A37432F090002F8D
:101A5900E0F9A3E0FAA3E09000A1C9F0A3EAF0A39A
:101A6900E9F090009CE0F9A3E0FAA3E09000A4C992
:101A7900F0A3EAF0A3E9F07B017A00795C12232F45
:101A890090005AEEF0A3EFF07FF47E01120003E418
:101A9900FBFAD390005BE09B90005AE09A40E9D2B0
:101AA900B1C2B11226AA745C2BF58274003AF5838F
:101AB900E0F9E4FDE930E004D2B18002C2B1E9C342
:101AC90013F91226AA0DEDB408EAD2B11226AA1208
:091AD90026AA0BBB00010A80B92A
:0B1B850090015CEBF0A3EAF0A3E9F094
:101B9000E4FFFE900162F0A3F0A3F0A3F090015CDB
:101BA000E0FBA3E0FAA3E0F912082360729001655C
:101BB000E004F07006900164E004F090015FE0FB47
:101BC000A3E0FAA3E0F98F828E8312083CFD900116
:101BD0005CE0FBA3E0FAA3E0F9120823B505070FC8
:101BE000BF00010E8012E4FEFF900164E0FDA3E05F
:101BF000900162CDF0A3EDF090015DE475F001126B
:101C0000090490015FE0FBA3E0FAA3E0F98F828E64
:101C10008312083C7087900162E0FEA3E0FF227E01
:031C2000FF7FFF44
:011C2300229E
:10197700E4900180F0900182F0900181F090018164
:10198700E0FFC3940A4003021A287E00ED2FF58278
:10199700EE3CF58312083CFFC3648094B0404BD300
:1019A700EF648094B75043900182E004F0E0B40103
:1019B70017900181E02DF582EE3CF58312083C2457
:1019C700D0C454F0900180F0900182E0B4021B90E3
:1019D7000181E07E002DF582EE3CF58312083C2460
:1019E700D0FF900180E04FFFF022900181E07E0060
:1019F7002DF582EE3CF58312083CFFC3648094B852
:101A0700400ED3EF648094B95006900182E004F051
:101A1700EF642C600CEF6009900181E004F002197B
:061A270084900180E0FF45
:011A2D002296
:0818BB0090016CECF0A3EDF0CC
:1018C300E4A3F0A3F0A3F0900170E0FFC3941440ED
:1018D3000302196E90016DE02FFF90016CE034005C
:1018E3008F82F58312083CFFC3648094B0404ED3CB
:1018F300EF648094B9504690016EE0FEA3E0FF7C54
:10190300007D0A12089D90016EEEF0A3EFF0A3E0B4
:10191300FF90016DE02FFF90016CE034008F82F5A2
:101923008312083CFF3395E0FEEF24D0FFEE34FF33
:10193300FE90016FE02FF090016EE03EF090017099
:10194300E0FF90016DE02FFF90016CE034008F8287
:10195300F58312083CFF642C6011EF642E600CEFDA
:101963006009900170E004F00218CA90016EE0FE75
:03197300A3E0FFEF
:01197600224E
:1014A50090013EEBF0A3EAF0A3E9F0A3ECF0A3ED85
:0114B500F046
:1014B600E490014AF0A3F0A3F0A3F0A3F0A3F09008
:1014C6000148F0A3F0900141E0FEA3E0FF9001483F
:1014D600E0FCA3E0FDC39FEC9E400302157590015E
:1014E60043E0FBA3E0FAA3E0F990014AE0FEA3E0A3
:1014F600F5828E8312083CFF90013EE0FBA3E0FAE2
:10150600A3E0F98D828C8312083CB5073390014B1A
:10151600E004F0700690014AE004F0900146E0FE17
:10152600A3E0FF90014AE0B50631A3E0B5072C9091
:101536000148E0FFA3E090014ECFF0A3EFF0802F2B
:10154600E490014AF0A3F0900149E02401FE9001E5
:1015560048E0340090014CF0A3CEF0900149E0043D
:10156600F060030214CB900148E004F00214CB9023
:10157600014EE0FEA3E0FF90014CE0FCA3E0FDD3AA
:101586009FEC9E5044900148ECF0A3EDF090014E84
:10159600E0FEA3E0FF900148E0FCA3E0FDC39FEC62
:1015A6009E502390013EE0FBA3E0FAA3E0F98D8272
:1015B6008C83E412087B900149E004F070CF90011F
:0B15C60048E004F080C77F01227F0096
:0115D10022F7
:101303006770696F5F757070756C6C283C4425302D
:1013130032583E2C2564293BB2BBB4E6D4DAB8C3B9
:10132300494F0D0A006770696F5F757070756C6C5B
:10133300283C44253032583E2C31293BB2BBB4E61D
:10134300D4DAB8C3494F0D0A006770696F5F7570CF
:1013530070756C6C283C44253032583E2C30293B48
:10136300B2BBB4E6D4DAB8C3494F0D0A006770695B
:101373006F5F6D6F6465283C44253032583E2C25E1
:1013830064293BB2BBB4E6D4DAB8C3494F0D0A00B3
:101393006770696F5F6D6F64652844253032582C20
:1013A3003C25643E293BB2BBB4E6D4DAB8C3C4A33C
:1013B300CABD0D0A006770696F5F7772697465282B
:1013C3003C25643E2C2564293BB2BBB4E6D4DAB891
:1013D300C350BFDA0D0A006770696F5F726561649D
:1013E300283C5025643E293BB2BBB4E6D4DAB8C3EB
:1013F30050BFDA0D0A006770696F5F6F7574283C20
:1014030044253032583E2C2564293BB2BBB4E6D484
:10141300DAB8C3494F0D0A006770696F5F6F75745F
:10142300283C44253032583E2C31293BB2BBB4E62C
:10143300D4DAB8C3494F0D0A006770696F5F6F75DF
:1014430074283C44253032583E2C30293BB2BBB47F
:10145300E6D4DAB8C3494F0D0A006770696F5F6954
:101463006E283C44253032583E293BB2BBB4E6D407
:10147300DAB8C3494F0D0A006770696F5F746F670D
:10148300676C65283C44253032583E293BB2BBB4D7
:10149300E6D4DAB8C3494F0D0A000102040810204C
:0214A300408087
:0515D20090002DEFF078
:1015D700648870030216E690002DE0FF54F0F50DC5
:1015E700EF540FFF90149D93F50EEFD3940740210E
:1015F7007BFF7A13790390002DE0FF900032E4F02F
:10160700A3EFF0A200E4FF33A3CFF0A3EFF0121A89
:101617002E300063E50D24F0602124F0602224F0D1
:10162700602324F0602424F0602524F0602624F051
:1016370060272470702B90FE10802190FE11801C73
:1016470090FE12801790FE13801290FE14800D906A
:10165700FE15800890FE16800390FE17E0450EF0F9
:10166700227BFF7A13792890002DE0FF900032E467
:10167700F0A3EFF0021A2EE50D24F0602124F060AC
:101687002224F0602324F0602424F0602524F060F5
:101697002624F060272470703090FE10802190FE81
:1016A70011801C90FE12801790FE13801290FE147A
:1016B700800D90FE15800890FE16800390FE17E0BF
:1016C700FFE50EF4FEEF5EF0227BFF7A13794C9074
:0F16D700002DE0FF900032E4F0A3EFF0121A2E86
:0116E60022E1
:0A0B210090002EEDF090002DEFF093
:100B2B0064887003020DFF90002DE0FF54F0F50D6B
:100B3B00EF540FFF90149D93F50EEFD394074023C2
:100B4B007BFF7A13797090002DE0FF900032E4F078
:100B5B00A3EFF090002EE0FF900034E4F0A3EFF051
:100B6B00121A2EE50D24F0602124F0602224F0608F
:100B7B002324F0602424F0602524F0602624F06008
:100B8B002724707028E4F50D8046750D01804175A2
:100B9B000D02803C750D038037750D048032750D89
:100BAB0005802D750D068028750D0780237BFF7A38
:100BBB0013797090002DE0FF900032E4F0A3EFF07A
:100BCB0090002EE0FF900034E4F0A3EFF0121A2E09
:100BDB0090002EE0FFD39403401C7BFF7A13799394
:100BEB0090002DE0FD900032E4F0A3EDF0A3E4F0D3
:100BFB00A3EFF0121A2EE50D703A90002EE0FF7065
:100C0B0007E50EF452935294EFB40109E50E4293AB
:100C1B00E50EF4529490002EE0B40208E50E4293D8
:100C2B00E50E429490002EE0B40309E50EF45293C6
:100C3B00E50E4294E50D6401703A90002EE0FF70D2
:100C4B0007E50EF452915292EFB40109E50E429171
:100C5B00E50EF4529290002EE0B40208E50E42919C
:100C6B00E50E429290002EE0B40309E50EF452918A
:100C7B00E50E4292E50D6402703A90002EE0FF7093
:100C8B0007E50EF452955296EFB40109E50E429525
:100C9B00E50EF4529690002EE0B40208E50E429554
:100CAB00E50E429690002EE0B40309E50EF4529542
:100CBB00E50E4296E50D6403703A90002EE0FF704E
:100CCB0007E50EF452B152B2EFB40109E50E42B191
:100CDB00E50EF452B290002EE0B40208E50E42B1DC
:100CEB00E50E42B290002EE0B40309E50EF452B1CA
:100CFB00E50E42B2E50D6404703A90002EE0FF70F1
:100D0B0007E50EF452B352B4EFB40109E50E42B34A
:100D1B00E50EF452B490002EE0B40208E50E42B397
:100D2B00E50E42B490002EE0B40309E50EF452B385
:100D3B00E50E42B4E50D6405703A90002EE0FF70AD
:100D4B0007E50EF452C952CAEFB40109E50E42C9C8
:100D5B00E50EF452CA90002EE0B40208E50E42C92B
:100D6B00E50E42CA90002EE0B40309E50EF452C919
:100D7B00E50E42CAE50D6406703A90002EE0FF7056
:100D8B0007E50EF452CB52CCEFB40109E50E42CB82
:100D9B00E50EF452CC90002EE0B40208E50E42CBE7
:100DAB00E50E42CC90002EE0B40309E50EF452CBD5
:100DBB00E50E42CCE50D6407703A90002EE0FF7013
:100DCB0007E50EF452E152E2EFB40109E50E42E100
:100DDB00E50EF452E290002EE0B40208E50E42E17B
:100DEB00E50E42E290002EE0B40309E50EF452E169
:040DFB00E50E42E2DD
:010DFF0022D1
:10208A00EFB40900503A902097F82828730220B23A
:10209A000220B50220B80220BB0220BE0220C102E3
:1020AA0020C40220C70220E38D80228D90228DA0B9
:1020BA00228DB0228DC0228DC8228DE8228DF82271
:1020CA007BFF7A1379B8900032E4F0A3EFF0AF0502
:0A20DA00A3E4F0A3EFF0121A2E2287
:10213B00EFB40900503D902148F828287302216321
:10214B0002216602216902216C02216F02217202B7
:10215B00217502217802217BAF8022AF9022AFA0A4
:10216B0022AFB022AFC022AFC822AFE822AFF82215
:10217B007FFF227BFF7A1379DA900032E4F0A3EF32
:07218B00F0121A2E7FFF2263
:0516E70090002DEFF062
:1016EC00648870030217F890002DE0FF54F0F50D9C
:1016FC00EF540FFF90149D93F50EEFD394074021F8
:10170C007BFF7A1379F990002DE0FF900032E4F022
:10171C00A3EFF0A200E4FF33A3CFF0A3EFF0121A73
:10172C002E300060E50D24F0602124F0602224F0BE
:10173C00602324F0602424F0602524F0602624F03B
:10174C00602724707028E50E428022E50E4290221C
:10175C00E50E42A022E50E42B022E50E42C022E583
:10176C000E42C822E50E42E822E50E42F8227BFF2B
:10177C007A14791B90002DE0FF900032E4F0A3EF77
:10178C00F0021A2EE50D24F0602224F0602424F0DF
:10179C00602624F0602824F0602A24F0602C24F0C9
:1017AC00602E24707030E50EF4528022E50EF45257
:1017BC009022E50EF452A022E50EF452B022E50E72
:1017CC00F452C022E50EF452C822E50EF452E8227F
:1017DC00E50EF452F8227BFF7A14793C90002DE050
:0C17EC00FF900032E4F0A3EFF0121A2E80
:0117F80022CE
:051AE200900183EFF00C
:101AE700BF8802C322900183E0FF54F0F50DEF5445
:101AF7000FFF90149D93F50EEFD3940740167BFFCD
:101B07007A14795D900183E0FF900032E4F0A3EF4F
:101B1700F0121A2EE50D24F0602124F0602224F043
:101B2700602324F0602424F0602524F0602624F04C
:101B370060272470702885800F803985900F803446
:101B470085A00F802F85B00F802A85C00F8025853F
:101B5700C80F802085E80F801B85F80F80167BFF54
:101B67007A14795D900183E0FF900032E4F0A3EFEF
:0D1B7700F0121A2EE50F550E6002D322C3A6
:011B8400223E
:051C2400900184EFF0C7
:101C290064887003021CBF900184E0FF54F0F50D35
:101C3900EF540FFF90149D93F50EEFD394074016C0
:101C49007BFF7A14797B900184E0FF900032E4F005
:101C5900A3EFF0121A2EE50D24F0602124F0602282
:101C690024F0602324F0602424F0602524F0602609
:101C790024F0602724707028E50E628022E50E6248
:101C89009022E50E62A022E50E62B022E50E62C046
:101C990022E50E62C822E50E62E822E50E62F8220C
:101CA9007BFF7A14797B900184E0FF900032E4F0A5
:061CB900A3EFF0121A2E49
:011CBF002202
:10244F00EFB40800503E90245CF8282873022474DF
:10245F0002247802247C022480022484022488022D
:10246F00248C022490ED628022ED629022ED62A016
:10247F0022ED62B022ED62C022ED62C822ED62E869
:05248F0022ED62F822BD
:101CC000300048EFB408004003021D57901CD3F8C1
:101CD000282873021CEB021CEF021CF3021CF70203
:101CE0001CFB021CFF021D03021D07ED428022EDBA
:101CF000429022ED42A022ED42B022ED42C022ED00
:101D000042C822ED42E822ED42F822EFB40800502A
:101D100046901D18F8282873021D30021D35021D3B
:101D20003A021D3F021D44021D49021D4E021D5371
:101D3000EDF4528022EDF4529022EDF452A022ED07
:101D4000F452B022EDF452C022EDF452C822EDF468
:081D500052E822EDF452F822E2
:10228D00EFB40900504490229AF82828730222B521
:10229D000222B90222BD0222C10222C50222C902B6
:1022AD0022CD0222D10222D5AE80801EAE90801AA0
:1022BD00AEA08016AEB08012AEC0800EAEC8800A41
:1022CD00AEE88006AEF88002D322EE5D6002D32226
:0122DD00C33D
:0122DE0022DD
:08269D0041016B0041016A00DC
:1021E70090000212083CFF90016AE06F60441208F9
:1021F70023FEC4540F900168F0EE540FFE7401A83B
:1022070006088002C333D8FC900169F090000112E0
:10221700083CFEC4540F900166F0EE540FFE7401A3
:10222700A806088002C333D8FC900167F090016AC2
:03223700EFF022A3
:101DE400900171EBF0A3EAF0A3E9F0A3EDF0900108
:101DF40071E0FBA3E0FAA3E0F9ED12086990017524
:101E0400E0FF900171E0FBA3E0FAA3E0F990000188
:101E1400EF12087B900174E0FF7D02120B21900108
:101E240075E0FF7D02120B21900174E0FFD20012D5
:101E340015D2900175E0FFD2001215D2900174E022
:101E4400FFD2001216E7900175E0FFD2001216E7E8
:101E540090016BE004FFF0900171E0FBA3E0FAA3B2
:0C1E6400E0F9900002EF12087B0221E779
:1024940090016AE06F603BEDC4540F900168F0ED69
:1024A400540FFE7401A806088002C333D8FC9001BF
:1024B40069F0EBC4540F900166F0EB540FFE740105
:1024C400A806088002C333D8FC900167F090016A23
:0324D400EFF02204
:0A21920090002CEDF090002BEFF010
:10219C007D02120B2190002CE0FF7D02120B21908E
:1021AC00002BE0FFD2001215D290002CE0FFD200E1
:1021BC001215D290002BE0FFD2001216E790002CE3
:1021CC00E0FFD2001216E790016BE004F0FCFF90E8
:0A21DC00002BE0FDA3E0FB122494A9
:0121E60022D6
:10223A00900166E0FFA3E0FDD200121CC090016885
:10224A00E0FFA3E0FDD200121CC0900166E0FFA3EC
:10225A00E0FD12228D40037FFF22900166E0FFA37A
:10226A00E0FD12244F900166E0FFA3E0FD12228DEB
:10227A0050037FFF22900168E0FFA3E0FD12244F84
:03228A007F0022B0
:10259000900166E0FFA3E0FDC200121CC09001683C
:1025A000E0FFA3E0FDC200121CC0900168E0FFA3A1
:1025B000E0FD12244F900166E0FFA3E0FD02244FEE
:1025C000900168E0FFA3E0FDC200121CC09001660C
:1025D000E0FFA3E0FDC200121CC0900168E0FFA371
:1025E000E0FD12244F900168E0FFA3E0FD02244FBC
:1025F000900168E0FFA3E0FDC200121CC0900166DC
:10260000E0FFA3E0FDD200121CC0900168E0FFA330
:10261000E0FD12244F900168E0FFA3E0FD02244F8B
:10240900900168E0FFA3E0FDC200121CC0900166C4
:10241900E0FFA3E0FDD200121CC0900168E0FFA319
:10242900E0FD12244F900166E0FFA3E0FD12228D2A
:10243900900168E0FFA3E0FD500612244F7FFF22C0
:0624490012244F7F002267
:051EF10090003CEFF041
:101EF60090003EF090016630E709E0FFA3E0FDD2D6
:101F0600008007E0FFA3E0FDC200121CC09001683C
:101F1600E0FFA3E0FDC200121CC0E490003DF0907B
:101F2600003CE0FF90003EE06F30E70B900166E07A
:101F3600FFA3E0FD12244F900168E0FFA3E0FD122D
:101F4600244F90003CE090003EF025E090003CF0ED
:101F5600900168E0FFA3E0FD12244F90003DE004ED
:071F6600F0E0C3940840B84D
:011F6D002251
:101FCF00E490003AF0900166E0FFA3E0FDD200122A
:101FDF001CC0E4900039F090003AE025E0F0900149
:101FEF0068E0FFA3E0FDD200121CC0900166E0FF85
:101FFF00A3E0FD12228D500790003AE04401F090CB
:10200F000168E0FFA3E0FDC200121CC0900039E0A0
:0D201F0004F0E0C3940840BF90003AE0FFD9
:01202C002291
:0B1F6E00900176EBF0A3EAF0A3E9F08D
:101F7900E490017AF0900179F012223A900179E027
:101F890025E0FF121EF1122409EF7025900179E076
:101F990025E0FF900176E0FBA3E0FAA3E0F99001C8
:101FA9007AE0F582758300EF12087B90017AE004EC
:101FB900F0122590900179E004F0E0C3948040B9D3
:051FC90090017AE0FF29
:011FCE0022F0
:1023790075985053873F538EDE53A23FE47B04FA8E
:10238900F9F8900158E0FCA3E0FDA3E0FEA3E0FF0B
:102399001209BB7B007AC2790178001209BBC3E438
:1023A9009FFFE49E438E4053890F8F8BF58DC2ABFF
:0823B900C28FD28EC20CD2AC1F
:0123C10022F9
:0B26F800EF14700653A23FED42A22237
:0524D70090017BEFF015
:1024DC00E47B04FAF9F8900158E0FCA3E0FDA3E0DA
:1024EC00FEA3E0FF1209BB90017CE0F8A3E0F9A386
:1024FC00E0FAA3E0FB1209BBC3E49FFFE49EFE904D
:0B250C00017BE01470058F8BEEF58D55
:0125170022A1
:0E26DE00EF147009AF058F99D20C200CFD226D
:1026BD00EF14700DA20B929BAF058F99D20C200CCD
:0226CD00FD22EC
:10255900900093EBF0A3EAF0A3E9F0AE07900093A3
:10256900E0FBA3E0FAA3E0F91208236019AF069093
:102579000093A3E475F00112091AA9F0FA120823CD
:07258900FD1226DE80D722BF
:0E202D009000CFEFF0A3EBF0A3EAF0A3E9F0F0
:10203B0090013B7401F0A37400F0A374D3F09000F3
:10204B00D0E0F9A3E0FAA3E09000A1C9F0A3EAF075
:10205B00A3E9F090013BE0F9A3E0FAA3E09000A420
:10206B00C9F0A3EAF0A3E9F07B017A0079FB122314
:0F207B002F9000CFE0FF7B017A0079FB022559FF
:030023000223C2F3
:1023C200C0E0C0F0C083C082C0D075D000C000C0E1
:1023D20001C002C003C004C005C006C00730980592
:1023E200C298122620309904C299C20CD007D00696
:1023F200D005D004D003D002D001D000D0D0D082FA
:07240200D083D0F0D0E032DE
:0426A500410185006A
:1025180090002BEBF0A3EAF0A3E9F090002BE0FB8E
:10252800A3E0FAA3E0F990000112083CFF90000232
:1025380012083CFD90000312083CFB122494900002
:102548002BE0FBA3E0FAA3E0F9120823900185F041
:012558002260
:1022DF00900025EBF0A3EAF0A3E9F0900029E0FFCE
:1022EF00900025E0FBA3E0FAA3E0F9900002EF12C3
:1022FF00087B90002AE090000312087BED1208691A
:10230F00900029E0FFA3E0FD122192900025E0FB51
:10231F00A3E0FAA3E0F9900001EF12087B02251861
:10002600900025EEF0A3EFF0A3EBF0A3EAF0A3E92E
:01003600F0D9
:10003700900185E0FB54F0120AAE006600006910DB
:1000470000852000973000AE4000C85000E46000F3
:10005700F07000FC800108900114A0000001307FBF
:100067000122900030120A7D00000080EB54072423
:100077005090003BF090003A7408F0020130900075
:1000870030120A7D00000100900185E05407803F8F
:10009700900030120A7D00000200900025E0FF90DA
:1000A7000185E054068015900030120A7D00000497
:1000B70000900025E0FF900185E0540424502F8034
:1000C70010900030120A7D00000800900025E024FF
:1000D7005090003BF090003A7410F0804C90003044
:1000E700120A7D00001000802E900030120A7D0059
:1000F7000020008022900030120A7D00004000801E
:1001070016900030120A7D00008000800A900030AF
:10011700120A7D00010000900185E05407245090E9
:10012700003BF090003A7420F0900025E0FEA3E039
:10013700FFE4FCFD900030E0F8A3E0F9A3E0FAA3A8
:10014700E0FBC3120A4D50037F042290002AE0FE11
:10015700A3E0FBAA06900025E0FEA3E0FFEF2BFF3C
:10016700EE3AFEE433FDE433FC900030E0F8A3E020
:10017700F9A3E0FAA3E0FBC3120A4D50289000252B
:10018700E0FEA3E0FBAA06900030E0FCA3E0FDA39D
:10019700E0FEA3E0C39BFFEE9AFEED9400FDEC9416
:1001A70000FCA3800E90002AE0FEA3E0FFE4FCFD24
:1001B700900034120A7190003AE0FD7C009000250F
:1001C700E0FEA3E0FF1208AF900038EEF0A3EFF0D7
:1001D70012223A90003BE025E0FF121EF11224099B
:1001E700EF600302042890003AE0B4201190002544
:1001F700E0FF121EF1122409EF60030204289000A9
:1002070026E0FF121EF1122409EF60030204289072
:10021700002C120A7D00000000900034E0FCA3E0EF
:10022700FDA3E0FEA3E0FF90002CE0F8A3E0F9A314
:10023700E0FAA3E0FBC3120A4D400302047C9000DE
:1002470025E0FEA3E0FFE4FCFD90002CE0F8A3A36B
:10025700A3E02FFFEA3EFEED39FDEC38FCC0079026
:10026700003AE0FBE4FAF9F8D0071209BBA804A9A1
:1002770005AA06AB07900038E0FEA3E0FFE4FCFD0B
:10028700C3120A4D700302042E900025E0FEA3E07E
:10029700FFE4FCFD90002CE0F8A3E0F9A3E0FAA34B
:1002A700E02FFFEA3EFEED39FDEC38FCC007900079
:1002B7003AE0FBE4FAF9F8D0071209BB900038EEF0
:1002C700F0A3EFF0122590900185E0FF54F0120A99
:1002D700AE02FA1003942002FE30032E4003615051
:1002E7000394600394700394800394900394A00094
:1002F7000003A0EF02038E900025E0FEA3E0FFE4D9
:10030700FCFD90002CE0F8A3E0F9A3E0FAA3E02FAE
:10031700FFEA3EFEED39FDEC38FC7808120A5E90E4
:100327000185E05406802E900025E0FEA3E0FFE45F
:10033700FCFD90002CE0F8A3E0F9A3E0FAA3E02F7E
:10034700FFEA3EFEED39FDEC38FC7808120A5E90B4
:100357000185E0540424502F803B900025E0FEA344
:10036700E0FFE4FCFD90002CE0F8A3E0F9A3E0FA3D
:10037700A3E02FFFEA3EFEED39FDEC38FC780812CA
:100387000A5EEF2450800E540724508008900185A0
:10039700E05407245090003BF07F0A7E00120003D0
:1003A70012223A90003BE025E0FF121EF1122409C9
:1003B700EF6002806C90003AE0642070379000256F
:1003C700E0FEA3E0FFE4FCFD90002CE0F8A3E0F9D9
:1003D700A3E0FAA3E02FFFEA3EFEED39FDEC38FC7F
:1003E700E4FB7A01F9F81209BB121EF1122409EF96
:1003F7006002802D900025E0FEA3E0FFE4FCFD9065
:10040700002CE0F8A3E0F9A3E0FAA3E02FFFEA3E0F
:10041700FEED39FDEC38FCE4121EF1122409EF6001
:10042700061225907F022290002CA3A3E0FEA3E0F2
:10043700FF900027E0FBA3E0FAA3E0F98F828E8309
:1004470012083CFF121EF1122409EF6006122590D4
:100457007F032290002CE0FCA3E0FDA3E0FEA3E0D5
:100467002401FFE43EFEE43DFDE43CFC90002C1239
:100477000A710202201225907F0A7E001200039063
:10048700002AE0FEA3E0FBAA06900025E0FEA3E019
:10049700FFEF2BFFEE3AFEE433FDE433FC90003030
:1004A700E0F8A3E0F9A3E0FAA3E0FBC3120A4D507A
:0604B700037F05227F0017
:0104BD00221C
:100E0000900025EEF0A3EFF0A3EBF0A3EAF0A3E946
:010E1000F0F1
:100E1100900185E0FB54F0120AAE0E40000E431023
:100E21000E50200E60300E77400E91500EA3600ED2
:100E3100B7700ECB800EDF900EF3A000000F097F7C
:100E41000122900030120A7D00000080EB80619049
:100E51000030120A7D00000100900185E080519070
:100E61000030120A7D00000200900025E0FF900191
:100E710085E054068015900030120A7D00000400C0
:100E8100900025E0FF900185E0540424502F8074E8
:100E9100900030120A7D00000800900025E02450E7
:100EA1008062900030120A7D00001000900185E000
:100EB10054072450804E900030120A7D000020001B
:100EC100900185E054072450803A900030120A7D49
:100ED10000004000900185E05407245080269000D6
:100EE10030120A7D00008000900185E054072450F3
:100EF1008012900030120A7D00010000900185E00F
:100F010054072450900038F0900025E0FEA3E0FF44
:100F1100E4FCFD900030E0F8A3E0F9A3E0FAA3E0DF
:100F2100FBC3120A4D50037F042290002AE0FEA366
:100F3100E0FBAA06900025E0FEA3E0FFEF2BFFEE09
:100F41003AFEE433FDE433FC900030E0F8A3E0F92D
:100F5100A3E0FAA3E0FBC3120A4D5028900025E05C
:100F6100FEA3E0FBAA06900030E0FCA3E0FDA3E0B5
:100F7100FEA3E0C39BFFEE9AFEED9400FDEC94000E
:100F8100FCA3800E90002AE0FEA3E0FFE4FCFD90AC
:100F91000034120A7112223A900038E025E0FF1263
:100FA1001EF1122409EF60028038E4FF7E08FDFC87
:100FB100900030E0F8A3E0F9A3E0FAA3E0FBD3123C
:100FC1000A4D4010900025E0FF121EF1122409EF96
:100FD1006002800E900026E0FF121EF1122409EF3C
:100FE10060061225907F022212223A900038E025F5
:100FF100E004FF121EF190002C120A7D0000000097
:10100100900034E0FCA3E0FDA3E0FEA3E0FF90002C
:101011002CE0F8A3E0F9A3E0FAA3E0FBC3120A4D28
:1010210050471225C0121FCFC00790002CA3A3E088
:10103100FEA3E0FF900027E0FBA3E0FAA3E0F98F15
:10104100828E83D0E012087B90002CE0FCA3E0FDAF
:10105100A3E0FEA3E02401FFE43EFEE43DFDE43C09
:10106100FC90002C120A7180971225F012259090A5
:10107100002AE0FEA3E0FF900026E02FFF9000256C
:10108100E03EFEE4FCFD900030E0F8A3E0F9A3E0CF
:0F109100FAA3E0FBC3120A4D50037F05227F0034
:0110A000222D
:101D64000217F9E493A3F8E493A34003F68001F285
:101D740008DFF48029E493A3F85407240CC8C33380
:101D8400C4540F4420C8834004F456800146F6DF4F
:101D9400E4800B0102040810204080902696E47E23
:101DA400019360BCA3FF543F30E509541FFEE49344
:101DB400A360010ECF54C025E060A840B8E493A30B
:101DC400FAE493A3F8E493A3C8C582C8CAC583CA36
:101DD400F0A3C8C582C8CAC583CADFE9DEE780BEEE
:0126A9000030
:10082300BB010689828A83E0225002E722BBFE02D3
:09083300E32289828A83E4932206
:10083C00BB010CE58229F582E5833AF583E0225071
:10084C0006E92582F8E622BBFE06E92582F8E222BB
:0D085C00E58229F582E5833AF583E49322D5
:10086900BB010689828A83F0225002F722BBFE016E
:02087900F32268
:10087B00F8BB010DE58229F582E5833AF583E8F0B3
:10088B00225006E92582C8F622BBFE05E92582C85F
:02089B00F22247
:10089D00EF8DF0A4A8F0CF8CF0A428CE8DF0A42E6F
:0208AD00FE2229
:1008AF00BC000BBE0029EF8DF084FFADF022E4CC2D
:1008BF00F875F008EF2FFFEE33FEEC33FCEE9DECF6
:1008CF00984005FCEE9DFE0FD5F0E9E4CEFD22ED3C
:1008DF00F8F5F0EE8420D21CFEADF075F008EF2F86
:1008EF00FFED33FD4007985006D5F0F222C398FD77
:0508FF000FD5F0EA2214
:10090400C5F0F8A3E028F0C5F0F8E582158270027E
:060914001583E038F0221B
:10091A00A3F8E0C5F025F0F0E58215827002158390
:06092A00E0C838F0E822ED
:10093000E88FF0A4CC8BF0A42CFCE98EF0A42CFC66
:100940008AF0EDA42CFCEA8EF0A4CDA8F08BF0A4E4
:100950002DCC3825F0FDE98FF0A42CCD35F0FCEB43
:100960008EF0A4FEA9F0EB8FF0A4CFC5F02ECD3908
:0F097000FEE43CFCEAA42DCE35F0FDE43CFC2275
:10097F0075F008758200EF2FFFEE33FECD33CDCC2F
:10098F0033CCC58233C5829BED9AEC99E5829840B2
:10099F000CF582EE9BFEED9AFDEC99FC0FD5F0D68F
:1009AF00E4CEFBE4CDFAE4CCF9A88222B800C1B9B9
:1009BF000059BA002DEC8BF084CFCECDFCE5F0CBF7
:1009CF00F97818EF2FFFEE33FEED33FDEC33FCEB30
:1009DF0033FB10D703994004EB99FB0FD8E5E4F9EB
:1009EF00FA227818EF2FFFEE33FEED33FDEC33FCD8
:1009FF00C933C910D7059BE99A4007EC9BFCE99ACC
:100A0F00F90FD8E0E4C9FAE4CCFB2275F010EF2F10
:100A1F00FFEE33FEED33FDCC33CCC833C810D70710
:100A2F009BEC9AE899400AED9BFDEC9AFCE899F84B
:0E0A3F000FD5F0DAE4CDFBE4CCFAE4C8F922DE
:100A4D00EB9FF5F0EA9E42F0E99D42F0E89C45F0FF
:010A5D002276
:100A5E00E8600FECC313FCED13FDEE13FEEF13FF76
:030A6E00D8F1229A
:0C0A7100ECF0A3EDF0A3EEF0A3EFF022F8
:100A7D00A8828583F0D083D082120A94120A941230
:100A8D000A94120A94E473E493A3C583C5F0C58355
:100A9D00C8C582C8F0A3C583C5F0C583C8C582C8C3
:010AAD002226
:100AAE00D083D082F8E4937012740193700DA3A3D7
:100ABE0093F8740193F5828883E4737402936860EB
:060ACE00EFA3A3A380DFEB
:100AD400EC8EF0A4CCC5F0CCCDF8EFA4CEC5F02DAF
:100AE400FDE43CFCE8A42EC8C5F03DFDE43CFCEF6D
:0D0AF400A4FFE5F028FEE43DFDE43CFC22FB
:10232F009000A1E0FFA3E0FEA3E0CF9000AAF0A3EE
:10233F00EEF0A3EFF09000A4E0CBF0A3E0CAF0A37F
:10234F00E0C9F07F229000ADAD82AC831208238DDF
:10235F00828C83F0A309E970010ADFEC9000A4E0FE
:0A236F00FBA3E0FAA3E0F902052346
:1004BE00E50824AAF582E43400F583E005082290CD
:1004CE0000A73008039000AAE475F001120B010298
:1004DE0008232001E97F2ED2018018EF540F2490BB
:1004EE00D43440D4FF30050BEF24BFB41A005003B0
:1004FE002461FFE50960021509050CE50C70020583
:10050E000B30080E9000A7E475F001120B01EF02FC
:10051E0008690226497403D2088003E4C208F5086C
:10052E009000A7120B18E4F509F50BF50CE5096020
:10053E00077F2012050180F5750AFFC202C201C2B3
:10054E0003C204C206C207C2091204CDFF700D30E9
:10055E0008057F00120512AF0CAE0B22B4255FC248
:10056E00D5C2051204CDFF24D0B40A00501A75F07E
:10057E000A780930D50508B6FF0106C6A426F6206E
:10058E00D5047002D20480D924CFB41A00EF5004DF
:10059E00C2E5D205020713D20280C6D20180C0D2B4
:1005AE000380BCD2D580BAD20680B47F201205015A
:1005BE002003077401B5090040F11204BEFF1205B5
:1005CE000102053BD209D20780951204BEFB12042C
:1005DE00BEFA1204BEF94A4B700679E47A077BFF25
:1005EE0020032EE509602A7E008E82758300120894
:1005FE003C60060EEE650A70F0C2D5EBC0E0EAC0B4
:10060E00E0E9C0E0EE12075AD0E0F9D0E0FAD0E00F
:10061E00FB120823FF60AAEBC0E0EAC0E0E9C0E0ED
:10062E00120501D0E02401F9D0E03400FAD0E0FB4D
:10063E00E50A0460DCD50AD980877BFF7A077956F4
:10064E00D203809C791080027908C207C209800803
:10065E00D2D5790A8004790AC2D5E50A047002F56A
:10066E000AE4FAFDFEFF1204BEFC7B082002131200
:10067E0004BEFD7B1030010A1204BEFE1204BEFF42
:10068E007B20EC3382D592D55013C3E43001069F04
:10069E00FFE49EFEE42002039DFDE49CFCE4CBF807
:1006AE00C202EC700CCFCECDCCE824F8F870F380FB
:1006BE0017C3EF33FFEE33FEED33FDEC33FCEB33BC
:1006CE00FB994002FB0FD8E9EB300205F8D0E0C4ED
:1006DE0048B202C0E00AEC4D4E4F78207B0070C24B
:1006EE00EAB50A0040BCC0E012075CD0F0D0E020B2
:1006FE000204C4C0E0C4B202C0F01204EAD0F0D5C5
:10070E00F0EB02053B120AAE05D85306525805A966
:10071E004C05A54206564F065E44065E4905BE438D
:08072E00066455064846064822
:100736004506484708045005AD2D05B12E05D42BB6
:1007460005B52305D22007ED2A056D48000005CC26
:100756003F3F3F00790AA2D5200414300609B9109C
:10076600020404B9080104A2D5200702500104209E
:1007760003689203B509005034C0E07F20300419A5
:100786007F30A20372077206500F1207B3C203C26C
:1007960007C206C2097F30800F300603E9C0E012A7
:1007A6000501300603D0E0F9D0E0B509CC300617D4
:1007B6007F30B9100C1205017F583005077F78800D
:1007C60003B908031205013003057F2D0205017FD9
:1007D600202009F87F2B2007F322920380CF286E72
:1007E600756C6C2900D2021204BE3002F8C202787F
:1007F6000930D50108F602056D2D504349581204FB
:10080600BE2403B405004001E49007FF931204F2EE
:0D081600743A1204F2D2047509040206526D
:100B0100F8E0FBA3A3E0F925F0F0E582158270027D
:070B11001583E0FA38F02221
:090B1800EBF0A3EAF0A3E9F022DE
:10264900EFB40A07740D122654740A309811A89928
:10265900B8130CC2983098FDA899C298B811F630F1
:0726690099FDC299F59922C9
:00000001FF
