:03000000021515D1
:0C151500787FE4F6D8FD75812102155C9A
:101A600048656C6C6F2C4543424D2069732072753C
:101A70006E696E672061742025642074696D6573DA
:041A80002E0D0A001D
:10199400E4900000F0120920900000E004F07BFFC6
:1019A4007A1A7960E0FF900005E4F0A3EFF07F027B
:0C19B4001216857FE87E0312000380DC21
:071AD0004401980000000032
:10000300EF4E601A900190E0FCA3E0FDED1D70013E
:0E0013001C144C70F7EF1F70011E144E70E6A7
:0100210022BC
:081AB10090010EE0FEA3E0FF2E
:0A1AB900EF1FAC0670011E4C70F622
:011AC3002200
:101A3A00900190E0FCA3E0FD12089BE47B83FAF995
:101A4A00F812073090019412085E900194E0C313D3
:061A5A00FEA3E013FF22D1
:1019EA00900193E06599600AE599F0E4900192F01C
:1019FA008006900192E004F0900192E0C394E940DD
:091A0A0007000075C7600000220E
:0B173C00900110EBF0A3EAF0A3E9F02D
:1017470090017B7401F0A37401F0A37413F090016E
:1017570010E0F9A3E0FAA3E0900070C9F0A3EAF063
:10176700A3E9F090017BE0F9A3E0FAA3E09000730E
:10177700C9F0A3EAF0A3E9F07B017A01793B1218DB
:0C178700877B017A01793B7F0102195D2C
:1015A100EF14600D14602614603C14605424047020
:1015B1006F90FE027480F090FE02E030E0F990FE40
:1015C10000E054FCF090FE03E4F0A3F02290FE044E
:1015D1007480F090FE04E030E0F990FE00E04403F6
:1015E100F090FE03803490FE037480F090FE03E0DF
:1015F10030E0F990FE00E054FC4401F090FE0480DC
:101601001990FE0374C0F090FE03E030E0F990FE03
:1016110000E054FC4402F090FE04E4F090FE02F07D
:0116210022A6
:0C1AC400EF90FE01700304F022EFF0220E
:1009200043BA80AF9FE4FCFDFEC004A905AA06AB54
:100930000778FBE6FFD000C3EF9BFFEE9AFEED9930
:10094000FDEC98FCE47BF07AD2F9F8120730C3E4AE
:100950009FFF74369EFE746E9DFD74019CFC90009A
:100960000112085E900001E0FCA3E0FDA3E0FEA3FD
:10097000E0FFC00790FE01E0FBE4FAF9F8D00712AF
:1009800007BB90000112085E7FC07EF67D577C0099
:10099000900001E0F8A3E0F9A3E0FAA3E0FBC312A2
:1009A000084D500D90019812086A00546000020B27
:1009B0004F7FC07E267D827C00900001E0F8A3E09E
:1009C000F9A3E0FAA3E0FBC312084D500D90019883
:1009D00012086A005B8D80020B4F7F807EED7DAF39
:1009E0007C00900001E0F8A3E0F9A3E0FAA3E0FBAB
:1009F000C312084D500D90019812086A00A8C0005B
:100A0000020B4F7F807E2D7DE87C00900001E0F896
:100A1000A3E0F9A3E0FAA3E0FBC312084D500D9048
:100A2000019812086A00B71B00020B4F7F807E36C8
:100A30007D257C01900001E0F8A3E0F9A3E0FAA392
:100A4000E0FBC312084D500D90019812086A01197D
:100A50004000020B4F7F807E567D417C019000015B
:100A6000E0F8A3E0F9A3E0FAA3E0FBC312084D50BD
:100A70000D90019812086A01312D00020B4F7F0082
:100A80007EDB7D5F7C01900001E0F8A3E0F9A3E04C
:100A9000FAA3E0FBC312084D500D90019812086AAA
:100AA00001518000020B4F7F607E197D857C019093
:100AB0000001E0F8A3E0F9A3E0FAA3E0FBC3120809
:100AC0004D500D90019812086A016E3600020B4FCE
:100AD0007F207EE07DB27C01900001E0F8A3E0F988
:100AE000A3E0FAA3E0FBC312084D500C900198124A
:100AF000086A019BFCC080577FE07EA67DE07C01F8
:100B0000900001E0F8A3E0F9A3E0FAA3E0FBC31230
:100B1000084D500C90019812086A01C9C380802FBB
:100B20007F607E2B7DFF7C01900001E0F8A3E0F95F
:100B3000A3E0FAA3E0FBC312084D900198500912FC
:100B4000086A01FA4000800712086A02160EC0E423
:100B50007B107A27F9F8900198E0FCA3E0FDA3E070
:100B6000FEA3E0FF1207BB900190EEF0A3EFF0E4CC
:100B7000900193F0900192F0C20B12162200D2AFB6
:010B80000074
:010B81002251
:0B11EB0090009EEBF0A3EAF0A3E9F0F7
:1011F6007F647E00121A3A90010EEEF0A3EFF09093
:10120600010B7401F0A37400F0A374A1F090009E8A
:10121600E0F9A3E0FAA3E0900070C9F0A3EAF0A316
:10122600E9F090010BE0F9A3E0FAA3E0900073C99E
:10123600F0A3EAF0A3E9F07B017A0079CB121887D4
:101246009000C9EEF0A3EFF07FF47E01120003E4F4
:10125600FBFAD39000CAE09B9000C9E09A40E9D21D
:10126600B1C2B1121AB174CB2BF58274003AF58370
:10127600E0F9E4FDE930E004D2B18002C2B1E9C38D
:1012860013F9121AB10DEDB408EAD2B1121AB1125D
:091296001AB10BBB00010A80B97A
:0B13420090019CEBF0A3EAF0A3E9F09F
:10134D00E4FFFE9001A2F0A3F0A3F0A3F090019CA6
:10135D00E0FBA3E0FAA3E0F912068A60729001A502
:10136D00E004F070069001A4E004F090019FE0FB12
:10137D00A3E0FAA3E0F98F828E831206A3FD9001FC
:10138D009CE0FBA3E0FAA3E0F912068AB505070F6E
:10139D00BF00010E8012E4FEFF9001A4E0FDA3E06A
:1013AD009001A2CDF0A3EDF090019DE475F0011236
:1013BD00070490019FE0FBA3E0FAA3E0F98F828E72
:1013CD00831206A370879001A2E0FEA3E0FF227EA8
:0313DD00FF7FFF90
:0113E00022EA
:10113400E49001B0F09001B2F09001B1F09001B1EF
:10114400E0FFC3940A40030211E57E00ED2FF5820F
:10115400EE3CF5831206A3FFC3648094B0404BD3E6
:10116400EF648094B750439001B2E004F0E0B4011E
:10117400179001B1E02DF582EE3CF5831206A3240D
:10118400D0C454F09001B0F09001B2E0B4021B90CE
:1011940001B1E07E002DF582EE3CF5831206A32416
:1011A400D0FF9001B0E04FFFF0229001B1E07E004B
:1011B4002DF582EE3CF5831206A3FFC3648094B838
:1011C400400ED3EF648094B950069001B2E004F06D
:1011D400EF642C600CEF60099001B1E004F002119F
:0611E400419001B0E0FFA4
:0111EA0022E2
:081078009001A6ECF0A3EDF0DD
:10108000E4A3F0A3F0A3F09001AAE0FFC3941440FE
:101090000302112B9001A7E02FFF9001A6E034007E
:1010A0008F82F5831206A3FFC3648094B0404ED3B1
:1010B000EF648094B950469001A8E0FEA3E0FF7C65
:1010C000007D0A1206F29001A8EEF0A3EFF0A3E073
:1010D000FF9001A7E02FFF9001A6E034008F82F57A
:1010E000831206A3FF3395E0FEEF24D0FFEE34FF1A
:1010F000FE9001A9E02FF09001A8E03EF09001AA37
:10110000E0FF9001A7E02FFF9001A6E034008F825E
:10111000F5831206A3FF642C6011EF642E600CEFC0
:1011200060099001AAE004F00210879001A8E0FE97
:03113000A3E0FF3A
:011133002299
:100D240090017EEBF0A3EAF0A3E9F0A3ECF0A3EDCD
:010D3400F0CE
:100D3500E490018AF0A3F0A3F0A3F0A3F0A3F09050
:100D45000188F0A3F0900181E0FEA3E0FF90018807
:100D5500E0FCA3E0FDC39FEC9E4003020DF490016F
:100D650083E0FBA3E0FAA3E0F990018AE0FEA3E0AB
:100D7500F5828E831206A3FF90017EE0FBA3E0FAC5
:100D8500A3E0F98D828C831206A3B5073390018BFE
:100D9500E004F0700690018AE004F0900186E0FE20
:100DA500A3E0FF90018AE0B50631A3E0B5072C90DA
:100DB5000188E0FFA3E090018ECFF0A3EFF0802F34
:100DC500E490018AF0A3F0900189E02401FE9001EE
:100DD50088E0340090018CF0A3CEF0900189E00406
:100DE500F06003020D4A900188E004F0020D4A907C
:100DF500018EE0FEA3E0FF90018CE0FCA3E0FDD3B3
:100E05009FEC9E5044900188ECF0A3EDF090018E8C
:100E1500E0FEA3E0FF900188E0FCA3E0FDC39FECAA
:100E25009E502390017EE0FBA3E0FAA3E0F98D82BA
:100E35008C83E41206D0900189E004F070CF900114
:0B0E450088E004F080C77F01227F00DE
:010E5000227F
:100B82006770696F5F757070756C6C283C442530B6
:100B920032583E2C2564293BB2BBB4E6D4DAB8C342
:100BA200494F0D0A006770696F5F757070756C6CE4
:100BB200283C44253032583E2C31293BB2BBB4E6A6
:100BC200D4DAB8C3494F0D0A006770696F5F757058
:100BD20070756C6C283C44253032583E2C30293BD1
:100BE200B2BBB4E6D4DAB8C3494F0D0A00677069E4
:100BF2006F5F6D6F6465283C44253032583E2C256A
:100C020064293BB2BBB4E6D4DAB8C3494F0D0A003B
:100C12006770696F5F6D6F64652844253032582CA8
:100C22003C25643E293BB2BBB4E6D4DAB8C3C4A3C4
:100C3200CABD0D0A006770696F5F777269746528B3
:100C42003C25643E2C2564293BB2BBB4E6D4DAB819
:100C5200C350BFDA0D0A006770696F5F7265616425
:100C6200283C5025643E293BB2BBB4E6D4DAB8C373
:100C720050BFDA0D0A006770696F5F6F7574283CA8
:100C820044253032583E2C2564293BB2BBB4E6D40D
:100C9200DAB8C3494F0D0A006770696F5F6F7574E8
:100CA200283C44253032583E2C31293BB2BBB4E6B5
:100CB200D4DAB8C3494F0D0A006770696F5F6F7568
:100CC20074283C44253032583E2C30293BB2BBB408
:100CD200E6D4DAB8C3494F0D0A006770696F5F69DD
:100CE2006E283C44253032583E293BB2BBB4E6D490
:100CF200DAB8C3494F0D0A006770696F5F746F6796
:100D0200676C65283C44253032583E293BB2BBB45F
:100D1200E6D4DAB8C3494F0D0A00010204081020D4
:020D220040800F
:050E51009001B5EFF077
:100E560064887003020F659001B5E0FF54F0F50D4C
:100E6600EF540FFF900D1C93F50EEFD3940740211E
:100E76007BFF7A0B79829001B5E0FF9000A1E4F048
:100E8600A3EFF0A20CE4FF33A3CFF0A3EFF012110F
:100E9600EB300C63E50D24F0602124F0602224F091
:100EA600602324F0602424F0602524F0602624F0DA
:100EB60060272470702B90FE10802190FE11801CFC
:100EC60090FE12801790FE13801290FE14800D90F3
:100ED600FE15800890FE16800390FE17E0450EF082
:100EE600227BFF7A0B79A79001B5E0FF9000A1E481
:100EF600F0A3EFF00211EBE50D24F0602124F06081
:100F06002224F0602324F0602424F0602524F0607D
:100F16002624F060272470703090FE10802190FE09
:100F260011801C90FE12801790FE13801290FE1402
:100F3600800D90FE15800890FE16800390FE17E047
:100F4600FFE50EF4FEEF5EF0227BFF7A0B79CB9085
:0F0F560001B5E0FF9000A1E4F0A3EFF01211EB62
:010F65002269
:0A03AB009001B4EDF09001B3EFF003
:1003B500648870030206899001B3E0FF54F0F50DDF
:1003C500EF540FFF900D1C93F50EEFD394074023C8
:1003D5007BFF7A0B79EF9001B3E0FF9000A1E4F089
:1003E500A3EFF09001B4E0FF9000A3E4F0A3EFF0D9
:1003F5001211EBE50D24F0602124F0602224F06059
:100405002324F0602424F0602524F0602624F06085
:100415002724707028E4F50D8046750D018041751F
:100425000D02803C750D038037750D048032750D06
:1004350005802D750D068028750D0780237BFF7AB5
:100445000B79EF9001B3E0FF9000A1E4F0A3EFF08A
:100455009001B4E0FF9000A3E4F0A3EFF01211EBDC
:100465009001B4E0FFD39403401C7BFF7A0C791212
:100475009001B3E0FD9000A1E4F0A3EDF0A3E4F05A
:10048500A3EFF01211EBE50D703A9001B4E0FF70A7
:1004950007E50EF452935294EFB40109E50E429329
:1004A500E50EF452949001B4E0B40208E50E4293CF
:1004B500E50E42949001B4E0B40309E50EF45293BD
:1004C500E50E4294E50D6401703A9001B4E0FF70C9
:1004D50007E50EF452915292EFB40109E50E4291EF
:1004E500E50EF452929001B4E0B40208E50E429193
:1004F500E50E42929001B4E0B40309E50EF4529181
:10050500E50E4292E50D6402703A9001B4E0FF7089
:1005150007E50EF452955296EFB40109E50E4295A2
:10052500E50EF452969001B4E0B40208E50E42954A
:10053500E50E42969001B4E0B40309E50EF4529538
:10054500E50E4296E50D6403703A9001B4E0FF7044
:1005550007E50EF452B152B2EFB40109E50E42B10E
:10056500E50EF452B29001B4E0B40208E50E42B1D2
:10057500E50E42B29001B4E0B40309E50EF452B1C0
:10058500E50E42B2E50D6404703A9001B4E0FF70E7
:1005950007E50EF452B352B4EFB40109E50E42B3C8
:1005A500E50EF452B49001B4E0B40208E50E42B38E
:1005B500E50E42B49001B4E0B40309E50EF452B37C
:1005C500E50E42B4E50D6405703A9001B4E0FF70A4
:1005D50007E50EF452C952CAEFB40109E50E42C946
:1005E500E50EF452CA9001B4E0B40208E50E42C922
:1005F500E50E42CA9001B4E0B40309E50EF452C910
:10060500E50E42CAE50D6406703A9001B4E0FF704C
:1006150007E50EF452CB52CCEFB40109E50E42CBFF
:10062500E50EF452CC9001B4E0B40208E50E42CBDD
:10063500E50E42CC9001B4E0B40309E50EF452CBCB
:10064500E50E42CCE50D6407703A9001B4E0FF7009
:1006550007E50EF452E152E2EFB40109E50E42E17D
:10066500E50EF452E29001B4E0B40208E50E42E171
:10067500E50E42E29001B4E0B40309E50EF452E15F
:04068500E50E42E25A
:01068900224E
:1016E200EFB40900503A9016EFF828287302170A4F
:1016F20002170D021710021713021716021719020A
:10170200171C02171F02173B8D80228D90228DA07D
:10171200228DB0228DC0228DC8228DE8228DF82222
:101722007BFF7A0C79379000A1E4F0A3EFF0AF05CC
:0A173200A3E4F0A3EFF01211EB2284
:10179300EFB40900503D9017A0F82828730217BB37
:1017A3000217BE0217C10217C40217C70217CA02E3
:1017B30017CD0217D00217D3AF8022AF9022AFA06C
:1017C30022AFB022AFC022AFC822AFE822AFF822C7
:1017D3007FFF227BFF7A0C79599000A1E4F0A3EFFD
:0717E300F01211EB7FFF2261
:050F66009001B6EFF060
:100F6B00648870030210779001B6E0FF54F0F50D22
:100F7B00EF540FFF900D1C93F50EEFD39407402108
:100F8B007BFF7A0C79789001B6E0FF9000A1E4F03A
:100F9B00A3EFF0A20DE4FF33A3CFF0A3EFF01211F8
:100FAB00EB300D60E50D24F0602124F0602224F07D
:100FBB00602324F0602424F0602524F0602624F0C4
:100FCB00602724707028E50E428022E50E429022A5
:100FDB00E50E42A022E50E42B022E50E42C022E50C
:100FEB000E42C822E50E42E822E50E42F8227BFFB4
:100FFB007A0C799A9001B6E0FF9000A1E4F0A3EF90
:10100B00F00211EBE50D24F0602224F0602424F0B3
:10101B00602624F0602824F0602A24F0602C24F051
:10102B00602E24707030E50EF4528022E50EF452DF
:10103B009022E50EF452A022E50EF452B022E50EFA
:10104B00F452C022E50EF452C822E50EF452E82207
:10105B00E50EF452F8227BFF7A0C79BB9001B6E0D7
:0C106B00FF9000A1E4F0A3EFF01211EBE5
:011077002256
:05129F009001B7EFF023
:1012A400BF8802C3229001B7E0FF54F0F50DEF545C
:1012B4000FFF900D1C93F50EEFD3940740167BFFA0
:1012C4007A0C79DC9001B7E0FF9000A1E4F0A3EF81
:1012D400F01211EBE50D24F0602124F0602224F0DB
:1012E400602324F0602424F0602524F0602624F098
:1012F40060272470702885800F803985900F803492
:1013040085A00F802F85B00F802A85C00F8025858A
:10131400C80F802085E80F801B85F80F80167BFF9F
:101324007A0C79DC9001B7E0FF9000A1E4F0A3EF20
:0D133400F01211EBE50F550E6002D322C33D
:011341002289
:0513E1009001B8EFF0DF
:1013E6006488700302147C9001B8E0FF54F0F50D98
:1013F600EF540FFF900D1C93F50EEFD39407401694
:101406007BFF7A0C79FA9001B8E0FF9000A1E4F036
:10141600A3EFF01211EBE50D24F0602124F0602219
:1014260024F0602324F0602424F0602524F0602654
:1014360024F0602724707028E50E628022E50E6293
:101446009022E50E62A022E50E62B022E50E62C091
:1014560022E50E62C822E50E62E822E50E62F82257
:101466007BFF7A0C79FA9001B8E0FF9000A1E4F0D6
:06147600A3EFF01211EBE0
:01147C00224D
:10191800EFB40800503E901925F828287302193DA5
:1019280002194102194502194902194D02195102B9
:101938001955021959ED628022ED629022ED62A0DC
:1019480022ED62B022ED62C022ED62C822ED62E8AB
:0519580022ED62F822FF
:10147D00300E48EFB408004003021514901490F894
:10148D002828730214A80214AC0214B00214B4027A
:10149D0014B80214BC0214C00214C4ED428022ED33
:1014AD00429022ED42A022ED42B022ED42C022ED4B
:1014BD0042C822ED42E822ED42F822EFB408005076
:1014CD00469014D5F82828730214ED0214F2021474
:1014DD00F70214FC02150102150602150B02151078
:1014ED00EDF4528022EDF4529022EDF452A022ED53
:1014FD00F452B022EDF452C022EDF452C822EDF4B4
:08150D0052E822EDF452F8222D
:1017EA00EFB4090050449017F7F82828730218122A
:1017FA0002181602181A02181E02182202182602C5
:10180A00182A02182E021832AE80801EAE90801A54
:10181A00AEA08016AEB08012AEC0800EAEC8800AEE
:10182A00AEE88006AEF88002D322EE5D6002D322D3
:01183A00C3EA
:01183B00228A
:1016220075985053873F538EDE53A23FE47B04FAF2
:10163200F9F8900198E0FCA3E0FDA3E0FEA3E0FF2F
:101642001207BB7B007AC2790178001207BBC3E4A0
:101652009FFDE49EAF05438E4053890F8F8BF58D1E
:10166200C2ABC28FD28EC209D2AC759A1053BAFEE7
:10167200438E048FD7F5D653AFFB438E10C20A4375
:02168200AF01B6
:011684002243
:101A9B00EF24FE600A04700D53A23FED42A22253C5
:061AAB00BAFEED42BA2272
:05183C009001ABEFF08C
:10184100E47B04FAF9F8900198E0FCA3E0FDA3E041
:10185100FEA3E0FF1207BB9001ACE0F8A3E0F9A3FF
:10186100E0FAA3E0FB1207BBC3E49FFFE49EFE90F6
:1018710001ABE024FE600904700B8F8BEEF58D2225
:051881008FD7EEF5D643
:01188600223F
:10002600EF24FE600C0470128D99D20930090B8002
:0B003600FBAF058F9BD20A200AFD22C1
:1019C000EF24FE6010047021A20F929B8D99D20922
:1019D00030091680FB300F05439A088003539AF7AD
:0A19E000AF058F9BD20A200AFD22FA
:10195D00900070EBF0A3EAF0A3E9F0AE07900070F1
:10196D00E0FBA3E0FAA3E0F912068A6019AF069036
:10197D000070A3E475F00112071AA9F0FA12068A95
:07198D00FD12002680D722A5
:0E168500900001EFF0A3EBF0A3EAF0A3E9F070
:1016930090006D7401F0A37400F0A37405F0900042
:1016A30002E0F9A3E0FAA3E0900070C9F0A3EAF026
:1016B300A3E9F090006DE0F9A3E0FAA3E0900073D2
:1016C300C9F0A3EAF0A3E9F07B017A00792D12189F
:0F16D30087900001E0FF7B017A00792D02195DFD
:030023000218D1EF
:1018D100C0E0C0F0C083C082C0D075D000C000C0DD
:1018E10001C002C003C004C005C006C0073098058E
:1018F100C2981219EA309904C299C209D007D006D8
:10190100D005D004D003D002D001D000D0D0D082F5
:07191100D083D0F0D0E032DA
:03004300021A841A
:101A8400C0E0E59A30E003539AFEE59A30E105534D
:071A94009AFDC20AD0E03206
:10152100021994E493A3F8E493A34003F68001F233
:1015310008DFF48029E493A3F85407240CC8C333CB
:10154100C4540F4420C8834004F456800146F6DF9A
:10155100E4800B0102040810204080901AD0E47E40
:10156100019360BCA3FF543F30E509541FFEE4938F
:10157100A360010ECF54C025E060A840B8E493A356
:10158100FAE493A3F8E493A3C8C582C8CAC583CA81
:10159100F0A3C8C582C8CAC583CADFE9DEE780BE39
:011AD700000E
:10068A00BB010689828A83E0225002E722BBFE026E
:09069A00E32289828A83E49322A1
:1006A300BB010CE58229F582E5833AF583E022500C
:1006B30006E92582F8E622BBFE06E92582F8E22256
:0D06C300E58229F582E5833AF583E4932270
:1006D000F8BB010DE58229F582E5833AF583E8F060
:1006E000225006E92582C8F622BBFE05E92582C80C
:0206F000F222F4
:1006F200EF8DF0A4A8F0CF8CF0A428CE8DF0A42E1C
:02070200FE22D5
:10070400C5F0F8A3E028F0C5F0F8E5821582700280
:060714001583E038F0221D
:10071A00A3F8E0C5F025F0F0E58215827002158392
:06072A00E0C838F0E822EF
:10073000E88FF0A4CC8BF0A42CFCE98EF0A42CFC68
:100740008AF0EDA42CFCEA8EF0A4CDA8F08BF0A4E6
:100750002DCC3825F0FDE98FF0A42CCD35F0FCEB45
:100760008EF0A4FEA9F0EB8FF0A4CFC5F02ECD390A
:0F077000FEE43CFCEAA42DCE35F0FDE43CFC2277
:10077F0075F008758200EF2FFFEE33FECD33CDCC31
:10078F0033CCC58233C5829BED9AEC99E5829840B4
:10079F000CF582EE9BFEED9AFDEC99FC0FD5F0D691
:1007AF00E4CEFBE4CDFAE4CCF9A88222B800C1B9BB
:1007BF000059BA002DEC8BF084CFCECDFCE5F0CBF9
:1007CF00F97818EF2FFFEE33FEED33FDEC33FCEB32
:1007DF0033FB10D703994004EB99FB0FD8E5E4F9ED
:1007EF00FA227818EF2FFFEE33FEED33FDEC33FCDA
:1007FF00C933C910D7059BE99A4007EC9BFCE99ACE
:10080F00F90FD8E0E4C9FAE4CCFB2275F010EF2F12
:10081F00FFEE33FEED33FDCC33CCC833C810D70712
:10082F009BEC9AE899400AED9BFDEC9AFCE899F84D
:0E083F000FD5F0DAE4CDFBE4CCFAE4C8F922E0
:10084D00EB9FF5F0EA9E42F0E99D42F0E89C45F001
:01085D002278
:0C085E00ECF0A3EDF0A3EEF0A3EFF0220D
:10086A00A8828583F0D083D082120881120881126F
:10087A000881120881E473E493A3C583C5F0C58394
:10088A00C8C582C8F0A3C583C5F0C583C8C582C8D8
:01089A00223B
:10089B00EC8EF0A4CCC5F0CCCDF8EFA4CEC5F02DEA
:1008AB00FDE43CFCE8A42EC8C5F03DFDE43CFCEFA8
:0D08BB00A4FFE5F028FEE43DFDE43CFC2236
:10188700900070E0FFA3E0FEA3E0CF900079F0A303
:10189700EEF0A3EFF0900073E0CBF0A3E0CAF0A363
:1018A700E0C9F07F2290007CAD82AC8312068A8D5E
:1018B700828C83F0A309E970010ADFEC900073E0E2
:0A18C700FBA3E0FAA3E0F90200AB76
:10004600E5082479F582E43400F583E0050822907A
:100056000076300703900079E475F0011208DA02A1
:10006600068A2000E97F2ED2008018EF540F2490D4
:10007600D43440D4FF30040BEF24BFB41A0050032D
:100086002461FFE50960021509050CE50C700205FF
:100096000B30070E900076E475F0011208DAEF02D5
:1000A60008C8021A137403D2078003E4C207F508CE
:1000B6009000761208F1E4F509F50BF50CE50960F8
:1000C600077F2012008980F5750AFFC201C200C2AF
:1000D60002C203C205C206C208120055FF700D30E7
:1000E60007057F0012009AAF0CAE0B22B4255FC243
:1000F600D5C204120055FF24D0B40A00501A75F078
:100106000A780930D50508B6FF0106C6A426F620EA
:10011600D5047002D20380D924CFB41A00EF50045C
:10012600C2E5D20402029BD20180C6D20080C0D2B0
:100136000280BCD2D580BAD20580B47F2012008955
:100146002002077401B5090040F1120046FF1200B3
:10015600890200C3D208D2068095120046FB12001F
:1001660046FA120046F94A4B7006796C7A037BFF11
:1001760020022EE509602A7E008E82758300120613
:10018600A360060EEE650A70F0C2D5EBC0E0EAC0C9
:10019600E0E9C0E0EE1202E2D0E0F9D0E0FAD0E009
:1001A600FB12068AFF60AAEBC0E0EAC0E0E9C0E005
:1001B600120089D0E02401F9D0E03400FAD0E0FB47
:1001C600E50A0460DCD50AD980877BFF7A0279DEEE
:1001D600D202809C791080027908C206C208800883
:1001E600D2D5790A8004790AC2D5E50A047002F5E7
:1001F6000AE4FAFDFEFF120046FC7B0820011312FA
:100206000046FD7B1030000A120046FE120046FF33
:100216007B20EC3382D592D55013C3E43000069F81
:10022600FFE49EFEE42001039DFDE49CFCE4CBF884
:10023600C201EC700CCFCECDCCE824F8F870F38078
:1002460017C3EF33FFEE33FEED33FDEC33FCEB3338
:10025600FB994002FB0FD8E9EB300105F8D0E0C46A
:1002660048B201C0E00AEC4D4E4F78207B0070C2C8
:10027600EAB50A0040BCC0E01202E4D0F0D0E020AB
:100286000104C4C0E0C4B201C0F0120072D0F0D5BF
:10029600F0EB0200C31208FA01605301DA5801318B
:1002A6004C012D4201DE4F01E64401E64901464379
:0802B60001EC5501D04601D016
:1002BE004501D047038C5001352D01392E015C2BA1
:1002CE00013D23015A2003752A00F5480000015410
:1002DE003F3F3F00790AA2D5200314300509B9101B
:1002EE00020404B9080104A2D5200602500104201C
:1002FE0002689202B509005034C0E07F2030031925
:10030E007F30A20272067205500F12033BC202C268
:10031E0006C205C2087F30800F300503E9C0E01227
:10032E000089300503D0E0F9D0E0B509CC300517CF
:10033E007F30B9100C1200897F583004077F788007
:10034E0003B908031200893002057F2D0200897F50
:10035E00202008F87F2B2006F322920280CF286EF1
:10036E00756C6C2900D2011200463001F8C201787A
:10037E000930D50108F60200F52D504349581200F8
:10038E00462403B405004001E49003879312007ADB
:0D039E00743A12007AD2037509040201DAE4
:1008C800BB010689828A83F0225002F722BBFE010F
:0208D800F32209
:1008DA00F8E0FBA3A3E0F925F0F0E58215827002A7
:0708EA001583E0FA38F0224B
:0908F100EBF0A3EAF0A3E9F02208
:1008FA00D083D082F8E4937012740193700DA3A38D
:10090A0093F8740193F5828883E4737402936860A0
:06091A00EFA3A3A380DFA0
:101A1300EFB40A07740D121A1E740A309811A899AC
:101A2300B8130CC2983098FDA899C298B811F63033
:071A330099FDC299F599220B
:00000001FF
